{
  "_format": "hh-sol-artifact-1",
  "contractName": "DecimalChecks",
  "sourceName": "contracts/DecimalChecks.sol",
  "abi": [
    {
      "inputs": [
        {
          "internalType": "address",
          "name": "target",
          "type": "address"
        }
      ],
      "name": "AddressEmptyCode",
      "type": "error"
    },
    {
      "inputs": [
        {
          "internalType": "address",
          "name": "account",
          "type": "address"
        }
      ],
      "name": "AddressInsufficientBalance",
      "type": "error"
    },
    {
      "inputs": [
        {
          "internalType": "address",
          "name": "implementation",
          "type": "address"
        }
      ],
      "name": "ERC1967InvalidImplementation",
      "type": "error"
    },
    {
      "inputs": [],
      "name": "ERC1967NonPayable",
      "type": "error"
    },
    {
      "inputs": [],
      "name": "ExpiredDueBlock",
      "type": "error"
    },
    {
      "inputs": [],
      "name": "FailedInnerCall",
      "type": "error"
    },
    {
      "inputs": [],
      "name": "FailedToSend",
      "type": "error"
    },
    {
      "inputs": [],
      "name": "InvalidAmount",
      "type": "error"
    },
    {
      "inputs": [],
      "name": "InvalidCheckHash",
      "type": "error"
    },
    {
      "inputs": [],
      "name": "InvalidDueBlock",
      "type": "error"
    },
    {
      "inputs": [],
      "name": "InvalidInitialization",
      "type": "error"
    },
    {
      "inputs": [],
      "name": "InvalidNonce",
      "type": "error"
    },
    {
      "inputs": [],
      "name": "InvalidPassword",
      "type": "error"
    },
    {
      "inputs": [
        {
          "internalType": "enum IDecimalChecks.Status",
          "name": "",
          "type": "uint8"
        }
      ],
      "name": "InvalidStatus",
      "type": "error"
    },
    {
      "inputs": [],
      "name": "NotInitializing",
      "type": "error"
    },
    {
      "inputs": [
        {
          "internalType": "address",
          "name": "owner",
          "type": "address"
        }
      ],
      "name": "OwnableInvalidOwner",
      "type": "error"
    },
    {
      "inputs": [
        {
          "internalType": "address",
          "name": "account",
          "type": "address"
        }
      ],
      "name": "OwnableUnauthorizedAccount",
      "type": "error"
    },
    {
      "inputs": [
        {
          "internalType": "address",
          "name": "token",
          "type": "address"
        }
      ],
      "name": "SafeERC20FailedOperation",
      "type": "error"
    },
    {
      "anonymous": false,
      "inputs": [
        {
          "indexed": true,
          "internalType": "address",
          "name": "oldContract",
          "type": "address"
        },
        {
          "indexed": true,
          "internalType": "address",
          "name": "newContract",
          "type": "address"
        }
      ],
      "name": "ContractUpgraded",
      "type": "event"
    },
    {
      "anonymous": false,
      "inputs": [
        {
          "indexed": false,
          "internalType": "bytes32",
          "name": "checkHash",
          "type": "bytes32"
        },
        {
          "components": [
            {
              "internalType": "bytes32",
              "name": "checkDetails",
              "type": "bytes32"
            },
            {
              "internalType": "bytes32",
              "name": "passwordHash",
              "type": "bytes32"
            },
            {
              "internalType": "enum IDecimalChecks.Status",
              "name": "status",
              "type": "uint8"
            }
          ],
          "indexed": false,
          "internalType": "struct IDecimalChecks.Check",
          "name": "check",
          "type": "tuple"
        }
      ],
      "name": "CreatedCheck",
      "type": "event"
    },
    {
      "anonymous": false,
      "inputs": [
        {
          "indexed": false,
          "internalType": "bytes32",
          "name": "checkDetailsHash",
          "type": "bytes32"
        },
        {
          "components": [
            {
              "internalType": "enum IDecimalChecks.TypesChecks",
              "name": "typeChecks",
              "type": "uint8"
            },
            {
              "internalType": "uint256",
              "name": "amount",
              "type": "uint256"
            },
            {
              "internalType": "uint256",
              "name": "dueBlock",
              "type": "uint256"
            },
            {
              "internalType": "address",
              "name": "token",
              "type": "address"
            },
            {
              "internalType": "address",
              "name": "creator",
              "type": "address"
            }
          ],
          "indexed": false,
          "internalType": "struct IDecimalChecks.CheckDetails",
          "name": "checkDetails",
          "type": "tuple"
        }
      ],
      "name": "CreatedCheckDetails",
      "type": "event"
    },
    {
      "anonymous": false,
      "inputs": [
        {
          "indexed": false,
          "internalType": "uint64",
          "name": "version",
          "type": "uint64"
        }
      ],
      "name": "Initialized",
      "type": "event"
    },
    {
      "anonymous": false,
      "inputs": [
        {
          "indexed": true,
          "internalType": "address",
          "name": "previousOwner",
          "type": "address"
        },
        {
          "indexed": true,
          "internalType": "address",
          "name": "newOwner",
          "type": "address"
        }
      ],
      "name": "OwnershipTransferred",
      "type": "event"
    },
    {
      "anonymous": false,
      "inputs": [
        {
          "indexed": false,
          "internalType": "bytes32",
          "name": "checkHash",
          "type": "bytes32"
        },
        {
          "indexed": false,
          "internalType": "enum IDecimalChecks.Status",
          "name": "status",
          "type": "uint8"
        }
      ],
      "name": "RedeemCheck",
      "type": "event"
    },
    {
      "anonymous": false,
      "inputs": [
        {
          "indexed": true,
          "internalType": "address",
          "name": "implementation",
          "type": "address"
        }
      ],
      "name": "Upgraded",
      "type": "event"
    },
    {
      "inputs": [
        {
          "internalType": "bytes32[]",
          "name": "passwordHashes",
          "type": "bytes32[]"
        },
        {
          "internalType": "uint256",
          "name": "amount",
          "type": "uint256"
        },
        {
          "internalType": "uint256",
          "name": "dueBlock",
          "type": "uint256"
        },
        {
          "internalType": "uint256",
          "name": "nonce",
          "type": "uint256"
        }
      ],
      "name": "createChecksDEL",
      "outputs": [
        {
          "internalType": "bytes32[]",
          "name": "checks",
          "type": "bytes32[]"
        }
      ],
      "stateMutability": "payable",
      "type": "function"
    },
    {
      "inputs": [
        {
          "internalType": "bytes32[]",
          "name": "passwordHashes",
          "type": "bytes32[]"
        },
        {
          "internalType": "uint256",
          "name": "amount",
          "type": "uint256"
        },
        {
          "internalType": "uint256",
          "name": "dueBlock",
          "type": "uint256"
        },
        {
          "internalType": "uint256",
          "name": "nonce",
          "type": "uint256"
        },
        {
          "internalType": "address",
          "name": "token",
          "type": "address"
        }
      ],
      "name": "createChecksToken",
      "outputs": [
        {
          "internalType": "bytes32[]",
          "name": "checks",
          "type": "bytes32[]"
        }
      ],
      "stateMutability": "nonpayable",
      "type": "function"
    },
    {
      "inputs": [
        {
          "internalType": "bytes32[]",
          "name": "passwordHashes",
          "type": "bytes32[]"
        },
        {
          "internalType": "uint256",
          "name": "amount",
          "type": "uint256"
        },
        {
          "internalType": "uint256",
          "name": "dueBlock",
          "type": "uint256"
        },
        {
          "internalType": "uint256",
          "name": "nonce",
          "type": "uint256"
        },
        {
          "internalType": "address",
          "name": "token",
          "type": "address"
        },
        {
          "internalType": "uint256",
          "name": "deadline",
          "type": "uint256"
        },
        {
          "internalType": "uint8",
          "name": "v",
          "type": "uint8"
        },
        {
          "internalType": "bytes32",
          "name": "r",
          "type": "bytes32"
        },
        {
          "internalType": "bytes32",
          "name": "s",
          "type": "bytes32"
        }
      ],
      "name": "createChecksTokenByPermit",
      "outputs": [
        {
          "internalType": "bytes32[]",
          "name": "checks",
          "type": "bytes32[]"
        }
      ],
      "stateMutability": "nonpayable",
      "type": "function"
    },
    {
      "inputs": [],
      "name": "getImpl",
      "outputs": [
        {
          "internalType": "address",
          "name": "",
          "type": "address"
        }
      ],
      "stateMutability": "view",
      "type": "function"
    },
    {
      "inputs": [],
      "name": "nonces",
      "outputs": [
        {
          "internalType": "uint256",
          "name": "",
          "type": "uint256"
        }
      ],
      "stateMutability": "view",
      "type": "function"
    },
    {
      "inputs": [],
      "name": "owner",
      "outputs": [
        {
          "internalType": "address",
          "name": "",
          "type": "address"
        }
      ],
      "stateMutability": "view",
      "type": "function"
    },
    {
      "inputs": [
        {
          "internalType": "string[]",
          "name": "passwords",
          "type": "string[]"
        },
        {
          "internalType": "bytes32[]",
          "name": "checkHashes",
          "type": "bytes32[]"
        }
      ],
      "name": "redeemChecks",
      "outputs": [],
      "stateMutability": "nonpayable",
      "type": "function"
    },
    {
      "inputs": [],
      "name": "renounceOwnership",
      "outputs": [],
      "stateMutability": "nonpayable",
      "type": "function"
    },
    {
      "inputs": [
        {
          "internalType": "address",
          "name": "newOwner",
          "type": "address"
        }
      ],
      "name": "transferOwnership",
      "outputs": [],
      "stateMutability": "nonpayable",
      "type": "function"
    },
    {
      "inputs": [
        {
          "internalType": "address",
          "name": "newImpl",
          "type": "address"
        },
        {
          "internalType": "bytes",
          "name": "data",
          "type": "bytes"
        }
      ],
      "name": "upgrade",
      "outputs": [],
      "stateMutability": "nonpayable",
      "type": "function"
    }
  ],
  "bytecode": "0x608060405234801561001057600080fd5b506116b1806100206000396000f3fe6080604052600436106100915760003560e01c8063c987336c11610059578063c987336c14610188578063d42501c5146101a8578063dfb80831146101c8578063f2fde38b146101dd578063f485f18f146101fd57600080fd5b8063715018a6146100965780638da5cb5b146100ad5780639375752614610103578063a9ceb3b31461013b578063bb0903111461015b575b600080fd5b3480156100a257600080fd5b506100ab610210565b005b3480156100b957600080fd5b507f9016d09d72d40fdae2fd8ceac6b6234c7706214fd39c1cd1e609a0528c199300546001600160a01b03165b6040516001600160a01b0390911681526020015b60405180910390f35b34801561010f57600080fd5b5033600090815260008051602061165c83398151915260205260409020546040519081526020016100fa565b34801561014757600080fd5b506100ab6101563660046110d9565b610224565b34801561016757600080fd5b5061017b610176366004611161565b6102ce565b6040516100fa91906111d0565b34801561019457600080fd5b506100ab6101a336600461122a565b61030c565b3480156101b457600080fd5b5061017b6101c33660046112ec565b610398565b3480156101d457600080fd5b506100e6610457565b3480156101e957600080fd5b506100ab6101f8366004611395565b61048f565b61017b61020b3660046113b0565b6104d2565b610218610517565b6102226000610572565b565b82811461023057600080fd5b60005b818110156102c7576102b58383838181106102505761025061140a565b905060200201358686848181106102695761026961140a565b905060200281019061027b9190611420565b8080601f0160208091040260200160405190810160405280939291908181526020018383808284376000920191909152506105e392505050565b6102c060018261147d565b9050610233565b5050505050565b60606102f133306102df8989611490565b6001600160a01b03861692919061093d565b61030187878787876001886109aa565b979650505050505050565b610314610517565b60006103477f360894a13ba1a3210667c828492db98dca3e2076cc3735a920a3ca505d382bbc546001600160a01b031690565b90506103538383610c20565b826001600160a01b0316816001600160a01b03167f2e4cc16c100f0b55e2df82ab0b1a7e294aa9cbd01b48fbaf622683fbc0507a4960405160405180910390a3505050565b60606001600160a01b03861663d505accf33306103b58e8e611490565b6040516001600160e01b031960e086901b1681526001600160a01b03938416600482015292909116602483015260448201526064810188905260ff8716608482015260a4810186905260c4810185905260e401600060405180830381600087803b15801561042257600080fd5b505af1158015610436573d6000803e3d6000fd5b505050506104488b8b8b8b8b8b6102ce565b9b9a5050505050505050505050565b600061048a7f360894a13ba1a3210667c828492db98dca3e2076cc3735a920a3ca505d382bbc546001600160a01b031690565b905090565b610497610517565b6001600160a01b0381166104c657604051631e4fbdf760e01b8152600060048201526024015b60405180910390fd5b6104cf81610572565b50565b6060346104df8686611490565b146104fd5760405163162908e360e11b815260040160405180910390fd5b61050d86868686866000806109aa565b9695505050505050565b336105497f9016d09d72d40fdae2fd8ceac6b6234c7706214fd39c1cd1e609a0528c199300546001600160a01b031690565b6001600160a01b0316146102225760405163118cdaa760e01b81523360048201526024016104bd565b7f9016d09d72d40fdae2fd8ceac6b6234c7706214fd39c1cd1e609a0528c19930080546001600160a01b031981166001600160a01b03848116918217845560405192169182907f8be0079c531659141344cd1fd0a4f28419497f9722a3daafe3b4186f6b6457e090600090a3505050565b60008281527f6135605bbaca49c9a4eeea9432a78c88af8cb013228ed2e2e5c5c2143292b2016020908152604080832081516060810183528154815260018201549381019390935260028082015460008051602061165c83398151915295949384019160ff9091169081111561065b5761065b6114a7565b600281111561066c5761066c6114a7565b90525080516000908152600284016020526040808220815160a0810190925280549394509192909190829060ff1660018111156106ab576106ab6114a7565b60018111156106bc576106bc6114a7565b815260018201546020808301919091526002830154604083015260038301546001600160a01b03908116606084015260049093015490921660809091015283015190915061071d57604051630a9ef8f360e31b815260040160405180910390fd5b600082604001516002811115610735576107356114a7565b14610759578160400151604051633ba7bf8960e11b81526004016104bd91906114d1565b8360405160200161076a9190611503565b604051602081830303815290604052805190602001208260200151146107a3576040516303e4e47560e21b815260040160405180910390fd5b4381604001511080156107c3575060808101516001600160a01b03163314155b156107e157604051630c251e1760e01b815260040160405180910390fd5b6000815160018111156107f6576107f66114a7565b0361086d57602081015160405160009133918381818185875af1925050503d8060008114610840576040519150601f19603f3d011682016040523d82523d6000602084013e610845565b606091505b50509050806108675760405163467d86d160e01b815260040160405180910390fd5b50610893565b61089333826020015183606001516001600160a01b0316610c7f9092919063ffffffff16565b43816040015110156108c457600085815260018401602052604090206002908101805460ff191690911790556108e5565b600085815260018481016020526040909120600201805460ff191690911790555b6000858152600184016020526040908190206002015490517f9b1aeb8ad11c0f8d96a5e926e0b459a25ff0a1a3c07a34951675ab9f1ed9bf589161092e91889160ff169061151f565b60405180910390a15050505050565b6040516001600160a01b0384811660248301528381166044830152606482018390526109a49186918216906323b872dd906084015b604051602081830303815290604052915060e01b6020820180516001600160e01b038381831617835250505050610cb0565b50505050565b33600090815260008051602061165c83398151915260208190526040909120546060919085146109ed57604051633ab3447f60e11b815260040160405180910390fd5b854310610a0d57604051637170381760e01b815260040160405180910390fd5b8767ffffffffffffffff811115610a2657610a26611214565b604051908082528060200260200182016040528015610a4f578160200160208202803683370190505b50915060006040518060a00160405280866001811115610a7157610a716114a7565b815260208082018b905260408083018b90526001600160a01b0388166060840152336080909301839052600083815286835281812054915194955093610ac0938a938e938e938c939201611533565b60408051601f1981840301815291815281516020928301206000818152600287019093529120835181549293508492829060ff191660018381811115610b0857610b086114a7565b0217905550602082015160018201556040820151600282015560608201516003820180546001600160a01b03199081166001600160a01b039384161790915560809093015160049092018054909316911617905560005b8a811015610bb857610b89828d8d84818110610b7d57610b7d61140a565b90506020020135610d13565b858281518110610b9b57610b9b61140a565b6020908102919091010152610bb160018261147d565b9050610b5f565b50336000908152602084905260408120805491610bd48361158c565b91905055507f6d945f21ec4387fbc0576ee720ec13abadbefe648d2eaa5d387b64ffe1e3200d8183604051610c0a9291906115a5565b60405180910390a1505050979650505050505050565b610c2982610e54565b6040516001600160a01b038316907fbc7cd75a20ee27fd9adebab32041f755214dbc6bffa90cc0225b39da2e5c2d3b90600090a2805115610c7357610c6e8282610ecb565b505050565b610c7b610f41565b5050565b6040516001600160a01b03838116602483015260448201839052610c6e91859182169063a9059cbb90606401610972565b6000610cc56001600160a01b03841683610f60565b90508051600014158015610cea575080806020019051810190610ce89190611603565b155b15610c6e57604051635274afe760e01b81526001600160a01b03841660048201526024016104bd565b6040805160208082018590528183018490528251808303840181526060909201835281519181019190912060008181527f6135605bbaca49c9a4eeea9432a78c88af8cb013228ed2e2e5c5c2143292b20190925291812060010154909160008051602061165c8339815191529115610d9e576040516303e4e47560e21b815260040160405180910390fd5b60408051606081018252868152602080820187815260008385018181528682526001888101909452949020835181559051818301559251600280850180549495949293909260ff1916918490811115610df957610df96114a7565b0217905550505060008181526001830160205260409081902090517f946a2a4b084ea92624c07f42dd63fa2f2af4f1af6fdcd16c8703273dd248679d91610e4291849190611625565b60405180910390a19150505b92915050565b806001600160a01b03163b600003610e8a57604051634c9c8ce360e01b81526001600160a01b03821660048201526024016104bd565b7f360894a13ba1a3210667c828492db98dca3e2076cc3735a920a3ca505d382bbc80546001600160a01b0319166001600160a01b0392909216919091179055565b6060600080846001600160a01b031684604051610ee89190611503565b600060405180830381855af49150503d8060008114610f23576040519150601f19603f3d011682016040523d82523d6000602084013e610f28565b606091505b5091509150610f38858383610f75565b95945050505050565b34156102225760405163b398979f60e01b815260040160405180910390fd5b6060610f6e83836000610fd1565b9392505050565b606082610f8a57610f8582611064565b610f6e565b8151158015610fa157506001600160a01b0384163b155b15610fca57604051639996b31560e01b81526001600160a01b03851660048201526024016104bd565b5092915050565b606081471015610ff65760405163cd78605960e01b81523060048201526024016104bd565b600080856001600160a01b031684866040516110129190611503565b60006040518083038185875af1925050503d806000811461104f576040519150601f19603f3d011682016040523d82523d6000602084013e611054565b606091505b509150915061050d868383610f75565b8051156110745780518082602001fd5b604051630a12f52160e11b815260040160405180910390fd5b60008083601f84011261109f57600080fd5b50813567ffffffffffffffff8111156110b757600080fd5b6020830191508360208260051b85010111156110d257600080fd5b9250929050565b600080600080604085870312156110ef57600080fd5b843567ffffffffffffffff8082111561110757600080fd5b6111138883890161108d565b9096509450602087013591508082111561112c57600080fd5b506111398782880161108d565b95989497509550505050565b80356001600160a01b038116811461115c57600080fd5b919050565b60008060008060008060a0878903121561117a57600080fd5b863567ffffffffffffffff81111561119157600080fd5b61119d89828a0161108d565b9097509550506020870135935060408701359250606087013591506111c460808801611145565b90509295509295509295565b6020808252825182820181905260009190848201906040850190845b81811015611208578351835292840192918401916001016111ec565b50909695505050505050565b634e487b7160e01b600052604160045260246000fd5b6000806040838503121561123d57600080fd5b61124683611145565b9150602083013567ffffffffffffffff8082111561126357600080fd5b818501915085601f83011261127757600080fd5b81358181111561128957611289611214565b604051601f8201601f19908116603f011681019083821181831017156112b1576112b1611214565b816040528281528860208487010111156112ca57600080fd5b8260208601602083013760006020848301015280955050505050509250929050565b6000806000806000806000806000806101208b8d03121561130c57600080fd5b8a3567ffffffffffffffff81111561132357600080fd5b61132f8d828e0161108d565b909b5099505060208b0135975060408b0135965060608b0135955061135660808c01611145565b945060a08b0135935060c08b013560ff8116811461137357600080fd5b8093505060e08b013591506101008b013590509295989b9194979a5092959850565b6000602082840312156113a757600080fd5b610f6e82611145565b6000806000806000608086880312156113c857600080fd5b853567ffffffffffffffff8111156113df57600080fd5b6113eb8882890161108d565b9099909850602088013597604081013597506060013595509350505050565b634e487b7160e01b600052603260045260246000fd5b6000808335601e1984360301811261143757600080fd5b83018035915067ffffffffffffffff82111561145257600080fd5b6020019150368190038213156110d257600080fd5b634e487b7160e01b600052601160045260246000fd5b80820180821115610e4e57610e4e611467565b8082028115828204841417610e4e57610e4e611467565b634e487b7160e01b600052602160045260246000fd5b600381106114cd576114cd6114a7565b9052565b60208101610e4e82846114bd565b60005b838110156114fa5781810151838201526020016114e2565b50506000910152565b600082516115158184602087016114df565b9190910192915050565b82815260408101610f6e60208301846114bd565b600060028810611545576115456114a7565b5060f89690961b8652600186019490945260218501929092526bffffffffffffffffffffffff19606091821b8116604186015291901b166055830152606982015260890190565b60006001820161159e5761159e611467565b5060010190565b828152815160c0820190600281106115bf576115bf6114a7565b806020840152506020830151604083015260408301516060830152606083015160018060a01b0380821660808501528060808601511660a085015250509392505050565b60006020828403121561161557600080fd5b81518015158114610f6e57600080fd5b82815281546020820152600182015460408201526002820154608082019060ff1661165360608401826114bd565b50939250505056fe6135605bbaca49c9a4eeea9432a78c88af8cb013228ed2e2e5c5c2143292b200a2646970667358221220f7dd9eccb565cd37a56479e74e15c9c79422ea37b1108ffd091ff2a14e9c331164736f6c63430008140033",
  "linkReferences": {},
  "deployedLinkReferences": {}
}