{
  "_format": "hh-sol-artifact-1",
  "contractName": "DecimalToken",
  "sourceName": "contracts/DecimalToken.sol",
  "abi": [
    {
      "inputs": [],
      "stateMutability": "nonpayable",
      "type": "constructor"
    },
    {
      "inputs": [],
      "name": "AccessControlBadConfirmation",
      "type": "error"
    },
    {
      "inputs": [
        {
          "internalType": "address",
          "name": "account",
          "type": "address"
        },
        {
          "internalType": "bytes32",
          "name": "neededRole",
          "type": "bytes32"
        }
      ],
      "name": "AccessControlUnauthorizedAccount",
      "type": "error"
    },
    {
      "inputs": [],
      "name": "ECDSAInvalidSignature",
      "type": "error"
    },
    {
      "inputs": [
        {
          "internalType": "uint256",
          "name": "length",
          "type": "uint256"
        }
      ],
      "name": "ECDSAInvalidSignatureLength",
      "type": "error"
    },
    {
      "inputs": [
        {
          "internalType": "bytes32",
          "name": "s",
          "type": "bytes32"
        }
      ],
      "name": "ECDSAInvalidSignatureS",
      "type": "error"
    },
    {
      "inputs": [
        {
          "internalType": "address",
          "name": "spender",
          "type": "address"
        },
        {
          "internalType": "uint256",
          "name": "allowance",
          "type": "uint256"
        },
        {
          "internalType": "uint256",
          "name": "needed",
          "type": "uint256"
        }
      ],
      "name": "ERC20InsufficientAllowance",
      "type": "error"
    },
    {
      "inputs": [
        {
          "internalType": "address",
          "name": "sender",
          "type": "address"
        },
        {
          "internalType": "uint256",
          "name": "balance",
          "type": "uint256"
        },
        {
          "internalType": "uint256",
          "name": "needed",
          "type": "uint256"
        }
      ],
      "name": "ERC20InsufficientBalance",
      "type": "error"
    },
    {
      "inputs": [
        {
          "internalType": "address",
          "name": "approver",
          "type": "address"
        }
      ],
      "name": "ERC20InvalidApprover",
      "type": "error"
    },
    {
      "inputs": [
        {
          "internalType": "address",
          "name": "receiver",
          "type": "address"
        }
      ],
      "name": "ERC20InvalidReceiver",
      "type": "error"
    },
    {
      "inputs": [
        {
          "internalType": "address",
          "name": "sender",
          "type": "address"
        }
      ],
      "name": "ERC20InvalidSender",
      "type": "error"
    },
    {
      "inputs": [
        {
          "internalType": "address",
          "name": "spender",
          "type": "address"
        }
      ],
      "name": "ERC20InvalidSpender",
      "type": "error"
    },
    {
      "inputs": [
        {
          "internalType": "uint256",
          "name": "deadline",
          "type": "uint256"
        }
      ],
      "name": "ERC2612ExpiredSignature",
      "type": "error"
    },
    {
      "inputs": [
        {
          "internalType": "address",
          "name": "signer",
          "type": "address"
        },
        {
          "internalType": "address",
          "name": "owner",
          "type": "address"
        }
      ],
      "name": "ERC2612InvalidSigner",
      "type": "error"
    },
    {
      "inputs": [],
      "name": "InsufficientAmountInput",
      "type": "error"
    },
    {
      "inputs": [],
      "name": "InsufficientAmountOutput",
      "type": "error"
    },
    {
      "inputs": [
        {
          "internalType": "address",
          "name": "account",
          "type": "address"
        },
        {
          "internalType": "uint256",
          "name": "currentNonce",
          "type": "uint256"
        }
      ],
      "name": "InvalidAccountNonce",
      "type": "error"
    },
    {
      "inputs": [],
      "name": "InvalidAmount",
      "type": "error"
    },
    {
      "inputs": [],
      "name": "InvalidInitialization",
      "type": "error"
    },
    {
      "inputs": [],
      "name": "InvalidValue",
      "type": "error"
    },
    {
      "inputs": [],
      "name": "NewMaxTotalSupplyTooSmall",
      "type": "error"
    },
    {
      "inputs": [],
      "name": "NewReserveTooSmall",
      "type": "error"
    },
    {
      "inputs": [],
      "name": "NewSupplyTooLarge",
      "type": "error"
    },
    {
      "inputs": [],
      "name": "NewSupplyTooSmall",
      "type": "error"
    },
    {
      "inputs": [],
      "name": "NotInitializing",
      "type": "error"
    },
    {
      "inputs": [
        {
          "internalType": "uint256",
          "name": "x",
          "type": "uint256"
        },
        {
          "internalType": "uint256",
          "name": "y",
          "type": "uint256"
        }
      ],
      "name": "PRBMath_MulDiv18_Overflow",
      "type": "error"
    },
    {
      "inputs": [
        {
          "internalType": "uint256",
          "name": "x",
          "type": "uint256"
        },
        {
          "internalType": "uint256",
          "name": "y",
          "type": "uint256"
        },
        {
          "internalType": "uint256",
          "name": "denominator",
          "type": "uint256"
        }
      ],
      "name": "PRBMath_MulDiv_Overflow",
      "type": "error"
    },
    {
      "inputs": [
        {
          "internalType": "UD60x18",
          "name": "x",
          "type": "uint256"
        }
      ],
      "name": "PRBMath_UD60x18_Exp2_InputTooBig",
      "type": "error"
    },
    {
      "inputs": [
        {
          "internalType": "UD60x18",
          "name": "x",
          "type": "uint256"
        }
      ],
      "name": "PRBMath_UD60x18_Log_InputTooSmall",
      "type": "error"
    },
    {
      "anonymous": false,
      "inputs": [
        {
          "indexed": true,
          "internalType": "address",
          "name": "owner",
          "type": "address"
        },
        {
          "indexed": true,
          "internalType": "address",
          "name": "spender",
          "type": "address"
        },
        {
          "indexed": false,
          "internalType": "uint256",
          "name": "value",
          "type": "uint256"
        }
      ],
      "name": "Approval",
      "type": "event"
    },
    {
      "anonymous": false,
      "inputs": [],
      "name": "EIP712DomainChanged",
      "type": "event"
    },
    {
      "anonymous": false,
      "inputs": [
        {
          "indexed": false,
          "internalType": "uint64",
          "name": "version",
          "type": "uint64"
        }
      ],
      "name": "Initialized",
      "type": "event"
    },
    {
      "anonymous": false,
      "inputs": [
        {
          "indexed": false,
          "internalType": "uint256",
          "name": "newReserve",
          "type": "uint256"
        },
        {
          "indexed": false,
          "internalType": "uint256",
          "name": "newSupply",
          "type": "uint256"
        },
        {
          "indexed": false,
          "internalType": "uint256",
          "name": "newPrice",
          "type": "uint256"
        }
      ],
      "name": "ReserveUpdated",
      "type": "event"
    },
    {
      "anonymous": false,
      "inputs": [
        {
          "indexed": true,
          "internalType": "bytes32",
          "name": "role",
          "type": "bytes32"
        },
        {
          "indexed": true,
          "internalType": "bytes32",
          "name": "previousAdminRole",
          "type": "bytes32"
        },
        {
          "indexed": true,
          "internalType": "bytes32",
          "name": "newAdminRole",
          "type": "bytes32"
        }
      ],
      "name": "RoleAdminChanged",
      "type": "event"
    },
    {
      "anonymous": false,
      "inputs": [
        {
          "indexed": true,
          "internalType": "bytes32",
          "name": "role",
          "type": "bytes32"
        },
        {
          "indexed": true,
          "internalType": "address",
          "name": "account",
          "type": "address"
        },
        {
          "indexed": true,
          "internalType": "address",
          "name": "sender",
          "type": "address"
        }
      ],
      "name": "RoleGranted",
      "type": "event"
    },
    {
      "anonymous": false,
      "inputs": [
        {
          "indexed": true,
          "internalType": "bytes32",
          "name": "role",
          "type": "bytes32"
        },
        {
          "indexed": true,
          "internalType": "address",
          "name": "account",
          "type": "address"
        },
        {
          "indexed": true,
          "internalType": "address",
          "name": "sender",
          "type": "address"
        }
      ],
      "name": "RoleRevoked",
      "type": "event"
    },
    {
      "anonymous": false,
      "inputs": [
        {
          "indexed": true,
          "internalType": "address",
          "name": "from",
          "type": "address"
        },
        {
          "indexed": true,
          "internalType": "address",
          "name": "to",
          "type": "address"
        },
        {
          "indexed": false,
          "internalType": "uint256",
          "name": "value",
          "type": "uint256"
        }
      ],
      "name": "Transfer",
      "type": "event"
    },
    {
      "inputs": [],
      "name": "CREATOR_ROLE",
      "outputs": [
        {
          "internalType": "bytes32",
          "name": "",
          "type": "bytes32"
        }
      ],
      "stateMutability": "view",
      "type": "function"
    },
    {
      "inputs": [],
      "name": "DEFAULT_ADMIN_ROLE",
      "outputs": [
        {
          "internalType": "bytes32",
          "name": "",
          "type": "bytes32"
        }
      ],
      "stateMutability": "view",
      "type": "function"
    },
    {
      "inputs": [],
      "name": "DOMAIN_SEPARATOR",
      "outputs": [
        {
          "internalType": "bytes32",
          "name": "",
          "type": "bytes32"
        }
      ],
      "stateMutability": "view",
      "type": "function"
    },
    {
      "inputs": [],
      "name": "MIN_RESERVE",
      "outputs": [
        {
          "internalType": "uint256",
          "name": "",
          "type": "uint256"
        }
      ],
      "stateMutability": "view",
      "type": "function"
    },
    {
      "inputs": [],
      "name": "OWNER_ROLE",
      "outputs": [
        {
          "internalType": "bytes32",
          "name": "",
          "type": "bytes32"
        }
      ],
      "stateMutability": "view",
      "type": "function"
    },
    {
      "inputs": [
        {
          "internalType": "address",
          "name": "owner",
          "type": "address"
        },
        {
          "internalType": "address",
          "name": "spender",
          "type": "address"
        }
      ],
      "name": "allowance",
      "outputs": [
        {
          "internalType": "uint256",
          "name": "",
          "type": "uint256"
        }
      ],
      "stateMutability": "view",
      "type": "function"
    },
    {
      "inputs": [
        {
          "internalType": "address",
          "name": "spender",
          "type": "address"
        },
        {
          "internalType": "uint256",
          "name": "value",
          "type": "uint256"
        }
      ],
      "name": "approve",
      "outputs": [
        {
          "internalType": "bool",
          "name": "",
          "type": "bool"
        }
      ],
      "stateMutability": "nonpayable",
      "type": "function"
    },
    {
      "inputs": [
        {
          "internalType": "address",
          "name": "account",
          "type": "address"
        }
      ],
      "name": "balanceOf",
      "outputs": [
        {
          "internalType": "uint256",
          "name": "",
          "type": "uint256"
        }
      ],
      "stateMutability": "view",
      "type": "function"
    },
    {
      "inputs": [
        {
          "internalType": "uint256",
          "name": "value",
          "type": "uint256"
        }
      ],
      "name": "burn",
      "outputs": [],
      "stateMutability": "nonpayable",
      "type": "function"
    },
    {
      "inputs": [
        {
          "internalType": "uint256",
          "name": "amountOutMin",
          "type": "uint256"
        },
        {
          "internalType": "address",
          "name": "recipient",
          "type": "address"
        }
      ],
      "name": "buy",
      "outputs": [],
      "stateMutability": "payable",
      "type": "function"
    },
    {
      "inputs": [
        {
          "internalType": "uint256",
          "name": "amountOut",
          "type": "uint256"
        },
        {
          "internalType": "address",
          "name": "recipient",
          "type": "address"
        }
      ],
      "name": "buyExactTokenForDEL",
      "outputs": [],
      "stateMutability": "payable",
      "type": "function"
    },
    {
      "inputs": [
        {
          "internalType": "uint256",
          "name": "amountOutMin",
          "type": "uint256"
        },
        {
          "internalType": "address",
          "name": "recipient",
          "type": "address"
        }
      ],
      "name": "buyTokenForExactDEL",
      "outputs": [],
      "stateMutability": "payable",
      "type": "function"
    },
    {
      "inputs": [
        {
          "internalType": "uint256",
          "name": "supply",
          "type": "uint256"
        },
        {
          "internalType": "uint256",
          "name": "customReserve",
          "type": "uint256"
        },
        {
          "internalType": "uint256",
          "name": "customCrr",
          "type": "uint256"
        },
        {
          "internalType": "uint256",
          "name": "amountOut",
          "type": "uint256"
        }
      ],
      "name": "calculateBuyInput",
      "outputs": [
        {
          "internalType": "uint256",
          "name": "",
          "type": "uint256"
        }
      ],
      "stateMutability": "pure",
      "type": "function"
    },
    {
      "inputs": [
        {
          "internalType": "uint256",
          "name": "amount",
          "type": "uint256"
        }
      ],
      "name": "calculateBuyInput",
      "outputs": [
        {
          "internalType": "uint256",
          "name": "",
          "type": "uint256"
        }
      ],
      "stateMutability": "view",
      "type": "function"
    },
    {
      "inputs": [
        {
          "internalType": "uint256",
          "name": "supply",
          "type": "uint256"
        },
        {
          "internalType": "uint256",
          "name": "customReserve",
          "type": "uint256"
        },
        {
          "internalType": "uint256",
          "name": "customCrr",
          "type": "uint256"
        },
        {
          "internalType": "uint256",
          "name": "amountIn",
          "type": "uint256"
        }
      ],
      "name": "calculateBuyOutput",
      "outputs": [
        {
          "internalType": "uint256",
          "name": "",
          "type": "uint256"
        }
      ],
      "stateMutability": "pure",
      "type": "function"
    },
    {
      "inputs": [
        {
          "internalType": "uint256",
          "name": "amount",
          "type": "uint256"
        }
      ],
      "name": "calculateBuyOutput",
      "outputs": [
        {
          "internalType": "uint256",
          "name": "",
          "type": "uint256"
        }
      ],
      "stateMutability": "view",
      "type": "function"
    },
    {
      "inputs": [
        {
          "internalType": "uint256",
          "name": "supply",
          "type": "uint256"
        },
        {
          "internalType": "uint256",
          "name": "customReserve",
          "type": "uint256"
        },
        {
          "internalType": "uint256",
          "name": "customCrr",
          "type": "uint256"
        },
        {
          "internalType": "uint256",
          "name": "amountOut",
          "type": "uint256"
        }
      ],
      "name": "calculateSellInput",
      "outputs": [
        {
          "internalType": "uint256",
          "name": "",
          "type": "uint256"
        }
      ],
      "stateMutability": "pure",
      "type": "function"
    },
    {
      "inputs": [
        {
          "internalType": "uint256",
          "name": "amount",
          "type": "uint256"
        }
      ],
      "name": "calculateSellInput",
      "outputs": [
        {
          "internalType": "uint256",
          "name": "",
          "type": "uint256"
        }
      ],
      "stateMutability": "view",
      "type": "function"
    },
    {
      "inputs": [
        {
          "internalType": "uint256",
          "name": "supply",
          "type": "uint256"
        },
        {
          "internalType": "uint256",
          "name": "customReserve",
          "type": "uint256"
        },
        {
          "internalType": "uint256",
          "name": "customCrr",
          "type": "uint256"
        },
        {
          "internalType": "uint256",
          "name": "amountIn",
          "type": "uint256"
        }
      ],
      "name": "calculateSellOutput",
      "outputs": [
        {
          "internalType": "uint256",
          "name": "",
          "type": "uint256"
        }
      ],
      "stateMutability": "pure",
      "type": "function"
    },
    {
      "inputs": [
        {
          "internalType": "uint256",
          "name": "amount",
          "type": "uint256"
        }
      ],
      "name": "calculateSellOutput",
      "outputs": [
        {
          "internalType": "uint256",
          "name": "",
          "type": "uint256"
        }
      ],
      "stateMutability": "view",
      "type": "function"
    },
    {
      "inputs": [],
      "name": "crr",
      "outputs": [
        {
          "internalType": "uint256",
          "name": "",
          "type": "uint256"
        }
      ],
      "stateMutability": "view",
      "type": "function"
    },
    {
      "inputs": [],
      "name": "decimals",
      "outputs": [
        {
          "internalType": "uint8",
          "name": "",
          "type": "uint8"
        }
      ],
      "stateMutability": "view",
      "type": "function"
    },
    {
      "inputs": [],
      "name": "eip712Domain",
      "outputs": [
        {
          "internalType": "bytes1",
          "name": "fields",
          "type": "bytes1"
        },
        {
          "internalType": "string",
          "name": "name",
          "type": "string"
        },
        {
          "internalType": "string",
          "name": "version",
          "type": "string"
        },
        {
          "internalType": "uint256",
          "name": "chainId",
          "type": "uint256"
        },
        {
          "internalType": "address",
          "name": "verifyingContract",
          "type": "address"
        },
        {
          "internalType": "bytes32",
          "name": "salt",
          "type": "bytes32"
        },
        {
          "internalType": "uint256[]",
          "name": "extensions",
          "type": "uint256[]"
        }
      ],
      "stateMutability": "view",
      "type": "function"
    },
    {
      "inputs": [],
      "name": "getCurrentPrice",
      "outputs": [
        {
          "internalType": "uint256",
          "name": "",
          "type": "uint256"
        }
      ],
      "stateMutability": "view",
      "type": "function"
    },
    {
      "inputs": [
        {
          "internalType": "bytes32",
          "name": "role",
          "type": "bytes32"
        }
      ],
      "name": "getRoleAdmin",
      "outputs": [
        {
          "internalType": "bytes32",
          "name": "",
          "type": "bytes32"
        }
      ],
      "stateMutability": "view",
      "type": "function"
    },
    {
      "inputs": [
        {
          "internalType": "bytes32",
          "name": "role",
          "type": "bytes32"
        },
        {
          "internalType": "address",
          "name": "account",
          "type": "address"
        }
      ],
      "name": "grantRole",
      "outputs": [],
      "stateMutability": "nonpayable",
      "type": "function"
    },
    {
      "inputs": [
        {
          "internalType": "bytes32",
          "name": "role",
          "type": "bytes32"
        },
        {
          "internalType": "address",
          "name": "account",
          "type": "address"
        }
      ],
      "name": "hasRole",
      "outputs": [
        {
          "internalType": "bool",
          "name": "",
          "type": "bool"
        }
      ],
      "stateMutability": "view",
      "type": "function"
    },
    {
      "inputs": [],
      "name": "identity",
      "outputs": [
        {
          "internalType": "string",
          "name": "",
          "type": "string"
        }
      ],
      "stateMutability": "view",
      "type": "function"
    },
    {
      "inputs": [
        {
          "internalType": "string",
          "name": "initialName",
          "type": "string"
        },
        {
          "internalType": "string",
          "name": "initialSymbol",
          "type": "string"
        },
        {
          "internalType": "address",
          "name": "initialOwner",
          "type": "address"
        },
        {
          "internalType": "address",
          "name": "initialCreator",
          "type": "address"
        },
        {
          "internalType": "uint8",
          "name": "initialCrr",
          "type": "uint8"
        },
        {
          "internalType": "uint256",
          "name": "initialMint",
          "type": "uint256"
        },
        {
          "internalType": "uint256",
          "name": "initialMinTotalSupply",
          "type": "uint256"
        },
        {
          "internalType": "uint256",
          "name": "initialMaxTotalSupply",
          "type": "uint256"
        },
        {
          "internalType": "string",
          "name": "initialIdentity",
          "type": "string"
        }
      ],
      "name": "initialize",
      "outputs": [],
      "stateMutability": "payable",
      "type": "function"
    },
    {
      "inputs": [],
      "name": "maxTotalSupply",
      "outputs": [
        {
          "internalType": "uint256",
          "name": "",
          "type": "uint256"
        }
      ],
      "stateMutability": "view",
      "type": "function"
    },
    {
      "inputs": [],
      "name": "minTotalSupply",
      "outputs": [
        {
          "internalType": "uint256",
          "name": "",
          "type": "uint256"
        }
      ],
      "stateMutability": "view",
      "type": "function"
    },
    {
      "inputs": [],
      "name": "name",
      "outputs": [
        {
          "internalType": "string",
          "name": "",
          "type": "string"
        }
      ],
      "stateMutability": "view",
      "type": "function"
    },
    {
      "inputs": [
        {
          "internalType": "address",
          "name": "owner",
          "type": "address"
        }
      ],
      "name": "nonces",
      "outputs": [
        {
          "internalType": "uint256",
          "name": "",
          "type": "uint256"
        }
      ],
      "stateMutability": "view",
      "type": "function"
    },
    {
      "inputs": [
        {
          "internalType": "address",
          "name": "owner",
          "type": "address"
        },
        {
          "internalType": "address",
          "name": "spender",
          "type": "address"
        },
        {
          "internalType": "uint256",
          "name": "value",
          "type": "uint256"
        },
        {
          "internalType": "uint256",
          "name": "deadline",
          "type": "uint256"
        },
        {
          "internalType": "uint8",
          "name": "v",
          "type": "uint8"
        },
        {
          "internalType": "bytes32",
          "name": "r",
          "type": "bytes32"
        },
        {
          "internalType": "bytes32",
          "name": "s",
          "type": "bytes32"
        }
      ],
      "name": "permit",
      "outputs": [],
      "stateMutability": "nonpayable",
      "type": "function"
    },
    {
      "inputs": [
        {
          "internalType": "address",
          "name": "owner",
          "type": "address"
        },
        {
          "internalType": "address",
          "name": "spender",
          "type": "address"
        },
        {
          "internalType": "uint256",
          "name": "value",
          "type": "uint256"
        },
        {
          "internalType": "uint256",
          "name": "nonce",
          "type": "uint256"
        },
        {
          "internalType": "uint256",
          "name": "deadline",
          "type": "uint256"
        }
      ],
      "name": "permitHash",
      "outputs": [
        {
          "internalType": "bytes32",
          "name": "",
          "type": "bytes32"
        }
      ],
      "stateMutability": "view",
      "type": "function"
    },
    {
      "inputs": [
        {
          "internalType": "bytes32",
          "name": "role",
          "type": "bytes32"
        },
        {
          "internalType": "address",
          "name": "callerConfirmation",
          "type": "address"
        }
      ],
      "name": "renounceRole",
      "outputs": [],
      "stateMutability": "nonpayable",
      "type": "function"
    },
    {
      "inputs": [],
      "name": "reserve",
      "outputs": [
        {
          "internalType": "uint256",
          "name": "",
          "type": "uint256"
        }
      ],
      "stateMutability": "view",
      "type": "function"
    },
    {
      "inputs": [
        {
          "internalType": "bytes32",
          "name": "role",
          "type": "bytes32"
        },
        {
          "internalType": "address",
          "name": "account",
          "type": "address"
        }
      ],
      "name": "revokeRole",
      "outputs": [],
      "stateMutability": "nonpayable",
      "type": "function"
    },
    {
      "inputs": [
        {
          "internalType": "uint256",
          "name": "amountIn",
          "type": "uint256"
        },
        {
          "internalType": "uint256",
          "name": "amountOutMin",
          "type": "uint256"
        },
        {
          "internalType": "address",
          "name": "recipient",
          "type": "address"
        }
      ],
      "name": "sell",
      "outputs": [],
      "stateMutability": "nonpayable",
      "type": "function"
    },
    {
      "inputs": [
        {
          "internalType": "uint256",
          "name": "amountIn",
          "type": "uint256"
        },
        {
          "internalType": "uint256",
          "name": "amountOutMin",
          "type": "uint256"
        },
        {
          "internalType": "address",
          "name": "recipient",
          "type": "address"
        }
      ],
      "name": "sellExactTokensForDEL",
      "outputs": [],
      "stateMutability": "nonpayable",
      "type": "function"
    },
    {
      "inputs": [
        {
          "internalType": "uint256",
          "name": "amountOut",
          "type": "uint256"
        },
        {
          "internalType": "uint256",
          "name": "amountInMax",
          "type": "uint256"
        },
        {
          "internalType": "address",
          "name": "recipient",
          "type": "address"
        }
      ],
      "name": "sellTokensForExactDEL",
      "outputs": [],
      "stateMutability": "nonpayable",
      "type": "function"
    },
    {
      "inputs": [
        {
          "internalType": "bytes4",
          "name": "interfaceId",
          "type": "bytes4"
        }
      ],
      "name": "supportsInterface",
      "outputs": [
        {
          "internalType": "bool",
          "name": "",
          "type": "bool"
        }
      ],
      "stateMutability": "view",
      "type": "function"
    },
    {
      "inputs": [],
      "name": "symbol",
      "outputs": [
        {
          "internalType": "string",
          "name": "",
          "type": "string"
        }
      ],
      "stateMutability": "view",
      "type": "function"
    },
    {
      "inputs": [],
      "name": "totalSupply",
      "outputs": [
        {
          "internalType": "uint256",
          "name": "",
          "type": "uint256"
        }
      ],
      "stateMutability": "view",
      "type": "function"
    },
    {
      "inputs": [
        {
          "internalType": "address",
          "name": "to",
          "type": "address"
        },
        {
          "internalType": "uint256",
          "name": "value",
          "type": "uint256"
        }
      ],
      "name": "transfer",
      "outputs": [
        {
          "internalType": "bool",
          "name": "",
          "type": "bool"
        }
      ],
      "stateMutability": "nonpayable",
      "type": "function"
    },
    {
      "inputs": [
        {
          "internalType": "address",
          "name": "from",
          "type": "address"
        },
        {
          "internalType": "address",
          "name": "to",
          "type": "address"
        },
        {
          "internalType": "uint256",
          "name": "value",
          "type": "uint256"
        }
      ],
      "name": "transferFrom",
      "outputs": [
        {
          "internalType": "bool",
          "name": "",
          "type": "bool"
        }
      ],
      "stateMutability": "nonpayable",
      "type": "function"
    },
    {
      "inputs": [
        {
          "internalType": "string",
          "name": "newIdentity",
          "type": "string"
        },
        {
          "internalType": "uint256",
          "name": "newMaxTotalSupply",
          "type": "uint256"
        }
      ],
      "name": "updateDetails",
      "outputs": [],
      "stateMutability": "nonpayable",
      "type": "function"
    }
  ],
  "bytecode": "0x60806040523480156200001157600080fd5b506200001c62000022565b620000d6565b7ff0c57e16840df040f15088dc2f81fe391c3923bec73e23a9662efc9c229c6a00805468010000000000000000900460ff1615620000735760405163f92ee8a960e01b815260040160405180910390fd5b80546001600160401b0390811614620000d35780546001600160401b0319166001600160401b0390811782556040519081527fc7f505b2f371ae2175ee4913f4499e1f2633a7b5936321eed1cdaeb6115181d29060200160405180910390a15b50565b6140a280620000e66000396000f3fe6080604052600436106103085760003560e01c80637627a7af1161019a578063c193d62e116100e1578063d547741f1161008a578063eb91d37e11610064578063eb91d37e14610989578063f6228a481461099e578063f804cd49146109b157600080fd5b8063d547741f146108d0578063dd62ed3e146108f0578063e58378bb1461095557600080fd5b8063d04c6983116100bb578063d04c698314610870578063d4a2949e14610890578063d505accf146108b057600080fd5b8063c193d62e1461081d578063ca017dcd1461083d578063cd3293de1461085d57600080fd5b806391d1485411610143578063a217fddf1161011d578063a217fddf146107c8578063a9059cbb146107dd578063b8d23ea0146107fd57600080fd5b806391d148541461073b57806395d89b41146107a057806398c9c2a9146107b557600080fd5b80637ecebe00116101745780637ecebe00146106bf57806384b0196e146106df5780638aeda25a1461070757600080fd5b80637627a7af1461065857806379db6346146106785780637deb6025146106ac57600080fd5b80632c159a1a1161025e57806342966c68116102075780636cc94a2b116101e15780636cc94a2b146105f85780637058c1aa1461061857806370a082311461063857600080fd5b806342966c681461058e5780634e9325e6146105ae57806368213256146105c157600080fd5b8063313ce56711610238578063313ce5671461053d5780633644e5151461055957806336568abe1461056e57600080fd5b80632c159a1a146104e65780632e391d02146104fb5780632f2ff15d1461051b57600080fd5b806315380182116102c057806323b872dd1161029a57806323b872dd14610443578063248a9ca3146104635780632ab4d052146104b257600080fd5b806315380182146103cf57806318160ddd146103ef578063200ff9f41461042357600080fd5b806306fdde03116102f157806306fdde0314610370578063095ea7b31461039257806309dfd0e6146103b257600080fd5b806301ffc9a71461030d57806302bfc0f914610342575b600080fd5b34801561031957600080fd5b5061032d61032836600461393b565b6109d1565b60405190151581526020015b60405180910390f35b34801561034e57600080fd5b5061036261035d366004613999565b610a6a565b604051908152602001610339565b34801561037c57600080fd5b50610385610af7565b6040516103399190613a2c565b34801561039e57600080fd5b5061032d6103ad366004613a3f565b610bb2565b3480156103be57600080fd5b50610362683635c9adc5dea0000081565b3480156103db57600080fd5b506103626103ea366004613a69565b610bca565b3480156103fb57600080fd5b507f52c63247e1f47db19d5ce0460030c497f067ca4cebf71ba98eeadabe20bace0254610362565b34801561042f57600080fd5b5061036261043e366004613a69565b610be3565b34801561044f57600080fd5b5061032d61045e366004613a9b565b610bf1565b34801561046f57600080fd5b5061036261047e366004613ad7565b60009081527f02dd7bc7dec4dceedda775e58dd541e08a116c6c53815c0bd028192f7b626800602052604090206001015490565b3480156104be57600080fd5b507f85eff0afbad8d05a6ac2a2282b7f9c478da3b650e17f9a77fd2748e3148f1b0254610362565b3480156104f257600080fd5b50610385610c17565b34801561050757600080fd5b50610362610516366004613a69565b610ccb565b34801561052757600080fd5b5061053b610536366004613af0565b610cd9565b005b34801561054957600080fd5b5060405160128152602001610339565b34801561056557600080fd5b50610362610d23565b34801561057a57600080fd5b5061053b610589366004613af0565b610d32565b34801561059a57600080fd5b5061053b6105a9366004613ad7565b610d83565b61053b6105bc366004613bd0565b610dd4565b3480156105cd57600080fd5b507f85eff0afbad8d05a6ac2a2282b7f9c478da3b650e17f9a77fd2748e3148f1b005460ff16610362565b34801561060457600080fd5b50610362610613366004613ad7565b61104b565b34801561062457600080fd5b50610362610633366004613ad7565b6110a5565b34801561064457600080fd5b50610362610653366004613ca8565b611104565b34801561066457600080fd5b5061053b610673366004613cc3565b611149565b34801561068457600080fd5b507f85eff0afbad8d05a6ac2a2282b7f9c478da3b650e17f9a77fd2748e3148f1b0154610362565b61053b6106ba366004613af0565b6112fc565b3480156106cb57600080fd5b506103626106da366004613ca8565b61130a565b3480156106eb57600080fd5b506106f4611315565b6040516103399796959493929190613cf8565b34801561071357600080fd5b506103627f828634d95e775031b9ff576b159a8509d3053581a8c9c4d7d86899e0afcd882f81565b34801561074757600080fd5b5061032d610756366004613af0565b60009182527f02dd7bc7dec4dceedda775e58dd541e08a116c6c53815c0bd028192f7b626800602090815260408084206001600160a01b0393909316845291905290205460ff1690565b3480156107ac57600080fd5b50610385611416565b61053b6107c3366004613af0565b611467565b3480156107d457600080fd5b50610362600081565b3480156107e957600080fd5b5061032d6107f8366004613a3f565b61157f565b34801561080957600080fd5b50610362610818366004613a69565b61158d565b34801561082957600080fd5b50610362610838366004613ad7565b61159b565b34801561084957600080fd5b5061053b610858366004613cc3565b6115fa565b34801561086957600080fd5b5047610362565b34801561087c57600080fd5b5061053b61088b366004613cc3565b6117a3565b34801561089c57600080fd5b5061053b6108ab366004613daa565b6117ae565b3480156108bc57600080fd5b5061053b6108cb366004613def565b61188b565b3480156108dc57600080fd5b5061053b6108eb366004613af0565b611a16565b3480156108fc57600080fd5b5061036261090b366004613e59565b6001600160a01b0391821660009081527f52c63247e1f47db19d5ce0460030c497f067ca4cebf71ba98eeadabe20bace016020908152604080832093909416825291909152205490565b34801561096157600080fd5b506103627fb19546dff01e856fb3f010c267a7b1c60363cf8a4664e21cc89c26224620214e81565b34801561099557600080fd5b50610362611a5a565b61053b6109ac366004613af0565b611b4b565b3480156109bd57600080fd5b506103626109cc366004613ad7565b611ca2565b60007fffffffff0000000000000000000000000000000000000000000000000000000082167f7965db0b000000000000000000000000000000000000000000000000000000001480610a6457507f01ffc9a7000000000000000000000000000000000000000000000000000000007fffffffff000000000000000000000000000000000000000000000000000000008316145b92915050565b604080517f6e71edae12b1b97f4d1f60370fef10105fa2faae0126114a169c64845d6126c960208083018290526001600160a01b0389811684860152881660608401526080830187905260a0830186905260c08084018690528451808503909101815260e0909301909352815191909201206000919082610aea82611d01565b9998505050505050505050565b606060007f52c63247e1f47db19d5ce0460030c497f067ca4cebf71ba98eeadabe20bace005b9050806003018054610b2e90613e83565b80601f0160208091040260200160405190810160405280929190818152602001828054610b5a90613e83565b8015610ba75780601f10610b7c57610100808354040283529160200191610ba7565b820191906000526020600020905b815481529060010190602001808311610b8a57829003601f168201915b505050505091505090565b600033610bc0818585611d49565b5060019392505050565b6000610bd885858585611d56565b90505b949350505050565b6000610bd885858585611df9565b600033610bff858285611e98565b610c0a858585611f48565b60019150505b9392505050565b60607f85eff0afbad8d05a6ac2a2282b7f9c478da3b650e17f9a77fd2748e3148f1b006003018054610c4890613e83565b80601f0160208091040260200160405190810160405280929190818152602001828054610c7490613e83565b8015610cc15780601f10610c9657610100808354040283529160200191610cc1565b820191906000526020600020905b815481529060010190602001808311610ca457829003601f168201915b5050505050905090565b6000610bd885858585611fd9565b60008281527f02dd7bc7dec4dceedda775e58dd541e08a116c6c53815c0bd028192f7b6268006020526040902060010154610d1381612044565b610d1d8383612051565b50505050565b6000610d2d612120565b905090565b6001600160a01b0381163314610d74576040517f6697b23200000000000000000000000000000000000000000000000000000000815260040160405180910390fd5b610d7e828261212a565b505050565b6000610d8e8261159b565b905047811115610d9d57600080fd5b610da733836121d0565b60405160009082156108fc0290839083818181858288f19350505050158015610d7e573d6000803e3d6000fd5b7ff0c57e16840df040f15088dc2f81fe391c3923bec73e23a9662efc9c229c6a00805468010000000000000000810460ff16159067ffffffffffffffff16600081158015610e1f5750825b905060008267ffffffffffffffff166001148015610e3c5750303b155b905081158015610e4a575080155b15610e81576040517ff92ee8a900000000000000000000000000000000000000000000000000000000815260040160405180910390fd5b84547fffffffffffffffffffffffffffffffffffffffffffffffff00000000000000001660011785558315610ecc57845468ff00000000000000001916680100000000000000001785555b610ed68e8e61221f565b610edf8e612231565b610ee7612278565b610f117fb19546dff01e856fb3f010c267a7b1c60363cf8a4664e21cc89c26224620214e8d612051565b50610f3c7f828634d95e775031b9ff576b159a8509d3053581a8c9c4d7d86899e0afcd882f8c612051565b507f85eff0afbad8d05a6ac2a2282b7f9c478da3b650e17f9a77fd2748e3148f1b00805460ff191660ff8c161781557f85eff0afbad8d05a6ac2a2282b7f9c478da3b650e17f9a77fd2748e3148f1b018990557f85eff0afbad8d05a6ac2a2282b7f9c478da3b650e17f9a77fd2748e3148f1b028890557f85eff0afbad8d05a6ac2a2282b7f9c478da3b650e17f9a77fd2748e3148f1b03610fde8882613f0b565b508915610fef57610fef8c8b612282565b50831561103b57845468ff000000000000000019168555604051600181527fc7f505b2f371ae2175ee4913f4499e1f2633a7b5936321eed1cdaeb6115181d29060200160405180910390a15b5050505050505050505050505050565b6000610a646110787f52c63247e1f47db19d5ce0460030c497f067ca4cebf71ba98eeadabe20bace025490565b475b7f85eff0afbad8d05a6ac2a2282b7f9c478da3b650e17f9a77fd2748e3148f1b005460ff1685611d56565b6000610a646110d27f52c63247e1f47db19d5ce0460030c497f067ca4cebf71ba98eeadabe20bace025490565b476110fe7f85eff0afbad8d05a6ac2a2282b7f9c478da3b650e17f9a77fd2748e3148f1b005460ff1690565b85611fd9565b6000807f52c63247e1f47db19d5ce0460030c497f067ca4cebf71ba98eeadabe20bace005b6001600160a01b0390931660009081526020939093525050604090205490565b82600003611183576040517f2c5211c600000000000000000000000000000000000000000000000000000000815260040160405180910390fd5b600061118e8461159b565b9050828110156111ca576040517f6594b82200000000000000000000000000000000000000000000000000000000815260040160405180910390fd5b60006111d68247613fe1565b9050683635c9adc5dea0000081101561121b576040517f7da7f44d00000000000000000000000000000000000000000000000000000000815260040160405180910390fd5b6000856112467f52c63247e1f47db19d5ce0460030c497f067ca4cebf71ba98eeadabe20bace025490565b6112509190613fe1565b905061127a7f85eff0afbad8d05a6ac2a2282b7f9c478da3b650e17f9a77fd2748e3148f1b015490565b8110156112b3576040517fc9f1636200000000000000000000000000000000000000000000000000000000815260040160405180910390fd5b6112bd33876121d0565b6040516001600160a01b0385169084156108fc029085906000818181858888f193505050501580156112f3573d6000803e3d6000fd5b50505050505050565b6113068282611467565b5050565b6000610a64826122d1565b600060608082808083817fa16a46d94261c7517cc8ff89f61c0ce93598e3c849801011dee649a6a557d100805490915015801561135457506001810154155b6113bf576040517f08c379a000000000000000000000000000000000000000000000000000000000815260206004820152601560248201527f4549503731323a20556e696e697469616c697a6564000000000000000000000060448201526064015b60405180910390fd5b6113c76122fa565b6113cf61234b565b604080516000808252602082019092527f0f000000000000000000000000000000000000000000000000000000000000009c939b5091995046985030975095509350915050565b7f52c63247e1f47db19d5ce0460030c497f067ca4cebf71ba98eeadabe20bace0480546060917f52c63247e1f47db19d5ce0460030c497f067ca4cebf71ba98eeadabe20bace0091610b2e90613e83565b346000036114a1576040517faa7feadc00000000000000000000000000000000000000000000000000000000815260040160405180910390fd5b60006114ac34612375565b9050828110156114e8576040517f6594b82200000000000000000000000000000000000000000000000000000000815260040160405180910390fd5b7f85eff0afbad8d05a6ac2a2282b7f9c478da3b650e17f9a77fd2748e3148f1b0254816115337f52c63247e1f47db19d5ce0460030c497f067ca4cebf71ba98eeadabe20bace025490565b61153d9190613ff4565b1115611575576040517f763303a600000000000000000000000000000000000000000000000000000000815260040160405180910390fd5b610d7e8282612282565b600033610bc0818585611f48565b6000610bd8858585856123ac565b6000610a646115c87f52c63247e1f47db19d5ce0460030c497f067ca4cebf71ba98eeadabe20bace025490565b476115f47f85eff0afbad8d05a6ac2a2282b7f9c478da3b650e17f9a77fd2748e3148f1b005460ff1690565b85611df9565b821580611605575081155b1561163c576040517f2c5211c600000000000000000000000000000000000000000000000000000000815260040160405180910390fd5b683635c9adc5dea000006116508447613fe1565b1015611688576040517f7da7f44d00000000000000000000000000000000000000000000000000000000815260040160405180910390fd5b6000611693846110a5565b9050828111156116cf576040517fc99fbc1000000000000000000000000000000000000000000000000000000000815260040160405180910390fd5b7f85eff0afbad8d05a6ac2a2282b7f9c478da3b650e17f9a77fd2748e3148f1b01548161171a7f52c63247e1f47db19d5ce0460030c497f067ca4cebf71ba98eeadabe20bace025490565b6117249190613fe1565b101561175c576040517fc9f1636200000000000000000000000000000000000000000000000000000000815260040160405180910390fd5b61176633826121d0565b6040516001600160a01b0383169085156108fc029086906000818181858888f1935050505015801561179c573d6000803e3d6000fd5b5050505050565b610d7e838383611149565b7f828634d95e775031b9ff576b159a8509d3053581a8c9c4d7d86899e0afcd882f6117d881612044565b7f52c63247e1f47db19d5ce0460030c497f067ca4cebf71ba98eeadabe20bace0254821015611833576040517f4fe40e6700000000000000000000000000000000000000000000000000000000815260040160405180910390fd5b7f85eff0afbad8d05a6ac2a2282b7f9c478da3b650e17f9a77fd2748e3148f1b007f85eff0afbad8d05a6ac2a2282b7f9c478da3b650e17f9a77fd2748e3148f1b0361187f8582613f0b565b50600201919091555050565b834211156118c8576040517f62791302000000000000000000000000000000000000000000000000000000008152600481018590526024016113b6565b60007f6e71edae12b1b97f4d1f60370fef10105fa2faae0126114a169c64845d6126c98888886119348c6001600160a01b031660009081527f5ab42ced628888259c08ac98db1eb0cf702fc1501344311d8b100cd1bfe4bb006020526040902080546001810190915590565b6040805160208101969096526001600160a01b0394851690860152929091166060840152608083015260a082015260c0810186905260e001604051602081830303815290604052805190602001209050600061198f82611d01565b9050600061199f8287878761241e565b9050896001600160a01b0316816001600160a01b0316146119ff576040517f4b800e460000000000000000000000000000000000000000000000000000000081526001600160a01b0380831660048301528b1660248201526044016113b6565b611a0a8a8a8a611d49565b50505050505050505050565b60008281527f02dd7bc7dec4dceedda775e58dd541e08a116c6c53815c0bd028192f7b6268006020526040902060010154611a5081612044565b610d1d838361212a565b6000611a847f52c63247e1f47db19d5ce0460030c497f067ca4cebf71ba98eeadabe20bace025490565b1580611a8e575047155b15611a995750600090565b6000611ac9611ac67f52c63247e1f47db19d5ce0460030c497f067ca4cebf71ba98eeadabe20bace025490565b90565b905060004790506000611b13670de0b6b3a7640000611b097f85eff0afbad8d05a6ac2a2282b7f9c478da3b650e17f9a77fd2748e3148f1b005460ff1690565b611ac69190614007565b90506000611b21838561244c565b9050611b368168056bc75e2d63100000612464565b9050611b42818361244c565b95945050505050565b34600003611b85576040517faa7feadc00000000000000000000000000000000000000000000000000000000815260040160405180910390fd5b6000611b918334612473565b905080341015611bcd576040517fc99fbc1000000000000000000000000000000000000000000000000000000000815260040160405180910390fd5b7f85eff0afbad8d05a6ac2a2282b7f9c478da3b650e17f9a77fd2748e3148f1b025483611c187f52c63247e1f47db19d5ce0460030c497f067ca4cebf71ba98eeadabe20bace025490565b611c229190613ff4565b1115611c5a576040517f763303a600000000000000000000000000000000000000000000000000000000815260040160405180910390fd5b611c648284612282565b80341115610d7e57336108fc611c7a8334613fe1565b6040518115909202916000818181858888f19350505050158015610d1d573d6000803e3d6000fd5b6000610a64611ccf7f52c63247e1f47db19d5ce0460030c497f067ca4cebf71ba98eeadabe20bace025490565b47611cfb7f85eff0afbad8d05a6ac2a2282b7f9c478da3b650e17f9a77fd2748e3148f1b005460ff1690565b856123ac565b6000610a64611d0e612120565b836040517f19010000000000000000000000000000000000000000000000000000000000008152600281019290925260228201526042902090565b610d7e83838360016124d5565b600082606403611d7f57611d7884611d6e8488614007565b611ac69190614034565b9050610bdb565b84846000611d97611ac687662386f26fc10000614007565b9050846000611da6828561244c565b9050611dba81670de0b6b3a7640000612600565b9050611dc6818461260f565b90506000611dde670de0b6b3a76400005b8390612721565b9050611dea8682612464565b9b9a5050505050505050505050565b6000848203611e09575082610bdb565b82606403611e1f57611d7885611d6e8487614007565b84846000611e39611ac68768056bc75e2d63100000614034565b9050846000611e48828661244c565b9050611e5e81670de0b6b3a76400005b90612721565b9050611e6a818461260f565b9050611e7e81670de0b6b3a7640000611e58565b9050611e8a8482612464565b9a9950505050505050505050565b6001600160a01b0383811660009081527f52c63247e1f47db19d5ce0460030c497f067ca4cebf71ba98eeadabe20bace0160209081526040808320938616835292905220546000198114610d1d5781811015611f39576040517ffb8f41b20000000000000000000000000000000000000000000000000000000081526001600160a01b038416600482015260248101829052604481018390526064016113b6565b610d1d848484840360006124d5565b6001600160a01b038316611f8b576040517f96c6fd1e000000000000000000000000000000000000000000000000000000008152600060048201526024016113b6565b6001600160a01b038216611fce576040517fec442f05000000000000000000000000000000000000000000000000000000008152600060048201526024016113b6565b610d7e838383612730565b600082606403611ff157611d7884611d6e8785614007565b84846000612009611ac687662386f26fc10000614007565b90508460006120188483612721565b905061202e83612028838761244c565b9061260f565b90506000611dde82670de0b6b3a7640000611e58565b61204e8133612761565b50565b60008281527f02dd7bc7dec4dceedda775e58dd541e08a116c6c53815c0bd028192f7b626800602081815260408084206001600160a01b038616855290915282205460ff16612116576000848152602082815260408083206001600160a01b03871684529091529020805460ff191660011790556120cc3390565b6001600160a01b0316836001600160a01b0316857f2f8788117e7eff1d82e926ec794901d17c78024a50270940304540a733656f0d60405160405180910390a46001915050610a64565b6000915050610a64565b6000610d2d6127ee565b60008281527f02dd7bc7dec4dceedda775e58dd541e08a116c6c53815c0bd028192f7b626800602081815260408084206001600160a01b038616855290915282205460ff1615612116576000848152602082815260408083206001600160a01b0387168085529252808320805460ff1916905551339287917ff6391f5c32d9c69d2a47ea670b442974b53935d1edc7fd64eb21e047a839171b9190a46001915050610a64565b6001600160a01b038216612213576040517f96c6fd1e000000000000000000000000000000000000000000000000000000008152600060048201526024016113b6565b61130682600083612730565b612227612862565b61130682826128c9565b612239612862565b61204e816040518060400160405280600181526020017f310000000000000000000000000000000000000000000000000000000000000081525061292c565b612280612862565b565b6001600160a01b0382166122c5576040517fec442f05000000000000000000000000000000000000000000000000000000008152600060048201526024016113b6565b61130660008383612730565b6000807f5ab42ced628888259c08ac98db1eb0cf702fc1501344311d8b100cd1bfe4bb00611129565b7fa16a46d94261c7517cc8ff89f61c0ce93598e3c849801011dee649a6a557d10280546060917fa16a46d94261c7517cc8ff89f61c0ce93598e3c849801011dee649a6a557d10091610b2e90613e83565b606060007fa16a46d94261c7517cc8ff89f61c0ce93598e3c849801011dee649a6a557d100610b1d565b6000610a646123a27f52c63247e1f47db19d5ce0460030c497f067ca4cebf71ba98eeadabe20bace025490565b61107a8447613fe1565b6000826064036123c457611d7885611d6e8685614007565b848460006123de611ac68768056bc75e2d63100000614034565b90508460006123ed8286612600565b90506123fd83612028838861244c565b90506000612412670de0b6b3a7640000611dd7565b9050611dea8582612464565b6000806000806124308888888861299f565b9250925092506124408282612a6e565b50909695505050505050565b6000610c10611ac684670de0b6b3a764000085612b72565b6000610c10611ac68484612c5f565b6000610c106124a07f52c63247e1f47db19d5ce0460030c497f067ca4cebf71ba98eeadabe20bace025490565b6124aa8447613fe1565b7f85eff0afbad8d05a6ac2a2282b7f9c478da3b650e17f9a77fd2748e3148f1b005460ff16866123ac565b7f52c63247e1f47db19d5ce0460030c497f067ca4cebf71ba98eeadabe20bace006001600160a01b038516612539576040517fe602df05000000000000000000000000000000000000000000000000000000008152600060048201526024016113b6565b6001600160a01b03841661257c576040517f94280d62000000000000000000000000000000000000000000000000000000008152600060048201526024016113b6565b6001600160a01b0380861660009081526001830160209081526040808320938816835292905220839055811561179c57836001600160a01b0316856001600160a01b03167f8c5be1e5ebec7d5bd14f71427d1e84f3dd0314c0f7b2291e5b200ac8c7c3b925856040516125f191815260200190565b60405180910390a35050505050565b6000610c10611ac68385613ff4565b6000828281830361263a578015612627576000612631565b670de0b6b3a76400005b92505050610a64565b670de0b6b3a7640000820361265b57670de0b6b3a764000092505050610a64565b8060000361267557670de0b6b3a764000092505050610a64565b670de0b6b3a7640000810361268e578492505050610a64565b670de0b6b3a76400008211156126bf576126b86126b36126ad87612d48565b86612464565b612eab565b9250612719565b60006126dd611ac6846ec097ce7bc90715b34b9f1000000000614034565b905060006126f66126b36126f084612d48565b88612464565b9050612714611ac6826ec097ce7bc90715b34b9f1000000000614034565b945050505b505092915050565b6000610c10611ac68385613fe1565b61273b838383612f1a565b6001600160a01b03838116159083161581806127545750805b1561179c5761179c613083565b60008281527f02dd7bc7dec4dceedda775e58dd541e08a116c6c53815c0bd028192f7b626800602090815260408083206001600160a01b038516845290915290205460ff16611306576040517fe2517d3f0000000000000000000000000000000000000000000000000000000081526001600160a01b0382166004820152602481018390526044016113b6565b60007f8b73c3c69bb8fe3d512ecc4cf759cc79239f7b179b0ffacaa9a75d522b39400f6128196130f5565b612821613171565b60408051602081019490945283019190915260608201524660808201523060a082015260c00160405160208183030381529060405280519060200120905090565b7ff0c57e16840df040f15088dc2f81fe391c3923bec73e23a9662efc9c229c6a005468010000000000000000900460ff16612280576040517fd7e6bcf800000000000000000000000000000000000000000000000000000000815260040160405180910390fd5b6128d1612862565b7f52c63247e1f47db19d5ce0460030c497f067ca4cebf71ba98eeadabe20bace007f52c63247e1f47db19d5ce0460030c497f067ca4cebf71ba98eeadabe20bace0361291d8482613f0b565b5060048101610d1d8382613f0b565b612934612862565b7fa16a46d94261c7517cc8ff89f61c0ce93598e3c849801011dee649a6a557d1007fa16a46d94261c7517cc8ff89f61c0ce93598e3c849801011dee649a6a557d1026129808482613f0b565b506003810161298f8382613f0b565b5060008082556001909101555050565b600080807f7fffffffffffffffffffffffffffffff5d576e7357a4501ddfe92f46681b20a08411156129da5750600091506003905082612a64565b604080516000808252602082018084528a905260ff891692820192909252606081018790526080810186905260019060a0016020604051602081039080840390855afa158015612a2e573d6000803e3d6000fd5b5050604051601f1901519150506001600160a01b038116612a5a57506000925060019150829050612a64565b9250600091508190505b9450945094915050565b6000826003811115612a8257612a82614056565b03612a8b575050565b6001826003811115612a9f57612a9f614056565b03612ad6576040517ff645eedf00000000000000000000000000000000000000000000000000000000815260040160405180910390fd5b6002826003811115612aea57612aea614056565b03612b24576040517ffce698f7000000000000000000000000000000000000000000000000000000008152600481018290526024016113b6565b6003826003811115612b3857612b38614056565b03611306576040517fd78bce0c000000000000000000000000000000000000000000000000000000008152600481018290526024016113b6565b6000808060001985870985870292508281108382030391505080600003612bac57838281612ba257612ba261401e565b0492505050610c10565b838110612bf6576040517f63a057780000000000000000000000000000000000000000000000000000000081526004810187905260248101869052604481018590526064016113b6565b60008486880960026001871981018816978890046003810283188082028403028082028403028082028403028082028403028082028403029081029092039091026000889003889004909101858311909403939093029303949094049190911702949350505050565b6000808060001984860984860292508281108382030391505080600003612c935750670de0b6b3a764000090049050610a64565b670de0b6b3a76400008110612cde576040517f5173648d00000000000000000000000000000000000000000000000000000000815260048101869052602481018590526044016113b6565b6000670de0b6b3a7640000858709620400008185030493109091037d40000000000000000000000000000000000000000000000000000000000002919091177faccb18165bd6fe31ae1cf318dc5b51eee0e1ba569b88cd74c1773b91fac106690291505092915050565b600081670de0b6b3a7640000811015612d90576040517f36d32ef0000000000000000000000000000000000000000000000000000000008152600481018490526024016113b6565b6000612e1c670de0b6b3a7640000830460016fffffffffffffffffffffffffffffffff821160071b91821c67ffffffffffffffff811160061b90811c63ffffffff811160051b90811c61ffff811160041b90811c60ff8111600390811b91821c600f811160021b90811c918211871b91821c969096119490961792909217171791909117919091171790565b9050670de0b6b3a7640000810282821c7ffffffffffffffffffffffffffffffffffffffffffffffffff21f494c589c00008101612e5c5750949350505050565b671bc16d674ec800006706f05b59d3b200005b8015612e9f57670de0b6b3a7640000838002049250818310612e97579283019260019290921c915b60011c612e6f565b50919695505050505050565b600081680a688906bd8affffff811115612ef4576040517fb3b6ba1f000000000000000000000000000000000000000000000000000000008152600481018490526024016113b6565b6000612f0c670de0b6b3a7640000604084901b614034565b9050610bdb611ac6826131c7565b7f52c63247e1f47db19d5ce0460030c497f067ca4cebf71ba98eeadabe20bace006001600160a01b038416612f685781816002016000828254612f5d9190613ff4565b90915550612ff39050565b6001600160a01b03841660009081526020829052604090205482811015612fd4576040517fe450d38c0000000000000000000000000000000000000000000000000000000081526001600160a01b038616600482015260248101829052604481018490526064016113b6565b6001600160a01b03851660009081526020839052604090209083900390555b6001600160a01b038316613011576002810180548390039055613030565b6001600160a01b03831660009081526020829052604090208054830190555b826001600160a01b0316846001600160a01b03167fddf252ad1be2c89b69c2b068fc378daa952ba7f163c4a11628f55a4df523b3ef8460405161307591815260200190565b60405180910390a350505050565b7f736a4a5812ced57865d349f18ffc358079c6b479326c0dfd1dae30c465b1daf2476130cd7f52c63247e1f47db19d5ce0460030c497f067ca4cebf71ba98eeadabe20bace025490565b6130d5611a5a565b6040805193845260208401929092529082015260600160405180910390a1565b60007fa16a46d94261c7517cc8ff89f61c0ce93598e3c849801011dee649a6a557d100816131216122fa565b80519091501561313957805160209091012092915050565b81548015613148579392505050565b7fc5d2460186f7233c927e7db2dcc703c0e500b653ca82273b7bfad8045d85a470935050505090565b60007fa16a46d94261c7517cc8ff89f61c0ce93598e3c849801011dee649a6a557d1008161319d61234b565b8051909150156131b557805160209091012092915050565b60018201548015613148579392505050565b7780000000000000000000000000000000000000000000000067ff000000000000008216156132e85767800000000000000082161561320f5768016a09e667f3bcc9090260401c5b67400000000000000082161561322e576801306fe0a31b7152df0260401c5b67200000000000000082161561324d576801172b83c7d517adce0260401c5b67100000000000000082161561326c5768010b5586cf9890f62a0260401c5b67080000000000000082161561328b576801059b0d31585743ae0260401c5b6704000000000000008216156132aa57680102c9a3e778060ee70260401c5b6702000000000000008216156132c95768010163da9fb33356d80260401c5b6701000000000000008216156132e857680100b1afa5abcbed610260401c5b66ff0000000000008216156133e75766800000000000008216156133155768010058c86da1c09ea20260401c5b6640000000000000821615613333576801002c605e2e8cec500260401c5b662000000000000082161561335157680100162f3904051fa10260401c5b661000000000000082161561336f576801000b175effdc76ba0260401c5b660800000000000082161561338d57680100058ba01fb9f96d0260401c5b66040000000000008216156133ab5768010002c5cc37da94920260401c5b66020000000000008216156133c9576801000162e525ee05470260401c5b66010000000000008216156133e75768010000b17255775c040260401c5b65ff00000000008216156134dd5765800000000000821615613412576801000058b91b5bc9ae0260401c5b6540000000000082161561342f57680100002c5c89d5ec6d0260401c5b6520000000000082161561344c5768010000162e43f4f8310260401c5b6510000000000082161561346957680100000b1721bcfc9a0260401c5b650800000000008216156134865768010000058b90cf1e6e0260401c5b650400000000008216156134a3576801000002c5c863b73f0260401c5b650200000000008216156134c057680100000162e430e5a20260401c5b650100000000008216156134dd576801000000b1721835510260401c5b64ff000000008216156135ca5764800000000082161561350657680100000058b90c0b490260401c5b6440000000008216156135225768010000002c5c8601cc0260401c5b64200000000082161561353e576801000000162e42fff00260401c5b64100000000082161561355a5768010000000b17217fbb0260401c5b640800000000821615613576576801000000058b90bfce0260401c5b64040000000082161561359257680100000002c5c85fe30260401c5b6402000000008216156135ae5768010000000162e42ff10260401c5b6401000000008216156135ca57680100000000b17217f80260401c5b63ff0000008216156136ae5763800000008216156135f15768010000000058b90bfc0260401c5b634000000082161561360c576801000000002c5c85fe0260401c5b632000000082161561362757680100000000162e42ff0260401c5b6310000000821615613642576801000000000b17217f0260401c5b630800000082161561365d57680100000000058b90c00260401c5b63040000008216156136785768010000000002c5c8600260401c5b6302000000821615613693576801000000000162e4300260401c5b63010000008216156136ae5768010000000000b172180260401c5b62ff000082161561378957628000008216156136d3576801000000000058b90c0260401c5b624000008216156136ed57680100000000002c5c860260401c5b622000008216156137075768010000000000162e430260401c5b6210000082161561372157680100000000000b17210260401c5b6208000082161561373b5768010000000000058b910260401c5b62040000821615613755576801000000000002c5c80260401c5b6202000082161561376f57680100000000000162e40260401c5b62010000821615613789576801000000000000b1720260401c5b61ff0082161561385b576180008216156137ac57680100000000000058b90260401c5b6140008216156137c55768010000000000002c5d0260401c5b6120008216156137de576801000000000000162e0260401c5b6110008216156137f75768010000000000000b170260401c5b610800821615613810576801000000000000058c0260401c5b61040082161561382957680100000000000002c60260401c5b61020082161561384257680100000000000001630260401c5b61010082161561385b57680100000000000000b10260401c5b60ff82161561392457608082161561387c57680100000000000000590260401c5b6040821615613894576801000000000000002c0260401c5b60208216156138ac57680100000000000000160260401c5b60108216156138c4576801000000000000000b0260401c5b60088216156138dc57680100000000000000060260401c5b60048216156138f457680100000000000000030260401c5b600282161561390c57680100000000000000010260401c5b600182161561392457680100000000000000010260401c5b670de0b6b3a76400000260409190911c60bf031c90565b60006020828403121561394d57600080fd5b81357fffffffff0000000000000000000000000000000000000000000000000000000081168114610c1057600080fd5b80356001600160a01b038116811461399457600080fd5b919050565b600080600080600060a086880312156139b157600080fd5b6139ba8661397d565b94506139c86020870161397d565b94979496505050506040830135926060810135926080909101359150565b6000815180845260005b81811015613a0c576020818501810151868301820152016139f0565b506000602082860101526020601f19601f83011685010191505092915050565b602081526000610c1060208301846139e6565b60008060408385031215613a5257600080fd5b613a5b8361397d565b946020939093013593505050565b60008060008060808587031215613a7f57600080fd5b5050823594602084013594506040840135936060013592509050565b600080600060608486031215613ab057600080fd5b613ab98461397d565b9250613ac76020850161397d565b9150604084013590509250925092565b600060208284031215613ae957600080fd5b5035919050565b60008060408385031215613b0357600080fd5b82359150613b136020840161397d565b90509250929050565b634e487b7160e01b600052604160045260246000fd5b600082601f830112613b4357600080fd5b813567ffffffffffffffff80821115613b5e57613b5e613b1c565b604051601f8301601f19908116603f01168101908282118183101715613b8657613b86613b1c565b81604052838152866020858801011115613b9f57600080fd5b836020870160208301376000602085830101528094505050505092915050565b803560ff8116811461399457600080fd5b60008060008060008060008060006101208a8c031215613bef57600080fd5b893567ffffffffffffffff80821115613c0757600080fd5b613c138d838e01613b32565b9a5060208c0135915080821115613c2957600080fd5b613c358d838e01613b32565b9950613c4360408d0161397d565b9850613c5160608d0161397d565b9750613c5f60808d01613bbf565b965060a08c0135955060c08c0135945060e08c013593506101008c0135915080821115613c8b57600080fd5b50613c988c828d01613b32565b9150509295985092959850929598565b600060208284031215613cba57600080fd5b610c108261397d565b600080600060608486031215613cd857600080fd5b8335925060208401359150613cef6040850161397d565b90509250925092565b7fff00000000000000000000000000000000000000000000000000000000000000881681526000602060e081840152613d3460e084018a6139e6565b8381036040850152613d46818a6139e6565b606085018990526001600160a01b038816608086015260a0850187905284810360c0860152855180825283870192509083019060005b81811015613d9857835183529284019291840191600101613d7c565b50909c9b505050505050505050505050565b60008060408385031215613dbd57600080fd5b823567ffffffffffffffff811115613dd457600080fd5b613de085828601613b32565b95602094909401359450505050565b600080600080600080600060e0888a031215613e0a57600080fd5b613e138861397d565b9650613e216020890161397d565b95506040880135945060608801359350613e3d60808901613bbf565b925060a0880135915060c0880135905092959891949750929550565b60008060408385031215613e6c57600080fd5b613e758361397d565b9150613b136020840161397d565b600181811c90821680613e9757607f821691505b602082108103613eb757634e487b7160e01b600052602260045260246000fd5b50919050565b601f821115610d7e57600081815260208120601f850160051c81016020861015613ee45750805b601f850160051c820191505b81811015613f0357828155600101613ef0565b505050505050565b815167ffffffffffffffff811115613f2557613f25613b1c565b613f3981613f338454613e83565b84613ebd565b602080601f831160018114613f6e5760008415613f565750858301515b600019600386901b1c1916600185901b178555613f03565b600085815260208120601f198616915b82811015613f9d57888601518255948401946001909101908401613f7e565b5085821015613fbb5787850151600019600388901b60f8161c191681555b5050505050600190811b01905550565b634e487b7160e01b600052601160045260246000fd5b81810381811115610a6457610a64613fcb565b80820180821115610a6457610a64613fcb565b8082028115828204841417610a6457610a64613fcb565b634e487b7160e01b600052601260045260246000fd5b60008261405157634e487b7160e01b600052601260045260246000fd5b500490565b634e487b7160e01b600052602160045260246000fdfea26469706673582212207f07237ee6a2a06cc8e64d6b67562ecd1cef337f2fdabfce23958bde087dc99f64736f6c63430008140033",
  "linkReferences": {},
  "deployedLinkReferences": {}
}