{
  "_format": "hh-sol-artifact-1",
  "contractName": "DecimalBridge",
  "sourceName": "contracts/DecimalBridge.sol",
  "abi": [
    {
      "inputs": [],
      "stateMutability": "nonpayable",
      "type": "constructor"
    },
    {
      "inputs": [],
      "name": "ActionAlreadyConsumed",
      "type": "error"
    },
    {
      "inputs": [
        {
          "internalType": "address",
          "name": "target",
          "type": "address"
        }
      ],
      "name": "AddressEmptyCode",
      "type": "error"
    },
    {
      "inputs": [
        {
          "internalType": "address",
          "name": "account",
          "type": "address"
        }
      ],
      "name": "AddressInsufficientBalance",
      "type": "error"
    },
    {
      "inputs": [],
      "name": "AlreadyWrapped",
      "type": "error"
    },
    {
      "inputs": [],
      "name": "CanOnlyUnwrapETH",
      "type": "error"
    },
    {
      "inputs": [],
      "name": "CannotWrapNativeToken",
      "type": "error"
    },
    {
      "inputs": [
        {
          "internalType": "uint256",
          "name": "index",
          "type": "uint256"
        }
      ],
      "name": "CompleteTransferBatchError",
      "type": "error"
    },
    {
      "inputs": [
        {
          "internalType": "address",
          "name": "implementation",
          "type": "address"
        }
      ],
      "name": "ERC1967InvalidImplementation",
      "type": "error"
    },
    {
      "inputs": [],
      "name": "ERC1967NonPayable",
      "type": "error"
    },
    {
      "inputs": [],
      "name": "FailedInnerCall",
      "type": "error"
    },
    {
      "inputs": [],
      "name": "InvalidAddress",
      "type": "error"
    },
    {
      "inputs": [],
      "name": "InvalidAmount",
      "type": "error"
    },
    {
      "inputs": [],
      "name": "InvalidInitialization",
      "type": "error"
    },
    {
      "inputs": [],
      "name": "InvalidNewDirections",
      "type": "error"
    },
    {
      "inputs": [],
      "name": "InvalidPayloadChain",
      "type": "error"
    },
    {
      "inputs": [],
      "name": "InvalidPayloadDomain",
      "type": "error"
    },
    {
      "inputs": [],
      "name": "InvalidPayloadId",
      "type": "error"
    },
    {
      "inputs": [],
      "name": "InvalidPayloadLength",
      "type": "error"
    },
    {
      "inputs": [],
      "name": "NoWrapped",
      "type": "error"
    },
    {
      "inputs": [],
      "name": "NotEnoughFee",
      "type": "error"
    },
    {
      "inputs": [],
      "name": "NotInitializing",
      "type": "error"
    },
    {
      "inputs": [],
      "name": "OutOfBounds",
      "type": "error"
    },
    {
      "inputs": [
        {
          "internalType": "address",
          "name": "token",
          "type": "address"
        }
      ],
      "name": "SafeERC20FailedOperation",
      "type": "error"
    },
    {
      "inputs": [],
      "name": "TransferAlreadyCreated",
      "type": "error"
    },
    {
      "inputs": [
        {
          "internalType": "string",
          "name": "reason",
          "type": "string"
        }
      ],
      "name": "VerificationError",
      "type": "error"
    },
    {
      "inputs": [],
      "name": "WrongChainTo",
      "type": "error"
    },
    {
      "inputs": [],
      "name": "ZeroAddress",
      "type": "error"
    },
    {
      "inputs": [],
      "name": "ZeroAmount",
      "type": "error"
    },
    {
      "anonymous": false,
      "inputs": [
        {
          "indexed": true,
          "internalType": "address",
          "name": "oldContract",
          "type": "address"
        },
        {
          "indexed": true,
          "internalType": "address",
          "name": "newContract",
          "type": "address"
        }
      ],
      "name": "ContractUpgraded",
      "type": "event"
    },
    {
      "anonymous": false,
      "inputs": [
        {
          "indexed": false,
          "internalType": "uint64",
          "name": "version",
          "type": "uint64"
        }
      ],
      "name": "Initialized",
      "type": "event"
    },
    {
      "anonymous": false,
      "inputs": [
        {
          "indexed": true,
          "internalType": "address",
          "name": "oldContract",
          "type": "address"
        },
        {
          "indexed": true,
          "internalType": "address",
          "name": "newContract",
          "type": "address"
        }
      ],
      "name": "TokenContractUpgraded",
      "type": "event"
    },
    {
      "anonymous": false,
      "inputs": [
        {
          "indexed": true,
          "internalType": "bytes32",
          "name": "token",
          "type": "bytes32"
        },
        {
          "indexed": true,
          "internalType": "address",
          "name": "to",
          "type": "address"
        },
        {
          "indexed": false,
          "internalType": "bytes32",
          "name": "transferHash",
          "type": "bytes32"
        },
        {
          "indexed": false,
          "internalType": "uint256",
          "name": "tokenChainId",
          "type": "uint256"
        }
      ],
      "name": "TransferCompleted",
      "type": "event"
    },
    {
      "anonymous": false,
      "inputs": [
        {
          "indexed": false,
          "internalType": "bytes",
          "name": "payload",
          "type": "bytes"
        },
        {
          "indexed": false,
          "internalType": "uint256",
          "name": "serviceFee",
          "type": "uint256"
        }
      ],
      "name": "TransferInitialized",
      "type": "event"
    },
    {
      "anonymous": false,
      "inputs": [
        {
          "indexed": true,
          "internalType": "address",
          "name": "implementation",
          "type": "address"
        }
      ],
      "name": "Upgraded",
      "type": "event"
    },
    {
      "inputs": [],
      "name": "chainId",
      "outputs": [
        {
          "internalType": "uint256",
          "name": "",
          "type": "uint256"
        }
      ],
      "stateMutability": "view",
      "type": "function"
    },
    {
      "inputs": [
        {
          "internalType": "bytes",
          "name": "encodedVM",
          "type": "bytes"
        },
        {
          "internalType": "bool",
          "name": "unwrapWETH",
          "type": "bool"
        }
      ],
      "name": "completeTransfer",
      "outputs": [],
      "stateMutability": "nonpayable",
      "type": "function"
    },
    {
      "inputs": [
        {
          "internalType": "bytes[]",
          "name": "encodedVMs",
          "type": "bytes[]"
        },
        {
          "internalType": "bool[]",
          "name": "unwrapWETHs",
          "type": "bool[]"
        }
      ],
      "name": "completeTransferBatch",
      "outputs": [],
      "stateMutability": "nonpayable",
      "type": "function"
    },
    {
      "inputs": [],
      "name": "decimalBridgeV1",
      "outputs": [
        {
          "internalType": "contract IDecimalBridgeV1",
          "name": "",
          "type": "address"
        }
      ],
      "stateMutability": "view",
      "type": "function"
    },
    {
      "inputs": [],
      "name": "decimalChainId",
      "outputs": [
        {
          "internalType": "uint256",
          "name": "",
          "type": "uint256"
        }
      ],
      "stateMutability": "view",
      "type": "function"
    },
    {
      "inputs": [
        {
          "components": [
            {
              "components": [
                {
                  "internalType": "enum DecimalBridge.ActionType",
                  "name": "actionType",
                  "type": "uint8"
                },
                {
                  "internalType": "uint256",
                  "name": "chainId",
                  "type": "uint256"
                },
                {
                  "internalType": "bytes32",
                  "name": "domain",
                  "type": "bytes32"
                }
              ],
              "internalType": "struct DecimalBridge.ActionMeta",
              "name": "actionMeta",
              "type": "tuple"
            },
            {
              "internalType": "uint256",
              "name": "amount",
              "type": "uint256"
            },
            {
              "internalType": "bytes32",
              "name": "tokenAddress",
              "type": "bytes32"
            },
            {
              "internalType": "uint256",
              "name": "tokenChainId",
              "type": "uint256"
            },
            {
              "internalType": "bytes32",
              "name": "to",
              "type": "bytes32"
            },
            {
              "internalType": "uint256",
              "name": "toChainId",
              "type": "uint256"
            },
            {
              "internalType": "uint16",
              "name": "nonce",
              "type": "uint16"
            },
            {
              "internalType": "uint8",
              "name": "decimals",
              "type": "uint8"
            },
            {
              "internalType": "bytes32",
              "name": "symbol",
              "type": "bytes32"
            },
            {
              "internalType": "bytes32",
              "name": "name",
              "type": "bytes32"
            }
          ],
          "internalType": "struct DecimalBridge.Transfer",
          "name": "transfer",
          "type": "tuple"
        }
      ],
      "name": "encodeTransfer",
      "outputs": [
        {
          "internalType": "bytes",
          "name": "",
          "type": "bytes"
        }
      ],
      "stateMutability": "pure",
      "type": "function"
    },
    {
      "inputs": [],
      "name": "implementation",
      "outputs": [
        {
          "internalType": "address",
          "name": "",
          "type": "address"
        }
      ],
      "stateMutability": "view",
      "type": "function"
    },
    {
      "inputs": [
        {
          "internalType": "bytes32",
          "name": "hash",
          "type": "bytes32"
        }
      ],
      "name": "isActionConsumed",
      "outputs": [
        {
          "internalType": "bool",
          "name": "",
          "type": "bool"
        }
      ],
      "stateMutability": "view",
      "type": "function"
    },
    {
      "inputs": [
        {
          "internalType": "uint256",
          "name": "chainId0",
          "type": "uint256"
        },
        {
          "internalType": "uint256",
          "name": "chainId1",
          "type": "uint256"
        }
      ],
      "name": "isActiveDirection",
      "outputs": [
        {
          "internalType": "bool",
          "name": "",
          "type": "bool"
        }
      ],
      "stateMutability": "view",
      "type": "function"
    },
    {
      "inputs": [
        {
          "internalType": "bytes32",
          "name": "hash",
          "type": "bytes32"
        }
      ],
      "name": "isTransferCreated",
      "outputs": [
        {
          "internalType": "bool",
          "name": "",
          "type": "bool"
        }
      ],
      "stateMutability": "view",
      "type": "function"
    },
    {
      "inputs": [
        {
          "internalType": "address",
          "name": "token",
          "type": "address"
        }
      ],
      "name": "isWrappedToken",
      "outputs": [
        {
          "internalType": "bool",
          "name": "",
          "type": "bool"
        }
      ],
      "stateMutability": "view",
      "type": "function"
    },
    {
      "inputs": [
        {
          "internalType": "uint256",
          "name": "feeChainId",
          "type": "uint256"
        }
      ],
      "name": "minimalServiceFees",
      "outputs": [
        {
          "internalType": "uint256",
          "name": "",
          "type": "uint256"
        }
      ],
      "stateMutability": "view",
      "type": "function"
    },
    {
      "inputs": [
        {
          "internalType": "bytes",
          "name": "encoded",
          "type": "bytes"
        }
      ],
      "name": "parseTransfer",
      "outputs": [
        {
          "components": [
            {
              "components": [
                {
                  "internalType": "enum DecimalBridge.ActionType",
                  "name": "actionType",
                  "type": "uint8"
                },
                {
                  "internalType": "uint256",
                  "name": "chainId",
                  "type": "uint256"
                },
                {
                  "internalType": "bytes32",
                  "name": "domain",
                  "type": "bytes32"
                }
              ],
              "internalType": "struct DecimalBridge.ActionMeta",
              "name": "actionMeta",
              "type": "tuple"
            },
            {
              "internalType": "uint256",
              "name": "amount",
              "type": "uint256"
            },
            {
              "internalType": "bytes32",
              "name": "tokenAddress",
              "type": "bytes32"
            },
            {
              "internalType": "uint256",
              "name": "tokenChainId",
              "type": "uint256"
            },
            {
              "internalType": "bytes32",
              "name": "to",
              "type": "bytes32"
            },
            {
              "internalType": "uint256",
              "name": "toChainId",
              "type": "uint256"
            },
            {
              "internalType": "uint16",
              "name": "nonce",
              "type": "uint16"
            },
            {
              "internalType": "uint8",
              "name": "decimals",
              "type": "uint8"
            },
            {
              "internalType": "bytes32",
              "name": "symbol",
              "type": "bytes32"
            },
            {
              "internalType": "bytes32",
              "name": "name",
              "type": "bytes32"
            }
          ],
          "internalType": "struct DecimalBridge.Transfer",
          "name": "action",
          "type": "tuple"
        }
      ],
      "stateMutability": "pure",
      "type": "function"
    },
    {
      "inputs": [],
      "name": "tokenMatcher",
      "outputs": [
        {
          "internalType": "contract ITokenMatcher",
          "name": "",
          "type": "address"
        }
      ],
      "stateMutability": "view",
      "type": "function"
    },
    {
      "inputs": [
        {
          "internalType": "address",
          "name": "token",
          "type": "address"
        },
        {
          "internalType": "bytes32",
          "name": "to",
          "type": "bytes32"
        },
        {
          "internalType": "uint256",
          "name": "amount",
          "type": "uint256"
        },
        {
          "internalType": "uint256",
          "name": "toChainId",
          "type": "uint256"
        },
        {
          "internalType": "uint16",
          "name": "nonce",
          "type": "uint16"
        }
      ],
      "name": "transferTokens",
      "outputs": [],
      "stateMutability": "payable",
      "type": "function"
    },
    {
      "inputs": [
        {
          "internalType": "bytes",
          "name": "encodedVM",
          "type": "bytes"
        }
      ],
      "name": "updateDirections",
      "outputs": [],
      "stateMutability": "nonpayable",
      "type": "function"
    },
    {
      "inputs": [
        {
          "internalType": "bytes",
          "name": "encodedVM",
          "type": "bytes"
        }
      ],
      "name": "updateMinimalServiceFee",
      "outputs": [],
      "stateMutability": "nonpayable",
      "type": "function"
    },
    {
      "inputs": [
        {
          "internalType": "bytes",
          "name": "encodedVM",
          "type": "bytes"
        }
      ],
      "name": "updateToken",
      "outputs": [],
      "stateMutability": "nonpayable",
      "type": "function"
    },
    {
      "inputs": [
        {
          "internalType": "bytes",
          "name": "encodedVM",
          "type": "bytes"
        }
      ],
      "name": "updateTokenMatcher",
      "outputs": [],
      "stateMutability": "nonpayable",
      "type": "function"
    },
    {
      "inputs": [
        {
          "internalType": "bytes",
          "name": "encodedVM",
          "type": "bytes"
        }
      ],
      "name": "upgrade",
      "outputs": [],
      "stateMutability": "nonpayable",
      "type": "function"
    },
    {
      "inputs": [
        {
          "internalType": "bytes",
          "name": "encodedVM",
          "type": "bytes"
        }
      ],
      "name": "upgradeToken",
      "outputs": [],
      "stateMutability": "nonpayable",
      "type": "function"
    },
    {
      "inputs": [],
      "name": "verifier",
      "outputs": [
        {
          "internalType": "contract IDecimalVerifier",
          "name": "",
          "type": "address"
        }
      ],
      "stateMutability": "view",
      "type": "function"
    },
    {
      "inputs": [],
      "name": "weth",
      "outputs": [
        {
          "internalType": "contract IWETH",
          "name": "",
          "type": "address"
        }
      ],
      "stateMutability": "view",
      "type": "function"
    },
    {
      "inputs": [
        {
          "internalType": "bytes",
          "name": "encodedVM",
          "type": "bytes"
        }
      ],
      "name": "withdrawFees",
      "outputs": [],
      "stateMutability": "nonpayable",
      "type": "function"
    },
    {
      "inputs": [
        {
          "internalType": "bytes32",
          "name": "to",
          "type": "bytes32"
        },
        {
          "internalType": "uint256",
          "name": "toChainId",
          "type": "uint256"
        },
        {
          "internalType": "uint16",
          "name": "nonce",
          "type": "uint16"
        },
        {
          "internalType": "uint256",
          "name": "serviceFee",
          "type": "uint256"
        }
      ],
      "name": "wrapAndTransferETH",
      "outputs": [],
      "stateMutability": "payable",
      "type": "function"
    },
    {
      "inputs": [
        {
          "internalType": "uint256",
          "name": "tokenChainId",
          "type": "uint256"
        },
        {
          "internalType": "bytes32",
          "name": "tokenAddress",
          "type": "bytes32"
        }
      ],
      "name": "wrappedTokens",
      "outputs": [
        {
          "internalType": "address",
          "name": "",
          "type": "address"
        }
      ],
      "stateMutability": "view",
      "type": "function"
    },
    {
      "stateMutability": "payable",
      "type": "receive"
    }
  ],
  "bytecode": "0x60806040523480156200001157600080fd5b506200001c62000022565b620000d6565b7ff0c57e16840df040f15088dc2f81fe391c3923bec73e23a9662efc9c229c6a00805468010000000000000000900460ff1615620000735760405163f92ee8a960e01b815260040160405180910390fd5b80546001600160401b0390811614620000d35780546001600160401b0319166001600160401b0390811782556040519081527fc7f505b2f371ae2175ee4913f4499e1f2633a7b5936321eed1cdaeb6115181d29060200160405180910390a15b50565b61561e80620000e66000396000f3fe608060405260043610620001c75760003560e01c806367ce9b4111620000f3578063a5790c971162000095578063b48ea57d116200006c578063b48ea57d1462000683578063b7f340f514620006d6578063ba03d6c81462000729578063f93f0fec146200074e57600080fd5b8063a5790c971462000614578063abfd1e031462000639578063af09775a146200065e57600080fd5b80639431f5f011620000ca5780639431f5f0146200057a57806395649442146200059f5780639a8a059214620005de57600080fd5b806367ce9b4114620004cb57806375cc5da7146200052f578063836d2e7d146200054657600080fd5b80633fc8cef3116200016957806362305eda116200014057806362305eda14620003f4578063632fb2d61462000419578063640550ca146200043057806364fb065b146200046f57600080fd5b80633fc8cef3146200034057806343d10d8b146200037f5780635c60da1b14620003b557600080fd5b80632b511375116200019e5780632b51137514620002945780632b7ac3f314620002c857806335b122bb146200031b57600080fd5b8063165e0d7214620001d45780632539464514620002375780632831410e146200025e57600080fd5b36620001cf57005b600080fd5b348015620001e157600080fd5b5062000224620001f336600462004333565b60009081527f8d356d59b58b48c93173d79658c59854a711358e7b70f704c58289c0c35c0e07602052604090205490565b6040519081526020015b60405180910390f35b3480156200024457600080fd5b506200025c620002563660046200443b565b62000773565b005b3480156200026b57600080fd5b50620002836200027d366004620044c3565b620008f2565b60405190151581526020016200022e565b348015620002a157600080fd5b50620002b9620002b33660046200443b565b62000995565b6040516200022e919062004534565b348015620002d557600080fd5b507f8d356d59b58b48c93173d79658c59854a711358e7b70f704c58289c0c35c0e06546001600160a01b03165b6040516001600160a01b0390911681526020016200022e565b3480156200032857600080fd5b506200025c6200033a3660046200443b565b62000b0a565b3480156200034d57600080fd5b507f8d356d59b58b48c93173d79658c59854a711358e7b70f704c58289c0c35c0e02546001600160a01b031662000302565b3480156200038c57600080fd5b507f8d356d59b58b48c93173d79658c59854a711358e7b70f704c58289c0c35c0e015462000224565b348015620003c257600080fd5b507f8d356d59b58b48c93173d79658c59854a711358e7b70f704c58289c0c35c0e04546001600160a01b031662000302565b3480156200040157600080fd5b506200025c62000413366004620045d9565b62000bc5565b6200025c6200042a36600462004691565b62001120565b3480156200043d57600080fd5b507f8d356d59b58b48c93173d79658c59854a711358e7b70f704c58289c0c35c0e05546001600160a01b031662000302565b3480156200047c57600080fd5b50620002836200048e366004620046e8565b6001600160a01b031660009081527f8d356d59b58b48c93173d79658c59854a711358e7b70f704c58289c0c35c0e08602052604090205460ff1690565b348015620004d857600080fd5b5062000302620004ea366004620044c3565b60009182527f8d356d59b58b48c93173d79658c59854a711358e7b70f704c58289c0c35c0e09602090815260408084209284529190529020546001600160a01b031690565b6200025c6200054036600462004708565b62001843565b3480156200055357600080fd5b506200056b62000565366004620047d3565b62001cbe565b6040516200022e9190620048cf565b3480156200058757600080fd5b506200025c620005993660046200443b565b62001da0565b348015620005ac57600080fd5b507f8d356d59b58b48c93173d79658c59854a711358e7b70f704c58289c0c35c0e03546001600160a01b031662000302565b348015620005eb57600080fd5b507f8d356d59b58b48c93173d79658c59854a711358e7b70f704c58289c0c35c0e005462000224565b3480156200062157600080fd5b506200025c620006333660046200443b565b62001e8b565b3480156200064657600080fd5b506200025c620006583660046200443b565b62001fd1565b3480156200066b57600080fd5b506200025c6200067d36600462004933565b62002102565b3480156200069057600080fd5b5062000283620006a236600462004333565b60009081527f8d356d59b58b48c93173d79658c59854a711358e7b70f704c58289c0c35c0e0c602052604090205460ff1690565b348015620006e357600080fd5b5062000283620006f536600462004333565b60009081527f8d356d59b58b48c93173d79658c59854a711358e7b70f704c58289c0c35c0e0b602052604090205460ff1690565b3480156200073657600080fd5b506200025c620007483660046200443b565b62002206565b3480156200075b57600080fd5b506200025c6200076d3660046200443b565b620023b2565b60008060006200078384620024a7565b92509250925081620007b557806040516301f5121960e21b8152600401620007ac9190620048cf565b60405180910390fd5b6000620007c684606001516200259c565b9050620007d981600001516002620025e3565b6200081c8460c0015160009081527f8d356d59b58b48c93173d79658c59854a711358e7b70f704c58289c0c35c0e0c60205260409020805460ff19166001179055565b6000620008507f360894a13ba1a3210667c828492db98dca3e2076cc3735a920a3ca505d382bbc546001600160a01b031690565b60208084015160408051600481526024810190915291820180516001600160e01b03167f8129fc1c00000000000000000000000000000000000000000000000000000000179052919250620008a691906200271d565b81602001516001600160a01b0316816001600160a01b03167f2e4cc16c100f0b55e2df82ab0b1a7e294aa9cbd01b48fbaf622683fbc0507a4960405160405180910390a3505050505050565b600081830362000905575060016200098f565b8183101562000951575060008281527f8d356d59b58b48c93173d79658c59854a711358e7b70f704c58289c0c35c0e0a6020908152604080832084845290915290205460ff166200098f565b5060008181527f8d356d59b58b48c93173d79658c59854a711358e7b70f704c58289c0c35c0e0a6020908152604080832085845290915290205460ff165b92915050565b6200099f620041ec565b600080620009ad846200277f565b8185529092509050620009c1848262002834565b602080850191909152620009d69082620049bc565b9050620009e4848262002834565b6040840152620009f6602082620049bc565b905062000a04848262002834565b606084015262000a16602082620049bc565b905062000a24848262002834565b608084015262000a36602082620049bc565b905062000a44848262002834565b60a084015262000a56602082620049bc565b905062000a6484826200286e565b61ffff1660c084015262000a7a600282620049bc565b905062000a888482620028a8565b60ff1660e084015262000a9d600182620049bc565b905062000aab848262002834565b61010084015262000abe602082620049bc565b905062000acc848262002834565b61012084015262000adf602082620049bc565b90508351811462000b0357604051632f3a03e160e11b815260040160405180910390fd5b5050919050565b600080600062000b1a84620024a7565b9250925092508162000b4357806040516301f5121960e21b8152600401620007ac9190620048cf565b600062000b548460600151620028e2565b905062000b6781600001516005620025e3565b62000baa8460c0015160009081527f8d356d59b58b48c93173d79658c59854a711358e7b70f704c58289c0c35c0e0c60205260409020805460ff19166001179055565b62000bbe8160200151826040015162002adf565b5050505050565b600080600062000c0b86868080601f01602080910402602001604051908101604052809392919081815260200183838082843760009201919091525062002be092505050565b9250925092508162000c3457806040516301f5121960e21b8152600401620007ac9190620048cf565b600062000c45846060015162000995565b905062000c5881600001516001620025e3565b60008062000c6a836040015162002cd0565b5060608501805160408088015160009283527f8d356d59b58b48c93173d79658c59854a711358e7b70f704c58289c0c35c0e096020908152828420918452528120547f8d356d59b58b48c93173d79658c59854a711358e7b70f704c58289c0c35c0e005492519496509294506001600160a01b03909216921490848062000cee5750815b8062000d0257506001600160a01b03831615155b90508062000d185762000d158662002dfa565b92505b7f8d356d59b58b48c93173d79658c59854a711358e7b70f704c58289c0c35c0e00548660a001511462000d5e576040516357fca4cf60e11b815260040160405180910390fd5b6000851562000daa5762000da2857f9f2df0fed2c77648de5860a4cc508cd0818c85b8b8a1ab4ceeef8d981c8956a662000d9c8a6040015162003004565b62003140565b508362000df8565b821562000df557600062000dc2886040015162003294565b90506001600160a01b03811662000dea5762000de2886040015162003388565b915062000dee565b8091505b5062000df8565b50825b60018b151514801562000e3857507f8d356d59b58b48c93173d79658c59854a711358e7b70f704c58289c0c35c0e02546001600160a01b03828116911614155b1562000e70576040517f42b1f2ca00000000000000000000000000000000000000000000000000000000815260040160405180910390fd5b6020870151600062000e828962001cbe565b805190602001209050600062000e9c8a6080015162003388565b9050806001600160a01b03168a604001517f922b6fca783346ab9eb56ca780578f77d977801a5f62b6dfec98e045672aa075848d6060015160405162000eec929190918252602082015260400190565b60405180910390a360008281527f8d356d59b58b48c93173d79658c59854a711358e7b70f704c58289c0c35c0e0b602052604090205460ff161562000f4457604051630e05033d60e01b815260040160405180910390fd5b62000f838260009081527f8d356d59b58b48c93173d79658c59854a711358e7b70f704c58289c0c35c0e0b60205260409020805460ff19166001179055565b8d156200106c577f8d356d59b58b48c93173d79658c59854a711358e7b70f704c58289c0c35c0e02546040517f2e1a7d4d000000000000000000000000000000000000000000000000000000008152600481018590526001600160a01b0390911690632e1a7d4d90602401600060405180830381600087803b1580156200100957600080fd5b505af11580156200101e573d6000803e3d6000fd5b50506040516001600160a01b038416925085156108fc02915085906000818181858888f1935050505015801562001059573d6000803e3d6000fd5b5050505050505050505050505050505050565b8562001101576040517f40c10f190000000000000000000000000000000000000000000000000000000081526001600160a01b038281166004830152602482018590528516906340c10f1990604401600060405180830381600087803b158015620010d657600080fd5b505af1158015620010eb573d6000803e3d6000fd5b5050505050505050505050505050505050505050565b6200110e848285620033de565b50505050505050505050505050505050565b8362001158576040517fd92e233d00000000000000000000000000000000000000000000000000000000815260040160405180910390fd5b8260000362001193576040517f1f2a200500000000000000000000000000000000000000000000000000000000815260040160405180910390fd5b60008281527f8d356d59b58b48c93173d79658c59854a711358e7b70f704c58289c0c35c0e076020526040902054341015620011fb576040517f688e55ae00000000000000000000000000000000000000000000000000000000815260040160405180910390fd5b60008060008062001243896001600160a01b031660009081527f8d356d59b58b48c93173d79658c59854a711358e7b70f704c58289c0c35c0e08602052604090205460ff1690565b156200131d57886001600160a01b0316639a8a05926040518163ffffffff1660e01b8152600401602060405180830381865afa15801562001288573d6000803e3d6000fd5b505050506040513d601f19601f82011682018060405250810190620012ae9190620049d2565b9350886001600160a01b0316633d6c043b6040518163ffffffff1660e01b8152600401602060405180830381865afa158015620012ef573d6000803e3d6000fd5b505050506040513d601f19601f82011682018060405250810190620013159190620049d2565b9250620013f3565b60606200132a8a6200343f565b919450909150508215620013a057620013658a7f3c11d16cbaffd01df69ce1c404f6340ee057498f5f00246190ea54220576a8488362003140565b60208101519150620013957f8d356d59b58b48c93173d79658c59854a711358e7b70f704c58289c0c35c0e015490565b9450819350620013f1565b6000620013ad8b62003618565b905080620013c7576001600160a01b038b169450620013cb565b8094505b7f8d356d59b58b48c93173d79658c59854a711358e7b70f704c58289c0c35c0e00549550505b505b7f8d356d59b58b48c93173d79658c59854a711358e7b70f704c58289c0c35c0e00548614806200142c57506200142a8487620008f2565b155b156200144b576040516357fca4cf60e11b815260040160405180910390fd5b81806200147957507f8d356d59b58b48c93173d79658c59854a711358e7b70f704c58289c0c35c0e00548414155b156200150e576200148d8933308a62003717565b6040517f9dc29fac000000000000000000000000000000000000000000000000000000008152306004820152602481018890526001600160a01b038a1690639dc29fac90604401600060405180830381600087803b158015620014ef57600080fd5b505af115801562001504573d6000803e3d6000fd5b50505050620016cb565b604080513060248083019190915282518083039091018152604490910182526020810180516001600160e01b03167f70a082310000000000000000000000000000000000000000000000000000000017905290516000916001600160a01b038c16916200157c9190620049ec565b600060405180830381855afa9150503d8060008114620015b9576040519150601f19603f3d011682016040523d82523d6000602084013e620015be565b606091505b50915050600081806020019051810190620015da9190620049d2565b9050620015ea8b33308c62003717565b604080513060248083019190915282518083039091018152604490910182526020810180516001600160e01b03167f70a082310000000000000000000000000000000000000000000000000000000017905290516000916001600160a01b038e1691620016589190620049ec565b600060405180830381855afa9150503d806000811462001695576040519150601f19603f3d011682016040523d82523d6000602084013e6200169a565b606091505b50915050600081806020019051810190620016b69190620049d2565b9050620016c4838262004a0a565b9a50505050505b600080620016d98b62003758565b604080516101a081019091529195509193509091506000908061014081018060018152602001600081526020016200173460408051808201909152600d81526c446563696d616c42726964676560981b602090910181905290565b81525081526020018b81526020018781526020018881526020018c81526020018a81526020018961ffff1681526020018460ff1681526020018581526020018381525090506000620017868262001cbe565b80516020820120909150620017c98160009081527f8d356d59b58b48c93173d79658c59854a711358e7b70f704c58289c0c35c0e0b602052604090205460ff1690565b15620017e857604051630e05033d60e01b815260040160405180910390fd5b620018278160009081527f8d356d59b58b48c93173d79658c59854a711358e7b70f704c58289c0c35c0e0b60205260409020805460ff19166001179055565b620018338234620039aa565b5050505050505050505050505050565b836200187b576040517fd92e233d00000000000000000000000000000000000000000000000000000000815260040160405180910390fd5b7f8d356d59b58b48c93173d79658c59854a711358e7b70f704c58289c0c35c0e0054831480620018dc5750620018da620018d37f8d356d59b58b48c93173d79658c59854a711358e7b70f704c58289c0c35c0e005490565b84620008f2565b155b15620018fb576040516357fca4cf60e11b815260040160405180910390fd5b3460000362001936576040517f1f2a200500000000000000000000000000000000000000000000000000000000815260040160405180910390fd5b34811062001970576040517f2c5211c600000000000000000000000000000000000000000000000000000000815260040160405180910390fd5b60008381527f8d356d59b58b48c93173d79658c59854a711358e7b70f704c58289c0c35c0e076020526040902054811015620019d8576040517f688e55ae00000000000000000000000000000000000000000000000000000000815260040160405180910390fd5b6000620019e6823462004a0a565b905062001a1a7f8d356d59b58b48c93173d79658c59854a711358e7b70f704c58289c0c35c0e02546001600160a01b031690565b6001600160a01b031663d0e30db0826040518263ffffffff1660e01b81526004016000604051808303818588803b15801562001a5557600080fd5b505af115801562001a6a573d6000803e3d6000fd5b505050505060008062001aae62001aa87f8d356d59b58b48c93173d79658c59854a711358e7b70f704c58289c0c35c0e02546001600160a01b031690565b62003618565b90508062001ae9577f8d356d59b58b48c93173d79658c59854a711358e7b70f704c58289c0c35c0e02546001600160a01b0316915062001aed565b8091505b600080600062001b2e62001b287f8d356d59b58b48c93173d79658c59854a711358e7b70f704c58289c0c35c0e02546001600160a01b031690565b62003758565b604080516101a08101909152929550909350915060009080610140810180600181526020016000815260200162001b8860408051808201909152600d81526c446563696d616c42726964676560981b602090910181905290565b815250815260200188815260200187815260200162001bc57f8d356d59b58b48c93173d79658c59854a711358e7b70f704c58289c0c35c0e005490565b81526020018c81526020018b81526020018a61ffff1681526020018560ff168152602001848152602001838152509050600062001c028262001cbe565b8051602082012090915062001c458160009081527f8d356d59b58b48c93173d79658c59854a711358e7b70f704c58289c0c35c0e0b602052604090205460ff1690565b1562001c6457604051630e05033d60e01b815260040160405180910390fd5b62001ca38160009081527f8d356d59b58b48c93173d79658c59854a711358e7b70f704c58289c0c35c0e0b60205260409020805460ff19166001179055565b62001caf828b620039aa565b50505050505050505050505050565b606081602001518260400151836060015184608001518560a001518660c001518760e0015188610100015189610120015160405160200162001d8a99989796959493929190988952602089019790975260408801959095526060870193909352608086019190915260f01b7fffff0000000000000000000000000000000000000000000000000000000000001660a085015260f81b7fff000000000000000000000000000000000000000000000000000000000000001660a284015260a383015260c382015260e30190565b6040516020818303038152906040529050919050565b600080600062001db084620024a7565b9250925092508162001dd957806040516301f5121960e21b8152600401620007ac9190620048cf565b600062001dea846060015162003a45565b905062001dfd81600001516007620025e3565b62001e408460c0015160009081527f8d356d59b58b48c93173d79658c59854a711358e7b70f704c58289c0c35c0e0c60205260409020805460ff19166001179055565b6040808201516020830151915190916001600160a01b0383169181156108fc0291906000818181858888f1935050505015801562001e82573d6000803e3d6000fd5b50505050505050565b600080600062001e9b84620024a7565b9250925092508162001ec457806040516301f5121960e21b8152600401620007ac9190620048cf565b600062001ed5846060015162003aaf565b905062001ee881600001516006620025e3565b62001f2b8460c0015160009081527f8d356d59b58b48c93173d79658c59854a711358e7b70f704c58289c0c35c0e0c60205260409020805460ff19166001179055565b60208101515160005b8181101562001e825762001fbc8360200151828151811062001f5a5762001f5a62004a20565b6020026020010151600001518460200151838151811062001f7f5762001f7f62004a20565b60200260200101516020015160009182527f8d356d59b58b48c93173d79658c59854a711358e7b70f704c58289c0c35c0e07602052604090912055565b62001fc9600182620049bc565b905062001f34565b600080600062001fe184620024a7565b925092509250816200200a57806040516301f5121960e21b8152600401620007ac9190620048cf565b60006200201b84606001516200259c565b90506200202e81600001516003620025e3565b620020718460c0015160009081527f8d356d59b58b48c93173d79658c59854a711358e7b70f704c58289c0c35c0e0c60205260409020805460ff19166001179055565b6000620020a57f8d356d59b58b48c93173d79658c59854a711358e7b70f704c58289c0c35c0e04546001600160a01b031690565b9050620020b6826020015162003c20565b81602001516001600160a01b0316816001600160a01b03167f27bf8a17dff3ae6812ef6a2059d654c298fd3a87c570f2bab5c34b166dd868aa60405160405180910390a3505050505050565b60005b8381101562000bbe57306362305eda86868481811062002129576200212962004a20565b90506020028101906200213d919062004a36565b86868681811062002152576200215262004a20565b905060200201602081019062002169919062004a9e565b6040518463ffffffff1660e01b8152600401620021899392919062004abe565b600060405180830381600087803b158015620021a457600080fd5b505af1925050508015620021b6575060015b620021f1576040517f2655c45100000000000000000000000000000000000000000000000000000000815260048101829052602401620007ac565b620021fe600182620049bc565b905062002105565b60008060006200221684620024a7565b925092509250816200223f57806040516301f5121960e21b8152600401620007ac9190620048cf565b600062002250846060015162003caf565b90506200226381600001516008620025e3565b620022a68460c0015160009081527f8d356d59b58b48c93173d79658c59854a711358e7b70f704c58289c0c35c0e0c60205260409020805460ff19166001179055565b60408181015160208084015160009283527f8d356d59b58b48c93173d79658c59854a711358e7b70f704c58289c0c35c0e0982528383206001600160a01b0391821684529091529190205416806200232a576040517f36b7d3fb00000000000000000000000000000000000000000000000000000000815260040160405180910390fd5b806001600160a01b031663ac1bc7e862002348846060015162003004565b62002357856080015162003004565b6040518363ffffffff1660e01b81526004016200237692919062004af9565b600060405180830381600087803b1580156200239157600080fd5b505af1158015620023a6573d6000803e3d6000fd5b50505050505050505050565b6000806000620023c284620024a7565b92509250925081620023eb57806040516301f5121960e21b8152600401620007ac9190620048cf565b6000620023fc84606001516200259c565b90506200240f81600001516004620025e3565b620024528460c0015160009081527f8d356d59b58b48c93173d79658c59854a711358e7b70f704c58289c0c35c0e0c60205260409020805460ff19166001179055565b602001517f8d356d59b58b48c93173d79658c59854a711358e7b70f704c58289c0c35c0e03805473ffffffffffffffffffffffffffffffffffffffff19166001600160a01b0390921691909117905550505050565b6040805160e08101825260008082526020820181905291810182905260608082018190526080820183905260a082015260c0810191909152600060606000806000620024f38762002be0565b925092509250816200250c579194509250905062002595565b60c083015160009081527f8d356d59b58b48c93173d79658c59854a711358e7b70f704c58289c0c35c0e0c602052604090205460ff16156200257a576040517f6ae2d96c00000000000000000000000000000000000000000000000000000000815260040160405180910390fd5b50506040805160208101909152600081529093506001925090505b9193909250565b620025a662004249565b600080620025b4846200277f565b8185529092509050620025c8848262003d56565b6001600160a01b0316602084015262000adf601482620049bc565b604080518082018252600d81526c446563696d616c42726964676560981b6020909101819052908301511462002645576040517f47db06d500000000000000000000000000000000000000000000000000000000815260040160405180910390fd5b7f8d356d59b58b48c93173d79658c59854a711358e7b70f704c58289c0c35c0e00548260200151141580156200267e5750602082015115155b15620026b6576040517fed14241600000000000000000000000000000000000000000000000000000000815260040160405180910390fd5b806008811115620026cb57620026cb620044e6565b82516008811115620026e157620026e1620044e6565b1462002719576040517ffa0b8c8600000000000000000000000000000000000000000000000000000000815260040160405180910390fd5b5050565b620027288262003da0565b6040516001600160a01b038316907fbc7cd75a20ee27fd9adebab32041f755214dbc6bffa90cc0225b39da2e5c2d3b90600090a2805115620027755762002770828262003e3f565b505050565b6200271962003ebb565b620027896200426b565b6000620027978382620028a8565b60ff166008811115620027ae57620027ae620044e6565b82906008811115620027c457620027c4620044e6565b90816008811115620027da57620027da620044e6565b905250620027ea600182620049bc565b9050620027f8838262002834565b60408301526200280a602082620049bc565b905062002818838262002834565b6020808401919091526200282d9082620049bc565b9050915091565b600062002843826020620049bc565b835110156200286557604051632d0483c560e21b815260040160405180910390fd5b50016020015190565b60006200287d826002620049bc565b835110156200289f57604051632d0483c560e21b815260040160405180910390fd5b50016002015190565b6000620028b7826001620049bc565b83511015620028d957604051632d0483c560e21b815260040160405180910390fd5b50016001015190565b620028ec6200428e565b600080620028fa846200277f565b81855290925090506000620029108583620028a8565b90506200291f600183620049bc565b91508060ff1667ffffffffffffffff8111156200294057620029406200434d565b6040519080825280602002602001820160405280156200296a578160200160208202803683370190505b50602085015260005b8160ff16811015620029d6576200298b868462002834565b85602001518281518110620029a457620029a462004a20565b602002602001018181525050602083620029bf9190620049bc565b925080620029cd8162004b22565b91505062002973565b506000620029e58684620028a8565b9050620029f4600184620049bc565b92508060ff1667ffffffffffffffff81111562002a155762002a156200434d565b60405190808252806020026020018201604052801562002a3f578160200160208202803683370190505b50604086015260005b8160ff1681101562002ab35762002a608785620028a8565b60ff166001148660400151828151811062002a7f5762002a7f62004a20565b9115156020928302919091019091015262002a9c600185620049bc565b935062002aab600182620049bc565b905062002a48565b508551831462002ad657604051632f3a03e160e11b815260040160405180910390fd5b50505050919050565b6000805b835181101562002ba457600062002afc826001620049bc565b90505b845181101562002b8e5762002b6a85838151811062002b225762002b2262004a20565b602002602001015186838151811062002b3f5762002b3f62004a20565b602002602001015186868151811062002b5c5762002b5c62004a20565b602002602001015162003ef6565b62002b77600184620049bc565b925062002b86600182620049bc565b905062002aff565b5062002b9c600182620049bc565b905062002ae3565b508151811462002770576040517ff1cae46c00000000000000000000000000000000000000000000000000000000815260040160405180910390fd5b6040805160e08101825260008082526020820181905291810182905260608082018190526080820183905260a082015260c08101919091526000606062002c4e7f8d356d59b58b48c93173d79658c59854a711358e7b70f704c58289c0c35c0e06546001600160a01b031690565b6001600160a01b031663c0fd8bde856040518263ffffffff1660e01b815260040162002c7b9190620048cf565b600060405180830381865afa15801562002c99573d6000803e3d6000fd5b505050506040513d6000823e601f3d908101601f1916820160405262002cc3919081019062004cd3565b9250925092509193909250565b60008060608162002d087f8d356d59b58b48c93173d79658c59854a711358e7b70f704c58289c0c35c0e05546001600160a01b031690565b6001600160a01b03160362002d33575050604080516020810190915260008082529150819062002595565b62002d3e8462003004565b905062002d727f8d356d59b58b48c93173d79658c59854a711358e7b70f704c58289c0c35c0e05546001600160a01b031690565b6001600160a01b031663b3a842ff826040518263ffffffff1660e01b815260040162002d9f9190620048cf565b602060405180830381865afa15801562002dbd573d6000803e3d6000fd5b505050506040513d601f19601f8201168201806040525081019062002de3919062004df6565b6001600160a01b0381161515935091509193909250565b6000806399a2653160e01b62002e1584610120015162003004565b62002e2585610100015162003004565b8560e00151308760600151886040015160405160240162002e4c9695949392919062004e16565b60408051601f19818403018152918152602080830180516001600160e01b03167fffffffff00000000000000000000000000000000000000000000000000000000909516949094179093525190925060009162002eae91309185910162004e71565b604051602081830303815290604052905060006040518060200162002ed390620042b7565b601f1982820381018352601f90910116604081905262002ef99190849060200162004e95565b604051602081830303815290604052905060008560600151866040015160405160200162002f31929190918252602082015260400190565b604051602081830303815290604052805190602001209050808251602084016000f59450843b62002f6157600080fd5b606086015160408088015160009283527f8d356d59b58b48c93173d79658c59854a711358e7b70f704c58289c0c35c0e096020908152828420918452908152818320805473ffffffffffffffffffffffffffffffffffffffff19166001600160a01b038a1690811790915583527f8d356d59b58b48c93173d79658c59854a711358e7b70f704c58289c0c35c0e0890529020805460ff1916600117905562002ad6565b606060005b6020811080156200305357508281602081106200302a576200302a62004a20565b1a60f81b7fff000000000000000000000000000000000000000000000000000000000000001615155b156200306e5780620030658162004b22565b91505062003009565b60008167ffffffffffffffff8111156200308c576200308c6200434d565b6040519080825280601f01601f191660200182016040528015620030b7576020820181803683370190505b50905060005b828110156200313857848160208110620030db57620030db62004a20565b1a60f81b828281518110620030f457620030f462004a20565b60200101907effffffffffffffffffffffffffffffffffffffffffffffffffffffffffffff1916908160001a905350806200312f8162004b22565b915050620030bd565b509392505050565b6040516024810183905230604482015260009060640160408051601f198184030181529181526020820180516001600160e01b03167f91d1485400000000000000000000000000000000000000000000000000000000179052519091506000906001600160a01b03861690620031b8908490620049ec565b600060405180830381855afa9150503d8060008114620031f5576040519150601f19603f3d011682016040523d82523d6000602084013e620031fa565b606091505b5091505060008180602001905181019062003216919062004ec8565b9050806200328c577f8d356d59b58b48c93173d79658c59854a711358e7b70f704c58289c0c35c0e05546040517f08890d550000000000000000000000000000000000000000000000000000000081526001600160a01b03909116906308890d5590620023769087908990309060040162004ee8565b505050505050565b600080620032c97f8d356d59b58b48c93173d79658c59854a711358e7b70f704c58289c0c35c0e03546001600160a01b031690565b6001600160a01b031603620032e057506000919050565b7f8d356d59b58b48c93173d79658c59854a711358e7b70f704c58289c0c35c0e03546040517f908f86c4000000000000000000000000000000000000000000000000000000008152600481018490526001600160a01b039091169063908f86c490602401602060405180830381865afa15801562003362573d6000803e3d6000fd5b505050506040513d601f19601f820116820180604052508101906200098f919062004df6565b600073ffffffffffffffffffffffffffffffffffffffff19821615620033da576040517fe6c4247b00000000000000000000000000000000000000000000000000000000815260040160405180910390fd5b5090565b6040516001600160a01b038381166024830152604482018390526200277091859182169063a9059cbb906064015b604051602081830303815290604052915060e01b6020820180516001600160e01b03838183161783525050505062003fd6565b600080606081620034777f8d356d59b58b48c93173d79658c59854a711358e7b70f704c58289c0c35c0e05546001600160a01b031690565b6001600160a01b031603620034a2575050604080516020810190915260008082529150819062002595565b60408051600481526024810182526020810180516001600160e01b03167f95d89b410000000000000000000000000000000000000000000000000000000017905290516000916001600160a01b03871691620034ff9190620049ec565b600060405180830381855afa9150503d80600081146200353c576040519150601f19603f3d011682016040523d82523d6000602084013e62003541565b606091505b50915050808060200190518101906200355b919062004f1c565b91506200358f7f8d356d59b58b48c93173d79658c59854a711358e7b70f704c58289c0c35c0e05546001600160a01b031690565b6001600160a01b031663b3a842ff836040518263ffffffff1660e01b8152600401620035bc9190620048cf565b602060405180830381865afa158015620035da573d6000803e3d6000fd5b505050506040513d601f19601f8201168201806040525081019062003600919062004df6565b6001600160a01b038116151594509250509193909250565b6000806200364d7f8d356d59b58b48c93173d79658c59854a711358e7b70f704c58289c0c35c0e03546001600160a01b031690565b6001600160a01b0316036200366457506000919050565b7f8d356d59b58b48c93173d79658c59854a711358e7b70f704c58289c0c35c0e03546001600160a01b03166040517fc83ae6e50000000000000000000000000000000000000000000000000000000081526001600160a01b038481166004830152919091169063c83ae6e590602401602060405180830381865afa158015620036f1573d6000803e3d6000fd5b505050506040513d601f19601f820116820180604052508101906200098f9190620049d2565b6040516001600160a01b038481166024830152838116604483015260648201839052620037529186918216906323b872dd906084016200340c565b50505050565b60408051600481526024810182526020810180516001600160e01b03167f313ce5670000000000000000000000000000000000000000000000000000000017905290516000918291829182916001600160a01b03871691620037ba91620049ec565b600060405180830381855afa9150503d8060008114620037f7576040519150601f19603f3d011682016040523d82523d6000602084013e620037fc565b606091505b5060408051600481526024810182526020810180516001600160e01b03167f95d89b41000000000000000000000000000000000000000000000000000000001790529051919350600092506001600160a01b038816916200385e9190620049ec565b600060405180830381855afa9150503d80600081146200389b576040519150601f19603f3d011682016040523d82523d6000602084013e620038a0565b606091505b5060408051600481526024810182526020810180516001600160e01b03167f06fdde03000000000000000000000000000000000000000000000000000000001790529051919350600092506001600160a01b03891691620039029190620049ec565b600060405180830381855afa9150503d80600081146200393f576040519150601f19603f3d011682016040523d82523d6000602084013e62003944565b606091505b50915050828060200190518101906200395e919062004f55565b955060008280602001905181019062003978919062004f1c565b905060008280602001905181019062003992919062004f1c565b60209283015192015197999198509095505050505050565b60006001620039dc60408051808201909152600d81526c446563696d616c42726964676560981b602090910181905290565b600085604051602001620039f4949392919062004f75565b60405160208183030381529060405290507f9b6446efa3ecfcd3aa56ff047b114350f3501f81d23eac36710f5fec1f596f66818360405162003a3892919062004fcd565b60405180910390a1505050565b62003a4f620042c5565b60008062003a5d846200277f565b818552909250905062003a71848262002834565b60208085019190915262003a869082620049bc565b905062003a94848262003d56565b6001600160a01b0316604084015262000adf601482620049bc565b62003ab9620042da565b60008062003ac7846200277f565b8185529092509050600062003add8583620028a8565b60ff16905062003aef600183620049bc565b91508067ffffffffffffffff81111562003b0d5762003b0d6200434d565b60405190808252806020026020018201604052801562003b5457816020015b604080518082019091526000808252602082015281526020019060019003908162003b2c5790505b50602085015260005b8181101562003bf557600062003b74878562002834565b905062003b83602085620049bc565b9350600062003b93888662002834565b905062003ba2602086620049bc565b94506040518060400160405280838152602001828152508760200151848151811062003bd25762003bd262004a20565b60200260200101819052505050808062003bec9062004b22565b91505062003b5d565b508451821462003c1857604051632f3a03e160e11b815260040160405180910390fd5b505050919050565b6001600160a01b03811662003c61576040517fe6c4247b00000000000000000000000000000000000000000000000000000000815260040160405180910390fd5b7f8d356d59b58b48c93173d79658c59854a711358e7b70f704c58289c0c35c0e04805473ffffffffffffffffffffffffffffffffffffffff19166001600160a01b0392909216919091179055565b62003cb9620042fc565b60008062003cc7846200277f565b818552909250905062003cdb848262003d56565b6001600160a01b0316602084015262003cf6601482620049bc565b905062003d04848262002834565b604084015262003d16602082620049bc565b905062003d24848262002834565b606084015262003d36602082620049bc565b905062003d44848262002834565b608084015262000adf602082620049bc565b600062003d65826014620049bc565b8351101562003d8757604051632d0483c560e21b815260040160405180910390fd5b5001602001516c01000000000000000000000000900490565b806001600160a01b03163b60000362003df1576040517f4c9c8ce30000000000000000000000000000000000000000000000000000000081526001600160a01b0382166004820152602401620007ac565b7f360894a13ba1a3210667c828492db98dca3e2076cc3735a920a3ca505d382bbc805473ffffffffffffffffffffffffffffffffffffffff19166001600160a01b0392909216919091179055565b6060600080846001600160a01b03168460405162003e5e9190620049ec565b600060405180830381855af49150503d806000811462003e9b576040519150601f19603f3d011682016040523d82523d6000602084013e62003ea0565b606091505b509150915062003eb285838362004059565b95945050505050565b341562003ef4576040517fb398979f00000000000000000000000000000000000000000000000000000000815260040160405180910390fd5b565b7f8d356d59b58b48c93173d79658c59854a711358e7b70f704c58289c0c35c0e0083831462003752578284101562003f80576000848152600a82016020908152604080832086845290915290205460ff1615158215151462003f7a576000848152600a8201602090815260408083208684529091529020805460ff19168315151790555b62003752565b6000838152600a82016020908152604080832087845290915290205460ff1615158215151462003752576000928352600a0160209081526040808420948452939052919020805460ff1916911515919091179055565b600062003fed6001600160a01b03841683620040d8565b905080516000141580156200401557508080602001905181019062004013919062004ec8565b155b1562002770576040517f5274afe70000000000000000000000000000000000000000000000000000000081526001600160a01b0384166004820152602401620007ac565b60608262004072576200406c82620040e8565b620040d1565b81511580156200408a57506001600160a01b0384163b155b15620040ce576040517f9996b3150000000000000000000000000000000000000000000000000000000081526001600160a01b0385166004820152602401620007ac565b50805b9392505050565b6060620040d1838360006200412e565b805115620040f95780518082602001fd5b6040517f1425ea4200000000000000000000000000000000000000000000000000000000815260040160405180910390fd5b50565b6060814710156200416e576040517fcd786059000000000000000000000000000000000000000000000000000000008152306004820152602401620007ac565b600080856001600160a01b031684866040516200418c9190620049ec565b60006040518083038185875af1925050503d8060008114620041cb576040519150601f19603f3d011682016040523d82523d6000602084013e620041d0565b606091505b5091509150620041e286838362004059565b9695505050505050565b604051806101400160405280620042026200426b565b815260006020820181905260408201819052606082018190526080820181905260a0820181905260c0820181905260e0820181905261010082018190526101209091015290565b60405180604001604052806200425e6200426b565b8152600060209091015290565b60408051606081019091528060005b815260006020820181905260409091015290565b6040518060600160405280620042a36200426b565b815260200160608152602001606081525090565b6105f78062004ff283390190565b60405180606001604052806200427a6200426b565b6040518060400160405280620042ef6200426b565b8152602001606081525090565b6040518060a00160405280620043116200426b565b8152600060208201819052604082018190526060820181905260809091015290565b6000602082840312156200434657600080fd5b5035919050565b634e487b7160e01b600052604160045260246000fd5b604051610140810167ffffffffffffffff811182821017156200438a576200438a6200434d565b60405290565b6040516080810167ffffffffffffffff811182821017156200438a576200438a6200434d565b60405160e0810167ffffffffffffffff811182821017156200438a576200438a6200434d565b604051601f8201601f1916810167ffffffffffffffff811182821017156200440857620044086200434d565b604052919050565b600067ffffffffffffffff8211156200442d576200442d6200434d565b50601f01601f191660200190565b6000602082840312156200444e57600080fd5b813567ffffffffffffffff8111156200446657600080fd5b8201601f810184136200447857600080fd5b80356200448f620044898262004410565b620043dc565b818152856020838501011115620044a557600080fd5b81602084016020830137600091810160200191909152949350505050565b60008060408385031215620044d757600080fd5b50508035926020909101359150565b634e487b7160e01b600052602160045260246000fd5b8051600981106200451d57634e487b7160e01b600052602160045260246000fd5b825260208181015190830152604090810151910152565b6000610180820190506200454a828451620044fc565b6020830151606083015260408301516080830152606083015160a0830152608083015160c083015260a083015160e083015260c0830151610100620045948185018361ffff169052565b60e08501519150610120620045ad8186018460ff169052565b818601516101408601528086015161016086015250505092915050565b80151581146200412b57600080fd5b600080600060408486031215620045ef57600080fd5b833567ffffffffffffffff808211156200460857600080fd5b818601915086601f8301126200461d57600080fd5b8135818111156200462d57600080fd5b8760208285010111156200464057600080fd5b602092830195509350508401356200465881620045ca565b809150509250925092565b6001600160a01b03811681146200412b57600080fd5b803561ffff811681146200468c57600080fd5b919050565b600080600080600060a08688031215620046aa57600080fd5b8535620046b78162004663565b9450602086013593506040860135925060608601359150620046dc6080870162004679565b90509295509295909350565b600060208284031215620046fb57600080fd5b8135620040d18162004663565b600080600080608085870312156200471f57600080fd5b8435935060208501359250620047386040860162004679565b9396929550929360600135925050565b6000606082840312156200475b57600080fd5b6040516060810181811067ffffffffffffffff821117156200478157620047816200434d565b6040529050808235600981106200479757600080fd5b8082525060208301356020820152604083013560408201525092915050565b60ff811681146200412b57600080fd5b80356200468c81620047b6565b60006101808284031215620047e757600080fd5b620047f162004363565b620047fd848462004748565b8152606083013560208201526080830135604082015260a0830135606082015260c0830135608082015260e083013560a08201526101006200484181850162004679565b60c083015261012062004856818601620047c6565b60e0840152610140850135828401526101608501358184015250508091505092915050565b60005b83811015620048985781810151838201526020016200487e565b50506000910152565b60008151808452620048bb8160208601602086016200487b565b601f01601f19169290920160200192915050565b602081526000620040d16020830184620048a1565b60008083601f840112620048f757600080fd5b50813567ffffffffffffffff8111156200491057600080fd5b6020830191508360208260051b85010111156200492c57600080fd5b9250929050565b600080600080604085870312156200494a57600080fd5b843567ffffffffffffffff808211156200496357600080fd5b6200497188838901620048e4565b909650945060208701359150808211156200498b57600080fd5b506200499a87828801620048e4565b95989497509550505050565b634e487b7160e01b600052601160045260246000fd5b808201808211156200098f576200098f620049a6565b600060208284031215620049e557600080fd5b5051919050565b6000825162004a008184602087016200487b565b9190910192915050565b818103818111156200098f576200098f620049a6565b634e487b7160e01b600052603260045260246000fd5b60008083357fffffffffffffffffffffffffffffffffffffffffffffffffffffffffffffffe184360301811262004a6c57600080fd5b83018035915067ffffffffffffffff82111562004a8857600080fd5b6020019150368190038213156200492c57600080fd5b60006020828403121562004ab157600080fd5b8135620040d181620045ca565b604081528260408201528284606083013760006060848301015260006060601f19601f86011683010190508215156020830152949350505050565b60408152600062004b0e6040830185620048a1565b828103602084015262003eb28185620048a1565b60007fffffffffffffffffffffffffffffffffffffffffffffffffffffffffffffffff820362004b565762004b56620049a6565b5060010190565b80516200468c81620047b6565b805167ffffffffffffffff811681146200468c57600080fd5b600082601f83011262004b9557600080fd5b815162004ba6620044898262004410565b81815284602083860101111562004bbc57600080fd5b62004bcf8260208301602087016200487b565b949350505050565b805163ffffffff811681146200468c57600080fd5b600082601f83011262004bfe57600080fd5b8151602067ffffffffffffffff82111562004c1d5762004c1d6200434d565b62004c2d818360051b01620043dc565b82815260079290921b8401810191818101908684111562004c4d57600080fd5b8286015b8481101562004cbb576080818903121562004c6c5760008081fd5b62004c7662004390565b81518152848201518582015260408083015162004c9381620047b6565b9082015260608281015162004ca881620047b6565b9082015283529183019160800162004c51565b509695505050505050565b80516200468c81620045ca565b60008060006060848603121562004ce957600080fd5b835167ffffffffffffffff8082111562004d0257600080fd5b9085019060e0828803121562004d1757600080fd5b62004d21620043b6565b62004d2c8362004b5d565b81526020830151602082015262004d466040840162004b6a565b604082015260608301518281111562004d5e57600080fd5b62004d6c8982860162004b83565b60608301525062004d806080840162004bd7565b608082015260a08301518281111562004d9857600080fd5b62004da68982860162004bec565b60a08301525060c08381015190820152945062004dc66020870162004cc6565b9350604086015191508082111562004ddd57600080fd5b5062004dec8682870162004b83565b9150509250925092565b60006020828403121562004e0957600080fd5b8151620040d18162004663565b60c08152600062004e2b60c0830189620048a1565b828103602084015262004e3f8189620048a1565b91505060ff861660408301526001600160a01b03851660608301528360808301528260a0830152979650505050505050565b6001600160a01b038316815260406020820152600062004bcf6040830184620048a1565b6000835162004ea98184602088016200487b565b83519083019062004ebf8183602088016200487b565b01949350505050565b60006020828403121562004edb57600080fd5b8151620040d181620045ca565b60608152600062004efd6060830186620048a1565b90508360208301526001600160a01b0383166040830152949350505050565b60006020828403121562004f2f57600080fd5b815167ffffffffffffffff81111562004f4757600080fd5b62004bcf8482850162004b83565b60006020828403121562004f6857600080fd5b8151620040d181620047b6565b60006009861062004f9657634e487b7160e01b600052602160045260246000fd5b8560f81b8252846001830152836021830152825162004fbd8160418501602087016200487b565b9190910160410195945050505050565b60408152600062004fe26040830185620048a1565b9050826020830152939250505056fe60a060405234801561001057600080fd5b506040516105f73803806105f783398101604081905261002f91610399565b818161003b8282610050565b506001600160a01b0316608052506104909050565b61005982610110565b6040516001600160a01b038316907f1cf3b03a6cf19fa2baba4df148e9dcabedea7f8a5c07840e207e5c089be95d3e90600090a2805115610104576100ff826001600160a01b0316635c60da1b6040518163ffffffff1660e01b8152600401602060405180830381865afa1580156100d5573d6000803e3d6000fd5b505050506040513d601f19601f820116820180604052508101906100f99190610459565b82610223565b505050565b61010c61029a565b5050565b806001600160a01b03163b60000361014b57604051631933b43b60e21b81526001600160a01b03821660048201526024015b60405180910390fd5b807fa3f0ad74e5423aebfd80d3ef4346578335a9a72aeaee59ff6cb3582b35133d5080546001600160a01b0319166001600160a01b0392831617905560408051635c60da1b60e01b81529051600092841691635c60da1b9160048083019260209291908290030181865afa1580156101c7573d6000803e3d6000fd5b505050506040513d601f19601f820116820180604052508101906101eb9190610459565b9050806001600160a01b03163b60000361010c57604051634c9c8ce360e01b81526001600160a01b0382166004820152602401610142565b6060600080846001600160a01b0316846040516102409190610474565b600060405180830381855af49150503d806000811461027b576040519150601f19603f3d011682016040523d82523d6000602084013e610280565b606091505b5090925090506102918583836102bb565b95945050505050565b34156102b95760405163b398979f60e01b815260040160405180910390fd5b565b6060826102d0576102cb8261031a565b610313565b81511580156102e757506001600160a01b0384163b155b1561031057604051639996b31560e01b81526001600160a01b0385166004820152602401610142565b50805b9392505050565b80511561032a5780518082602001fd5b604051630a12f52160e11b815260040160405180910390fd5b80516001600160a01b038116811461035a57600080fd5b919050565b634e487b7160e01b600052604160045260246000fd5b60005b83811015610390578181015183820152602001610378565b50506000910152565b600080604083850312156103ac57600080fd5b6103b583610343565b60208401519092506001600160401b03808211156103d257600080fd5b818501915085601f8301126103e657600080fd5b8151818111156103f8576103f861035f565b604051601f8201601f19908116603f011681019083821181831017156104205761042061035f565b8160405282815288602084870101111561043957600080fd5b61044a836020830160208801610375565b80955050505050509250929050565b60006020828403121561046b57600080fd5b61031382610343565b60008251610486818460208701610375565b9190910192915050565b60805161014d6104aa60003960006024015261014d6000f3fe608060405261000c61000e565b005b61001e610019610020565b6100b6565b565b60007f000000000000000000000000000000000000000000000000000000000000000073ffffffffffffffffffffffffffffffffffffffff16635c60da1b6040518163ffffffff1660e01b8152600401602060405180830381865afa15801561008d573d6000803e3d6000fd5b505050506040513d601f19601f820116820180604052508101906100b191906100da565b905090565b3660008037600080366000845af43d6000803e8080156100d5573d6000f35b3d6000fd5b6000602082840312156100ec57600080fd5b815173ffffffffffffffffffffffffffffffffffffffff8116811461011057600080fd5b939250505056fea26469706673582212200a91972ca098326cb9b1dc3798cf4e5537b28fca7b1e7195d98e5c14ff8ae10e64736f6c63430008140033a2646970667358221220714ab4a410ebf566fb25132f71c6efd4ba45a2284957f836047c77719d7624ed64736f6c63430008140033",
  "linkReferences": {},
  "deployedLinkReferences": {}
}