{
  "_format": "hh-sol-artifact-1",
  "contractName": "DecimalNFTCenter",
  "sourceName": "contracts/DecimalNFTCenter.sol",
  "abi": [
    {
      "inputs": [
        {
          "internalType": "address",
          "name": "target",
          "type": "address"
        }
      ],
      "name": "AddressEmptyCode",
      "type": "error"
    },
    {
      "inputs": [],
      "name": "AlreadyDeployed",
      "type": "error"
    },
    {
      "inputs": [
        {
          "internalType": "address",
          "name": "implementation",
          "type": "address"
        }
      ],
      "name": "ERC1967InvalidImplementation",
      "type": "error"
    },
    {
      "inputs": [],
      "name": "ERC1967NonPayable",
      "type": "error"
    },
    {
      "inputs": [],
      "name": "FailedInnerCall",
      "type": "error"
    },
    {
      "inputs": [],
      "name": "InvalidAddress",
      "type": "error"
    },
    {
      "inputs": [],
      "name": "InvalidAllowMint",
      "type": "error"
    },
    {
      "inputs": [],
      "name": "InvalidInitialMint",
      "type": "error"
    },
    {
      "inputs": [],
      "name": "InvalidInitialization",
      "type": "error"
    },
    {
      "inputs": [],
      "name": "InvalidPayloadLength",
      "type": "error"
    },
    {
      "inputs": [],
      "name": "NotInitializing",
      "type": "error"
    },
    {
      "inputs": [
        {
          "internalType": "address",
          "name": "owner",
          "type": "address"
        }
      ],
      "name": "OwnableInvalidOwner",
      "type": "error"
    },
    {
      "inputs": [
        {
          "internalType": "address",
          "name": "account",
          "type": "address"
        }
      ],
      "name": "OwnableUnauthorizedAccount",
      "type": "error"
    },
    {
      "anonymous": false,
      "inputs": [
        {
          "indexed": true,
          "internalType": "address",
          "name": "oldContract",
          "type": "address"
        },
        {
          "indexed": true,
          "internalType": "address",
          "name": "newContract",
          "type": "address"
        }
      ],
      "name": "ContractUpgraded",
      "type": "event"
    },
    {
      "anonymous": false,
      "inputs": [
        {
          "indexed": true,
          "internalType": "address",
          "name": "oldContract",
          "type": "address"
        },
        {
          "indexed": true,
          "internalType": "address",
          "name": "newContract",
          "type": "address"
        },
        {
          "indexed": true,
          "internalType": "enum NFTType",
          "name": "nftType",
          "type": "uint8"
        }
      ],
      "name": "ContractUpgradedNFT",
      "type": "event"
    },
    {
      "anonymous": false,
      "inputs": [
        {
          "indexed": false,
          "internalType": "uint64",
          "name": "version",
          "type": "uint64"
        }
      ],
      "name": "Initialized",
      "type": "event"
    },
    {
      "anonymous": false,
      "inputs": [
        {
          "indexed": false,
          "internalType": "address",
          "name": "tokenAddress",
          "type": "address"
        },
        {
          "indexed": true,
          "internalType": "enum NFTType",
          "name": "nftType",
          "type": "uint8"
        }
      ],
      "name": "NFTCreated",
      "type": "event"
    },
    {
      "anonymous": false,
      "inputs": [
        {
          "indexed": true,
          "internalType": "address",
          "name": "previousOwner",
          "type": "address"
        },
        {
          "indexed": true,
          "internalType": "address",
          "name": "newOwner",
          "type": "address"
        }
      ],
      "name": "OwnershipTransferred",
      "type": "event"
    },
    {
      "anonymous": false,
      "inputs": [
        {
          "indexed": true,
          "internalType": "address",
          "name": "implementation",
          "type": "address"
        }
      ],
      "name": "Upgraded",
      "type": "event"
    },
    {
      "inputs": [],
      "name": "MIN_RESERVE",
      "outputs": [
        {
          "internalType": "uint256",
          "name": "",
          "type": "uint256"
        }
      ],
      "stateMutability": "view",
      "type": "function"
    },
    {
      "inputs": [
        {
          "internalType": "enum NFTType",
          "name": "nftType",
          "type": "uint8"
        }
      ],
      "name": "beacon",
      "outputs": [
        {
          "internalType": "address",
          "name": "",
          "type": "address"
        }
      ],
      "stateMutability": "view",
      "type": "function"
    },
    {
      "inputs": [
        {
          "components": [
            {
              "internalType": "address",
              "name": "tokenOwner",
              "type": "address"
            },
            {
              "internalType": "string",
              "name": "symbol",
              "type": "string"
            },
            {
              "internalType": "string",
              "name": "name",
              "type": "string"
            },
            {
              "internalType": "string",
              "name": "contractURI",
              "type": "string"
            },
            {
              "internalType": "string",
              "name": "baseURI",
              "type": "string"
            },
            {
              "internalType": "bool",
              "name": "refundable",
              "type": "bool"
            }
          ],
          "internalType": "struct DecimalNFTCenter.NFT",
          "name": "meta",
          "type": "tuple"
        }
      ],
      "name": "createERC1155",
      "outputs": [
        {
          "internalType": "address",
          "name": "",
          "type": "address"
        }
      ],
      "stateMutability": "nonpayable",
      "type": "function"
    },
    {
      "inputs": [
        {
          "components": [
            {
              "internalType": "address",
              "name": "tokenOwner",
              "type": "address"
            },
            {
              "internalType": "string",
              "name": "symbol",
              "type": "string"
            },
            {
              "internalType": "string",
              "name": "name",
              "type": "string"
            },
            {
              "internalType": "string",
              "name": "contractURI",
              "type": "string"
            },
            {
              "internalType": "string",
              "name": "baseURI",
              "type": "string"
            },
            {
              "internalType": "bool",
              "name": "refundable",
              "type": "bool"
            }
          ],
          "internalType": "struct DecimalNFTCenter.NFT",
          "name": "meta",
          "type": "tuple"
        }
      ],
      "name": "createERC721",
      "outputs": [
        {
          "internalType": "address",
          "name": "",
          "type": "address"
        }
      ],
      "stateMutability": "nonpayable",
      "type": "function"
    },
    {
      "inputs": [],
      "name": "getContractCenter",
      "outputs": [
        {
          "internalType": "address",
          "name": "",
          "type": "address"
        }
      ],
      "stateMutability": "view",
      "type": "function"
    },
    {
      "inputs": [
        {
          "internalType": "address",
          "name": "nft",
          "type": "address"
        }
      ],
      "name": "getNftState",
      "outputs": [
        {
          "components": [
            {
              "internalType": "bool",
              "name": "active",
              "type": "bool"
            },
            {
              "internalType": "enum NFTType",
              "name": "nftType",
              "type": "uint8"
            }
          ],
          "internalType": "struct NFTState",
          "name": "",
          "type": "tuple"
        }
      ],
      "stateMutability": "view",
      "type": "function"
    },
    {
      "inputs": [
        {
          "internalType": "enum NFTType",
          "name": "nftType",
          "type": "uint8"
        }
      ],
      "name": "implementation",
      "outputs": [
        {
          "internalType": "address",
          "name": "",
          "type": "address"
        }
      ],
      "stateMutability": "view",
      "type": "function"
    },
    {
      "inputs": [],
      "name": "initialize",
      "outputs": [],
      "stateMutability": "nonpayable",
      "type": "function"
    },
    {
      "inputs": [],
      "name": "owner",
      "outputs": [
        {
          "internalType": "address",
          "name": "",
          "type": "address"
        }
      ],
      "stateMutability": "view",
      "type": "function"
    },
    {
      "inputs": [],
      "name": "renounceOwnership",
      "outputs": [],
      "stateMutability": "nonpayable",
      "type": "function"
    },
    {
      "inputs": [
        {
          "internalType": "address",
          "name": "addressContractCenter",
          "type": "address"
        }
      ],
      "name": "setAddressContractCenter",
      "outputs": [],
      "stateMutability": "nonpayable",
      "type": "function"
    },
    {
      "inputs": [
        {
          "internalType": "address",
          "name": "newOwner",
          "type": "address"
        }
      ],
      "name": "transferOwnership",
      "outputs": [],
      "stateMutability": "nonpayable",
      "type": "function"
    },
    {
      "inputs": [
        {
          "internalType": "address",
          "name": "newImplementation",
          "type": "address"
        }
      ],
      "name": "upgrade",
      "outputs": [],
      "stateMutability": "nonpayable",
      "type": "function"
    },
    {
      "inputs": [
        {
          "internalType": "address",
          "name": "newNFTImplementation",
          "type": "address"
        },
        {
          "internalType": "enum NFTType",
          "name": "nftType",
          "type": "uint8"
        }
      ],
      "name": "upgradeNFT",
      "outputs": [],
      "stateMutability": "nonpayable",
      "type": "function"
    },
    {
      "stateMutability": "payable",
      "type": "receive"
    }
  ],
  "bytecode": "0x608060405234801561001057600080fd5b50611818806100206000396000f3fe608060405260043610620000f35760003560e01c806399f6c1391162000089578063cd3a22961162000060578063cd3a229614620002ae578063dd03ada814620002d3578063f19a74c51462000307578063f2fde38b146200032c57600080fd5b806399f6c1391462000225578063ba778bce146200024a578063cb218f9c146200028957600080fd5b8063715018a611620000ca578063715018a6146200017d5780638129fc1c14620001955780638da5cb5b14620001ad57806397451e91146200020057600080fd5b806307a4330a14620001005780630900f010146200012757806309dfd0e6146200014c57600080fd5b36620000fb57005b600080fd5b3480156200010d57600080fd5b50620001256200011f36600462000db6565b62000351565b005b3480156200013457600080fd5b50620001256200014636600462000db6565b6200039c565b3480156200015957600080fd5b506200016a670de0b6b3a764000081565b6040519081526020015b60405180910390f35b3480156200018a57600080fd5b506200012562000482565b348015620001a257600080fd5b50620001256200049a565b348015620001ba57600080fd5b507f9016d09d72d40fdae2fd8ceac6b6234c7706214fd39c1cd1e609a0528c199300546001600160a01b03165b6040516001600160a01b03909116815260200162000174565b3480156200020d57600080fd5b50620001256200021f36600462000de4565b620005a6565b3480156200023257600080fd5b50620001e76200024436600462000e1c565b620006c0565b3480156200025757600080fd5b507f423e19ba3ab62aa24056c2de1e1b9c783fafcd74a7c7784821454f257520ea03546001600160a01b0316620001e7565b3480156200029657600080fd5b50620001e7620002a836600462000f22565b6200072d565b348015620002bb57600080fd5b50620001e7620002cd36600462000f22565b62000742565b348015620002e057600080fd5b50620002f8620002f236600462000db6565b62000751565b60405162000174919062001048565b3480156200031457600080fd5b50620001e76200032636600462000e1c565b620007f0565b3480156200033957600080fd5b50620001256200034b36600462000db6565b6200082a565b6200035b62000872565b7f423e19ba3ab62aa24056c2de1e1b9c783fafcd74a7c7784821454f257520ea0380546001600160a01b0319166001600160a01b0392909216919091179055565b620003a662000872565b6000620003da7f360894a13ba1a3210667c828492db98dca3e2076cc3735a920a3ca505d382bbc546001600160a01b031690565b90506001600160a01b0382161580620004045750806001600160a01b0316826001600160a01b0316145b15620004235760405163e6c4247b60e01b815260040160405180910390fd5b6200043e8260405180602001604052806000815250620008d0565b816001600160a01b0316816001600160a01b03167f2e4cc16c100f0b55e2df82ab0b1a7e294aa9cbd01b48fbaf622683fbc0507a4960405160405180910390a35050565b6200048c62000872565b62000498600062000936565b565b7ff0c57e16840df040f15088dc2f81fe391c3923bec73e23a9662efc9c229c6a008054600160401b810460ff16159067ffffffffffffffff16600081158015620004e15750825b905060008267ffffffffffffffff166001148015620004ff5750303b155b9050811580156200050e575080155b156200052d5760405163f92ee8a960e01b815260040160405180910390fd5b845467ffffffffffffffff1916600117855583156200055857845460ff60401b1916600160401b1785555b83156200059f57845460ff60401b19168555604051600181527fc7f505b2f371ae2175ee4913f4499e1f2633a7b5936321eed1cdaeb6115181d29060200160405180910390a15b5050505050565b620005b062000872565b6000620005bd82620007f0565b90506001600160a01b038316620005e75760405163e6c4247b60e01b815260040160405180910390fd5b827f423e19ba3ab62aa24056c2de1e1b9c783fafcd74a7c7784821454f257520ea00600084600181111562000620576200062062001032565b600181111562000634576200063462001032565b815260200190815260200160002060006101000a8154816001600160a01b0302191690836001600160a01b031602179055508160018111156200067b576200067b62001032565b836001600160a01b0316826001600160a01b03167fe4dfc1498d5921eb1933069a6657c79e0b3fa55db46bf016d331de23cee72a3a60405160405180910390a4505050565b60007f423e19ba3ab62aa24056c2de1e1b9c783fafcd74a7c7784821454f257520ea0181836001811115620006f957620006f962001032565b60018111156200070d576200070d62001032565b81526020810191909152604001600020546001600160a01b031692915050565b60006200073c600183620009a7565b92915050565b60006200073c600083620009a7565b60408051808201909152600080825260208201526001600160a01b03821660009081527f423e19ba3ab62aa24056c2de1e1b9c783fafcd74a7c7784821454f257520ea0260209081526040918290208251808401909352805460ff808216151585529192840191610100909104166001811115620007d357620007d362001032565b6001811115620007e757620007e762001032565b90525092915050565b60007f423e19ba3ab62aa24056c2de1e1b9c783fafcd74a7c7784821454f257520ea006000836001811115620006f957620006f962001032565b6200083462000872565b6001600160a01b0381166200086457604051631e4fbdf760e01b8152600060048201526024015b60405180910390fd5b6200086f8162000936565b50565b33620008a57f9016d09d72d40fdae2fd8ceac6b6234c7706214fd39c1cd1e609a0528c199300546001600160a01b031690565b6001600160a01b031614620004985760405163118cdaa760e01b81523360048201526024016200085b565b620008db8262000b84565b6040516001600160a01b038316907fbc7cd75a20ee27fd9adebab32041f755214dbc6bffa90cc0225b39da2e5c2d3b90600090a2805115620009285762000923828262000bfd565b505050565b6200093262000c79565b5050565b7f9016d09d72d40fdae2fd8ceac6b6234c7706214fd39c1cd1e609a0528c19930080546001600160a01b031981166001600160a01b03848116918217845560405192169182907f8be0079c531659141344cd1fd0a4f28419497f9722a3daafe3b4186f6b6457e090600090a3505050565b60007f423e19ba3ab62aa24056c2de1e1b9c783fafcd74a7c7784821454f257520ea007f423e19ba3ab62aa24056c2de1e1b9c783fafcd74a7c7784821454f257520ea018285600181111562000a015762000a0162001032565b600181111562000a155762000a1562001032565b81526020810191909152604001600020546001600160a01b031662000a3a8462000c99565b60405162000a489062000d8b565b62000a55929190620010d8565b604051809103906000f08015801562000a72573d6000803e3d6000fd5b5091506001600160a01b03821662000a9d5760405163a6ef0ba160e01b815260040160405180910390fd5b604051806040016040528060011515815260200185600181111562000ac65762000ac662001032565b90526001600160a01b038316600090815260028301602090815260409091208251815490151560ff19821681178355928401519192839161ff001990911661ffff199091161761010083600181111562000b245762000b2462001032565b021790555090505083600181111562000b415762000b4162001032565b6040516001600160a01b03841681527f1e83168b9cf5ec55857181b2c2eace76df677e5d123aeeaefda6fc1a18ef15209060200160405180910390a25092915050565b806001600160a01b03163b60000362000bbc57604051634c9c8ce360e01b81526001600160a01b03821660048201526024016200085b565b7f360894a13ba1a3210667c828492db98dca3e2076cc3735a920a3ca505d382bbc80546001600160a01b0319166001600160a01b0392909216919091179055565b6060600080846001600160a01b03168460405162000c1c919062001106565b600060405180830381855af49150503d806000811462000c59576040519150601f19603f3d011682016040523d82523d6000602084013e62000c5e565b606091505b509150915062000c7085838362000cfb565b95945050505050565b3415620004985760405163b398979f60e01b815260040160405180910390fd5b60208101516040808301516060848101516080860151865160a08801519551939662000ccb9690959460240162001124565b60408051601f198184030181529190526020810180516001600160e01b03166317f9e61f60e31b17905292915050565b60608262000d145762000d0e8262000d61565b62000d5a565b815115801562000d2c57506001600160a01b0384163b155b1562000d5757604051639996b31560e01b81526001600160a01b03851660048201526024016200085b565b50805b9392505050565b80511562000d725780518082602001fd5b604051630a12f52160e11b815260040160405180910390fd5b610645806200119e83390190565b80356001600160a01b038116811462000db157600080fd5b919050565b60006020828403121562000dc957600080fd5b62000d5a8262000d99565b80356002811062000db157600080fd5b6000806040838503121562000df857600080fd5b62000e038362000d99565b915062000e136020840162000dd4565b90509250929050565b60006020828403121562000e2f57600080fd5b62000d5a8262000dd4565b634e487b7160e01b600052604160045260246000fd5b60405160c0810167ffffffffffffffff8111828210171562000e765762000e7662000e3a565b60405290565b600082601f83011262000e8e57600080fd5b813567ffffffffffffffff8082111562000eac5762000eac62000e3a565b604051601f8301601f19908116603f0116810190828211818310171562000ed75762000ed762000e3a565b8160405283815286602085880101111562000ef157600080fd5b836020870160208301376000602085830101528094505050505092915050565b8035801515811462000db157600080fd5b60006020828403121562000f3557600080fd5b813567ffffffffffffffff8082111562000f4e57600080fd5b9083019060c0828603121562000f6357600080fd5b62000f6d62000e50565b62000f788362000d99565b815260208301358281111562000f8d57600080fd5b62000f9b8782860162000e7c565b60208301525060408301358281111562000fb457600080fd5b62000fc28782860162000e7c565b60408301525060608301358281111562000fdb57600080fd5b62000fe98782860162000e7c565b6060830152506080830135828111156200100257600080fd5b620010108782860162000e7c565b6080830152506200102460a0840162000f11565b60a082015295945050505050565b634e487b7160e01b600052602160045260246000fd5b81511515815260208201516040820190600281106200107757634e487b7160e01b600052602160045260246000fd5b8060208401525092915050565b60005b83811015620010a157818101518382015260200162001087565b50506000910152565b60008151808452620010c481602086016020860162001084565b601f01601f19169290920160200192915050565b6001600160a01b0383168152604060208201819052600090620010fe90830184620010aa565b949350505050565b600082516200111a81846020870162001084565b9190910192915050565b60c0815260006200113960c0830189620010aa565b82810360208401526200114d8189620010aa565b90508281036040840152620011638188620010aa565b90508281036060840152620011798187620010aa565b6001600160a01b03959095166080840152505090151560a09091015294935050505056fe60a06040526040516106453803806106458339810160408190526100229161038c565b818161002e8282610043565b506001600160a01b0316608052506104839050565b61004c82610103565b6040516001600160a01b038316907f1cf3b03a6cf19fa2baba4df148e9dcabedea7f8a5c07840e207e5c089be95d3e90600090a28051156100f7576100f2826001600160a01b0316635c60da1b6040518163ffffffff1660e01b8152600401602060405180830381865afa1580156100c8573d6000803e3d6000fd5b505050506040513d601f19601f820116820180604052508101906100ec919061044c565b82610216565b505050565b6100ff61028d565b5050565b806001600160a01b03163b60000361013e57604051631933b43b60e21b81526001600160a01b03821660048201526024015b60405180910390fd5b807fa3f0ad74e5423aebfd80d3ef4346578335a9a72aeaee59ff6cb3582b35133d5080546001600160a01b0319166001600160a01b0392831617905560408051635c60da1b60e01b81529051600092841691635c60da1b9160048083019260209291908290030181865afa1580156101ba573d6000803e3d6000fd5b505050506040513d601f19601f820116820180604052508101906101de919061044c565b9050806001600160a01b03163b6000036100ff57604051634c9c8ce360e01b81526001600160a01b0382166004820152602401610135565b6060600080846001600160a01b0316846040516102339190610467565b600060405180830381855af49150503d806000811461026e576040519150601f19603f3d011682016040523d82523d6000602084013e610273565b606091505b5090925090506102848583836102ae565b95945050505050565b34156102ac5760405163b398979f60e01b815260040160405180910390fd5b565b6060826102c3576102be8261030d565b610306565b81511580156102da57506001600160a01b0384163b155b1561030357604051639996b31560e01b81526001600160a01b0385166004820152602401610135565b50805b9392505050565b80511561031d5780518082602001fd5b604051630a12f52160e11b815260040160405180910390fd5b80516001600160a01b038116811461034d57600080fd5b919050565b634e487b7160e01b600052604160045260246000fd5b60005b8381101561038357818101518382015260200161036b565b50506000910152565b6000806040838503121561039f57600080fd5b6103a883610336565b60208401519092506001600160401b03808211156103c557600080fd5b818501915085601f8301126103d957600080fd5b8151818111156103eb576103eb610352565b604051601f8201601f19908116603f0116810190838211818310171561041357610413610352565b8160405282815288602084870101111561042c57600080fd5b61043d836020830160208801610368565b80955050505050509250929050565b60006020828403121561045e57600080fd5b61030682610336565b60008251610479818460208701610368565b9190910192915050565b6080516101a26104a36000396000818160420152609801526101a26000f3fe6080604052600436106100225760003560e01c80632d6b3a6b1461003357610029565b3661002957005b61003161007d565b005b34801561003f57600080fd5b507f00000000000000000000000000000000000000000000000000000000000000006040516001600160a01b03909116815260200160405180910390f35b61008d610088610094565b610118565b565b905090565b60007f00000000000000000000000000000000000000000000000000000000000000006001600160a01b0316635c60da1b6040518163ffffffff1660e01b8152600401602060405180830381865afa1580156100f4573d6000803e3d6000fd5b505050506040513d601f19601f8201168201806040525081019061008f919061013c565b3660008037600080366000845af43d6000803e808015610137573d6000f35b3d6000fd5b60006020828403121561014e57600080fd5b81516001600160a01b038116811461016557600080fd5b939250505056fea2646970667358221220ffe1b782e773ce61a5a0a2995b193fa491fff4d4593eef9f8e8eeb3850c3d34c64736f6c63430008140033a2646970667358221220cc4f045b122d9f8d47bec78226c5879fe24c80bcf9c56b4a81f220544fff3d8a64736f6c63430008140033",
  "linkReferences": {},
  "deployedLinkReferences": {}
}