{
  "_format": "hh-sol-artifact-1",
  "contractName": "DecimalERC721",
  "sourceName": "contracts/DecimalERC721.sol",
  "abi": [
    {
      "inputs": [],
      "name": "AccessControlBadConfirmation",
      "type": "error"
    },
    {
      "inputs": [
        {
          "internalType": "address",
          "name": "account",
          "type": "address"
        },
        {
          "internalType": "bytes32",
          "name": "neededRole",
          "type": "bytes32"
        }
      ],
      "name": "AccessControlUnauthorizedAccount",
      "type": "error"
    },
    {
      "inputs": [
        {
          "internalType": "address",
          "name": "sender",
          "type": "address"
        },
        {
          "internalType": "uint256",
          "name": "tokenId",
          "type": "uint256"
        },
        {
          "internalType": "address",
          "name": "owner",
          "type": "address"
        }
      ],
      "name": "ERC721IncorrectOwner",
      "type": "error"
    },
    {
      "inputs": [
        {
          "internalType": "address",
          "name": "operator",
          "type": "address"
        },
        {
          "internalType": "uint256",
          "name": "tokenId",
          "type": "uint256"
        }
      ],
      "name": "ERC721InsufficientApproval",
      "type": "error"
    },
    {
      "inputs": [
        {
          "internalType": "address",
          "name": "approver",
          "type": "address"
        }
      ],
      "name": "ERC721InvalidApprover",
      "type": "error"
    },
    {
      "inputs": [
        {
          "internalType": "address",
          "name": "operator",
          "type": "address"
        }
      ],
      "name": "ERC721InvalidOperator",
      "type": "error"
    },
    {
      "inputs": [
        {
          "internalType": "address",
          "name": "owner",
          "type": "address"
        }
      ],
      "name": "ERC721InvalidOwner",
      "type": "error"
    },
    {
      "inputs": [
        {
          "internalType": "address",
          "name": "receiver",
          "type": "address"
        }
      ],
      "name": "ERC721InvalidReceiver",
      "type": "error"
    },
    {
      "inputs": [
        {
          "internalType": "address",
          "name": "sender",
          "type": "address"
        }
      ],
      "name": "ERC721InvalidSender",
      "type": "error"
    },
    {
      "inputs": [
        {
          "internalType": "uint256",
          "name": "tokenId",
          "type": "uint256"
        }
      ],
      "name": "ERC721NonexistentToken",
      "type": "error"
    },
    {
      "inputs": [],
      "name": "InvalidInitialization",
      "type": "error"
    },
    {
      "inputs": [],
      "name": "InvalidMinReserve",
      "type": "error"
    },
    {
      "inputs": [],
      "name": "InvalidTypeReserve",
      "type": "error"
    },
    {
      "inputs": [],
      "name": "MintNotAllowed",
      "type": "error"
    },
    {
      "inputs": [],
      "name": "NotInitializing",
      "type": "error"
    },
    {
      "inputs": [],
      "name": "NotOwner",
      "type": "error"
    },
    {
      "inputs": [],
      "name": "OnlyNftDelegation",
      "type": "error"
    },
    {
      "inputs": [],
      "name": "PermitExpired",
      "type": "error"
    },
    {
      "inputs": [],
      "name": "PermitInvalidSignature",
      "type": "error"
    },
    {
      "inputs": [],
      "name": "PermitInvalidSpender",
      "type": "error"
    },
    {
      "inputs": [],
      "name": "PermitUnauthorized",
      "type": "error"
    },
    {
      "anonymous": false,
      "inputs": [
        {
          "indexed": true,
          "internalType": "address",
          "name": "owner",
          "type": "address"
        },
        {
          "indexed": true,
          "internalType": "address",
          "name": "approved",
          "type": "address"
        },
        {
          "indexed": true,
          "internalType": "uint256",
          "name": "tokenId",
          "type": "uint256"
        }
      ],
      "name": "Approval",
      "type": "event"
    },
    {
      "anonymous": false,
      "inputs": [
        {
          "indexed": true,
          "internalType": "address",
          "name": "owner",
          "type": "address"
        },
        {
          "indexed": true,
          "internalType": "address",
          "name": "operator",
          "type": "address"
        },
        {
          "indexed": false,
          "internalType": "bool",
          "name": "approved",
          "type": "bool"
        }
      ],
      "name": "ApprovalForAll",
      "type": "event"
    },
    {
      "anonymous": false,
      "inputs": [
        {
          "indexed": false,
          "internalType": "uint256",
          "name": "_fromTokenId",
          "type": "uint256"
        },
        {
          "indexed": false,
          "internalType": "uint256",
          "name": "_toTokenId",
          "type": "uint256"
        }
      ],
      "name": "BatchMetadataUpdate",
      "type": "event"
    },
    {
      "anonymous": false,
      "inputs": [],
      "name": "DisabledMint",
      "type": "event"
    },
    {
      "anonymous": false,
      "inputs": [
        {
          "indexed": false,
          "internalType": "uint64",
          "name": "version",
          "type": "uint64"
        }
      ],
      "name": "Initialized",
      "type": "event"
    },
    {
      "anonymous": false,
      "inputs": [
        {
          "indexed": false,
          "internalType": "uint256",
          "name": "_tokenId",
          "type": "uint256"
        }
      ],
      "name": "MetadataUpdate",
      "type": "event"
    },
    {
      "anonymous": false,
      "inputs": [
        {
          "indexed": true,
          "internalType": "bytes32",
          "name": "role",
          "type": "bytes32"
        },
        {
          "indexed": true,
          "internalType": "bytes32",
          "name": "previousAdminRole",
          "type": "bytes32"
        },
        {
          "indexed": true,
          "internalType": "bytes32",
          "name": "newAdminRole",
          "type": "bytes32"
        }
      ],
      "name": "RoleAdminChanged",
      "type": "event"
    },
    {
      "anonymous": false,
      "inputs": [
        {
          "indexed": true,
          "internalType": "bytes32",
          "name": "role",
          "type": "bytes32"
        },
        {
          "indexed": true,
          "internalType": "address",
          "name": "account",
          "type": "address"
        },
        {
          "indexed": true,
          "internalType": "address",
          "name": "sender",
          "type": "address"
        }
      ],
      "name": "RoleGranted",
      "type": "event"
    },
    {
      "anonymous": false,
      "inputs": [
        {
          "indexed": true,
          "internalType": "bytes32",
          "name": "role",
          "type": "bytes32"
        },
        {
          "indexed": true,
          "internalType": "address",
          "name": "account",
          "type": "address"
        },
        {
          "indexed": true,
          "internalType": "address",
          "name": "sender",
          "type": "address"
        }
      ],
      "name": "RoleRevoked",
      "type": "event"
    },
    {
      "anonymous": false,
      "inputs": [
        {
          "indexed": true,
          "internalType": "address",
          "name": "from",
          "type": "address"
        },
        {
          "indexed": true,
          "internalType": "address",
          "name": "to",
          "type": "address"
        },
        {
          "indexed": true,
          "internalType": "uint256",
          "name": "tokenId",
          "type": "uint256"
        }
      ],
      "name": "Transfer",
      "type": "event"
    },
    {
      "inputs": [],
      "name": "CREATOR_ROLE",
      "outputs": [
        {
          "internalType": "bytes32",
          "name": "",
          "type": "bytes32"
        }
      ],
      "stateMutability": "view",
      "type": "function"
    },
    {
      "inputs": [],
      "name": "DEFAULT_ADMIN_ROLE",
      "outputs": [
        {
          "internalType": "bytes32",
          "name": "",
          "type": "bytes32"
        }
      ],
      "stateMutability": "view",
      "type": "function"
    },
    {
      "inputs": [],
      "name": "DOMAIN_SEPARATOR",
      "outputs": [
        {
          "internalType": "bytes32",
          "name": "",
          "type": "bytes32"
        }
      ],
      "stateMutability": "view",
      "type": "function"
    },
    {
      "inputs": [],
      "name": "MIN_RESERVE",
      "outputs": [
        {
          "internalType": "uint256",
          "name": "",
          "type": "uint256"
        }
      ],
      "stateMutability": "view",
      "type": "function"
    },
    {
      "inputs": [
        {
          "internalType": "uint256",
          "name": "tokenId",
          "type": "uint256"
        }
      ],
      "name": "addReserve",
      "outputs": [],
      "stateMutability": "payable",
      "type": "function"
    },
    {
      "inputs": [
        {
          "internalType": "uint256",
          "name": "tokenId",
          "type": "uint256"
        },
        {
          "internalType": "uint256",
          "name": "reserveAmount",
          "type": "uint256"
        },
        {
          "internalType": "uint256",
          "name": "deadline",
          "type": "uint256"
        },
        {
          "internalType": "uint8",
          "name": "v",
          "type": "uint8"
        },
        {
          "internalType": "bytes32",
          "name": "r",
          "type": "bytes32"
        },
        {
          "internalType": "bytes32",
          "name": "s",
          "type": "bytes32"
        }
      ],
      "name": "addReserve",
      "outputs": [],
      "stateMutability": "nonpayable",
      "type": "function"
    },
    {
      "inputs": [
        {
          "internalType": "uint256",
          "name": "tokenId",
          "type": "uint256"
        },
        {
          "internalType": "uint256",
          "name": "reserveAmount",
          "type": "uint256"
        }
      ],
      "name": "addReserve",
      "outputs": [],
      "stateMutability": "nonpayable",
      "type": "function"
    },
    {
      "inputs": [
        {
          "internalType": "address",
          "name": "to",
          "type": "address"
        },
        {
          "internalType": "uint256",
          "name": "tokenId",
          "type": "uint256"
        }
      ],
      "name": "approve",
      "outputs": [],
      "stateMutability": "nonpayable",
      "type": "function"
    },
    {
      "inputs": [
        {
          "internalType": "address",
          "name": "owner",
          "type": "address"
        }
      ],
      "name": "balanceOf",
      "outputs": [
        {
          "internalType": "uint256",
          "name": "",
          "type": "uint256"
        }
      ],
      "stateMutability": "view",
      "type": "function"
    },
    {
      "inputs": [
        {
          "internalType": "uint256",
          "name": "tokenId",
          "type": "uint256"
        }
      ],
      "name": "burn",
      "outputs": [],
      "stateMutability": "nonpayable",
      "type": "function"
    },
    {
      "inputs": [],
      "name": "contractURI",
      "outputs": [
        {
          "internalType": "string",
          "name": "",
          "type": "string"
        }
      ],
      "stateMutability": "view",
      "type": "function"
    },
    {
      "inputs": [],
      "name": "disableMint",
      "outputs": [],
      "stateMutability": "nonpayable",
      "type": "function"
    },
    {
      "inputs": [],
      "name": "getAllowMint",
      "outputs": [
        {
          "internalType": "bool",
          "name": "",
          "type": "bool"
        }
      ],
      "stateMutability": "view",
      "type": "function"
    },
    {
      "inputs": [
        {
          "internalType": "uint256",
          "name": "tokenId",
          "type": "uint256"
        }
      ],
      "name": "getApproved",
      "outputs": [
        {
          "internalType": "address",
          "name": "",
          "type": "address"
        }
      ],
      "stateMutability": "view",
      "type": "function"
    },
    {
      "inputs": [],
      "name": "getNftType",
      "outputs": [
        {
          "internalType": "enum NFTType",
          "name": "",
          "type": "uint8"
        }
      ],
      "stateMutability": "pure",
      "type": "function"
    },
    {
      "inputs": [],
      "name": "getRefundable",
      "outputs": [
        {
          "internalType": "bool",
          "name": "",
          "type": "bool"
        }
      ],
      "stateMutability": "view",
      "type": "function"
    },
    {
      "inputs": [
        {
          "internalType": "uint256",
          "name": "tokenId",
          "type": "uint256"
        }
      ],
      "name": "getReserve",
      "outputs": [
        {
          "internalType": "uint256",
          "name": "amount",
          "type": "uint256"
        },
        {
          "internalType": "address",
          "name": "reserveAddress",
          "type": "address"
        }
      ],
      "stateMutability": "view",
      "type": "function"
    },
    {
      "inputs": [
        {
          "internalType": "bytes32",
          "name": "role",
          "type": "bytes32"
        }
      ],
      "name": "getRoleAdmin",
      "outputs": [
        {
          "internalType": "bytes32",
          "name": "",
          "type": "bytes32"
        }
      ],
      "stateMutability": "view",
      "type": "function"
    },
    {
      "inputs": [
        {
          "internalType": "uint256",
          "name": "tokenId",
          "type": "uint256"
        }
      ],
      "name": "getTypeReserve",
      "outputs": [
        {
          "internalType": "enum DecimalERC721.TypeReserve",
          "name": "",
          "type": "uint8"
        }
      ],
      "stateMutability": "view",
      "type": "function"
    },
    {
      "inputs": [
        {
          "internalType": "bytes32",
          "name": "role",
          "type": "bytes32"
        },
        {
          "internalType": "address",
          "name": "account",
          "type": "address"
        }
      ],
      "name": "grantRole",
      "outputs": [],
      "stateMutability": "nonpayable",
      "type": "function"
    },
    {
      "inputs": [
        {
          "internalType": "bytes32",
          "name": "role",
          "type": "bytes32"
        },
        {
          "internalType": "address",
          "name": "account",
          "type": "address"
        }
      ],
      "name": "hasRole",
      "outputs": [
        {
          "internalType": "bool",
          "name": "",
          "type": "bool"
        }
      ],
      "stateMutability": "view",
      "type": "function"
    },
    {
      "inputs": [
        {
          "internalType": "string",
          "name": "initialSymbol",
          "type": "string"
        },
        {
          "internalType": "string",
          "name": "initialName",
          "type": "string"
        },
        {
          "internalType": "string",
          "name": "initialContractURI",
          "type": "string"
        },
        {
          "internalType": "string",
          "name": "initialBaseURI",
          "type": "string"
        },
        {
          "internalType": "address",
          "name": "initialCreator",
          "type": "address"
        },
        {
          "internalType": "bool",
          "name": "initialRefundable",
          "type": "bool"
        }
      ],
      "name": "initialize",
      "outputs": [],
      "stateMutability": "nonpayable",
      "type": "function"
    },
    {
      "inputs": [
        {
          "internalType": "address",
          "name": "owner",
          "type": "address"
        },
        {
          "internalType": "address",
          "name": "operator",
          "type": "address"
        }
      ],
      "name": "isApprovedForAll",
      "outputs": [
        {
          "internalType": "bool",
          "name": "",
          "type": "bool"
        }
      ],
      "stateMutability": "view",
      "type": "function"
    },
    {
      "inputs": [
        {
          "internalType": "address",
          "name": "recipient",
          "type": "address"
        },
        {
          "internalType": "string",
          "name": "tokenURI",
          "type": "string"
        },
        {
          "internalType": "uint256",
          "name": "reserveAmount",
          "type": "uint256"
        },
        {
          "internalType": "address",
          "name": "reserveToken",
          "type": "address"
        }
      ],
      "name": "mint",
      "outputs": [
        {
          "internalType": "uint256",
          "name": "",
          "type": "uint256"
        }
      ],
      "stateMutability": "nonpayable",
      "type": "function"
    },
    {
      "inputs": [
        {
          "internalType": "address",
          "name": "recipient",
          "type": "address"
        },
        {
          "internalType": "string",
          "name": "tokenURI",
          "type": "string"
        }
      ],
      "name": "mintByETH",
      "outputs": [
        {
          "internalType": "uint256",
          "name": "",
          "type": "uint256"
        }
      ],
      "stateMutability": "payable",
      "type": "function"
    },
    {
      "inputs": [
        {
          "internalType": "address",
          "name": "recipient",
          "type": "address"
        },
        {
          "internalType": "string",
          "name": "tokenURI",
          "type": "string"
        },
        {
          "internalType": "uint256",
          "name": "reserveAmount",
          "type": "uint256"
        },
        {
          "internalType": "address",
          "name": "reserveToken",
          "type": "address"
        },
        {
          "internalType": "uint256",
          "name": "deadline",
          "type": "uint256"
        },
        {
          "internalType": "uint8",
          "name": "v",
          "type": "uint8"
        },
        {
          "internalType": "bytes32",
          "name": "r",
          "type": "bytes32"
        },
        {
          "internalType": "bytes32",
          "name": "s",
          "type": "bytes32"
        }
      ],
      "name": "mintByPermit",
      "outputs": [
        {
          "internalType": "uint256",
          "name": "",
          "type": "uint256"
        }
      ],
      "stateMutability": "nonpayable",
      "type": "function"
    },
    {
      "inputs": [],
      "name": "name",
      "outputs": [
        {
          "internalType": "string",
          "name": "",
          "type": "string"
        }
      ],
      "stateMutability": "view",
      "type": "function"
    },
    {
      "inputs": [
        {
          "internalType": "uint256",
          "name": "tokenId",
          "type": "uint256"
        }
      ],
      "name": "nonces",
      "outputs": [
        {
          "internalType": "uint256",
          "name": "",
          "type": "uint256"
        }
      ],
      "stateMutability": "view",
      "type": "function"
    },
    {
      "inputs": [
        {
          "internalType": "uint256",
          "name": "tokenId",
          "type": "uint256"
        }
      ],
      "name": "ownerOf",
      "outputs": [
        {
          "internalType": "address",
          "name": "",
          "type": "address"
        }
      ],
      "stateMutability": "view",
      "type": "function"
    },
    {
      "inputs": [
        {
          "internalType": "uint256",
          "name": "tokenId",
          "type": "uint256"
        },
        {
          "internalType": "uint256",
          "name": "percentage",
          "type": "uint256"
        }
      ],
      "name": "penalty",
      "outputs": [],
      "stateMutability": "nonpayable",
      "type": "function"
    },
    {
      "inputs": [
        {
          "internalType": "address",
          "name": "spender",
          "type": "address"
        },
        {
          "internalType": "uint256",
          "name": "tokenId",
          "type": "uint256"
        },
        {
          "internalType": "uint256",
          "name": "deadline",
          "type": "uint256"
        },
        {
          "internalType": "uint8",
          "name": "v",
          "type": "uint8"
        },
        {
          "internalType": "bytes32",
          "name": "r",
          "type": "bytes32"
        },
        {
          "internalType": "bytes32",
          "name": "s",
          "type": "bytes32"
        }
      ],
      "name": "permit",
      "outputs": [],
      "stateMutability": "nonpayable",
      "type": "function"
    },
    {
      "inputs": [
        {
          "internalType": "bytes32",
          "name": "role",
          "type": "bytes32"
        },
        {
          "internalType": "address",
          "name": "callerConfirmation",
          "type": "address"
        }
      ],
      "name": "renounceRole",
      "outputs": [],
      "stateMutability": "nonpayable",
      "type": "function"
    },
    {
      "inputs": [
        {
          "internalType": "bytes32",
          "name": "role",
          "type": "bytes32"
        },
        {
          "internalType": "address",
          "name": "account",
          "type": "address"
        }
      ],
      "name": "revokeRole",
      "outputs": [],
      "stateMutability": "nonpayable",
      "type": "function"
    },
    {
      "inputs": [
        {
          "internalType": "address",
          "name": "from",
          "type": "address"
        },
        {
          "internalType": "address",
          "name": "to",
          "type": "address"
        },
        {
          "internalType": "uint256",
          "name": "tokenId",
          "type": "uint256"
        }
      ],
      "name": "safeTransferFrom",
      "outputs": [],
      "stateMutability": "nonpayable",
      "type": "function"
    },
    {
      "inputs": [
        {
          "internalType": "address",
          "name": "from",
          "type": "address"
        },
        {
          "internalType": "address",
          "name": "to",
          "type": "address"
        },
        {
          "internalType": "uint256",
          "name": "tokenId",
          "type": "uint256"
        },
        {
          "internalType": "bytes",
          "name": "data",
          "type": "bytes"
        }
      ],
      "name": "safeTransferFrom",
      "outputs": [],
      "stateMutability": "nonpayable",
      "type": "function"
    },
    {
      "inputs": [
        {
          "internalType": "address",
          "name": "operator",
          "type": "address"
        },
        {
          "internalType": "bool",
          "name": "approved",
          "type": "bool"
        }
      ],
      "name": "setApprovalForAll",
      "outputs": [],
      "stateMutability": "nonpayable",
      "type": "function"
    },
    {
      "inputs": [
        {
          "internalType": "string",
          "name": "newBaseURI",
          "type": "string"
        }
      ],
      "name": "setBaseURI",
      "outputs": [],
      "stateMutability": "nonpayable",
      "type": "function"
    },
    {
      "inputs": [
        {
          "internalType": "uint256",
          "name": "tokenId",
          "type": "uint256"
        },
        {
          "internalType": "string",
          "name": "tokenURI",
          "type": "string"
        }
      ],
      "name": "setTokenURI",
      "outputs": [],
      "stateMutability": "nonpayable",
      "type": "function"
    },
    {
      "inputs": [
        {
          "internalType": "bytes4",
          "name": "interfaceId",
          "type": "bytes4"
        }
      ],
      "name": "supportsInterface",
      "outputs": [
        {
          "internalType": "bool",
          "name": "",
          "type": "bool"
        }
      ],
      "stateMutability": "view",
      "type": "function"
    },
    {
      "inputs": [],
      "name": "symbol",
      "outputs": [
        {
          "internalType": "string",
          "name": "",
          "type": "string"
        }
      ],
      "stateMutability": "view",
      "type": "function"
    },
    {
      "inputs": [
        {
          "internalType": "uint256",
          "name": "tokenId",
          "type": "uint256"
        }
      ],
      "name": "tokenURI",
      "outputs": [
        {
          "internalType": "string",
          "name": "",
          "type": "string"
        }
      ],
      "stateMutability": "view",
      "type": "function"
    },
    {
      "inputs": [
        {
          "internalType": "address",
          "name": "from",
          "type": "address"
        },
        {
          "internalType": "address",
          "name": "to",
          "type": "address"
        },
        {
          "internalType": "uint256",
          "name": "tokenId",
          "type": "uint256"
        }
      ],
      "name": "transferFrom",
      "outputs": [],
      "stateMutability": "nonpayable",
      "type": "function"
    }
  ],
  "bytecode": "0x608060405234801561001057600080fd5b506136e5806100206000396000f3fe6080604052600436106102515760003560e01c806355f804b311610139578063a217fddf116100b6578063bfcf30f81161007a578063bfcf30f8146106dd578063c87b56dd146106fd578063d547741f1461071d578063e8a3d4851461073d578063e985e9c514610752578063edc6fb6d1461077257600080fd5b8063a217fddf14610646578063a22cb4651461065b578063a6fde7ab1461067b578063accaa2e614610690578063b88d4fde146106bd57600080fd5b806377778db3116100fd57806377778db3146105925780637ac2ff7b146105cf5780638aeda25a146105ef57806391d148541461061157806395d89b411461063157600080fd5b806355f804b3146104f65780635bfb797f146105165780636352211e1461053257806370a0823114610552578063726f77e31461057257600080fd5b8063248a9ca3116101d257806336568abe1161019657806336568abe1461044357806342842e0e1461046357806342966c68146104835780634b8243c9146104a357806351cdb77b146104b657806354d997a9146104d657600080fd5b8063248a9ca3146103b957806329e76be6146103d95780632f2ff15d146103f957806334452f38146104195780633644e5151461042e57600080fd5b8063095ea7b311610219578063095ea7b31461031b57806309dfd0e61461033d578063141a468c14610359578063162094c41461037957806323b872dd1461039957600080fd5b806301ffc9a714610256578063029125241461028b578063054198c7146102a057806306fdde03146102c1578063081812fc146102e3575b600080fd5b34801561026257600080fd5b50610276610271366004612c4e565b610792565b60405190151581526020015b60405180910390f35b34801561029757600080fd5b506102766107b2565b6102b36102ae366004612d3c565b6107c8565b604051908152602001610282565b3480156102cd57600080fd5b506102d661084e565b6040516102829190612ddc565b3480156102ef57600080fd5b506103036102fe366004612def565b6108f2565b6040516001600160a01b039091168152602001610282565b34801561032757600080fd5b5061033b610336366004612e08565b610907565b005b34801561034957600080fd5b506102b3670de0b6b3a764000081565b34801561036557600080fd5b506102b3610374366004612def565b610916565b34801561038557600080fd5b5061033b610394366004612e34565b610934565b3480156103a557600080fd5b5061033b6103b4366004612e65565b61095b565b3480156103c557600080fd5b506102b36103d4366004612def565b6109eb565b3480156103e557600080fd5b506102b36103f4366004612eb7565b610a0d565b34801561040557600080fd5b5061033b610414366004612f51565b610aab565b34801561042557600080fd5b5061033b610ac7565b34801561043a57600080fd5b506102b3610b27565b34801561044f57600080fd5b5061033b61045e366004612f51565b610bbb565b34801561046f57600080fd5b5061033b61047e366004612e65565b610bee565b34801561048f57600080fd5b5061033b61049e366004612def565b610c09565b61033b6104b1366004612def565b610ea7565b3480156104c257600080fd5b5061033b6104d1366004612f81565b610f85565b3480156104e257600080fd5b5061033b6104f1366004612fa3565b611167565b34801561050257600080fd5b5061033b610511366004612ff4565b611200565b34801561052257600080fd5b506000604051610282919061303f565b34801561053e57600080fd5b5061030361054d366004612def565b611221565b34801561055e57600080fd5b506102b361056d366004613059565b61122c565b34801561057e57600080fd5b5061033b61058d366004612f81565b611288565b34801561059e57600080fd5b506105b26105ad366004612def565b611363565b604080519283526001600160a01b03909116602083015201610282565b3480156105db57600080fd5b5061033b6105ea366004613076565b611434565b3480156105fb57600080fd5b506102b360008051602061367083398151915281565b34801561061d57600080fd5b5061027661062c366004612f51565b611734565b34801561063d57600080fd5b506102d661176c565b34801561065257600080fd5b506102b3600081565b34801561066757600080fd5b5061033b6106763660046130cf565b6117ab565b34801561068757600080fd5b506102766117b6565b34801561069c57600080fd5b506106b06106ab366004612def565b6117cc565b60405161028291906130fd565b3480156106c957600080fd5b5061033b6106d8366004613111565b611839565b3480156106e957600080fd5b5061033b6106f8366004613191565b611850565b34801561070957600080fd5b506102d6610718366004612def565b6119ff565b34801561072957600080fd5b5061033b610738366004612f51565b611b27565b34801561074957600080fd5b506102d6611b43565b34801561075e57600080fd5b5061027661076d36600461325e565b611bde565b34801561077e57600080fd5b506102b361078d36600461328c565b611c2b565b600061079d82611cb2565b806107ac57506107ac82611cd7565b92915050565b60006107bc611cfc565b6007015460ff16919050565b60006000805160206136708339815191526107e281611d20565b6107ea611cfc565b6003015460ff1661080e5760405163344fa43b60e01b815260040160405180910390fd5b670de0b6b3a7640000341015610837576040516318c7b03560e21b815260040160405180910390fd5b61084684843460006001611d2d565b949350505050565b600080516020613650833981519152805460609190819061086e906132f8565b80601f016020809104026020016040519081016040528092919081815260200182805461089a906132f8565b80156108e75780601f106108bc576101008083540402835291602001916108e7565b820191906000526020600020905b8154815290600101906020018083116108ca57829003601f168201915b505050505091505090565b60006108fd82611e97565b506107ac82611ecf565b610912828233611f09565b5050565b6000610920611cfc565b600092835260060160205250604090205490565b60008051602061367083398151915261094c81611d20565b6109568383611f16565b505050565b6001600160a01b03821661098a57604051633250574960e11b8152600060048201526024015b60405180910390fd5b6000610997838333611f89565b9050836001600160a01b0316816001600160a01b0316146109e5576040516364283d7b60e01b81526001600160a01b0380861660048301526024820184905282166044820152606401610981565b50505050565b6000908152600080516020613690833981519152602052604090206001015490565b6000600080516020613670833981519152610a2781611d20565b60405163d505accf60e01b81526001600160a01b0388169063d505accf90610a5f90339030908d908c908c908c908c90600401613332565b600060405180830381600087803b158015610a7957600080fd5b505af1158015610a8d573d6000803e3d6000fd5b50505050610a9d8a8a8a8a611c2b565b9a9950505050505050505050565b610ab4826109eb565b610abd81611d20565b6109e58383612093565b600080516020613670833981519152610adf81611d20565b6000610ae9611cfc565b600301805460ff19169115159190911790556040517f96786059fc12ef37dc62764d5fdd3131eeb87ad78f23b8476a8866eb7e6b57ce90600090a150565b60007f8b73c3c69bb8fe3d512ecc4cf759cc79239f7b179b0ffacaa9a75d522b39400f610b5261084e565b80519060200120610b61611cfc565b600801604051610b719190613373565b60408051918290038220602083019490945281019190915260608101919091524660808201523060a082015260c00160405160208183030381529060405280519060200120905090565b6001600160a01b0381163314610be45760405163334bd91960e11b815260040160405180910390fd5b6109568282612138565b61095683838360405180602001604052806000815250611839565b610c12816121b4565b6001600160a01b0316336001600160a01b031614610c43576040516330cd747160e01b815260040160405180910390fd5b610c4c816121ee565b6000610c56611cfc565b90506000610c63836117cc565b90506000816002811115610c7957610c79613029565b03610c8357600080fd5b6000838152600483016020526040812081836002811115610ca657610ca6613029565b6002811115610cb757610cb7613029565b815260208101919091526040016000205490506001826002811115610cde57610cde613029565b03610d5457600783015460009060ff16610cf9576000610cfb565b335b6040519091506001600160a01b0382169083156108fc029084906000818181858888f19350505050158015610d34573d6000803e3d6000fd5b505060008481526004840160209081526040808320600184529091528120555b6002826002811115610d6857610d68613029565b036109e557600084815260058401602052604090205460078401546001600160a01b039091169060ff1615610e0e5760405163a9059cbb60e01b8152336004820152602481018390526001600160a01b0382169063a9059cbb906044016020604051808303816000875af1158015610de4573d6000803e3d6000fd5b505050506040513d601f19601f82011682018060405250810190610e0891906133e9565b50610e69565b604051630852cd8d60e31b8152600481018390526001600160a01b038216906342966c6890602401600060405180830381600087803b158015610e5057600080fd5b505af1158015610e64573d6000803e3d6000fd5b505050505b5050506000828152600482016020908152604080832060028452825280832083905593825260059092019091522080546001600160a01b0319169055565b610eb0816121b4565b6001600160a01b0316336001600160a01b031614610ee1576040516330cd747160e01b815260040160405180910390fd5b670de0b6b3a7640000341015610f0a576040516318c7b03560e21b815260040160405180910390fd5b6000610f14611cfc565b90506001610f21836117cc565b6002811115610f3257610f32613029565b14610f505760405163f92b31ed60e01b815260040160405180910390fd5b600082815260048201602090815260408083206001845290915281208054349290610f7c90849061341c565b90915550505050565b610f8e33612229565b6000610f98611cfc565b90506000610fa5846117cc565b90506000816002811115610fbb57610fbb613029565b03610fc65750505050565b6000848152600483016020526040812081836002811115610fe957610fe9613029565b6002811115610ffa57610ffa613029565b815260200190815260200160002054905060006064858361101b919061342f565b6110259190613446565b9050801580156110385750505050505050565b600184600281111561104c5761104c613029565b036110805760405160009083156108fc0290849083818181858288f1935050505015801561107e573d6000803e3d6000fd5b505b600284600281111561109457611094613029565b0361110757600087815260058601602052604090819020549051630852cd8d60e31b8152600481018490526001600160a01b03909116906342966c6890602401600060405180830381600087803b1580156110ee57600080fd5b505af1158015611102573d6000803e3d6000fd5b505050505b60008781526004860160205260408120839186600281111561112b5761112b613029565b600281111561113c5761113c613029565b815260200190815260200160002060008282546111599190613468565b909155505050505050505050565b61116f611cfc565b600087815260059190910160205260409081902054905163d505accf60e01b81526001600160a01b039091169063d505accf906111bc90339030908a908a908a908a908a90600401613332565b600060405180830381600087803b1580156111d657600080fd5b505af11580156111ea573d6000803e3d6000fd5b505050506111f88686611288565b505050505050565b60008051602061367083398151915261121881611d20565b61091282612421565b60006107ac82611e97565b60006000805160206136508339815191526001600160a01b038316611267576040516322718ad960e21b815260006004820152602401610981565b6001600160a01b039092166000908152600390920160205250604090205490565b6000611292611cfc565b9050600261129f846117cc565b60028111156112b0576112b0613029565b146112ce5760405163f92b31ed60e01b815260040160405180910390fd5b6000838152600582016020526040908190205490516323b872dd60e01b8152336004820152306024820152604481018490526001600160a01b03909116906323b872dd906064016020604051808303816000875af1158015611334573d6000803e3d6000fd5b505050506040513d601f19601f8201168201806040525081019061135891906133e9565b506109568383612438565b6000806000611370611cfc565b9050600061137d856117cc565b600086815260048401602052604081209192508260028111156113a2576113a2613029565b60028111156113b3576113b3613029565b8152602081019190915260400160009081205494508160028111156113da576113da613029565b036113ec575060009485945092505050565b600181600281111561140057611400613029565b036114115750919360009350915050565b5060009384526005016020525060409091205490916001600160a01b0390911690565b834211156114555760405163068568f360e21b815260040160405180910390fd5b600061146086611221565b9050806001600160a01b0316876001600160a01b03160361149457604051632efb957f60e21b815260040160405180910390fd5b600061149e610b27565b7f49ecf333e5b8c95c40fdafc95c1ad136e8914a8fb55e9dc8bb01eaa83a2df9ad89896114c9611cfc565b60008c8152600691909101602052604081208054916114e78361347b565b909155506040805160208101959095526001600160a01b03909316928401929092526060830152608082015260a0810188905260c0016040516020818303038152906040528051906020012060405160200161155a92919061190160f01b81526002810192909252602282015260420190565b60408051601f19818403018152919052805160209091012090506001600160a01b0382163b1580159061166257604080516020810187905280820186905260f888901b6001600160f81b0319166060820152815160418183030181526061820192839052630b135d3f60e11b9283905260009183916001600160a01b03881691631626ba7e916115ef91899190606501613494565b602060405180830381865afa15801561160c573d6000803e3d6000fd5b505050506040513d601f19601f8201168201806040525081019061163091906134ad565b6001600160e01b0319161490508061165b576040516308d333ef60e41b815260040160405180910390fd5b505061171e565b6040805160008082526020820180845285905260ff891692820192909252606081018790526080810186905260019060a0016020604051602081039080840390855afa1580156116b6573d6000803e3d6000fd5b5050604051601f1901519150506001600160a01b0381166116ea5760405163b6ea5e6160e01b815260040160405180910390fd5b836001600160a01b0316816001600160a01b03161461171c576040516308d333ef60e41b815260040160405180910390fd5b505b611729898985611f09565b505050505050505050565b6000918252600080516020613690833981519152602090815260408084206001600160a01b0393909316845291905290205460ff1690565b7f80bb2b638cc20bc4d0a60d66940f3ab4a00c1d7b313497ca82fb0b4ab007930180546060916000805160206136508339815191529161086e906132f8565b610912338383612517565b60006117c0611cfc565b6003015460ff16919050565b6000806117d7611cfc565b6000848152600482016020908152604080832060018452909152902054909150156118055750600192915050565b6000838152600482016020908152604080832060028452909152902054156118305750600292915050565b50600092915050565b61184484848461095b565b6109e5848484846125c8565b7ff0c57e16840df040f15088dc2f81fe391c3923bec73e23a9662efc9c229c6a008054600160401b810460ff16159067ffffffffffffffff166000811580156118965750825b905060008267ffffffffffffffff1660011480156118b35750303b155b9050811580156118c1575080155b156118df5760405163f92ee8a960e01b815260040160405180910390fd5b845467ffffffffffffffff19166001178555831561190957845460ff60401b1916600160401b1785555b6119138a8c6126ea565b61191b6126fc565b6119236126fc565b61193b60008051602061367083398151915288612093565b5061194588612421565b600061194f611cfc565b90506001810161195f8b82613510565b5060078101805488151560ff1991821617909155600382018054909116600190811790915560408051808201909152908152603160f81b602082015260088201906119aa9082613510565b505083156119f257845460ff60401b19168555604051600181527fc7f505b2f371ae2175ee4913f4499e1f2633a7b5936321eed1cdaeb6115181d29060200160405180910390a15b5050505050505050505050565b60607f0542a41881ee128a365a727b282c86fa859579490b9bb45aab8503648c8e7900611a2b83611e97565b5060008381526020829052604081208054611a45906132f8565b80601f0160208091040260200160405190810160405280929190818152602001828054611a71906132f8565b8015611abe5780601f10611a9357610100808354040283529160200191611abe565b820191906000526020600020905b815481529060010190602001808311611aa157829003601f168201915b505050505090506000611acf612706565b90508051600003611ae257509392505050565b815115611b15578082604051602001611afc9291906135d0565b6040516020818303038152906040529350505050919050565b611b1e8561271e565b95945050505050565b611b30826109eb565b611b3981611d20565b6109e58383612138565b6060611b4d611cfc565b6001018054611b5b906132f8565b80601f0160208091040260200160405190810160405280929190818152602001828054611b87906132f8565b8015611bd45780601f10611ba957610100808354040283529160200191611bd4565b820191906000526020600020905b815481529060010190602001808311611bb757829003601f168201915b5050505050905090565b6001600160a01b0391821660009081527f80bb2b638cc20bc4d0a60d66940f3ab4a00c1d7b313497ca82fb0b4ab00793056020908152604080832093909416825291909152205460ff1690565b6000600080516020613670833981519152611c4581611d20565b611c4d611cfc565b6003015460ff16611c715760405163344fa43b60e01b815260040160405180910390fd5b670de0b6b3a7640000841015611c9a576040516318c7b03560e21b815260040160405180910390fd5b611ca8868686866002611d2d565b9695505050505050565b60006001600160e01b03198216632483248360e11b14806107ac57506107ac82612786565b60006001600160e01b03198216637965db0b60e01b14806107ac57506107ac82611cb2565b7fa97cca59b9b42aa98f8abdc3c05357dab466a64d9657420399e812b3593cf70090565b611d2a81336127d6565b50565b600080611d38611cfc565b80549091506000908282611d4b8361347b565b919050559050611d5b888261280f565b611d658188611f16565b600081815260048301602052604081208791866002811115611d8957611d89613029565b6002811115611d9a57611d9a613029565b81526020810191909152604001600020556002846002811115611dbf57611dbf613029565b03611e8c576040516323b872dd60e01b8152336004820152306024820152604481018790526001600160a01b038616906323b872dd906064016020604051808303816000875af1158015611e17573d6000803e3d6000fd5b505050506040513d601f19601f82011682018060405250810190611e3b91906133e9565b5060008181526005830160205260409020546001600160a01b0386811691161480611e8a576000828152600584016020526040902080546001600160a01b0319166001600160a01b0388161790555b505b979650505050505050565b600080611ea3836121b4565b90506001600160a01b0381166107ac57604051637e27328960e01b815260048101849052602401610981565b60009081527f80bb2b638cc20bc4d0a60d66940f3ab4a00c1d7b313497ca82fb0b4ab007930460205260409020546001600160a01b031690565b6109568383836001612874565b60008281527f0542a41881ee128a365a727b282c86fa859579490b9bb45aab8503648c8e790060208190526040909120611f508382613510565b506040518381527ff8e1a15aba9398e019f0b49df1a4fde98ee17ae345cb5f6b5e2c27f5033e8ce79060200160405180910390a1505050565b600060008051602061365083398151915281611fa4856121b4565b90506001600160a01b03841615611fc057611fc081858761298a565b6001600160a01b0381161561200057611fdd600086600080612874565b6001600160a01b0381166000908152600383016020526040902080546000190190555b6001600160a01b03861615612031576001600160a01b03861660009081526003830160205260409020805460010190555b600085815260028301602052604080822080546001600160a01b0319166001600160a01b038a811691821790925591518893918516917fddf252ad1be2c89b69c2b068fc378daa952ba7f163c4a11628f55a4df523b3ef91a495945050505050565b60006000805160206136908339815191526120ae8484611734565b61212e576000848152602082815260408083206001600160a01b03871684529091529020805460ff191660011790556120e43390565b6001600160a01b0316836001600160a01b0316857f2f8788117e7eff1d82e926ec794901d17c78024a50270940304540a733656f0d60405160405180910390a460019150506107ac565b60009150506107ac565b60006000805160206136908339815191526121538484611734565b1561212e576000848152602082815260408083206001600160a01b0387168085529252808320805460ff1916905551339287917ff6391f5c32d9c69d2a47ea670b442974b53935d1edc7fd64eb21e047a839171b9190a460019150506107ac565b60009081527f80bb2b638cc20bc4d0a60d66940f3ab4a00c1d7b313497ca82fb0b4ab007930260205260409020546001600160a01b031690565b60006121fd6000836000611f89565b90506001600160a01b03811661091257604051637e27328960e01b815260048101839052602401610981565b6000306001600160a01b0316632d6b3a6b6040518163ffffffff1660e01b8152600401602060405180830381865afa158015612269573d6000803e3d6000fd5b505050506040513d601f19601f8201168201806040525081019061228d91906135ff565b90506000816001600160a01b031663940744686040518163ffffffff1660e01b8152600401602060405180830381865afa1580156122cf573d6000803e3d6000fd5b505050506040513d601f19601f820116820180604052508101906122f391906135ff565b90506000816001600160a01b031663ba778bce6040518163ffffffff1660e01b8152600401602060405180830381865afa158015612335573d6000803e3d6000fd5b505050506040513d601f19601f8201168201806040525081019061235991906135ff565b60405163bf40fac160e01b815260206004820152600e60248201526d19195b1959d85d1a5bdb8b5b999d60921b60448201529091506000906001600160a01b0383169063bf40fac190606401602060405180830381865afa1580156123c2573d6000803e3d6000fd5b505050506040513d601f19601f820116820180604052508101906123e691906135ff565b9050806001600160a01b0316856001600160a01b03161461241a5760405163528caf0360e11b815260040160405180910390fd5b5050505050565b8061242a611cfc565b600201906109129082613510565b612441826121b4565b6001600160a01b0316336001600160a01b031614612472576040516330cd747160e01b815260040160405180910390fd5b670de0b6b3a764000081101561249b576040516318c7b03560e21b815260040160405180910390fd5b60006124a5611cfc565b905060026124b2846117cc565b60028111156124c3576124c3613029565b146124e15760405163f92b31ed60e01b815260040160405180910390fd5b60008381526004820160209081526040808320600284529091528120805484929061250d90849061341c565b9091555050505050565b6000805160206136508339815191526001600160a01b03831661255857604051630b61174360e31b81526001600160a01b0384166004820152602401610981565b6001600160a01b038481166000818152600584016020908152604080832094881680845294825291829020805460ff191687151590811790915591519182527f17307eab39ab6107e8899845ad3d59bd9653f200f220920489ca2b5937696c31910160405180910390a350505050565b6001600160a01b0383163b156109e557604051630a85bd0160e11b81526001600160a01b0384169063150b7a029061260a90339088908790879060040161361c565b6020604051808303816000875af1925050508015612645575060408051601f3d908101601f19168201909252612642918101906134ad565b60015b6126ae573d808015612673576040519150601f19603f3d011682016040523d82523d6000602084013e612678565b606091505b5080516000036126a657604051633250574960e11b81526001600160a01b0385166004820152602401610981565b805181602001fd5b6001600160e01b03198116630a85bd0160e11b1461241a57604051633250574960e11b81526001600160a01b0385166004820152602401610981565b6126f26129ee565b6109128282612a37565b6127046129ee565b565b6060612710611cfc565b6002018054611b5b906132f8565b606061272982611e97565b506000612734612706565b90506000815111612754576040518060200160405280600081525061277f565b8061275e84612a68565b60405160200161276f9291906135d0565b6040516020818303038152906040525b9392505050565b60006001600160e01b031982166380ac58cd60e01b14806127b757506001600160e01b03198216635b5e139f60e01b145b806107ac57506301ffc9a760e01b6001600160e01b03198316146107ac565b6127e08282611734565b6109125760405163e2517d3f60e01b81526001600160a01b038216600482015260248101839052604401610981565b6001600160a01b03821661283957604051633250574960e11b815260006004820152602401610981565b600061284783836000611f89565b90506001600160a01b03811615610956576040516339e3563760e11b815260006004820152602401610981565b600080516020613650833981519152818061289757506001600160a01b03831615155b156129595760006128a785611e97565b90506001600160a01b038416158015906128d35750836001600160a01b0316816001600160a01b031614155b80156128e657506128e48185611bde565b155b1561290f5760405163a9fbf51f60e01b81526001600160a01b0385166004820152602401610981565b82156129575784866001600160a01b0316826001600160a01b03167f8c5be1e5ebec7d5bd14f71427d1e84f3dd0314c0f7b2291e5b200ac8c7c3b92560405160405180910390a45b505b600093845260040160205250506040902080546001600160a01b0319166001600160a01b0392909216919091179055565b612995838383612afb565b610956576001600160a01b0383166129c357604051637e27328960e01b815260048101829052602401610981565b60405163177e802f60e01b81526001600160a01b038316600482015260248101829052604401610981565b7ff0c57e16840df040f15088dc2f81fe391c3923bec73e23a9662efc9c229c6a0054600160401b900460ff1661270457604051631afcd79f60e31b815260040160405180910390fd5b612a3f6129ee565b60008051602061365083398151915280612a598482613510565b50600181016109e58382613510565b60606000612a7583612b60565b600101905060008167ffffffffffffffff811115612a9557612a95612c90565b6040519080825280601f01601f191660200182016040528015612abf576020820181803683370190505b5090508181016020015b600019016f181899199a1a9b1b9c1cb0b131b232b360811b600a86061a8153600a8504945084612ac957509392505050565b60006001600160a01b038316158015906108465750826001600160a01b0316846001600160a01b03161480612b355750612b358484611bde565b806108465750826001600160a01b0316612b4e83611ecf565b6001600160a01b031614949350505050565b60008072184f03e93ff9f4daa797ed6e38ed64bf6a1f0160401b8310612b9f5772184f03e93ff9f4daa797ed6e38ed64bf6a1f0160401b830492506040015b6d04ee2d6d415b85acef81000000008310612bcb576d04ee2d6d415b85acef8100000000830492506020015b662386f26fc100008310612be957662386f26fc10000830492506010015b6305f5e1008310612c01576305f5e100830492506008015b6127108310612c1557612710830492506004015b60648310612c27576064830492506002015b600a83106107ac5760010192915050565b6001600160e01b031981168114611d2a57600080fd5b600060208284031215612c6057600080fd5b813561277f81612c38565b6001600160a01b0381168114611d2a57600080fd5b8035612c8b81612c6b565b919050565b634e487b7160e01b600052604160045260246000fd5b600067ffffffffffffffff80841115612cc157612cc1612c90565b604051601f8501601f19908116603f01168101908282118183101715612ce957612ce9612c90565b81604052809350858152868686011115612d0257600080fd5b858560208301376000602087830101525050509392505050565b600082601f830112612d2d57600080fd5b61277f83833560208501612ca6565b60008060408385031215612d4f57600080fd5b8235612d5a81612c6b565b9150602083013567ffffffffffffffff811115612d7657600080fd5b612d8285828601612d1c565b9150509250929050565b60005b83811015612da7578181015183820152602001612d8f565b50506000910152565b60008151808452612dc8816020860160208601612d8c565b601f01601f19169290920160200192915050565b60208152600061277f6020830184612db0565b600060208284031215612e0157600080fd5b5035919050565b60008060408385031215612e1b57600080fd5b8235612e2681612c6b565b946020939093013593505050565b60008060408385031215612e4757600080fd5b82359150602083013567ffffffffffffffff811115612d7657600080fd5b600080600060608486031215612e7a57600080fd5b8335612e8581612c6b565b92506020840135612e9581612c6b565b929592945050506040919091013590565b803560ff81168114612c8b57600080fd5b600080600080600080600080610100898b031215612ed457600080fd5b8835612edf81612c6b565b9750602089013567ffffffffffffffff811115612efb57600080fd5b612f078b828c01612d1c565b975050604089013595506060890135612f1f81612c6b565b945060808901359350612f3460a08a01612ea6565b925060c0890135915060e089013590509295985092959890939650565b60008060408385031215612f6457600080fd5b823591506020830135612f7681612c6b565b809150509250929050565b60008060408385031215612f9457600080fd5b50508035926020909101359150565b60008060008060008060c08789031215612fbc57600080fd5b863595506020870135945060408701359350612fda60608801612ea6565b92506080870135915060a087013590509295509295509295565b60006020828403121561300657600080fd5b813567ffffffffffffffff81111561301d57600080fd5b61084684828501612d1c565b634e487b7160e01b600052602160045260246000fd5b602081016002831061305357613053613029565b91905290565b60006020828403121561306b57600080fd5b813561277f81612c6b565b60008060008060008060c0878903121561308f57600080fd5b863561309a81612c6b565b95506020870135945060408701359350612fda60608801612ea6565b8015158114611d2a57600080fd5b8035612c8b816130b6565b600080604083850312156130e257600080fd5b82356130ed81612c6b565b91506020830135612f76816130b6565b602081016003831061305357613053613029565b6000806000806080858703121561312757600080fd5b843561313281612c6b565b9350602085013561314281612c6b565b925060408501359150606085013567ffffffffffffffff81111561316557600080fd5b8501601f8101871361317657600080fd5b61318587823560208401612ca6565b91505092959194509250565b60008060008060008060c087890312156131aa57600080fd5b863567ffffffffffffffff808211156131c257600080fd5b6131ce8a838b01612d1c565b975060208901359150808211156131e457600080fd5b6131f08a838b01612d1c565b9650604089013591508082111561320657600080fd5b6132128a838b01612d1c565b9550606089013591508082111561322857600080fd5b5061323589828a01612d1c565b93505061324460808801612c80565b915061325260a088016130c4565b90509295509295509295565b6000806040838503121561327157600080fd5b823561327c81612c6b565b91506020830135612f7681612c6b565b600080600080608085870312156132a257600080fd5b84356132ad81612c6b565b9350602085013567ffffffffffffffff8111156132c957600080fd5b6132d587828801612d1c565b9350506040850135915060608501356132ed81612c6b565b939692955090935050565b600181811c9082168061330c57607f821691505b60208210810361332c57634e487b7160e01b600052602260045260246000fd5b50919050565b6001600160a01b0397881681529590961660208601526040850193909352606084019190915260ff16608083015260a082015260c081019190915260e00190565b6000808354613381816132f8565b6001828116801561339957600181146133ae576133dd565b60ff19841687528215158302870194506133dd565b8760005260208060002060005b858110156133d45781548a8201529084019082016133bb565b50505082870194505b50929695505050505050565b6000602082840312156133fb57600080fd5b815161277f816130b6565b634e487b7160e01b600052601160045260246000fd5b808201808211156107ac576107ac613406565b80820281158282048414176107ac576107ac613406565b60008261346357634e487b7160e01b600052601260045260246000fd5b500490565b818103818111156107ac576107ac613406565b60006001820161348d5761348d613406565b5060010190565b8281526040602082015260006108466040830184612db0565b6000602082840312156134bf57600080fd5b815161277f81612c38565b601f82111561095657600081815260208120601f850160051c810160208610156134f15750805b601f850160051c820191505b818110156111f8578281556001016134fd565b815167ffffffffffffffff81111561352a5761352a612c90565b61353e8161353884546132f8565b846134ca565b602080601f831160018114613573576000841561355b5750858301515b600019600386901b1c1916600185901b1785556111f8565b600085815260208120601f198616915b828110156135a257888601518255948401946001909101908401613583565b50858210156135c05787850151600019600388901b60f8161c191681555b5050505050600190811b01905550565b600083516135e2818460208801612d8c565b8351908301906135f6818360208801612d8c565b01949350505050565b60006020828403121561361157600080fd5b815161277f81612c6b565b6001600160a01b0385811682528416602082015260408101839052608060608201819052600090611ca890830184612db056fe80bb2b638cc20bc4d0a60d66940f3ab4a00c1d7b313497ca82fb0b4ab0079300828634d95e775031b9ff576b159a8509d3053581a8c9c4d7d86899e0afcd882f02dd7bc7dec4dceedda775e58dd541e08a116c6c53815c0bd028192f7b626800a264697066735822122043c1aecc8e42cb928821118dcc81208ef1f0a54c37a2d237cd03f440050c59db64736f6c63430008140033",
  "linkReferences": {},
  "deployedLinkReferences": {}
}