{
  "_format": "hh-sol-artifact-1",
  "contractName": "DecimalContractCenter",
  "sourceName": "contracts/DecimalContractCenter.sol",
  "abi": [
    {
      "inputs": [
        {
          "internalType": "address",
          "name": "target",
          "type": "address"
        }
      ],
      "name": "AddressEmptyCode",
      "type": "error"
    },
    {
      "inputs": [
        {
          "internalType": "address",
          "name": "implementation",
          "type": "address"
        }
      ],
      "name": "ERC1967InvalidImplementation",
      "type": "error"
    },
    {
      "inputs": [],
      "name": "ERC1967NonPayable",
      "type": "error"
    },
    {
      "inputs": [],
      "name": "FailedInnerCall",
      "type": "error"
    },
    {
      "inputs": [],
      "name": "InvalidInitialization",
      "type": "error"
    },
    {
      "inputs": [],
      "name": "NotInitializing",
      "type": "error"
    },
    {
      "inputs": [
        {
          "internalType": "address",
          "name": "owner",
          "type": "address"
        }
      ],
      "name": "OwnableInvalidOwner",
      "type": "error"
    },
    {
      "inputs": [
        {
          "internalType": "address",
          "name": "account",
          "type": "address"
        }
      ],
      "name": "OwnableUnauthorizedAccount",
      "type": "error"
    },
    {
      "anonymous": false,
      "inputs": [
        {
          "indexed": false,
          "internalType": "string",
          "name": "symbol",
          "type": "string"
        },
        {
          "indexed": true,
          "internalType": "address",
          "name": "contractAddress",
          "type": "address"
        }
      ],
      "name": "ContractAdded",
      "type": "event"
    },
    {
      "anonymous": false,
      "inputs": [
        {
          "indexed": true,
          "internalType": "address",
          "name": "oldContract",
          "type": "address"
        },
        {
          "indexed": true,
          "internalType": "address",
          "name": "newContract",
          "type": "address"
        }
      ],
      "name": "ContractUpgraded",
      "type": "event"
    },
    {
      "anonymous": false,
      "inputs": [
        {
          "indexed": false,
          "internalType": "uint64",
          "name": "version",
          "type": "uint64"
        }
      ],
      "name": "Initialized",
      "type": "event"
    },
    {
      "anonymous": false,
      "inputs": [
        {
          "indexed": true,
          "internalType": "address",
          "name": "previousOwner",
          "type": "address"
        },
        {
          "indexed": true,
          "internalType": "address",
          "name": "newOwner",
          "type": "address"
        }
      ],
      "name": "OwnershipTransferred",
      "type": "event"
    },
    {
      "anonymous": false,
      "inputs": [
        {
          "indexed": true,
          "internalType": "address",
          "name": "implementation",
          "type": "address"
        }
      ],
      "name": "Upgraded",
      "type": "event"
    },
    {
      "inputs": [
        {
          "internalType": "string",
          "name": "symbol",
          "type": "string"
        }
      ],
      "name": "getAddress",
      "outputs": [
        {
          "internalType": "address",
          "name": "",
          "type": "address"
        }
      ],
      "stateMutability": "view",
      "type": "function"
    },
    {
      "inputs": [],
      "name": "owner",
      "outputs": [
        {
          "internalType": "address",
          "name": "",
          "type": "address"
        }
      ],
      "stateMutability": "view",
      "type": "function"
    },
    {
      "inputs": [],
      "name": "renounceOwnership",
      "outputs": [],
      "stateMutability": "nonpayable",
      "type": "function"
    },
    {
      "inputs": [
        {
          "internalType": "string",
          "name": "symbol",
          "type": "string"
        },
        {
          "internalType": "address",
          "name": "contractAddress",
          "type": "address"
        }
      ],
      "name": "setAddress",
      "outputs": [],
      "stateMutability": "nonpayable",
      "type": "function"
    },
    {
      "inputs": [
        {
          "internalType": "address",
          "name": "newOwner",
          "type": "address"
        }
      ],
      "name": "transferOwnership",
      "outputs": [],
      "stateMutability": "nonpayable",
      "type": "function"
    },
    {
      "inputs": [
        {
          "internalType": "address",
          "name": "newImplementation",
          "type": "address"
        }
      ],
      "name": "upgrade",
      "outputs": [],
      "stateMutability": "nonpayable",
      "type": "function"
    },
    {
      "inputs": [
        {
          "internalType": "address",
          "name": "newImplementation",
          "type": "address"
        },
        {
          "internalType": "bytes",
          "name": "data",
          "type": "bytes"
        }
      ],
      "name": "upgrade",
      "outputs": [],
      "stateMutability": "nonpayable",
      "type": "function"
    }
  ],
  "bytecode": "0x608060405234801561001057600080fd5b5061085f806100206000396000f3fe608060405234801561001057600080fd5b506004361061007d5760003560e01c80639b2ea4bd1161005b5780639b2ea4bd146100e7578063bf40fac1146100fa578063c987336c1461010d578063f2fde38b1461012057600080fd5b80630900f01014610082578063715018a6146100975780638da5cb5b1461009f575b600080fd5b610095610090366004610602565b610133565b005b610095610157565b7f9016d09d72d40fdae2fd8ceac6b6234c7706214fd39c1cd1e609a0528c199300546001600160a01b03165b6040516001600160a01b03909116815260200160405180910390f35b6100956100f53660046106c9565b61016b565b6100cb610108366004610717565b61020b565b61009561011b366004610754565b61025b565b61009561012e366004610602565b6102e7565b61013b610327565b610154816040518060200160405280600081525061025b565b50565b61015f610327565b6101696000610382565b565b610173610327565b807f7cfca24750b2b7b3ffbcaf41b511eddee8b4fb91a41f746203e06d43e26903006040516101a39085906107da565b90815260405190819003602001812080546001600160a01b039384166001600160a01b0319909116179055908216907f8b4ef7d4e5bc8f098e6f637ac0acf4aee47b3f027efea6307264b06b4bc9d298906101ff9085906107f6565b60405180910390a25050565b60007f7cfca24750b2b7b3ffbcaf41b511eddee8b4fb91a41f746203e06d43e269030060405161023c9084906107da565b908152604051908190036020019020546001600160a01b031692915050565b610263610327565b60006102967f360894a13ba1a3210667c828492db98dca3e2076cc3735a920a3ca505d382bbc546001600160a01b031690565b90506102a283836103f3565b826001600160a01b0316816001600160a01b03167f2e4cc16c100f0b55e2df82ab0b1a7e294aa9cbd01b48fbaf622683fbc0507a4960405160405180910390a3505050565b6102ef610327565b6001600160a01b03811661031e57604051631e4fbdf760e01b8152600060048201526024015b60405180910390fd5b61015481610382565b336103597f9016d09d72d40fdae2fd8ceac6b6234c7706214fd39c1cd1e609a0528c199300546001600160a01b031690565b6001600160a01b0316146101695760405163118cdaa760e01b8152336004820152602401610315565b7f9016d09d72d40fdae2fd8ceac6b6234c7706214fd39c1cd1e609a0528c19930080546001600160a01b031981166001600160a01b03848116918217845560405192169182907f8be0079c531659141344cd1fd0a4f28419497f9722a3daafe3b4186f6b6457e090600090a3505050565b6103fc82610452565b6040516001600160a01b038316907fbc7cd75a20ee27fd9adebab32041f755214dbc6bffa90cc0225b39da2e5c2d3b90600090a28051156104465761044182826104c9565b505050565b61044e61053f565b5050565b806001600160a01b03163b60000361048857604051634c9c8ce360e01b81526001600160a01b0382166004820152602401610315565b7f360894a13ba1a3210667c828492db98dca3e2076cc3735a920a3ca505d382bbc80546001600160a01b0319166001600160a01b0392909216919091179055565b6060600080846001600160a01b0316846040516104e691906107da565b600060405180830381855af49150503d8060008114610521576040519150601f19603f3d011682016040523d82523d6000602084013e610526565b606091505b509150915061053685838361055e565b95945050505050565b34156101695760405163b398979f60e01b815260040160405180910390fd5b6060826105735761056e826105bd565b6105b6565b815115801561058a57506001600160a01b0384163b155b156105b357604051639996b31560e01b81526001600160a01b0385166004820152602401610315565b50805b9392505050565b8051156105cd5780518082602001fd5b604051630a12f52160e11b815260040160405180910390fd5b80356001600160a01b03811681146105fd57600080fd5b919050565b60006020828403121561061457600080fd5b6105b6826105e6565b634e487b7160e01b600052604160045260246000fd5b600067ffffffffffffffff8084111561064e5761064e61061d565b604051601f8501601f19908116603f011681019082821181831017156106765761067661061d565b8160405280935085815286868601111561068f57600080fd5b858560208301376000602087830101525050509392505050565b600082601f8301126106ba57600080fd5b6105b683833560208501610633565b600080604083850312156106dc57600080fd5b823567ffffffffffffffff8111156106f357600080fd5b6106ff858286016106a9565b92505061070e602084016105e6565b90509250929050565b60006020828403121561072957600080fd5b813567ffffffffffffffff81111561074057600080fd5b61074c848285016106a9565b949350505050565b6000806040838503121561076757600080fd5b610770836105e6565b9150602083013567ffffffffffffffff81111561078c57600080fd5b8301601f8101851361079d57600080fd5b6107ac85823560208401610633565b9150509250929050565b60005b838110156107d15781810151838201526020016107b9565b50506000910152565b600082516107ec8184602087016107b6565b9190910192915050565b60208152600082518060208401526108158160408501602087016107b6565b601f01601f1916919091016040019291505056fea264697066735822122029251675179203f317a3bf055bdd2b24fbd5d198eed3e1f3ecbc78bee22a14a964736f6c63430008140033",
  "linkReferences": {},
  "deployedLinkReferences": {}
}