{
  "_format": "hh-sol-artifact-1",
  "contractName": "DecimalERC1155",
  "sourceName": "contracts/DecimalERC1155.sol",
  "abi": [
    {
      "inputs": [],
      "name": "AccessControlBadConfirmation",
      "type": "error"
    },
    {
      "inputs": [
        {
          "internalType": "address",
          "name": "account",
          "type": "address"
        },
        {
          "internalType": "bytes32",
          "name": "neededRole",
          "type": "bytes32"
        }
      ],
      "name": "AccessControlUnauthorizedAccount",
      "type": "error"
    },
    {
      "inputs": [
        {
          "internalType": "address",
          "name": "sender",
          "type": "address"
        },
        {
          "internalType": "uint256",
          "name": "balance",
          "type": "uint256"
        },
        {
          "internalType": "uint256",
          "name": "needed",
          "type": "uint256"
        },
        {
          "internalType": "uint256",
          "name": "tokenId",
          "type": "uint256"
        }
      ],
      "name": "ERC1155InsufficientBalance",
      "type": "error"
    },
    {
      "inputs": [
        {
          "internalType": "address",
          "name": "approver",
          "type": "address"
        }
      ],
      "name": "ERC1155InvalidApprover",
      "type": "error"
    },
    {
      "inputs": [
        {
          "internalType": "uint256",
          "name": "idsLength",
          "type": "uint256"
        },
        {
          "internalType": "uint256",
          "name": "valuesLength",
          "type": "uint256"
        }
      ],
      "name": "ERC1155InvalidArrayLength",
      "type": "error"
    },
    {
      "inputs": [
        {
          "internalType": "address",
          "name": "operator",
          "type": "address"
        }
      ],
      "name": "ERC1155InvalidOperator",
      "type": "error"
    },
    {
      "inputs": [
        {
          "internalType": "address",
          "name": "receiver",
          "type": "address"
        }
      ],
      "name": "ERC1155InvalidReceiver",
      "type": "error"
    },
    {
      "inputs": [
        {
          "internalType": "address",
          "name": "sender",
          "type": "address"
        }
      ],
      "name": "ERC1155InvalidSender",
      "type": "error"
    },
    {
      "inputs": [
        {
          "internalType": "address",
          "name": "operator",
          "type": "address"
        },
        {
          "internalType": "address",
          "name": "owner",
          "type": "address"
        }
      ],
      "name": "ERC1155MissingApprovalForAll",
      "type": "error"
    },
    {
      "inputs": [],
      "name": "InvalidInitialization",
      "type": "error"
    },
    {
      "inputs": [],
      "name": "InvalidMinReserve",
      "type": "error"
    },
    {
      "inputs": [],
      "name": "InvalidReserve",
      "type": "error"
    },
    {
      "inputs": [],
      "name": "InvalidTypeReserve",
      "type": "error"
    },
    {
      "inputs": [],
      "name": "MintNotAllowed",
      "type": "error"
    },
    {
      "inputs": [],
      "name": "NotInitializing",
      "type": "error"
    },
    {
      "inputs": [],
      "name": "OnlyNftDelegation",
      "type": "error"
    },
    {
      "inputs": [],
      "name": "PermitExpired",
      "type": "error"
    },
    {
      "inputs": [],
      "name": "PermitInvalidSignature",
      "type": "error"
    },
    {
      "inputs": [],
      "name": "PermitInvalidSpender",
      "type": "error"
    },
    {
      "inputs": [],
      "name": "PermitUnauthorized",
      "type": "error"
    },
    {
      "anonymous": false,
      "inputs": [
        {
          "indexed": true,
          "internalType": "address",
          "name": "account",
          "type": "address"
        },
        {
          "indexed": true,
          "internalType": "address",
          "name": "operator",
          "type": "address"
        },
        {
          "indexed": false,
          "internalType": "bool",
          "name": "approved",
          "type": "bool"
        }
      ],
      "name": "ApprovalForAll",
      "type": "event"
    },
    {
      "anonymous": false,
      "inputs": [],
      "name": "DisabledMint",
      "type": "event"
    },
    {
      "anonymous": false,
      "inputs": [
        {
          "indexed": false,
          "internalType": "uint64",
          "name": "version",
          "type": "uint64"
        }
      ],
      "name": "Initialized",
      "type": "event"
    },
    {
      "anonymous": false,
      "inputs": [
        {
          "indexed": true,
          "internalType": "bytes32",
          "name": "role",
          "type": "bytes32"
        },
        {
          "indexed": true,
          "internalType": "bytes32",
          "name": "previousAdminRole",
          "type": "bytes32"
        },
        {
          "indexed": true,
          "internalType": "bytes32",
          "name": "newAdminRole",
          "type": "bytes32"
        }
      ],
      "name": "RoleAdminChanged",
      "type": "event"
    },
    {
      "anonymous": false,
      "inputs": [
        {
          "indexed": true,
          "internalType": "bytes32",
          "name": "role",
          "type": "bytes32"
        },
        {
          "indexed": true,
          "internalType": "address",
          "name": "account",
          "type": "address"
        },
        {
          "indexed": true,
          "internalType": "address",
          "name": "sender",
          "type": "address"
        }
      ],
      "name": "RoleGranted",
      "type": "event"
    },
    {
      "anonymous": false,
      "inputs": [
        {
          "indexed": true,
          "internalType": "bytes32",
          "name": "role",
          "type": "bytes32"
        },
        {
          "indexed": true,
          "internalType": "address",
          "name": "account",
          "type": "address"
        },
        {
          "indexed": true,
          "internalType": "address",
          "name": "sender",
          "type": "address"
        }
      ],
      "name": "RoleRevoked",
      "type": "event"
    },
    {
      "anonymous": false,
      "inputs": [
        {
          "indexed": true,
          "internalType": "address",
          "name": "operator",
          "type": "address"
        },
        {
          "indexed": true,
          "internalType": "address",
          "name": "from",
          "type": "address"
        },
        {
          "indexed": true,
          "internalType": "address",
          "name": "to",
          "type": "address"
        },
        {
          "indexed": false,
          "internalType": "uint256[]",
          "name": "ids",
          "type": "uint256[]"
        },
        {
          "indexed": false,
          "internalType": "uint256[]",
          "name": "values",
          "type": "uint256[]"
        }
      ],
      "name": "TransferBatch",
      "type": "event"
    },
    {
      "anonymous": false,
      "inputs": [
        {
          "indexed": true,
          "internalType": "address",
          "name": "operator",
          "type": "address"
        },
        {
          "indexed": true,
          "internalType": "address",
          "name": "from",
          "type": "address"
        },
        {
          "indexed": true,
          "internalType": "address",
          "name": "to",
          "type": "address"
        },
        {
          "indexed": false,
          "internalType": "uint256",
          "name": "id",
          "type": "uint256"
        },
        {
          "indexed": false,
          "internalType": "uint256",
          "name": "value",
          "type": "uint256"
        }
      ],
      "name": "TransferSingle",
      "type": "event"
    },
    {
      "anonymous": false,
      "inputs": [
        {
          "indexed": false,
          "internalType": "string",
          "name": "value",
          "type": "string"
        },
        {
          "indexed": true,
          "internalType": "uint256",
          "name": "id",
          "type": "uint256"
        }
      ],
      "name": "URI",
      "type": "event"
    },
    {
      "inputs": [],
      "name": "CREATOR_ROLE",
      "outputs": [
        {
          "internalType": "bytes32",
          "name": "",
          "type": "bytes32"
        }
      ],
      "stateMutability": "view",
      "type": "function"
    },
    {
      "inputs": [],
      "name": "DEFAULT_ADMIN_ROLE",
      "outputs": [
        {
          "internalType": "bytes32",
          "name": "",
          "type": "bytes32"
        }
      ],
      "stateMutability": "view",
      "type": "function"
    },
    {
      "inputs": [],
      "name": "DOMAIN_SEPARATOR",
      "outputs": [
        {
          "internalType": "bytes32",
          "name": "",
          "type": "bytes32"
        }
      ],
      "stateMutability": "view",
      "type": "function"
    },
    {
      "inputs": [],
      "name": "MIN_RESERVE",
      "outputs": [
        {
          "internalType": "uint256",
          "name": "",
          "type": "uint256"
        }
      ],
      "stateMutability": "view",
      "type": "function"
    },
    {
      "inputs": [
        {
          "internalType": "uint256",
          "name": "tokenId",
          "type": "uint256"
        }
      ],
      "name": "addReserve",
      "outputs": [],
      "stateMutability": "payable",
      "type": "function"
    },
    {
      "inputs": [
        {
          "internalType": "uint256",
          "name": "tokenId",
          "type": "uint256"
        },
        {
          "internalType": "uint256",
          "name": "amount",
          "type": "uint256"
        },
        {
          "internalType": "uint256",
          "name": "deadline",
          "type": "uint256"
        },
        {
          "internalType": "uint8",
          "name": "v",
          "type": "uint8"
        },
        {
          "internalType": "bytes32",
          "name": "r",
          "type": "bytes32"
        },
        {
          "internalType": "bytes32",
          "name": "s",
          "type": "bytes32"
        }
      ],
      "name": "addReserve",
      "outputs": [],
      "stateMutability": "nonpayable",
      "type": "function"
    },
    {
      "inputs": [
        {
          "internalType": "uint256",
          "name": "tokenId",
          "type": "uint256"
        },
        {
          "internalType": "uint256",
          "name": "amount",
          "type": "uint256"
        }
      ],
      "name": "addReserve",
      "outputs": [],
      "stateMutability": "nonpayable",
      "type": "function"
    },
    {
      "inputs": [
        {
          "internalType": "address",
          "name": "account",
          "type": "address"
        },
        {
          "internalType": "uint256",
          "name": "id",
          "type": "uint256"
        }
      ],
      "name": "balanceOf",
      "outputs": [
        {
          "internalType": "uint256",
          "name": "",
          "type": "uint256"
        }
      ],
      "stateMutability": "view",
      "type": "function"
    },
    {
      "inputs": [
        {
          "internalType": "address[]",
          "name": "accounts",
          "type": "address[]"
        },
        {
          "internalType": "uint256[]",
          "name": "ids",
          "type": "uint256[]"
        }
      ],
      "name": "balanceOfBatch",
      "outputs": [
        {
          "internalType": "uint256[]",
          "name": "",
          "type": "uint256[]"
        }
      ],
      "stateMutability": "view",
      "type": "function"
    },
    {
      "inputs": [
        {
          "internalType": "uint256",
          "name": "tokenId",
          "type": "uint256"
        },
        {
          "internalType": "uint256",
          "name": "amount",
          "type": "uint256"
        }
      ],
      "name": "burn",
      "outputs": [],
      "stateMutability": "nonpayable",
      "type": "function"
    },
    {
      "inputs": [],
      "name": "contractURI",
      "outputs": [
        {
          "internalType": "string",
          "name": "",
          "type": "string"
        }
      ],
      "stateMutability": "view",
      "type": "function"
    },
    {
      "inputs": [],
      "name": "disableMint",
      "outputs": [],
      "stateMutability": "nonpayable",
      "type": "function"
    },
    {
      "inputs": [],
      "name": "getAllowMint",
      "outputs": [
        {
          "internalType": "bool",
          "name": "",
          "type": "bool"
        }
      ],
      "stateMutability": "view",
      "type": "function"
    },
    {
      "inputs": [],
      "name": "getNftType",
      "outputs": [
        {
          "internalType": "enum NFTType",
          "name": "",
          "type": "uint8"
        }
      ],
      "stateMutability": "pure",
      "type": "function"
    },
    {
      "inputs": [],
      "name": "getRefundable",
      "outputs": [
        {
          "internalType": "bool",
          "name": "",
          "type": "bool"
        }
      ],
      "stateMutability": "view",
      "type": "function"
    },
    {
      "inputs": [
        {
          "internalType": "uint256",
          "name": "tokenId",
          "type": "uint256"
        }
      ],
      "name": "getReserve",
      "outputs": [
        {
          "internalType": "uint256",
          "name": "amount",
          "type": "uint256"
        },
        {
          "internalType": "address",
          "name": "reserveAddress",
          "type": "address"
        }
      ],
      "stateMutability": "view",
      "type": "function"
    },
    {
      "inputs": [
        {
          "internalType": "bytes32",
          "name": "role",
          "type": "bytes32"
        }
      ],
      "name": "getRoleAdmin",
      "outputs": [
        {
          "internalType": "bytes32",
          "name": "",
          "type": "bytes32"
        }
      ],
      "stateMutability": "view",
      "type": "function"
    },
    {
      "inputs": [
        {
          "internalType": "uint256",
          "name": "tokenId",
          "type": "uint256"
        }
      ],
      "name": "getTypeReserve",
      "outputs": [
        {
          "internalType": "enum DecimalERC1155.TypeReserve",
          "name": "",
          "type": "uint8"
        }
      ],
      "stateMutability": "view",
      "type": "function"
    },
    {
      "inputs": [
        {
          "internalType": "bytes32",
          "name": "role",
          "type": "bytes32"
        },
        {
          "internalType": "address",
          "name": "account",
          "type": "address"
        }
      ],
      "name": "grantRole",
      "outputs": [],
      "stateMutability": "nonpayable",
      "type": "function"
    },
    {
      "inputs": [
        {
          "internalType": "bytes32",
          "name": "role",
          "type": "bytes32"
        },
        {
          "internalType": "address",
          "name": "account",
          "type": "address"
        }
      ],
      "name": "hasRole",
      "outputs": [
        {
          "internalType": "bool",
          "name": "",
          "type": "bool"
        }
      ],
      "stateMutability": "view",
      "type": "function"
    },
    {
      "inputs": [
        {
          "internalType": "string",
          "name": "initialSymbol",
          "type": "string"
        },
        {
          "internalType": "string",
          "name": "initialName",
          "type": "string"
        },
        {
          "internalType": "string",
          "name": "initialContractURI",
          "type": "string"
        },
        {
          "internalType": "string",
          "name": "initialBaseURI",
          "type": "string"
        },
        {
          "internalType": "address",
          "name": "initialCreator",
          "type": "address"
        },
        {
          "internalType": "bool",
          "name": "initialRefundable",
          "type": "bool"
        }
      ],
      "name": "initialize",
      "outputs": [],
      "stateMutability": "nonpayable",
      "type": "function"
    },
    {
      "inputs": [
        {
          "internalType": "address",
          "name": "account",
          "type": "address"
        },
        {
          "internalType": "address",
          "name": "operator",
          "type": "address"
        }
      ],
      "name": "isApprovedForAll",
      "outputs": [
        {
          "internalType": "bool",
          "name": "",
          "type": "bool"
        }
      ],
      "stateMutability": "view",
      "type": "function"
    },
    {
      "inputs": [
        {
          "internalType": "address",
          "name": "to",
          "type": "address"
        },
        {
          "internalType": "uint256",
          "name": "tokenId",
          "type": "uint256"
        },
        {
          "internalType": "uint256",
          "name": "amountToMint",
          "type": "uint256"
        },
        {
          "internalType": "string",
          "name": "tokenURI",
          "type": "string"
        },
        {
          "internalType": "uint256",
          "name": "reserveAmount",
          "type": "uint256"
        },
        {
          "internalType": "address",
          "name": "reserveAddress",
          "type": "address"
        }
      ],
      "name": "mint",
      "outputs": [],
      "stateMutability": "nonpayable",
      "type": "function"
    },
    {
      "inputs": [
        {
          "internalType": "address",
          "name": "to",
          "type": "address"
        },
        {
          "internalType": "uint256",
          "name": "tokenId",
          "type": "uint256"
        },
        {
          "internalType": "uint256",
          "name": "amountToMint",
          "type": "uint256"
        },
        {
          "internalType": "string",
          "name": "tokenURI",
          "type": "string"
        }
      ],
      "name": "mintByETH",
      "outputs": [],
      "stateMutability": "payable",
      "type": "function"
    },
    {
      "inputs": [
        {
          "internalType": "address",
          "name": "to",
          "type": "address"
        },
        {
          "internalType": "uint256",
          "name": "tokenId",
          "type": "uint256"
        },
        {
          "internalType": "uint256",
          "name": "amountToMint",
          "type": "uint256"
        },
        {
          "internalType": "string",
          "name": "tokenURI",
          "type": "string"
        },
        {
          "internalType": "uint256",
          "name": "reserveAmount",
          "type": "uint256"
        },
        {
          "internalType": "address",
          "name": "reserveAddress",
          "type": "address"
        },
        {
          "internalType": "uint256",
          "name": "deadline",
          "type": "uint256"
        },
        {
          "internalType": "uint8",
          "name": "v",
          "type": "uint8"
        },
        {
          "internalType": "bytes32",
          "name": "r",
          "type": "bytes32"
        },
        {
          "internalType": "bytes32",
          "name": "s",
          "type": "bytes32"
        }
      ],
      "name": "mintByPermit",
      "outputs": [],
      "stateMutability": "nonpayable",
      "type": "function"
    },
    {
      "inputs": [],
      "name": "name",
      "outputs": [
        {
          "internalType": "string",
          "name": "",
          "type": "string"
        }
      ],
      "stateMutability": "view",
      "type": "function"
    },
    {
      "inputs": [
        {
          "internalType": "address",
          "name": "owner",
          "type": "address"
        }
      ],
      "name": "nonces",
      "outputs": [
        {
          "internalType": "uint256",
          "name": "",
          "type": "uint256"
        }
      ],
      "stateMutability": "view",
      "type": "function"
    },
    {
      "inputs": [
        {
          "internalType": "uint256",
          "name": "tokenId",
          "type": "uint256"
        },
        {
          "internalType": "uint256",
          "name": "amountToPenalty",
          "type": "uint256"
        },
        {
          "internalType": "uint256",
          "name": "percentage",
          "type": "uint256"
        }
      ],
      "name": "penalty",
      "outputs": [],
      "stateMutability": "nonpayable",
      "type": "function"
    },
    {
      "inputs": [
        {
          "internalType": "address",
          "name": "owner",
          "type": "address"
        },
        {
          "internalType": "address",
          "name": "spender",
          "type": "address"
        },
        {
          "internalType": "uint256",
          "name": "deadline",
          "type": "uint256"
        },
        {
          "internalType": "uint8",
          "name": "v",
          "type": "uint8"
        },
        {
          "internalType": "bytes32",
          "name": "r",
          "type": "bytes32"
        },
        {
          "internalType": "bytes32",
          "name": "s",
          "type": "bytes32"
        }
      ],
      "name": "permit",
      "outputs": [],
      "stateMutability": "nonpayable",
      "type": "function"
    },
    {
      "inputs": [
        {
          "internalType": "uint256",
          "name": "tokenId",
          "type": "uint256"
        }
      ],
      "name": "rate",
      "outputs": [
        {
          "internalType": "uint256",
          "name": "amount",
          "type": "uint256"
        }
      ],
      "stateMutability": "view",
      "type": "function"
    },
    {
      "inputs": [
        {
          "internalType": "bytes32",
          "name": "role",
          "type": "bytes32"
        },
        {
          "internalType": "address",
          "name": "callerConfirmation",
          "type": "address"
        }
      ],
      "name": "renounceRole",
      "outputs": [],
      "stateMutability": "nonpayable",
      "type": "function"
    },
    {
      "inputs": [
        {
          "internalType": "bytes32",
          "name": "role",
          "type": "bytes32"
        },
        {
          "internalType": "address",
          "name": "account",
          "type": "address"
        }
      ],
      "name": "revokeRole",
      "outputs": [],
      "stateMutability": "nonpayable",
      "type": "function"
    },
    {
      "inputs": [
        {
          "internalType": "address",
          "name": "from",
          "type": "address"
        },
        {
          "internalType": "address",
          "name": "to",
          "type": "address"
        },
        {
          "internalType": "uint256[]",
          "name": "ids",
          "type": "uint256[]"
        },
        {
          "internalType": "uint256[]",
          "name": "values",
          "type": "uint256[]"
        },
        {
          "internalType": "bytes",
          "name": "data",
          "type": "bytes"
        }
      ],
      "name": "safeBatchTransferFrom",
      "outputs": [],
      "stateMutability": "nonpayable",
      "type": "function"
    },
    {
      "inputs": [
        {
          "internalType": "address",
          "name": "from",
          "type": "address"
        },
        {
          "internalType": "address",
          "name": "to",
          "type": "address"
        },
        {
          "internalType": "uint256",
          "name": "id",
          "type": "uint256"
        },
        {
          "internalType": "uint256",
          "name": "value",
          "type": "uint256"
        },
        {
          "internalType": "bytes",
          "name": "data",
          "type": "bytes"
        }
      ],
      "name": "safeTransferFrom",
      "outputs": [],
      "stateMutability": "nonpayable",
      "type": "function"
    },
    {
      "inputs": [
        {
          "internalType": "address",
          "name": "operator",
          "type": "address"
        },
        {
          "internalType": "bool",
          "name": "approved",
          "type": "bool"
        }
      ],
      "name": "setApprovalForAll",
      "outputs": [],
      "stateMutability": "nonpayable",
      "type": "function"
    },
    {
      "inputs": [
        {
          "internalType": "string",
          "name": "baseURI",
          "type": "string"
        }
      ],
      "name": "setBaseURI",
      "outputs": [],
      "stateMutability": "nonpayable",
      "type": "function"
    },
    {
      "inputs": [
        {
          "internalType": "uint256",
          "name": "tokenId",
          "type": "uint256"
        },
        {
          "internalType": "string",
          "name": "tokenURI",
          "type": "string"
        }
      ],
      "name": "setTokenURI",
      "outputs": [],
      "stateMutability": "nonpayable",
      "type": "function"
    },
    {
      "inputs": [
        {
          "internalType": "uint256",
          "name": "tokenId",
          "type": "uint256"
        }
      ],
      "name": "supply",
      "outputs": [
        {
          "internalType": "uint256",
          "name": "",
          "type": "uint256"
        }
      ],
      "stateMutability": "view",
      "type": "function"
    },
    {
      "inputs": [
        {
          "internalType": "bytes4",
          "name": "interfaceId",
          "type": "bytes4"
        }
      ],
      "name": "supportsInterface",
      "outputs": [
        {
          "internalType": "bool",
          "name": "",
          "type": "bool"
        }
      ],
      "stateMutability": "view",
      "type": "function"
    },
    {
      "inputs": [],
      "name": "symbol",
      "outputs": [
        {
          "internalType": "string",
          "name": "",
          "type": "string"
        }
      ],
      "stateMutability": "view",
      "type": "function"
    },
    {
      "inputs": [
        {
          "internalType": "uint256",
          "name": "tokenId",
          "type": "uint256"
        }
      ],
      "name": "uri",
      "outputs": [
        {
          "internalType": "string",
          "name": "",
          "type": "string"
        }
      ],
      "stateMutability": "view",
      "type": "function"
    }
  ],
  "bytecode": "0x608060405234801561001057600080fd5b50613943806100206000396000f3fe6080604052600436106102455760003560e01c806355f804b311610139578063a22cb465116100b6578063bfcf30f81161007a578063bfcf30f8146106a6578063d547741f146106c6578063e7ee6ad6146106e6578063e8a3d48514610706578063e985e9c51461071b578063f242432a1461073b57600080fd5b8063a22cb46514610611578063a504cf1614610631578063a6fde7ab14610644578063accaa2e614610659578063b390c0ab1461068657600080fd5b806389278622116100fd57806389278622146105855780638aeda25a146105a557806391d14854146105c757806395d89b41146105e7578063a217fddf146105fc57600080fd5b806355f804b3146104cc5780635bfb797f146104ec578063726f77e31461050857806377778db3146105285780637ecebe001461056557600080fd5b80632eb2c2d6116101c757806336568abe1161018b57806336568abe1461042c57806348613c281461044c5780634b8243c91461046c5780634e1273f41461047f57806354d997a9146104ac57600080fd5b80632eb2c2d6146103a25780632f2ff15d146103c257806334452f38146103e257806335403023146103f75780633644e5151461041757600080fd5b80630d7e1a421161020e5780630d7e1a42146103005780630e89341c146103225780630f07171714610342578063162094c414610362578063248a9ca31461038257600080fd5b8062fdd58e1461024a57806301ffc9a71461027d57806302912524146102ad57806306fdde03146102c257806309dfd0e6146102e4575b600080fd5b34801561025657600080fd5b5061026a610265366004612b71565b61075b565b6040519081526020015b60405180910390f35b34801561028957600080fd5b5061029d610298366004612bb3565b610792565b6040519015158152602001610274565b3480156102b957600080fd5b5061029d6107ac565b3480156102ce57600080fd5b506102d76107c2565b6040516102749190612c27565b3480156102f057600080fd5b5061026a670de0b6b3a764000081565b34801561030c57600080fd5b5061032061031b366004612c3a565b61085a565b005b34801561032e57600080fd5b506102d761033d366004612c66565b610a0d565b34801561034e57600080fd5b5061032061035d366004612d45565b610b1c565b34801561036e57600080fd5b5061032061037d366004612df3565b610bb9565b34801561038e57600080fd5b5061026a61039d366004612c66565b610bdb565b3480156103ae57600080fd5b506103206103bd366004612ec7565b610bfd565b3480156103ce57600080fd5b506103206103dd366004612f74565b610c69565b3480156103ee57600080fd5b50610320610c8b565b34801561040357600080fd5b5061026a610412366004612c66565b610cf2565b34801561042357600080fd5b5061026a610d10565b34801561043857600080fd5b50610320610447366004612f74565b610da4565b34801561045857600080fd5b50610320610467366004612fa4565b610dd7565b61032061047a366004612c66565b6110ca565b34801561048b57600080fd5b5061049f61049a366004613007565b611147565b60405161027491906130f9565b3480156104b857600080fd5b506103206104c736600461310c565b61121b565b3480156104d857600080fd5b506103206104e7366004613143565b6112ac565b3480156104f857600080fd5b506001604051610274919061318d565b34801561051457600080fd5b506103206105233660046131a7565b6112d1565b34801561053457600080fd5b50610548610543366004612c66565b6113e4565b604080519283526001600160a01b03909116602083015201610274565b34801561057157600080fd5b5061026a6105803660046131c9565b6114b5565b34801561059157600080fd5b506103206105a03660046131e6565b6114e1565b3480156105b157600080fd5b5061026a60008051602061388e83398151915281565b3480156105d357600080fd5b5061029d6105e2366004612f74565b6115b2565b3480156105f357600080fd5b506102d76115ea565b34801561060857600080fd5b5061026a600081565b34801561061d57600080fd5b5061032061062c36600461327e565b611602565b61032061063f3660046132ac565b61160d565b34801561065057600080fd5b5061029d61166e565b34801561066557600080fd5b50610679610674366004612c66565b611689565b604051610274919061330e565b34801561069257600080fd5b506103206106a13660046131a7565b6116ee565b3480156106b257600080fd5b506103206106c1366004613322565b611938565b3480156106d257600080fd5b506103206106e1366004612f74565b611b06565b3480156106f257600080fd5b5061026a610701366004612c66565b611b22565b34801561071257600080fd5b506102d7611b92565b34801561072757600080fd5b5061029d6107363660046133ee565b611baa565b34801561074757600080fd5b5061032061075636600461341c565b611bf7565b60008181526000805160206138ce833981519152602090815260408083206001600160a01b03861684529091529020545b92915050565b600061079d82611c56565b8061078c575061078c82611ca6565b60006107b6611ccb565b6004015460ff16919050565b60606107cc611ccb565b80546107d790613484565b80601f016020809104026020016040519081016040528092919081815260200182805461080390613484565b80156108505780601f1061082557610100808354040283529160200191610850565b820191906000526020600020905b81548152906001019060200180831161083357829003601f168201915b5050505050905090565b61086333611cef565b600061086d611ccb565b905060006064838561087e88611b22565b61088891906134d4565b61089291906134d4565b61089c91906134eb565b9050801580156108ae57505050505050565b60006108b987611689565b905060008160028111156108cf576108cf613177565b036108dd5750505050505050565b60018160028111156108f1576108f1613177565b036109255760405160009084156108fc0290859083818181858288f19350505050158015610923573d6000803e3d6000fd5b505b600281600281111561093957610939613177565b036109ac57600087815260068501602052604090819020549051630852cd8d60e31b8152600481018590526001600160a01b03909116906342966c6890602401600060405180830381600087803b15801561099357600080fd5b505af11580156109a7573d6000803e3d6000fd5b505050505b6000878152600585016020526040812084918360028111156109d0576109d0613177565b60028111156109e1576109e1613177565b815260200190815260200160002060008282546109fe919061350d565b9091555050505050505b505050565b60008181527f89fc852226e759c7c636cf34d732f0198fc56a54876b2374a52beb7b0c5586016020526040812080546060926000805160206138ae833981519152929091610a5a90613484565b80601f0160208091040260200160405190810160405280929190818152602001828054610a8690613484565b8015610ad35780601f10610aa857610100808354040283529160200191610ad3565b820191906000526020600020905b815481529060010190602001808311610ab657829003601f168201915b505050505090506000815111610af157610aec84611ee0565b610b14565b604051610b049083908390602001613593565b6040516020818303038152906040525b949350505050565b60008051602061388e833981519152610b3481611fa5565b60405163d505accf60e01b81526001600160a01b0387169063d505accf90610b6c90339030908c908b908b908b908b906004016135b8565b600060405180830381600087803b158015610b8657600080fd5b505af1158015610b9a573d6000803e3d6000fd5b50505050610bac8b8b8b8b8b8b6114e1565b5050505050505050505050565b60008051602061388e833981519152610bd181611fa5565b610a088383611fb2565b60009081526000805160206138ee833981519152602052604090206001015490565b336001600160a01b0386168114801590610c1e5750610c1c8682611baa565b155b15610c545760405163711bec9160e11b81526001600160a01b038083166004830152871660248201526044015b60405180910390fd5b610c61868686868661203f565b505050505050565b610c7282610bdb565b610c7b81611fa5565b610c85838361209f565b50505050565b60008051602061388e833981519152610ca381611fa5565b6000610cad611ccb565b60040180549115156101000261ff00199092169190911790556040517f96786059fc12ef37dc62764d5fdd3131eeb87ad78f23b8476a8866eb7e6b57ce90600090a150565b6000610cfc611ccb565b600092835260030160205250604090205490565b60007f8b73c3c69bb8fe3d512ecc4cf759cc79239f7b179b0ffacaa9a75d522b39400f610d3b6107c2565b80519060200120610d4a611ccb565b600701604051610d5a91906135f9565b60408051918290038220602083019490945281019190915260608101919091524660808201523060a082015260c00160405160208183030381529060405280519060200120905090565b6001600160a01b0381163314610dcd5760405163334bd91960e11b815260040160405180910390fd5b610a088282612144565b83421115610df85760405163068568f360e21b815260040160405180910390fd5b6000610e02610d10565b7f29db08c6fa5ea37f368ae6abb1beb48d7730e405512bf86d618d142b0c7a873187610e2c611ccb565b6001600160a01b038b16600090815260089190910160205260408120805491610e5483613605565b9190505588604051602001610e8b94939291909384526001600160a01b039290921660208401526040830152606082015260800190565b60405160208183030381529060405280519060200120604051602001610ec892919061190160f01b81526002810192909252602282015260420190565b604051602081830303815290604052805190602001209050866001600160a01b0316866001600160a01b031603610f1257604051632efb957f60e21b815260040160405180910390fd5b6001600160a01b0387163b15610ff957604080516020810185905280820184905260f886901b6001600160f81b0319166060820152815160418183030181526061820192839052630b135d3f60e11b9092526001600160a01b03891691631626ba7e91610f8391859160650161361e565b602060405180830381865afa158015610fa0573d6000803e3d6000fd5b505050506040513d601f19601f82011682018060405250810190610fc49190613637565b6001600160e01b031916631626ba7e60e01b14610ff4576040516308d333ef60e41b815260040160405180910390fd5b6110b5565b6040805160008082526020820180845284905260ff871692820192909252606081018590526080810184905260019060a0016020604051602081039080840390855afa15801561104d573d6000803e3d6000fd5b5050604051601f1901519150506001600160a01b0381166110815760405163b6ea5e6160e01b815260040160405180910390fd5b876001600160a01b0316816001600160a01b0316146110b3576040516308d333ef60e41b815260040160405180910390fd5b505b6110c1878760016121c0565b50505050505050565b60016110d582611689565b60028111156110e6576110e6613177565b146111045760405163f92b31ed60e01b815260040160405180910390fd5b3461110d611ccb565b6000838152600591909101602052604081209060018152602001908152602001600020600082825461113f9190613654565b909155505050565b606081518351146111785781518351604051635b05999160e01b815260048101929092526024820152604401610c4b565b600083516001600160401b0381111561119357611193612c7f565b6040519080825280602002602001820160405280156111bc578160200160208202803683370190505b50905060005b8451811015611213576020808202860101516111e69060208084028701015161075b565b8282815181106111f8576111f8613667565b602090810291909101015261120c81613605565b90506111c2565b509392505050565b611223611ccb565b600087815260069190910160205260409081902054905163d505accf60e01b81526001600160a01b039091169063d505accf9061127090339030908a908a908a908a908a906004016135b8565b600060405180830381600087803b15801561128a57600080fd5b505af115801561129e573d6000803e3d6000fd5b50505050610c6186866112d1565b60008051602061388e8339815191526112c481611fa5565b6112cd82612268565b5050565b60026112dc83611689565b60028111156112ed576112ed613177565b1461130b5760405163f92b31ed60e01b815260040160405180910390fd5b611313611ccb565b60008381526006919091016020526040908190205490516323b872dd60e01b8152336004820152306024820152604481018390526001600160a01b03909116906323b872dd906064016020604051808303816000875af115801561137b573d6000803e3d6000fd5b505050506040513d601f19601f8201168201806040525081019061139f919061367d565b50806113a9611ccb565b600084815260059190910160205260408120906002815260200190815260200160002060008282546113db9190613654565b90915550505050565b60008060006113f1611ccb565b905060006113fe85611689565b6000868152600584016020526040812091925082600281111561142357611423613177565b600281111561143457611434613177565b81526020810191909152604001600090812054945081600281111561145b5761145b613177565b0361146d575060009485945092505050565b600181600281111561148157611481613177565b036114925750919360009350915050565b5060009384526006016020525060409091205490916001600160a01b0390911690565b60006114bf611ccb565b6001600160a01b03909216600090815260089290920160205250604090205490565b60008051602061388e8339815191526114f981611fa5565b611501611ccb565b60040154610100900460ff1661152a5760405163344fa43b60e01b815260040160405180910390fd5b6040516323b872dd60e01b8152336004820152306024820152604481018490526001600160a01b038316906323b872dd906064016020604051808303816000875af115801561157d573d6000803e3d6000fd5b505050506040513d601f19601f820116820180604052508101906115a1919061367d565b506110c18787878787876002612282565b60009182526000805160206138ee833981519152602090815260408084206001600160a01b0393909316845291905290205460ff1690565b60606115f4611ccb565b60010180546107d790613484565b6112cd3383836121c0565b60008051602061388e83398151915261162581611fa5565b61162d611ccb565b60040154610100900460ff166116565760405163344fa43b60e01b815260040160405180910390fd5b611667858585853460006001612282565b5050505050565b6000611678611ccb565b60040154610100900460ff16919050565b600080611694611ccb565b60008481526005820160209081526040808320600184529091528082205460028352912054919250158015911515906116d257506001949350505050565b80156116e357506002949350505050565b506000949350505050565b60006116f8611ccb565b9050600061170584611689565b905060008361171386611b22565b61171d91906134d4565b905061172a338686612450565b60008581526003840160205260408120805486929061174a90849061350d565b90915550508015801561175f57505050505050565b60008681526005850160205260408120839185600281111561178357611783613177565b600281111561179457611794613177565b815260200190815260200160002060008282546117b1919061350d565b90915550600190508360028111156117cb576117cb613177565b0361182857600484015460009060ff166117e65760006117e8565b335b6040519091506001600160a01b0382169084156108fc029085906000818181858888f19350505050158015611821573d6000803e3d6000fd5b5050610c61565b600283600281111561183c5761183c613177565b03610c6157600086815260068501602052604090205460048501546001600160a01b039091169060ff16156118e25760405163a9059cbb60e01b8152336004820152602481018490526001600160a01b0382169063a9059cbb906044016020604051808303816000875af11580156118b8573d6000803e3d6000fd5b505050506040513d601f19601f820116820180604052508101906118dc919061367d565b506110c1565b604051630852cd8d60e31b8152600481018490526001600160a01b038216906342966c6890602401600060405180830381600087803b15801561192457600080fd5b505af1158015610bac573d6000803e3d6000fd5b7ff0c57e16840df040f15088dc2f81fe391c3923bec73e23a9662efc9c229c6a008054600160401b810460ff1615906001600160401b031660008115801561197d5750825b90506000826001600160401b031660011480156119995750303b155b9050811580156119a7575080155b156119c55760405163f92ee8a960e01b815260040160405180910390fd5b845467ffffffffffffffff1916600117855583156119ef57845460ff60401b1916600160401b1785555b611a07604051806020016040528060008152506124b8565b611a0f6124c9565b611a176124db565b611a2f60008051602061388e8339815191528861209f565b50611a3988612268565b6000611a43611ccb565b905080611a508c826136e0565b5060018101611a5f8d826136e0565b5060028101611a6e8b826136e0565b5060048101805461ff00198915151661ffff19909116176101001790556040805180820190915260018152603160f81b60208201526007820190611ab290826136e0565b50508315610bac57845460ff60401b19168555604051600181527fc7f505b2f371ae2175ee4913f4499e1f2633a7b5936321eed1cdaeb6115181d29060200160405180910390a15050505050505050505050565b611b0f82610bdb565b611b1881611fa5565b610c858383612144565b600080611b2d611ccb565b90506000611b3a84611689565b9050611b4584610cf2565b6000858152600584016020526040812090836002811115611b6857611b68613177565b6002811115611b7957611b79613177565b815260200190815260200160002054610b1491906134eb565b6060611b9c611ccb565b60020180546107d790613484565b6001600160a01b0391821660009081527f88be536d5240c274a3b1d3a1be54482fd9caa294f08c62a7cde569f49a3c45016020908152604080832093909416825291909152205460ff1690565b336001600160a01b0386168114801590611c185750611c168682611baa565b155b15611c495760405163711bec9160e11b81526001600160a01b03808316600483015287166024820152604401610c4b565b610c6186868686866124e3565b60006001600160e01b03198216636cdb3d1360e11b1480611c8757506001600160e01b031982166303a24d0760e21b145b8061078c57506301ffc9a760e01b6001600160e01b031983161461078c565b60006001600160e01b03198216637965db0b60e01b148061078c575061078c82611c56565b7f893879ca56602296dd8a2357b6c017a656776f70d42dd45145bbd77a8eadc30090565b6000306001600160a01b0316632d6b3a6b6040518163ffffffff1660e01b8152600401602060405180830381865afa158015611d2f573d6000803e3d6000fd5b505050506040513d601f19601f82011682018060405250810190611d53919061379f565b90506000816001600160a01b031663940744686040518163ffffffff1660e01b8152600401602060405180830381865afa158015611d95573d6000803e3d6000fd5b505050506040513d601f19601f82011682018060405250810190611db9919061379f565b90506000816001600160a01b031663ba778bce6040518163ffffffff1660e01b8152600401602060405180830381865afa158015611dfb573d6000803e3d6000fd5b505050506040513d601f19601f82011682018060405250810190611e1f919061379f565b60405163bf40fac160e01b815260206004820152600e60248201526d19195b1959d85d1a5bdb8b5b999d60921b60448201529091506000906001600160a01b0383169063bf40fac190606401602060405180830381865afa158015611e88573d6000803e3d6000fd5b505050506040513d601f19601f82011682018060405250810190611eac919061379f565b9050806001600160a01b0316856001600160a01b0316146116675760405163528caf0360e11b815260040160405180910390fd5b7f88be536d5240c274a3b1d3a1be54482fd9caa294f08c62a7cde569f49a3c450280546060916000805160206138ce83398151915291611f1f90613484565b80601f0160208091040260200160405190810160405280929190818152602001828054611f4b90613484565b8015611f985780601f10611f6d57610100808354040283529160200191611f98565b820191906000526020600020905b815481529060010190602001808311611f7b57829003601f168201915b5050505050915050919050565b611faf8133612568565b50565b60008281527f89fc852226e759c7c636cf34d732f0198fc56a54876b2374a52beb7b0c558601602052604090206000805160206138ae83398151915290611ff983826136e0565b50827f6bb7ff708619ba0610cba295a58592e0451dee2622938c8755667688daf3529b61202585610a0d565b6040516120329190612c27565b60405180910390a2505050565b6001600160a01b03841661206957604051632bfa23e760e11b815260006004820152602401610c4b565b6001600160a01b03851661209257604051626a0d4560e21b815260006004820152602401610c4b565b61166785858585856125a1565b60006000805160206138ee8339815191526120ba84846115b2565b61213a576000848152602082815260408083206001600160a01b03871684529091529020805460ff191660011790556120f03390565b6001600160a01b0316836001600160a01b0316857f2f8788117e7eff1d82e926ec794901d17c78024a50270940304540a733656f0d60405160405180910390a4600191505061078c565b600091505061078c565b60006000805160206138ee83398151915261215f84846115b2565b1561213a576000848152602082815260408083206001600160a01b0387168085529252808320805460ff1916905551339287917ff6391f5c32d9c69d2a47ea670b442974b53935d1edc7fd64eb21e047a839171b9190a4600191505061078c565b6000805160206138ce8339815191526001600160a01b0383166121f85760405162ced3e160e81b815260006004820152602401610c4b565b6001600160a01b038481166000818152600184016020908152604080832094881680845294825291829020805460ff191687151590811790915591519182527f17307eab39ab6107e8899845ad3d59bd9653f200f220920489ca2b5937696c31910160405180910390a350505050565b6000805160206138ae83398151915280610a0883826136e0565b600061228c611ccb565b9050600061229988611689565b905060008160028111156122af576122af613177565b036122f557670de0b6b3a76400006122c788876134eb565b10156122e6576040516318c7b03560e21b815260040160405180910390fd5b6122f08887611fb2565b61236a565b82600281111561230757612307613177565b81600281111561231957612319613177565b03612351578661232889611b22565b61233291906134d4565b85146122f05760405163e46aea0960e01b815260040160405180910390fd5b60405163f92b31ed60e01b815260040160405180910390fd5b60008881526005830160205260408120869185600281111561238e5761238e613177565b600281111561239f5761239f613177565b815260200190815260200160002060008282546123bc9190613654565b90915550600290508360028111156123d6576123d6613177565b03612405576000888152600683016020526040902080546001600160a01b0319166001600160a01b0386161790555b612420898989604051806020016040528060008152506125ed565b600088815260038301602052604081208054899290612440908490613654565b9091555050505050505050505050565b6001600160a01b03831661247957604051626a0d4560e21b815260006004820152602401610c4b565b604080516001808252602082018590528183019081526060820184905260a08201909252600060808201818152919291611667918791859085906125a1565b6124c061264a565b611faf81612693565b6124d161264a565b6124d96126a4565b565b6124d961264a565b6001600160a01b03841661250d57604051632bfa23e760e11b815260006004820152602401610c4b565b6001600160a01b03851661253657604051626a0d4560e21b815260006004820152602401610c4b565b604080516001808252602082018690528183019081526060820185905260808201909252906110c187878484876125a1565b61257282826115b2565b6112cd5760405163e2517d3f60e01b81526001600160a01b038216600482015260248101839052604401610c4b565b6125ad858585856126d7565b6001600160a01b0384161561166757825133906001036125df5760208481015190840151611821838989858589612905565b610c61818787878787612a29565b6001600160a01b03841661261757604051632bfa23e760e11b815260006004820152602401610c4b565b60408051600180825260208201869052818301908152606082018590526080820190925290610c616000878484876125a1565b7ff0c57e16840df040f15088dc2f81fe391c3923bec73e23a9662efc9c229c6a0054600160401b900460ff166124d957604051631afcd79f60e31b815260040160405180910390fd5b61269b61264a565b611faf81612b12565b6126ac61264a565b6040805160208101909152600081526000805160206138ae8339815191529081906112cd90826136e0565b805182516000805160206138ce83398151915291146127165782518251604051635b05999160e01b815260048101929092526024820152604401610c4b565b3360005b8451811015612825576020818102868101820151908601909101516001600160a01b038916156127cd576000828152602086815260408083206001600160a01b038d168452909152902054818110156127a6576040516303dee4c560e01b81526001600160a01b038b166004820152602481018290526044810183905260648101849052608401610c4b565b6000838152602087815260408083206001600160a01b038e16845290915290209082900390555b6001600160a01b03881615612812576000828152602086815260408083206001600160a01b038c1684529091528120805483929061280c908490613654565b90915550505b50508061281e90613605565b905061271a565b5083516001036128a65760208401516000906020850151909150866001600160a01b0316886001600160a01b0316846001600160a01b03167fc3d58168c5ae7397731d063d5bbf3d657854427343f4c083240f7aacaa2d0f628585604051612897929190918252602082015260400190565b60405180910390a45050610c61565b846001600160a01b0316866001600160a01b0316826001600160a01b03167f4a39dc06d4c0dbc64b70af90fd698a233a518aa5d07e595d983b8c0526c8f7fb87876040516128f59291906137bc565b60405180910390a4505050505050565b6001600160a01b0384163b15610c615760405163f23a6e6160e01b81526001600160a01b0385169063f23a6e619061294990899089908890889088906004016137ea565b6020604051808303816000875af1925050508015612984575060408051601f3d908101601f1916820190925261298191810190613637565b60015b6129ed573d8080156129b2576040519150601f19603f3d011682016040523d82523d6000602084013e6129b7565b606091505b5080516000036129e557604051632bfa23e760e11b81526001600160a01b0386166004820152602401610c4b565b805181602001fd5b6001600160e01b0319811663f23a6e6160e01b146110c157604051632bfa23e760e11b81526001600160a01b0386166004820152602401610c4b565b6001600160a01b0384163b15610c615760405163bc197c8160e01b81526001600160a01b0385169063bc197c8190612a6d908990899088908890889060040161382f565b6020604051808303816000875af1925050508015612aa8575060408051601f3d908101601f19168201909252612aa591810190613637565b60015b612ad6573d8080156129b2576040519150601f19603f3d011682016040523d82523d6000602084013e6129b7565b6001600160e01b0319811663bc197c8160e01b146110c157604051632bfa23e760e11b81526001600160a01b0386166004820152602401610c4b565b6000805160206138ce8339815191527f88be536d5240c274a3b1d3a1be54482fd9caa294f08c62a7cde569f49a3c4502610a0883826136e0565b6001600160a01b0381168114611faf57600080fd5b8035612b6c81612b4c565b919050565b60008060408385031215612b8457600080fd5b8235612b8f81612b4c565b946020939093013593505050565b6001600160e01b031981168114611faf57600080fd5b600060208284031215612bc557600080fd5b8135612bd081612b9d565b9392505050565b60005b83811015612bf2578181015183820152602001612bda565b50506000910152565b60008151808452612c13816020860160208601612bd7565b601f01601f19169290920160200192915050565b602081526000612bd06020830184612bfb565b600080600060608486031215612c4f57600080fd5b505081359360208301359350604090920135919050565b600060208284031215612c7857600080fd5b5035919050565b634e487b7160e01b600052604160045260246000fd5b604051601f8201601f191681016001600160401b0381118282101715612cbd57612cbd612c7f565b604052919050565b600082601f830112612cd657600080fd5b81356001600160401b03811115612cef57612cef612c7f565b612d02601f8201601f1916602001612c95565b818152846020838601011115612d1757600080fd5b816020850160208301376000918101602001919091529392505050565b803560ff81168114612b6c57600080fd5b6000806000806000806000806000806101408b8d031215612d6557600080fd5b8a35612d7081612b4c565b995060208b0135985060408b0135975060608b01356001600160401b03811115612d9957600080fd5b612da58d828e01612cc5565b97505060808b0135955060a08b0135612dbd81612b4c565b945060c08b01359350612dd260e08c01612d34565b92506101008b013591506101208b013590509295989b9194979a5092959850565b60008060408385031215612e0657600080fd5b8235915060208301356001600160401b03811115612e2357600080fd5b612e2f85828601612cc5565b9150509250929050565b60006001600160401b03821115612e5257612e52612c7f565b5060051b60200190565b600082601f830112612e6d57600080fd5b81356020612e82612e7d83612e39565b612c95565b82815260059290921b84018101918181019086841115612ea157600080fd5b8286015b84811015612ebc5780358352918301918301612ea5565b509695505050505050565b600080600080600060a08688031215612edf57600080fd5b8535612eea81612b4c565b94506020860135612efa81612b4c565b935060408601356001600160401b0380821115612f1657600080fd5b612f2289838a01612e5c565b94506060880135915080821115612f3857600080fd5b612f4489838a01612e5c565b93506080880135915080821115612f5a57600080fd5b50612f6788828901612cc5565b9150509295509295909350565b60008060408385031215612f8757600080fd5b823591506020830135612f9981612b4c565b809150509250929050565b60008060008060008060c08789031215612fbd57600080fd5b8635612fc881612b4c565b95506020870135612fd881612b4c565b945060408701359350612fed60608801612d34565b92506080870135915060a087013590509295509295509295565b6000806040838503121561301a57600080fd5b82356001600160401b038082111561303157600080fd5b818501915085601f83011261304557600080fd5b81356020613055612e7d83612e39565b82815260059290921b8401810191818101908984111561307457600080fd5b948201945b8386101561309b57853561308c81612b4c565b82529482019490820190613079565b965050860135925050808211156130b157600080fd5b50612e2f85828601612e5c565b600081518084526020808501945080840160005b838110156130ee578151875295820195908201906001016130d2565b509495945050505050565b602081526000612bd060208301846130be565b60008060008060008060c0878903121561312557600080fd5b863595506020870135945060408701359350612fed60608801612d34565b60006020828403121561315557600080fd5b81356001600160401b0381111561316b57600080fd5b610b1484828501612cc5565b634e487b7160e01b600052602160045260246000fd5b60208101600283106131a1576131a1613177565b91905290565b600080604083850312156131ba57600080fd5b50508035926020909101359150565b6000602082840312156131db57600080fd5b8135612bd081612b4c565b60008060008060008060c087890312156131ff57600080fd5b863561320a81612b4c565b9550602087013594506040870135935060608701356001600160401b0381111561323357600080fd5b61323f89828a01612cc5565b9350506080870135915060a087013561325781612b4c565b809150509295509295509295565b8015158114611faf57600080fd5b8035612b6c81613265565b6000806040838503121561329157600080fd5b823561329c81612b4c565b91506020830135612f9981613265565b600080600080608085870312156132c257600080fd5b84356132cd81612b4c565b9350602085013592506040850135915060608501356001600160401b038111156132f657600080fd5b61330287828801612cc5565b91505092959194509250565b60208101600383106131a1576131a1613177565b60008060008060008060c0878903121561333b57600080fd5b86356001600160401b038082111561335257600080fd5b61335e8a838b01612cc5565b9750602089013591508082111561337457600080fd5b6133808a838b01612cc5565b9650604089013591508082111561339657600080fd5b6133a28a838b01612cc5565b955060608901359150808211156133b857600080fd5b506133c589828a01612cc5565b9350506133d460808801612b61565b91506133e260a08801613273565b90509295509295509295565b6000806040838503121561340157600080fd5b823561340c81612b4c565b91506020830135612f9981612b4c565b600080600080600060a0868803121561343457600080fd5b853561343f81612b4c565b9450602086013561344f81612b4c565b9350604086013592506060860135915060808601356001600160401b0381111561347857600080fd5b612f6788828901612cc5565b600181811c9082168061349857607f821691505b6020821081036134b857634e487b7160e01b600052602260045260246000fd5b50919050565b634e487b7160e01b600052601160045260246000fd5b808202811582820484141761078c5761078c6134be565b60008261350857634e487b7160e01b600052601260045260246000fd5b500490565b8181038181111561078c5761078c6134be565b6000815461352d81613484565b60018281168015613545576001811461355a57613589565b60ff1984168752821515830287019450613589565b8560005260208060002060005b858110156135805781548a820152908401908201613567565b50505082870194505b5050505092915050565b600061359f8285613520565b83516135af818360208801612bd7565b01949350505050565b6001600160a01b0397881681529590961660208601526040850193909352606084019190915260ff16608083015260a082015260c081019190915260e00190565b6000612bd08284613520565b600060018201613617576136176134be565b5060010190565b828152604060208201526000610b146040830184612bfb565b60006020828403121561364957600080fd5b8151612bd081612b9d565b8082018082111561078c5761078c6134be565b634e487b7160e01b600052603260045260246000fd5b60006020828403121561368f57600080fd5b8151612bd081613265565b601f821115610a0857600081815260208120601f850160051c810160208610156136c15750805b601f850160051c820191505b81811015610c61578281556001016136cd565b81516001600160401b038111156136f9576136f9612c7f565b61370d816137078454613484565b8461369a565b602080601f831160018114613742576000841561372a5750858301515b600019600386901b1c1916600185901b178555610c61565b600085815260208120601f198616915b8281101561377157888601518255948401946001909101908401613752565b508582101561378f5787850151600019600388901b60f8161c191681555b5050505050600190811b01905550565b6000602082840312156137b157600080fd5b8151612bd081612b4c565b6040815260006137cf60408301856130be565b82810360208401526137e181856130be565b95945050505050565b6001600160a01b03868116825285166020820152604081018490526060810183905260a06080820181905260009061382490830184612bfb565b979650505050505050565b6001600160a01b0386811682528516602082015260a06040820181905260009061385b908301866130be565b828103606084015261386d81866130be565b905082810360808401526138818185612bfb565b9897505050505050505056fe828634d95e775031b9ff576b159a8509d3053581a8c9c4d7d86899e0afcd882f89fc852226e759c7c636cf34d732f0198fc56a54876b2374a52beb7b0c55860088be536d5240c274a3b1d3a1be54482fd9caa294f08c62a7cde569f49a3c450002dd7bc7dec4dceedda775e58dd541e08a116c6c53815c0bd028192f7b626800a2646970667358221220370a132c45a99135fa38c3e1a68e1226d13981c494201f6da0e6ec85d7a3325a64736f6c63430008140033",
  "linkReferences": {},
  "deployedLinkReferences": {}
}