{
  "_format": "hh-sol-artifact-1",
  "contractName": "DecimalTokenCenter",
  "sourceName": "contracts/DecimalTokenCenter.sol",
  "abi": [
    {
      "inputs": [
        {
          "internalType": "address",
          "name": "target",
          "type": "address"
        }
      ],
      "name": "AddressEmptyCode",
      "type": "error"
    },
    {
      "inputs": [],
      "name": "DeployError",
      "type": "error"
    },
    {
      "inputs": [
        {
          "internalType": "address",
          "name": "implementation",
          "type": "address"
        }
      ],
      "name": "ERC1967InvalidImplementation",
      "type": "error"
    },
    {
      "inputs": [],
      "name": "ERC1967NonPayable",
      "type": "error"
    },
    {
      "inputs": [],
      "name": "FailedInnerCall",
      "type": "error"
    },
    {
      "inputs": [],
      "name": "InvalidAddress",
      "type": "error"
    },
    {
      "inputs": [],
      "name": "InvalidComissionSymbol",
      "type": "error"
    },
    {
      "inputs": [],
      "name": "InvalidCrr",
      "type": "error"
    },
    {
      "inputs": [],
      "name": "InvalidInitialMint",
      "type": "error"
    },
    {
      "inputs": [],
      "name": "InvalidInitialization",
      "type": "error"
    },
    {
      "inputs": [],
      "name": "InvalidMaxTotalSupply",
      "type": "error"
    },
    {
      "inputs": [],
      "name": "InvalidMinReserve",
      "type": "error"
    },
    {
      "inputs": [],
      "name": "InvalidMinTotalSupply",
      "type": "error"
    },
    {
      "inputs": [],
      "name": "InvalidPayloadLength",
      "type": "error"
    },
    {
      "inputs": [],
      "name": "NotInitializing",
      "type": "error"
    },
    {
      "inputs": [
        {
          "internalType": "address",
          "name": "owner",
          "type": "address"
        }
      ],
      "name": "OwnableInvalidOwner",
      "type": "error"
    },
    {
      "inputs": [
        {
          "internalType": "address",
          "name": "account",
          "type": "address"
        }
      ],
      "name": "OwnableUnauthorizedAccount",
      "type": "error"
    },
    {
      "inputs": [
        {
          "internalType": "uint256",
          "name": "x",
          "type": "uint256"
        },
        {
          "internalType": "uint256",
          "name": "y",
          "type": "uint256"
        }
      ],
      "name": "PRBMath_MulDiv18_Overflow",
      "type": "error"
    },
    {
      "inputs": [
        {
          "internalType": "uint256",
          "name": "x",
          "type": "uint256"
        },
        {
          "internalType": "uint256",
          "name": "y",
          "type": "uint256"
        },
        {
          "internalType": "uint256",
          "name": "denominator",
          "type": "uint256"
        }
      ],
      "name": "PRBMath_MulDiv_Overflow",
      "type": "error"
    },
    {
      "inputs": [
        {
          "internalType": "UD60x18",
          "name": "x",
          "type": "uint256"
        }
      ],
      "name": "PRBMath_UD60x18_Exp2_InputTooBig",
      "type": "error"
    },
    {
      "inputs": [
        {
          "internalType": "UD60x18",
          "name": "x",
          "type": "uint256"
        }
      ],
      "name": "PRBMath_UD60x18_Log_InputTooSmall",
      "type": "error"
    },
    {
      "inputs": [],
      "name": "TokenSymbolExist",
      "type": "error"
    },
    {
      "anonymous": false,
      "inputs": [
        {
          "indexed": true,
          "internalType": "address",
          "name": "oldContract",
          "type": "address"
        },
        {
          "indexed": true,
          "internalType": "address",
          "name": "newContract",
          "type": "address"
        }
      ],
      "name": "ContractUpgraded",
      "type": "event"
    },
    {
      "anonymous": false,
      "inputs": [
        {
          "indexed": false,
          "internalType": "uint64",
          "name": "version",
          "type": "uint64"
        }
      ],
      "name": "Initialized",
      "type": "event"
    },
    {
      "anonymous": false,
      "inputs": [
        {
          "indexed": true,
          "internalType": "address",
          "name": "previousOwner",
          "type": "address"
        },
        {
          "indexed": true,
          "internalType": "address",
          "name": "newOwner",
          "type": "address"
        }
      ],
      "name": "OwnershipTransferred",
      "type": "event"
    },
    {
      "anonymous": false,
      "inputs": [
        {
          "indexed": true,
          "internalType": "address",
          "name": "oldContract",
          "type": "address"
        },
        {
          "indexed": true,
          "internalType": "address",
          "name": "newContract",
          "type": "address"
        }
      ],
      "name": "TokenContractUpgraded",
      "type": "event"
    },
    {
      "anonymous": false,
      "inputs": [
        {
          "indexed": false,
          "internalType": "address",
          "name": "tokenAddress",
          "type": "address"
        }
      ],
      "name": "TokenDeployed",
      "type": "event"
    },
    {
      "anonymous": false,
      "inputs": [
        {
          "indexed": true,
          "internalType": "address",
          "name": "implementation",
          "type": "address"
        }
      ],
      "name": "Upgraded",
      "type": "event"
    },
    {
      "inputs": [],
      "name": "MAX_CRR",
      "outputs": [
        {
          "internalType": "uint256",
          "name": "",
          "type": "uint256"
        }
      ],
      "stateMutability": "view",
      "type": "function"
    },
    {
      "inputs": [],
      "name": "MAX_TOTAL_SUPPLY",
      "outputs": [
        {
          "internalType": "uint256",
          "name": "",
          "type": "uint256"
        }
      ],
      "stateMutability": "view",
      "type": "function"
    },
    {
      "inputs": [],
      "name": "MIN_CRR",
      "outputs": [
        {
          "internalType": "uint256",
          "name": "",
          "type": "uint256"
        }
      ],
      "stateMutability": "view",
      "type": "function"
    },
    {
      "inputs": [],
      "name": "MIN_INITIAL_MINT",
      "outputs": [
        {
          "internalType": "uint256",
          "name": "",
          "type": "uint256"
        }
      ],
      "stateMutability": "view",
      "type": "function"
    },
    {
      "inputs": [],
      "name": "MIN_RESERVE",
      "outputs": [
        {
          "internalType": "uint256",
          "name": "",
          "type": "uint256"
        }
      ],
      "stateMutability": "view",
      "type": "function"
    },
    {
      "inputs": [],
      "name": "MIN_TOTAL_SUPPLY",
      "outputs": [
        {
          "internalType": "uint256",
          "name": "",
          "type": "uint256"
        }
      ],
      "stateMutability": "view",
      "type": "function"
    },
    {
      "inputs": [
        {
          "internalType": "uint256",
          "name": "supply",
          "type": "uint256"
        },
        {
          "internalType": "uint256",
          "name": "customReserve",
          "type": "uint256"
        },
        {
          "internalType": "uint256",
          "name": "customCrr",
          "type": "uint256"
        },
        {
          "internalType": "uint256",
          "name": "amountOut",
          "type": "uint256"
        }
      ],
      "name": "calculateBuyInput",
      "outputs": [
        {
          "internalType": "uint256",
          "name": "",
          "type": "uint256"
        }
      ],
      "stateMutability": "pure",
      "type": "function"
    },
    {
      "inputs": [
        {
          "internalType": "uint256",
          "name": "supply",
          "type": "uint256"
        },
        {
          "internalType": "uint256",
          "name": "customReserve",
          "type": "uint256"
        },
        {
          "internalType": "uint256",
          "name": "customCrr",
          "type": "uint256"
        },
        {
          "internalType": "uint256",
          "name": "amountIn",
          "type": "uint256"
        }
      ],
      "name": "calculateBuyOutput",
      "outputs": [
        {
          "internalType": "uint256",
          "name": "",
          "type": "uint256"
        }
      ],
      "stateMutability": "pure",
      "type": "function"
    },
    {
      "inputs": [
        {
          "internalType": "uint256",
          "name": "supply",
          "type": "uint256"
        },
        {
          "internalType": "uint256",
          "name": "customReserve",
          "type": "uint256"
        },
        {
          "internalType": "uint256",
          "name": "customCrr",
          "type": "uint256"
        },
        {
          "internalType": "uint256",
          "name": "amountOut",
          "type": "uint256"
        }
      ],
      "name": "calculateSellInput",
      "outputs": [
        {
          "internalType": "uint256",
          "name": "",
          "type": "uint256"
        }
      ],
      "stateMutability": "pure",
      "type": "function"
    },
    {
      "inputs": [
        {
          "internalType": "uint256",
          "name": "supply",
          "type": "uint256"
        },
        {
          "internalType": "uint256",
          "name": "customReserve",
          "type": "uint256"
        },
        {
          "internalType": "uint256",
          "name": "customCrr",
          "type": "uint256"
        },
        {
          "internalType": "uint256",
          "name": "amountIn",
          "type": "uint256"
        }
      ],
      "name": "calculateSellOutput",
      "outputs": [
        {
          "internalType": "uint256",
          "name": "",
          "type": "uint256"
        }
      ],
      "stateMutability": "pure",
      "type": "function"
    },
    {
      "inputs": [
        {
          "internalType": "address",
          "name": "tokenIn",
          "type": "address"
        },
        {
          "internalType": "address",
          "name": "tokenOut",
          "type": "address"
        },
        {
          "internalType": "uint256",
          "name": "amountIn",
          "type": "uint256"
        },
        {
          "internalType": "uint256",
          "name": "amountOutMin",
          "type": "uint256"
        },
        {
          "internalType": "address",
          "name": "recipient",
          "type": "address"
        }
      ],
      "name": "convert",
      "outputs": [],
      "stateMutability": "nonpayable",
      "type": "function"
    },
    {
      "inputs": [
        {
          "internalType": "address",
          "name": "tokenIn",
          "type": "address"
        },
        {
          "internalType": "address",
          "name": "tokenOut",
          "type": "address"
        },
        {
          "internalType": "uint256",
          "name": "amountIn",
          "type": "uint256"
        },
        {
          "internalType": "uint256",
          "name": "amountOutMin",
          "type": "uint256"
        },
        {
          "internalType": "address",
          "name": "recipient",
          "type": "address"
        },
        {
          "internalType": "uint256",
          "name": "deadline",
          "type": "uint256"
        },
        {
          "internalType": "uint8",
          "name": "v",
          "type": "uint8"
        },
        {
          "internalType": "bytes32",
          "name": "r",
          "type": "bytes32"
        },
        {
          "internalType": "bytes32",
          "name": "s",
          "type": "bytes32"
        }
      ],
      "name": "convert",
      "outputs": [],
      "stateMutability": "nonpayable",
      "type": "function"
    },
    {
      "inputs": [
        {
          "components": [
            {
              "internalType": "uint256",
              "name": "initialMint",
              "type": "uint256"
            },
            {
              "internalType": "uint256",
              "name": "minTotalSupply",
              "type": "uint256"
            },
            {
              "internalType": "uint256",
              "name": "maxTotalSupply",
              "type": "uint256"
            },
            {
              "internalType": "address",
              "name": "tokenOwner",
              "type": "address"
            },
            {
              "internalType": "uint8",
              "name": "crr",
              "type": "uint8"
            },
            {
              "internalType": "string",
              "name": "identity",
              "type": "string"
            },
            {
              "internalType": "string",
              "name": "symbol",
              "type": "string"
            },
            {
              "internalType": "string",
              "name": "name",
              "type": "string"
            }
          ],
          "internalType": "struct DecimalTokenCenter.Token",
          "name": "tokenData",
          "type": "tuple"
        }
      ],
      "name": "createToken",
      "outputs": [],
      "stateMutability": "payable",
      "type": "function"
    },
    {
      "inputs": [
        {
          "internalType": "string",
          "name": "symbol",
          "type": "string"
        }
      ],
      "name": "getCommissionSymbol",
      "outputs": [
        {
          "internalType": "uint256",
          "name": "",
          "type": "uint256"
        }
      ],
      "stateMutability": "pure",
      "type": "function"
    },
    {
      "inputs": [],
      "name": "implementation",
      "outputs": [
        {
          "internalType": "address",
          "name": "",
          "type": "address"
        }
      ],
      "stateMutability": "view",
      "type": "function"
    },
    {
      "inputs": [],
      "name": "initialize",
      "outputs": [],
      "stateMutability": "nonpayable",
      "type": "function"
    },
    {
      "inputs": [
        {
          "internalType": "address",
          "name": "token",
          "type": "address"
        }
      ],
      "name": "isTokenExists",
      "outputs": [
        {
          "internalType": "bool",
          "name": "",
          "type": "bool"
        }
      ],
      "stateMutability": "view",
      "type": "function"
    },
    {
      "inputs": [],
      "name": "owner",
      "outputs": [
        {
          "internalType": "address",
          "name": "",
          "type": "address"
        }
      ],
      "stateMutability": "view",
      "type": "function"
    },
    {
      "inputs": [],
      "name": "renounceOwnership",
      "outputs": [],
      "stateMutability": "nonpayable",
      "type": "function"
    },
    {
      "inputs": [
        {
          "internalType": "string",
          "name": "symbol",
          "type": "string"
        }
      ],
      "name": "tokens",
      "outputs": [
        {
          "internalType": "address",
          "name": "",
          "type": "address"
        }
      ],
      "stateMutability": "view",
      "type": "function"
    },
    {
      "inputs": [
        {
          "internalType": "address",
          "name": "newOwner",
          "type": "address"
        }
      ],
      "name": "transferOwnership",
      "outputs": [],
      "stateMutability": "nonpayable",
      "type": "function"
    },
    {
      "inputs": [
        {
          "internalType": "address",
          "name": "newImplementation",
          "type": "address"
        }
      ],
      "name": "upgrade",
      "outputs": [],
      "stateMutability": "nonpayable",
      "type": "function"
    },
    {
      "inputs": [
        {
          "internalType": "address",
          "name": "newTokenImplementation",
          "type": "address"
        }
      ],
      "name": "upgradeToken",
      "outputs": [],
      "stateMutability": "nonpayable",
      "type": "function"
    },
    {
      "stateMutability": "payable",
      "type": "receive"
    }
  ],
  "bytecode": "0x608060405234801561001057600080fd5b506134b8806100206000396000f3fe608060405260043610620001a35760003560e01c80635122c40911620000e75780639ed4fa5a1162000089578063c265bbd11162000060578063c265bbd11462000344578063c73636c1146200048e578063f2fde38b14620004b357600080fd5b80639ed4fa5a146200040e578063b7a7a0481462000444578063b8d23ea0146200046957600080fd5b8063715018a611620000be578063715018a6146200039f5780638129fc1c14620003b75780638da5cb5b14620003cf57600080fd5b80635122c40914620003445780635c60da1b14620003625780636ee31a18146200037a57600080fd5b806315380182116200015157806333039d3d116200012857806333039d3d14620002f25780634dfb514214620003165780634fdcc43c146200032d57600080fd5b8063153801821462000283578063200ff9f414620002a85780632e391d0214620002cd57600080fd5b80630900f01011620001865780630900f0101462000219578063090fab49146200023e57806309dfd0e6146200026457600080fd5b806304c2320b14620001b0578063069ffbe514620001f257600080fd5b36620001ab57005b600080fd5b348015620001bd57600080fd5b50620001d5620001cf3660046200291a565b620004d8565b6040516001600160a01b0390911681526020015b60405180910390f35b348015620001ff57600080fd5b50620002176200021136600462002970565b6200052d565b005b3480156200022657600080fd5b506200021762000238366004620029ce565b62000755565b3480156200024b57600080fd5b5062000255606481565b604051908152602001620001e9565b3480156200027157600080fd5b5062000255683635c9adc5dea0000081565b3480156200029057600080fd5b5062000255620002a2366004620029ec565b6200082c565b348015620002b557600080fd5b5062000255620002c7366004620029ec565b62000847565b348015620002da57600080fd5b5062000255620002ec366004620029ec565b62000857565b348015620002ff57600080fd5b50620002556d314dc6448d9338c15b0a0000000081565b620002176200032736600462002a31565b62000867565b3480156200033a57600080fd5b5062000255600a81565b3480156200035157600080fd5b5062000255670de0b6b3a764000081565b3480156200036f57600080fd5b50620001d5620009e2565b3480156200038757600080fd5b506200021762000399366004620029ce565b62000a15565b348015620003ac57600080fd5b506200021762000aeb565b348015620003c457600080fd5b506200021762000b03565b348015620003dc57600080fd5b507f9016d09d72d40fdae2fd8ceac6b6234c7706214fd39c1cd1e609a0528c199300546001600160a01b0316620001d5565b3480156200041b57600080fd5b50620004336200042d366004620029ce565b62000c53565b6040519015158152602001620001e9565b3480156200045157600080fd5b50620002176200046336600462002b39565b62000d68565b3480156200047657600080fd5b506200025562000488366004620029ec565b62000e21565b3480156200049b57600080fd5b5062000255620004ad3660046200291a565b62000e31565b348015620004c057600080fd5b5062000217620004d2366004620029ce565b62000ef2565b60007fd15eb84d74a9f1cebc337a90cd76676c23019d42ee043ed87cd137d1c2ee3600600101826040516200050e919062002bed565b908152604051908190036020019020546001600160a01b031692915050565b6040517f23b872dd000000000000000000000000000000000000000000000000000000008152336004820152306024820152604481018490526001600160a01b038616906323b872dd906064016020604051808303816000875af11580156200059a573d6000803e3d6000fd5b505050506040513d601f19601f82011682018060405250810190620005c0919062002c0b565b506040517fc193d62e000000000000000000000000000000000000000000000000000000008152600481018490526000906001600160a01b0387169063c193d62e90602401602060405180830381865afa15801562000623573d6000803e3d6000fd5b505050506040513d601f19601f8201168201806040525081019062000649919062002c2f565b6040517fd04c698300000000000000000000000000000000000000000000000000000000815260048101869052600060248201523060448201529091506001600160a01b0387169063d04c698390606401600060405180830381600087803b158015620006b557600080fd5b505af1158015620006ca573d6000803e3d6000fd5b50506040517f7deb6025000000000000000000000000000000000000000000000000000000008152600481018690526001600160a01b03858116602483015288169250637deb6025915083906044016000604051808303818588803b1580156200073357600080fd5b505af115801562000748573d6000803e3d6000fd5b5050505050505050505050565b6200075f62000f53565b60006200076b62000fca565b90506001600160a01b0382161580620007955750806001600160a01b0316826001600160a01b0316145b15620007cd576040517fe6c4247b00000000000000000000000000000000000000000000000000000000815260040160405180910390fd5b620007e8826040518060200160405280600081525062000ff3565b816001600160a01b0316816001600160a01b03167f2e4cc16c100f0b55e2df82ab0b1a7e294aa9cbd01b48fbaf622683fbc0507a4960405160405180910390a35050565b60006200083c8585858562001059565b90505b949350505050565b60006200083c8585858562001113565b60006200083c85858585620011c5565b683635c9adc5dea00000341015620008ab576040517f631ec0d400000000000000000000000000000000000000000000000000000000815260040160405180910390fd5b8051670de0b6b3a76400001180620008c7575060408101518151115b15620008ff576040517fa0d932f100000000000000000000000000000000000000000000000000000000815260040160405180910390fd5b6000620009108260c0015162000e31565b9050803410156200094d576040517fef896d5400000000000000000000000000000000000000000000000000000000815260040160405180910390fd5b60006200095b823462002c5f565b9050683635c9adc5dea00000811015620009a1576040517fef896d5400000000000000000000000000000000000000000000000000000000815260040160405180910390fd5b60405160009083156108fc0290849083818181858288f19350505050158015620009cf573d6000803e3d6000fd5b50620009dc83826200123f565b50505050565b60007fd15eb84d74a9f1cebc337a90cd76676c23019d42ee043ed87cd137d1c2ee36005b546001600160a01b0316919050565b62000a1f62000f53565b600062000a2b620009e2565b90506001600160a01b03821662000a6e576040517fe6c4247b00000000000000000000000000000000000000000000000000000000815260040160405180910390fd5b817fd15eb84d74a9f1cebc337a90cd76676c23019d42ee043ed87cd137d1c2ee3600805473ffffffffffffffffffffffffffffffffffffffff19166001600160a01b03928316179055604051838216918316907f27bf8a17dff3ae6812ef6a2059d654c298fd3a87c570f2bab5c34b166dd868aa90600090a35050565b62000af562000f53565b62000b016000620015d5565b565b7ff0c57e16840df040f15088dc2f81fe391c3923bec73e23a9662efc9c229c6a00805468010000000000000000810460ff16159067ffffffffffffffff1660008115801562000b4f5750825b905060008267ffffffffffffffff16600114801562000b6d5750303b155b90508115801562000b7c575080155b1562000bb4576040517ff92ee8a900000000000000000000000000000000000000000000000000000000815260040160405180910390fd5b84547fffffffffffffffffffffffffffffffffffffffffffffffff0000000000000000166001178555831562000c0057845468ff00000000000000001916680100000000000000001785555b831562000c4c57845468ff000000000000000019168555604051600181527fc7f505b2f371ae2175ee4913f4499e1f2633a7b5936321eed1cdaeb6115181d29060200160405180910390a15b5050505050565b60408051600481526024810182526020810180517bffffffffffffffffffffffffffffffffffffffffffffffffffffffff167f95d89b41000000000000000000000000000000000000000000000000000000001790529051600091829182916001600160a01b0386169162000cc9919062002bed565b600060405180830381855afa9150503d806000811462000d06576040519150601f19603f3d011682016040523d82523d6000602084013e62000d0b565b606091505b509150915081158062000d1d57508051155b1562000d2d575060009392505050565b60008180602001905181019062000d45919062002c75565b9050600062000d5482620004d8565b6001600160a01b0316141595945050505050565b6040517fd505accf000000000000000000000000000000000000000000000000000000008152336004820152306024820152604481018890526064810185905260ff8416608482015260a4810183905260c481018290526001600160a01b038a169063d505accf9060e401600060405180830381600087803b15801562000dee57600080fd5b505af115801562000e03573d6000803e3d6000fd5b5050505062000e1689898989896200052d565b505050505050505050565b60006200083c8585858562001653565b60008062000e3f83620016d5565b9050600a81111562000e545750600092915050565b600681111562000e6f5750680d8d726b7177a8000092915050565b600581111562000e8a575068878678326eac90000092915050565b600481111562000ea6575069054b40b1f852bda0000092915050565b600381111562000ec257506934f086f3b33b6840000092915050565b600281111562000edf57506a021165458500521280000092915050565b506a021165458500521280000092915050565b62000efc62000f53565b6001600160a01b03811662000f45576040517f1e4fbdf7000000000000000000000000000000000000000000000000000000008152600060048201526024015b60405180910390fd5b62000f5081620015d5565b50565b3362000f867f9016d09d72d40fdae2fd8ceac6b6234c7706214fd39c1cd1e609a0528c199300546001600160a01b031690565b6001600160a01b03161462000b01576040517f118cdaa700000000000000000000000000000000000000000000000000000000815233600482015260240162000f3c565b60007f360894a13ba1a3210667c828492db98dca3e2076cc3735a920a3ca505d382bbc62000a06565b62000ffe82620018f5565b6040516001600160a01b038316907fbc7cd75a20ee27fd9adebab32041f755214dbc6bffa90cc0225b39da2e5c2d3b90600090a28051156200104b5762001046828262001994565b505050565b6200105562001a12565b5050565b6000826064036200108c57620010848462001075848862002cf5565b62001081919062002d25565b90565b90506200083f565b84846000620010a76200108187662386f26fc1000062002cf5565b9050846000620010b8828562001a4b565b9050620010ce81670de0b6b3a764000062001a6d565b9050620010dc818462001a7f565b90506000620010f6670de0b6b3a76400005b839062001bae565b905062001104868262001bc0565b9b9a5050505050505050505050565b6000848203620011255750826200083f565b826064036200113f57620010848562001075848762002cf5565b848460006200115c620010818768056bc75e2d6310000062002d25565b90508460006200116d828662001a4b565b90506200118581670de0b6b3a76400005b9062001bae565b905062001193818462001a7f565b9050620011a981670de0b6b3a76400006200117e565b9050620011b7848262001bc0565b9a9950505050505050505050565b600082606403620011e157620010848462001075878562002cf5565b84846000620011fc6200108187662386f26fc1000062002cf5565b90508460006200120d848362001bae565b9050620012278362001220838762001a4b565b9062001a7f565b90506000620010f682670de0b6b3a76400006200117e565b6000806001600160a01b03166200125a8460c00151620004d8565b6001600160a01b0316146200129b576040517f9df30d2f00000000000000000000000000000000000000000000000000000000815260040160405180910390fd5b6064836080015160ff161180620012b95750600a836080015160ff16105b15620012f1576040517f9b75fcde00000000000000000000000000000000000000000000000000000000815260040160405180910390fd5b670de0b6b3a76400008360200151101562001338576040517f42532bce00000000000000000000000000000000000000000000000000000000815260040160405180910390fd5b6d314dc6448d9338c15b0a000000008360400151111562001385576040517fdd92316a00000000000000000000000000000000000000000000000000000000815260040160405180910390fd5b6000634e9325e660e01b8460e001518560c00151308760600151886080015189600001518a602001518b604001518c60a00151604051602401620013d29998979695949392919062002d76565b60408051601f19818403018152918152602080830180517bffffffffffffffffffffffffffffffffffffffffffffffffffffffff167fffffffff0000000000000000000000000000000000000000000000000000000090951694909417909352519092506000916200144991309185910162002dfd565b60405160208183030381529060405290506000604051806020016200146e906200280e565b601f1982820381018352601f909101166040819052620014949190849060200162002e21565b604051602081830303815290604052905060008660c00151604051602001620014be919062002bed565b6040516020818303038152906040528051906020012090506000600190508183516020850189f59550853b620014f2575060005b806200152a576040517fa944127d00000000000000000000000000000000000000000000000000000000815260040160405180910390fd5b857fd15eb84d74a9f1cebc337a90cd76676c23019d42ee043ed87cd137d1c2ee36006001018960c0015160405162001563919062002bed565b90815260405160209181900382018120805473ffffffffffffffffffffffffffffffffffffffff19166001600160a01b0394851617905591881682527f91d24864a084ab70b268a1f865e757ca12006cf298d763b6be697302ef86498c910160405180910390a1505050505092915050565b7f9016d09d72d40fdae2fd8ceac6b6234c7706214fd39c1cd1e609a0528c199300805473ffffffffffffffffffffffffffffffffffffffff1981166001600160a01b03848116918217845560405192169182907f8be0079c531659141344cd1fd0a4f28419497f9722a3daafe3b4186f6b6457e090600090a3505050565b6000826064036200166f57620010848562001075868562002cf5565b848460006200168c620010818768056bc75e2d6310000062002d25565b90508460006200169d828662001a6d565b9050620016b08362001220838862001a4b565b90506000620016c7670de0b6b3a7640000620010ee565b905062001104858262001bc0565b8051600090819081905b80821015620018ec576000858381518110620016ff57620016ff62002e54565b01602001517fff000000000000000000000000000000000000000000000000000000000000001690507f800000000000000000000000000000000000000000000000000000000000000081101562001766576200175e60018462002e6a565b9250620018d6565b7fe0000000000000000000000000000000000000000000000000000000000000007fff0000000000000000000000000000000000000000000000000000000000000082161015620017be576200175e60028462002e6a565b7ff0000000000000000000000000000000000000000000000000000000000000007fff000000000000000000000000000000000000000000000000000000000000008216101562001816576200175e60038462002e6a565b7ff8000000000000000000000000000000000000000000000000000000000000007fff00000000000000000000000000000000000000000000000000000000000000821610156200186e576200175e60048462002e6a565b7ffc000000000000000000000000000000000000000000000000000000000000007fff0000000000000000000000000000000000000000000000000000000000000082161015620018c6576200175e60058462002e6a565b620018d360068462002e6a565b92505b5082620018e38162002e80565b935050620016df565b50909392505050565b806001600160a01b03163b60000362001946576040517f4c9c8ce30000000000000000000000000000000000000000000000000000000081526001600160a01b038216600482015260240162000f3c565b7f360894a13ba1a3210667c828492db98dca3e2076cc3735a920a3ca505d382bbc805473ffffffffffffffffffffffffffffffffffffffff19166001600160a01b0392909216919091179055565b6060600080846001600160a01b031684604051620019b3919062002bed565b600060405180830381855af49150503d8060008114620019f0576040519150601f19603f3d011682016040523d82523d6000602084013e620019f5565b606091505b509150915062001a0785838362001bd2565b925050505b92915050565b341562000b01576040517fb398979f00000000000000000000000000000000000000000000000000000000815260040160405180910390fd5b600062001a666200108184670de0b6b3a76400008562001c4e565b9392505050565b600062001a6662001081838562002e6a565b6000828281830362001aae57801562001a9a57600062001aa4565b670de0b6b3a76400005b9250505062001a0c565b670de0b6b3a7640000820362001ad157670de0b6b3a76400009250505062001a0c565b8060000362001aed57670de0b6b3a76400009250505062001a0c565b670de0b6b3a7640000810362001b0857849250505062001a0c565b670de0b6b3a764000082111562001b415762001b3962001b3362001b2c8762001d42565b8662001bc0565b62001eac565b925062001ba6565b600062001b6262001081846ec097ce7bc90715b34b9f100000000062002d25565b9050600062001b8062001b3362001b798462001d42565b8862001bc0565b905062001ba162001081826ec097ce7bc90715b34b9f100000000062002d25565b945050505b505092915050565b600062001a6662001081838562002c5f565b600062001a6662001081848462001f22565b60608262001beb5762001be5826200200f565b62001a66565b815115801562001c0357506001600160a01b0384163b155b1562001c47576040517f9996b3150000000000000000000000000000000000000000000000000000000081526001600160a01b038516600482015260240162000f3c565b5092915050565b600080806000198587098587029250828110838203039150508060000362001c8d5783828162001c825762001c8262002d0f565b049250505062001a66565b83811062001cd9576040517f63a0577800000000000000000000000000000000000000000000000000000000815260048101879052602481018690526044810185905260640162000f3c565b60008486880960026001871981018816978890046003810283188082028403028082028403028082028403028082028403028082028403029081029092039091026000889003889004909101858311909403939093029303949094049190911702949350505050565b600081670de0b6b3a764000081101562001d8c576040517f36d32ef00000000000000000000000000000000000000000000000000000000081526004810184905260240162000f3c565b600062001e19670de0b6b3a7640000830460016fffffffffffffffffffffffffffffffff821160071b91821c67ffffffffffffffff811160061b90811c63ffffffff811160051b90811c61ffff811160041b90811c60ff8111600390811b91821c600f811160021b90811c918211871b91821c969096119490961792909217171791909117919091171790565b9050670de0b6b3a7640000810282821c7ffffffffffffffffffffffffffffffffffffffffffffffffff21f494c589c0000810162001e5a5750949350505050565b671bc16d674ec800006706f05b59d3b200005b801562001ea057670de0b6b3a764000083800204925081831062001e97579283019260019290921c915b60011c62001e6d565b50919695505050505050565b600081680a688906bd8affffff81111562001ef7576040517fb3b6ba1f0000000000000000000000000000000000000000000000000000000081526004810184905260240162000f3c565b600062001f11670de0b6b3a7640000604084901b62002d25565b90506200083f620010818262002052565b600080806000198486098486029250828110838203039150508060000362001f585750670de0b6b3a76400009004905062001a0c565b670de0b6b3a7640000811062001fa5576040517f5173648d000000000000000000000000000000000000000000000000000000008152600481018690526024810185905260440162000f3c565b6000670de0b6b3a7640000858709620400008185030493109091037d40000000000000000000000000000000000000000000000000000000000002919091177faccb18165bd6fe31ae1cf318dc5b51eee0e1ba569b88cd74c1773b91fac106690291505092915050565b805115620020205780518082602001fd5b6040517f1425ea4200000000000000000000000000000000000000000000000000000000815260040160405180910390fd5b7780000000000000000000000000000000000000000000000067ff000000000000008216156200217c576780000000000000008216156200209c5768016a09e667f3bcc9090260401c5b674000000000000000821615620020bc576801306fe0a31b7152df0260401c5b672000000000000000821615620020dc576801172b83c7d517adce0260401c5b671000000000000000821615620020fc5768010b5586cf9890f62a0260401c5b6708000000000000008216156200211c576801059b0d31585743ae0260401c5b6704000000000000008216156200213c57680102c9a3e778060ee70260401c5b6702000000000000008216156200215c5768010163da9fb33356d80260401c5b6701000000000000008216156200217c57680100b1afa5abcbed610260401c5b66ff00000000000082161562002284576680000000000000821615620021ab5768010058c86da1c09ea20260401c5b6640000000000000821615620021ca576801002c605e2e8cec500260401c5b6620000000000000821615620021e957680100162f3904051fa10260401c5b661000000000000082161562002208576801000b175effdc76ba0260401c5b66080000000000008216156200222757680100058ba01fb9f96d0260401c5b6604000000000000821615620022465768010002c5cc37da94920260401c5b660200000000000082161562002265576801000162e525ee05470260401c5b6601000000000000821615620022845768010000b17255775c040260401c5b65ff0000000000821615620023835765800000000000821615620022b1576801000058b91b5bc9ae0260401c5b65400000000000821615620022cf57680100002c5c89d5ec6d0260401c5b65200000000000821615620022ed5768010000162e43f4f8310260401c5b651000000000008216156200230b57680100000b1721bcfc9a0260401c5b65080000000000821615620023295768010000058b90cf1e6e0260401c5b6504000000000082161562002347576801000002c5c863b73f0260401c5b650200000000008216156200236557680100000162e430e5a20260401c5b6501000000000082161562002383576801000000b1721835510260401c5b64ff000000008216156200247957648000000000821615620023ae57680100000058b90c0b490260401c5b644000000000821615620023cb5768010000002c5c8601cc0260401c5b642000000000821615620023e8576801000000162e42fff00260401c5b641000000000821615620024055768010000000b17217fbb0260401c5b64080000000082161562002422576801000000058b90bfce0260401c5b6404000000008216156200243f57680100000002c5c85fe30260401c5b6402000000008216156200245c5768010000000162e42ff10260401c5b6401000000008216156200247957680100000000b17217f80260401c5b63ff00000082161562002566576380000000821615620024a25768010000000058b90bfc0260401c5b6340000000821615620024be576801000000002c5c85fe0260401c5b6320000000821615620024da57680100000000162e42ff0260401c5b6310000000821615620024f6576801000000000b17217f0260401c5b63080000008216156200251257680100000000058b90c00260401c5b63040000008216156200252e5768010000000002c5c8600260401c5b63020000008216156200254a576801000000000162e4300260401c5b6301000000821615620025665768010000000000b172180260401c5b62ff00008216156200264a57628000008216156200258d576801000000000058b90c0260401c5b62400000821615620025a857680100000000002c5c860260401c5b62200000821615620025c35768010000000000162e430260401c5b62100000821615620025de57680100000000000b17210260401c5b62080000821615620025f95768010000000000058b910260401c5b6204000082161562002614576801000000000002c5c80260401c5b620200008216156200262f57680100000000000162e40260401c5b620100008216156200264a576801000000000000b1720260401c5b61ff0082161562002725576180008216156200266f57680100000000000058b90260401c5b614000821615620026895768010000000000002c5d0260401c5b612000821615620026a3576801000000000000162e0260401c5b611000821615620026bd5768010000000000000b170260401c5b610800821615620026d7576801000000000000058c0260401c5b610400821615620026f157680100000000000002c60260401c5b6102008216156200270b57680100000000000001630260401c5b6101008216156200272557680100000000000000b10260401c5b60ff821615620027f75760808216156200274857680100000000000000590260401c5b604082161562002761576801000000000000002c0260401c5b60208216156200277a57680100000000000000160260401c5b601082161562002793576801000000000000000b0260401c5b6008821615620027ac57680100000000000000060260401c5b6004821615620027c557680100000000000000030260401c5b6002821615620027de57680100000000000000010260401c5b6001821615620027f757680100000000000000010260401c5b670de0b6b3a76400000260409190911c60bf031c90565b6105e58062002e9e83390190565b634e487b7160e01b600052604160045260246000fd5b604051610100810167ffffffffffffffff811182821017156200285957620028596200281c565b60405290565b604051601f8201601f1916810167ffffffffffffffff811182821017156200288b576200288b6200281c565b604052919050565b600067ffffffffffffffff821115620028b057620028b06200281c565b50601f01601f191660200190565b600082601f830112620028d057600080fd5b8135620028e7620028e18262002893565b6200285f565b818152846020838601011115620028fd57600080fd5b816020850160208301376000918101602001919091529392505050565b6000602082840312156200292d57600080fd5b813567ffffffffffffffff8111156200294557600080fd5b6200083f84828501620028be565b80356001600160a01b03811681146200296b57600080fd5b919050565b600080600080600060a086880312156200298957600080fd5b620029948662002953565b9450620029a46020870162002953565b93506040860135925060608601359150620029c26080870162002953565b90509295509295909350565b600060208284031215620029e157600080fd5b62001a668262002953565b6000806000806080858703121562002a0357600080fd5b5050823594602084013594506040840135936060013592509050565b803560ff811681146200296b57600080fd5b60006020828403121562002a4457600080fd5b813567ffffffffffffffff8082111562002a5d57600080fd5b90830190610100828603121562002a7357600080fd5b62002a7d62002832565b82358152602083013560208201526040830135604082015262002aa36060840162002953565b606082015262002ab66080840162002a1f565b608082015260a08301358281111562002ace57600080fd5b62002adc87828601620028be565b60a08301525060c08301358281111562002af557600080fd5b62002b0387828601620028be565b60c08301525060e08301358281111562002b1c57600080fd5b62002b2a87828601620028be565b60e08301525095945050505050565b60008060008060008060008060006101208a8c03121562002b5957600080fd5b62002b648a62002953565b985062002b7460208b0162002953565b975060408a0135965060608a0135955062002b9260808b0162002953565b945060a08a0135935062002ba960c08b0162002a1f565b925060e08a013591506101008a013590509295985092959850929598565b60005b8381101562002be457818101518382015260200162002bca565b50506000910152565b6000825162002c0181846020870162002bc7565b9190910192915050565b60006020828403121562002c1e57600080fd5b8151801515811462001a6657600080fd5b60006020828403121562002c4257600080fd5b5051919050565b634e487b7160e01b600052601160045260246000fd5b8181038181111562001a0c5762001a0c62002c49565b60006020828403121562002c8857600080fd5b815167ffffffffffffffff81111562002ca057600080fd5b8201601f8101841362002cb257600080fd5b805162002cc3620028e18262002893565b81815285602083850101111562002cd957600080fd5b62002cec82602083016020860162002bc7565b95945050505050565b808202811582820484141762001a0c5762001a0c62002c49565b634e487b7160e01b600052601260045260246000fd5b60008262002d4357634e487b7160e01b600052601260045260246000fd5b500490565b6000815180845262002d6281602086016020860162002bc7565b601f01601f19169290920160200192915050565b600061012080835262002d8c8184018d62002d48565b9050828103602084015262002da2818c62002d48565b90506001600160a01b03808b166040850152808a1660608501525060ff881660808401528660a08401528560c08401528460e084015282810361010084015262002ded818562002d48565b9c9b505050505050505050505050565b6001600160a01b03831681526040602082015260006200083f604083018462002d48565b6000835162002e3581846020880162002bc7565b83519083019062002e4b81836020880162002bc7565b01949350505050565b634e487b7160e01b600052603260045260246000fd5b8082018082111562001a0c5762001a0c62002c49565b6000600019820362002e965762002e9662002c49565b506001019056fe60a06040526040516105e53803806105e583398101604081905261002291610387565b61002c828261003e565b506001600160a01b031660805261047e565b610047826100fe565b6040516001600160a01b038316907f1cf3b03a6cf19fa2baba4df148e9dcabedea7f8a5c07840e207e5c089be95d3e90600090a28051156100f2576100ed826001600160a01b0316635c60da1b6040518163ffffffff1660e01b8152600401602060405180830381865afa1580156100c3573d6000803e3d6000fd5b505050506040513d601f19601f820116820180604052508101906100e79190610447565b82610211565b505050565b6100fa610288565b5050565b806001600160a01b03163b60000361013957604051631933b43b60e21b81526001600160a01b03821660048201526024015b60405180910390fd5b807fa3f0ad74e5423aebfd80d3ef4346578335a9a72aeaee59ff6cb3582b35133d5080546001600160a01b0319166001600160a01b0392831617905560408051635c60da1b60e01b81529051600092841691635c60da1b9160048083019260209291908290030181865afa1580156101b5573d6000803e3d6000fd5b505050506040513d601f19601f820116820180604052508101906101d99190610447565b9050806001600160a01b03163b6000036100fa57604051634c9c8ce360e01b81526001600160a01b0382166004820152602401610130565b6060600080846001600160a01b03168460405161022e9190610462565b600060405180830381855af49150503d8060008114610269576040519150601f19603f3d011682016040523d82523d6000602084013e61026e565b606091505b50909250905061027f8583836102a9565b95945050505050565b34156102a75760405163b398979f60e01b815260040160405180910390fd5b565b6060826102be576102b982610308565b610301565b81511580156102d557506001600160a01b0384163b155b156102fe57604051639996b31560e01b81526001600160a01b0385166004820152602401610130565b50805b9392505050565b8051156103185780518082602001fd5b604051630a12f52160e11b815260040160405180910390fd5b80516001600160a01b038116811461034857600080fd5b919050565b634e487b7160e01b600052604160045260246000fd5b60005b8381101561037e578181015183820152602001610366565b50506000910152565b6000806040838503121561039a57600080fd5b6103a383610331565b60208401519092506001600160401b03808211156103c057600080fd5b818501915085601f8301126103d457600080fd5b8151818111156103e6576103e661034d565b604051601f8201601f19908116603f0116810190838211818310171561040e5761040e61034d565b8160405282815288602084870101111561042757600080fd5b610438836020830160208801610363565b80955050505050509250929050565b60006020828403121561045957600080fd5b61030182610331565b60008251610474818460208701610363565b9190910192915050565b60805161014d61049860003960006024015261014d6000f3fe608060405261000c61000e565b005b61001e610019610020565b6100b6565b565b60007f000000000000000000000000000000000000000000000000000000000000000073ffffffffffffffffffffffffffffffffffffffff16635c60da1b6040518163ffffffff1660e01b8152600401602060405180830381865afa15801561008d573d6000803e3d6000fd5b505050506040513d601f19601f820116820180604052508101906100b191906100da565b905090565b3660008037600080366000845af43d6000803e8080156100d5573d6000f35b3d6000fd5b6000602082840312156100ec57600080fd5b815173ffffffffffffffffffffffffffffffffffffffff8116811461011057600080fd5b939250505056fea2646970667358221220d475ccdcab8f42bd867688c7fa02ea27105861805ce597e4f351c8600bca34af64736f6c63430008140033a264697066735822122007bf74f749a1739fb571ae19b093e47ae6e92b8a10652f073cf23d61a84871bb64736f6c63430008140033",
  "linkReferences": {},
  "deployedLinkReferences": {}
}