{
  "_format": "hh-sol-artifact-1",
  "contractName": "DecimalDelegationNFT",
  "sourceName": "contracts/DecimalDelegationNFT.sol",
  "abi": [
    {
      "inputs": [
        {
          "internalType": "address",
          "name": "target",
          "type": "address"
        }
      ],
      "name": "AddressEmptyCode",
      "type": "error"
    },
    {
      "inputs": [
        {
          "internalType": "address",
          "name": "implementation",
          "type": "address"
        }
      ],
      "name": "ERC1967InvalidImplementation",
      "type": "error"
    },
    {
      "inputs": [],
      "name": "ERC1967NonPayable",
      "type": "error"
    },
    {
      "inputs": [],
      "name": "FailedInnerCall",
      "type": "error"
    },
    {
      "inputs": [],
      "name": "FrozenStakesQueueIsEmpty",
      "type": "error"
    },
    {
      "inputs": [],
      "name": "InvalidAmount",
      "type": "error"
    },
    {
      "inputs": [],
      "name": "InvalidCollection",
      "type": "error"
    },
    {
      "inputs": [],
      "name": "InvalidFrozenStakeIndex",
      "type": "error"
    },
    {
      "inputs": [],
      "name": "InvalidInitialization",
      "type": "error"
    },
    {
      "inputs": [],
      "name": "InvalidToken",
      "type": "error"
    },
    {
      "inputs": [],
      "name": "InvalidValidator",
      "type": "error"
    },
    {
      "inputs": [],
      "name": "NoPenaltyToApply",
      "type": "error"
    },
    {
      "inputs": [],
      "name": "NotERC1155",
      "type": "error"
    },
    {
      "inputs": [],
      "name": "NotERC721",
      "type": "error"
    },
    {
      "inputs": [],
      "name": "NotInitializing",
      "type": "error"
    },
    {
      "inputs": [],
      "name": "NothingToBurn",
      "type": "error"
    },
    {
      "inputs": [],
      "name": "OnlyNftWithReserveAllowed",
      "type": "error"
    },
    {
      "inputs": [
        {
          "internalType": "address",
          "name": "owner",
          "type": "address"
        }
      ],
      "name": "OwnableInvalidOwner",
      "type": "error"
    },
    {
      "inputs": [
        {
          "internalType": "address",
          "name": "account",
          "type": "address"
        }
      ],
      "name": "OwnableUnauthorizedAccount",
      "type": "error"
    },
    {
      "inputs": [],
      "name": "PenaltyNotCompleted",
      "type": "error"
    },
    {
      "inputs": [],
      "name": "StakeAlreadyUnfrozen",
      "type": "error"
    },
    {
      "inputs": [],
      "name": "TimestampError",
      "type": "error"
    },
    {
      "anonymous": false,
      "inputs": [
        {
          "indexed": false,
          "internalType": "address",
          "name": "validator",
          "type": "address"
        },
        {
          "indexed": false,
          "internalType": "address",
          "name": "token",
          "type": "address"
        },
        {
          "indexed": false,
          "internalType": "enum DecimalDelegationCore.TokenType",
          "name": "tokenType",
          "type": "uint8"
        },
        {
          "indexed": false,
          "internalType": "uint256",
          "name": "tokenId",
          "type": "uint256"
        },
        {
          "indexed": false,
          "internalType": "uint256",
          "name": "penaltyIndex",
          "type": "uint256"
        },
        {
          "indexed": false,
          "internalType": "uint256",
          "name": "penaltyPercentage",
          "type": "uint256"
        }
      ],
      "name": "BurnedPenaltyTokens",
      "type": "event"
    },
    {
      "anonymous": false,
      "inputs": [
        {
          "components": [
            {
              "internalType": "address",
              "name": "validator",
              "type": "address"
            },
            {
              "internalType": "address",
              "name": "delegator",
              "type": "address"
            },
            {
              "internalType": "address",
              "name": "token",
              "type": "address"
            },
            {
              "internalType": "uint256",
              "name": "amount",
              "type": "uint256"
            },
            {
              "internalType": "uint256",
              "name": "tokenId",
              "type": "uint256"
            },
            {
              "internalType": "enum DecimalDelegationCore.TokenType",
              "name": "tokenType",
              "type": "uint8"
            }
          ],
          "indexed": false,
          "internalType": "struct DecimalDelegationCore.Stake",
          "name": "stake",
          "type": "tuple"
        }
      ],
      "name": "CompletedTransfer",
      "type": "event"
    },
    {
      "anonymous": false,
      "inputs": [
        {
          "components": [
            {
              "internalType": "address",
              "name": "validator",
              "type": "address"
            },
            {
              "internalType": "address",
              "name": "delegator",
              "type": "address"
            },
            {
              "internalType": "address",
              "name": "token",
              "type": "address"
            },
            {
              "internalType": "uint256",
              "name": "amount",
              "type": "uint256"
            },
            {
              "internalType": "uint256",
              "name": "tokenId",
              "type": "uint256"
            },
            {
              "internalType": "enum DecimalDelegationCore.TokenType",
              "name": "tokenType",
              "type": "uint8"
            }
          ],
          "indexed": false,
          "internalType": "struct DecimalDelegationCore.Stake",
          "name": "stake",
          "type": "tuple"
        }
      ],
      "name": "CompletedWithdraw",
      "type": "event"
    },
    {
      "anonymous": false,
      "inputs": [
        {
          "indexed": true,
          "internalType": "address",
          "name": "oldContract",
          "type": "address"
        },
        {
          "indexed": true,
          "internalType": "address",
          "name": "newContract",
          "type": "address"
        }
      ],
      "name": "ContractUpgraded",
      "type": "event"
    },
    {
      "anonymous": false,
      "inputs": [
        {
          "indexed": false,
          "internalType": "uint64",
          "name": "version",
          "type": "uint64"
        }
      ],
      "name": "Initialized",
      "type": "event"
    },
    {
      "anonymous": false,
      "inputs": [
        {
          "indexed": true,
          "internalType": "address",
          "name": "previousOwner",
          "type": "address"
        },
        {
          "indexed": true,
          "internalType": "address",
          "name": "newOwner",
          "type": "address"
        }
      ],
      "name": "OwnershipTransferred",
      "type": "event"
    },
    {
      "anonymous": false,
      "inputs": [
        {
          "components": [
            {
              "components": [
                {
                  "internalType": "address",
                  "name": "validator",
                  "type": "address"
                },
                {
                  "internalType": "address",
                  "name": "delegator",
                  "type": "address"
                },
                {
                  "internalType": "address",
                  "name": "token",
                  "type": "address"
                },
                {
                  "internalType": "uint256",
                  "name": "amount",
                  "type": "uint256"
                },
                {
                  "internalType": "uint256",
                  "name": "tokenId",
                  "type": "uint256"
                },
                {
                  "internalType": "enum DecimalDelegationCore.TokenType",
                  "name": "tokenType",
                  "type": "uint8"
                }
              ],
              "internalType": "struct DecimalDelegationCore.Stake",
              "name": "stake",
              "type": "tuple"
            },
            {
              "internalType": "enum DecimalDelegationCore.FreezeType",
              "name": "freezeType",
              "type": "uint8"
            },
            {
              "internalType": "uint256",
              "name": "unfreezeTimestamp",
              "type": "uint256"
            }
          ],
          "indexed": false,
          "internalType": "struct DecimalDelegationCore.FrozenStake",
          "name": "frozenStake",
          "type": "tuple"
        },
        {
          "indexed": false,
          "internalType": "uint256",
          "name": "queueIndex",
          "type": "uint256"
        },
        {
          "indexed": false,
          "internalType": "address",
          "name": "newValidator",
          "type": "address"
        }
      ],
      "name": "RequestTransfer",
      "type": "event"
    },
    {
      "anonymous": false,
      "inputs": [
        {
          "components": [
            {
              "components": [
                {
                  "internalType": "address",
                  "name": "validator",
                  "type": "address"
                },
                {
                  "internalType": "address",
                  "name": "delegator",
                  "type": "address"
                },
                {
                  "internalType": "address",
                  "name": "token",
                  "type": "address"
                },
                {
                  "internalType": "uint256",
                  "name": "amount",
                  "type": "uint256"
                },
                {
                  "internalType": "uint256",
                  "name": "tokenId",
                  "type": "uint256"
                },
                {
                  "internalType": "enum DecimalDelegationCore.TokenType",
                  "name": "tokenType",
                  "type": "uint8"
                }
              ],
              "internalType": "struct DecimalDelegationCore.Stake",
              "name": "stake",
              "type": "tuple"
            },
            {
              "internalType": "enum DecimalDelegationCore.FreezeType",
              "name": "freezeType",
              "type": "uint8"
            },
            {
              "internalType": "uint256",
              "name": "unfreezeTimestamp",
              "type": "uint256"
            }
          ],
          "indexed": false,
          "internalType": "struct DecimalDelegationCore.FrozenStake",
          "name": "frozenStake",
          "type": "tuple"
        },
        {
          "indexed": false,
          "internalType": "uint256",
          "name": "queueIndex",
          "type": "uint256"
        }
      ],
      "name": "RequestWithdraw",
      "type": "event"
    },
    {
      "anonymous": false,
      "inputs": [
        {
          "components": [
            {
              "internalType": "address",
              "name": "validator",
              "type": "address"
            },
            {
              "internalType": "address",
              "name": "delegator",
              "type": "address"
            },
            {
              "internalType": "address",
              "name": "token",
              "type": "address"
            },
            {
              "internalType": "uint256",
              "name": "amount",
              "type": "uint256"
            },
            {
              "internalType": "uint256",
              "name": "tokenId",
              "type": "uint256"
            },
            {
              "internalType": "enum DecimalDelegationCore.TokenType",
              "name": "tokenType",
              "type": "uint8"
            }
          ],
          "indexed": false,
          "internalType": "struct DecimalDelegationCore.Stake",
          "name": "stake",
          "type": "tuple"
        }
      ],
      "name": "Staked",
      "type": "event"
    },
    {
      "anonymous": false,
      "inputs": [
        {
          "indexed": true,
          "internalType": "address",
          "name": "implementation",
          "type": "address"
        }
      ],
      "name": "Upgraded",
      "type": "event"
    },
    {
      "inputs": [
        {
          "internalType": "address",
          "name": "validator",
          "type": "address"
        },
        {
          "internalType": "address",
          "name": "token",
          "type": "address"
        },
        {
          "internalType": "uint256",
          "name": "tokenId",
          "type": "uint256"
        }
      ],
      "name": "burnPenaltyTokens",
      "outputs": [],
      "stateMutability": "nonpayable",
      "type": "function"
    },
    {
      "inputs": [
        {
          "internalType": "address",
          "name": "validator",
          "type": "address"
        }
      ],
      "name": "burnPenaltyTokensValidator",
      "outputs": [],
      "stateMutability": "nonpayable",
      "type": "function"
    },
    {
      "inputs": [],
      "name": "completeQueuedStake",
      "outputs": [],
      "stateMutability": "nonpayable",
      "type": "function"
    },
    {
      "inputs": [
        {
          "internalType": "uint256",
          "name": "index",
          "type": "uint256"
        }
      ],
      "name": "completeStake",
      "outputs": [],
      "stateMutability": "nonpayable",
      "type": "function"
    },
    {
      "inputs": [
        {
          "internalType": "address",
          "name": "validator",
          "type": "address"
        },
        {
          "internalType": "address",
          "name": "nft",
          "type": "address"
        },
        {
          "internalType": "uint256",
          "name": "tokenId",
          "type": "uint256"
        },
        {
          "internalType": "uint256",
          "name": "amount",
          "type": "uint256"
        },
        {
          "internalType": "uint256",
          "name": "deadline",
          "type": "uint256"
        },
        {
          "internalType": "uint8",
          "name": "v",
          "type": "uint8"
        },
        {
          "internalType": "bytes32",
          "name": "r",
          "type": "bytes32"
        },
        {
          "internalType": "bytes32",
          "name": "s",
          "type": "bytes32"
        }
      ],
      "name": "delegateByPermitERC1155",
      "outputs": [],
      "stateMutability": "nonpayable",
      "type": "function"
    },
    {
      "inputs": [
        {
          "internalType": "address",
          "name": "validator",
          "type": "address"
        },
        {
          "internalType": "address",
          "name": "nft",
          "type": "address"
        },
        {
          "internalType": "uint256",
          "name": "tokenId",
          "type": "uint256"
        },
        {
          "internalType": "uint256",
          "name": "deadline",
          "type": "uint256"
        },
        {
          "internalType": "uint8",
          "name": "v",
          "type": "uint8"
        },
        {
          "internalType": "bytes32",
          "name": "r",
          "type": "bytes32"
        },
        {
          "internalType": "bytes32",
          "name": "s",
          "type": "bytes32"
        }
      ],
      "name": "delegateByPermitERC721",
      "outputs": [],
      "stateMutability": "nonpayable",
      "type": "function"
    },
    {
      "inputs": [
        {
          "internalType": "address",
          "name": "validator",
          "type": "address"
        },
        {
          "internalType": "address",
          "name": "nft",
          "type": "address"
        },
        {
          "internalType": "uint256",
          "name": "tokenId",
          "type": "uint256"
        },
        {
          "internalType": "uint256",
          "name": "amount",
          "type": "uint256"
        }
      ],
      "name": "delegateERC1155",
      "outputs": [],
      "stateMutability": "nonpayable",
      "type": "function"
    },
    {
      "inputs": [
        {
          "internalType": "address",
          "name": "validator",
          "type": "address"
        },
        {
          "internalType": "address",
          "name": "nft",
          "type": "address"
        },
        {
          "internalType": "uint256",
          "name": "tokenId",
          "type": "uint256"
        }
      ],
      "name": "delegateERC721",
      "outputs": [],
      "stateMutability": "nonpayable",
      "type": "function"
    },
    {
      "inputs": [],
      "name": "getContractCenter",
      "outputs": [
        {
          "internalType": "address",
          "name": "",
          "type": "address"
        }
      ],
      "stateMutability": "view",
      "type": "function"
    },
    {
      "inputs": [
        {
          "internalType": "enum DecimalDelegationCore.FreezeType",
          "name": "freezeType",
          "type": "uint8"
        }
      ],
      "name": "getFreezeTime",
      "outputs": [
        {
          "internalType": "uint256",
          "name": "",
          "type": "uint256"
        }
      ],
      "stateMutability": "view",
      "type": "function"
    },
    {
      "inputs": [],
      "name": "getFrozenStakesQueue",
      "outputs": [
        {
          "components": [
            {
              "components": [
                {
                  "internalType": "address",
                  "name": "validator",
                  "type": "address"
                },
                {
                  "internalType": "address",
                  "name": "delegator",
                  "type": "address"
                },
                {
                  "internalType": "address",
                  "name": "token",
                  "type": "address"
                },
                {
                  "internalType": "uint256",
                  "name": "amount",
                  "type": "uint256"
                },
                {
                  "internalType": "uint256",
                  "name": "tokenId",
                  "type": "uint256"
                },
                {
                  "internalType": "enum DecimalDelegationCore.TokenType",
                  "name": "tokenType",
                  "type": "uint8"
                }
              ],
              "internalType": "struct DecimalDelegationCore.Stake",
              "name": "stake",
              "type": "tuple"
            },
            {
              "internalType": "enum DecimalDelegationCore.FreezeType",
              "name": "freezeType",
              "type": "uint8"
            },
            {
              "internalType": "uint256",
              "name": "unfreezeTimestamp",
              "type": "uint256"
            }
          ],
          "internalType": "struct DecimalDelegationCore.FrozenStake[]",
          "name": "",
          "type": "tuple[]"
        }
      ],
      "stateMutability": "view",
      "type": "function"
    },
    {
      "inputs": [
        {
          "internalType": "address",
          "name": "validator",
          "type": "address"
        },
        {
          "internalType": "address",
          "name": "delegator",
          "type": "address"
        },
        {
          "internalType": "address",
          "name": "token",
          "type": "address"
        },
        {
          "internalType": "uint256",
          "name": "tokenId",
          "type": "uint256"
        }
      ],
      "name": "getStake",
      "outputs": [
        {
          "components": [
            {
              "internalType": "address",
              "name": "validator",
              "type": "address"
            },
            {
              "internalType": "address",
              "name": "delegator",
              "type": "address"
            },
            {
              "internalType": "address",
              "name": "token",
              "type": "address"
            },
            {
              "internalType": "uint256",
              "name": "amount",
              "type": "uint256"
            },
            {
              "internalType": "uint256",
              "name": "tokenId",
              "type": "uint256"
            },
            {
              "internalType": "enum DecimalDelegationCore.TokenType",
              "name": "tokenType",
              "type": "uint8"
            }
          ],
          "internalType": "struct DecimalDelegationCore.Stake",
          "name": "",
          "type": "tuple"
        }
      ],
      "stateMutability": "view",
      "type": "function"
    },
    {
      "inputs": [
        {
          "internalType": "address",
          "name": "member",
          "type": "address"
        }
      ],
      "name": "getStakesByMember",
      "outputs": [
        {
          "components": [
            {
              "internalType": "address",
              "name": "validator",
              "type": "address"
            },
            {
              "internalType": "address",
              "name": "delegator",
              "type": "address"
            },
            {
              "internalType": "address",
              "name": "token",
              "type": "address"
            },
            {
              "internalType": "uint256",
              "name": "amount",
              "type": "uint256"
            },
            {
              "internalType": "uint256",
              "name": "tokenId",
              "type": "uint256"
            },
            {
              "internalType": "enum DecimalDelegationCore.TokenType",
              "name": "tokenType",
              "type": "uint8"
            }
          ],
          "internalType": "struct DecimalDelegationCore.Stake[]",
          "name": "stakes",
          "type": "tuple[]"
        }
      ],
      "stateMutability": "view",
      "type": "function"
    },
    {
      "inputs": [
        {
          "internalType": "address",
          "name": "member",
          "type": "address"
        },
        {
          "internalType": "uint256",
          "name": "size",
          "type": "uint256"
        },
        {
          "internalType": "uint256",
          "name": "offset",
          "type": "uint256"
        }
      ],
      "name": "getStakesPageByMember",
      "outputs": [
        {
          "components": [
            {
              "internalType": "address",
              "name": "validator",
              "type": "address"
            },
            {
              "internalType": "address",
              "name": "delegator",
              "type": "address"
            },
            {
              "internalType": "address",
              "name": "token",
              "type": "address"
            },
            {
              "internalType": "uint256",
              "name": "amount",
              "type": "uint256"
            },
            {
              "internalType": "uint256",
              "name": "tokenId",
              "type": "uint256"
            },
            {
              "internalType": "enum DecimalDelegationCore.TokenType",
              "name": "tokenType",
              "type": "uint8"
            }
          ],
          "internalType": "struct DecimalDelegationCore.Stake[]",
          "name": "stakes",
          "type": "tuple[]"
        },
        {
          "internalType": "uint256",
          "name": "newOffset",
          "type": "uint256"
        }
      ],
      "stateMutability": "view",
      "type": "function"
    },
    {
      "inputs": [
        {
          "internalType": "address",
          "name": "validator",
          "type": "address"
        },
        {
          "internalType": "address",
          "name": "token",
          "type": "address"
        },
        {
          "internalType": "uint256",
          "name": "tokenId",
          "type": "uint256"
        }
      ],
      "name": "getValidatorApplyedPenaltyIndex",
      "outputs": [
        {
          "internalType": "uint256",
          "name": "",
          "type": "uint256"
        }
      ],
      "stateMutability": "view",
      "type": "function"
    },
    {
      "inputs": [
        {
          "internalType": "address",
          "name": "validator",
          "type": "address"
        },
        {
          "internalType": "address",
          "name": "token",
          "type": "address"
        },
        {
          "internalType": "uint256",
          "name": "tokenId",
          "type": "uint256"
        }
      ],
      "name": "getValidatorReserve",
      "outputs": [
        {
          "internalType": "uint256",
          "name": "",
          "type": "uint256"
        }
      ],
      "stateMutability": "view",
      "type": "function"
    },
    {
      "inputs": [],
      "name": "isFrozenStakesQueueReady",
      "outputs": [
        {
          "internalType": "bool",
          "name": "",
          "type": "bool"
        }
      ],
      "stateMutability": "view",
      "type": "function"
    },
    {
      "inputs": [
        {
          "internalType": "address",
          "name": "",
          "type": "address"
        },
        {
          "internalType": "address",
          "name": "",
          "type": "address"
        },
        {
          "internalType": "uint256[]",
          "name": "",
          "type": "uint256[]"
        },
        {
          "internalType": "uint256[]",
          "name": "",
          "type": "uint256[]"
        },
        {
          "internalType": "bytes",
          "name": "",
          "type": "bytes"
        }
      ],
      "name": "onERC1155BatchReceived",
      "outputs": [
        {
          "internalType": "bytes4",
          "name": "",
          "type": "bytes4"
        }
      ],
      "stateMutability": "nonpayable",
      "type": "function"
    },
    {
      "inputs": [
        {
          "internalType": "address",
          "name": "",
          "type": "address"
        },
        {
          "internalType": "address",
          "name": "",
          "type": "address"
        },
        {
          "internalType": "uint256",
          "name": "",
          "type": "uint256"
        },
        {
          "internalType": "uint256",
          "name": "",
          "type": "uint256"
        },
        {
          "internalType": "bytes",
          "name": "",
          "type": "bytes"
        }
      ],
      "name": "onERC1155Received",
      "outputs": [
        {
          "internalType": "bytes4",
          "name": "",
          "type": "bytes4"
        }
      ],
      "stateMutability": "nonpayable",
      "type": "function"
    },
    {
      "inputs": [
        {
          "internalType": "address",
          "name": "",
          "type": "address"
        },
        {
          "internalType": "address",
          "name": "",
          "type": "address"
        },
        {
          "internalType": "uint256",
          "name": "",
          "type": "uint256"
        },
        {
          "internalType": "bytes",
          "name": "",
          "type": "bytes"
        }
      ],
      "name": "onERC721Received",
      "outputs": [
        {
          "internalType": "bytes4",
          "name": "",
          "type": "bytes4"
        }
      ],
      "stateMutability": "nonpayable",
      "type": "function"
    },
    {
      "inputs": [],
      "name": "owner",
      "outputs": [
        {
          "internalType": "address",
          "name": "",
          "type": "address"
        }
      ],
      "stateMutability": "view",
      "type": "function"
    },
    {
      "inputs": [],
      "name": "renounceOwnership",
      "outputs": [],
      "stateMutability": "nonpayable",
      "type": "function"
    },
    {
      "inputs": [
        {
          "internalType": "address",
          "name": "contractCenter",
          "type": "address"
        }
      ],
      "name": "setContractCenter",
      "outputs": [],
      "stateMutability": "nonpayable",
      "type": "function"
    },
    {
      "inputs": [
        {
          "internalType": "bytes4",
          "name": "interfaceId",
          "type": "bytes4"
        }
      ],
      "name": "supportsInterface",
      "outputs": [
        {
          "internalType": "bool",
          "name": "",
          "type": "bool"
        }
      ],
      "stateMutability": "view",
      "type": "function"
    },
    {
      "inputs": [
        {
          "internalType": "address",
          "name": "validator",
          "type": "address"
        },
        {
          "internalType": "address",
          "name": "nft",
          "type": "address"
        },
        {
          "internalType": "uint256",
          "name": "tokenId",
          "type": "uint256"
        },
        {
          "internalType": "uint256",
          "name": "amount",
          "type": "uint256"
        },
        {
          "internalType": "address",
          "name": "newValidator",
          "type": "address"
        }
      ],
      "name": "transferERC1155",
      "outputs": [],
      "stateMutability": "nonpayable",
      "type": "function"
    },
    {
      "inputs": [
        {
          "internalType": "address",
          "name": "validator",
          "type": "address"
        },
        {
          "internalType": "address",
          "name": "nft",
          "type": "address"
        },
        {
          "internalType": "uint256",
          "name": "tokenId",
          "type": "uint256"
        },
        {
          "internalType": "address",
          "name": "newValidator",
          "type": "address"
        }
      ],
      "name": "transferERC721",
      "outputs": [],
      "stateMutability": "nonpayable",
      "type": "function"
    },
    {
      "inputs": [
        {
          "internalType": "address",
          "name": "newOwner",
          "type": "address"
        }
      ],
      "name": "transferOwnership",
      "outputs": [],
      "stateMutability": "nonpayable",
      "type": "function"
    },
    {
      "inputs": [
        {
          "internalType": "address",
          "name": "newImplementation",
          "type": "address"
        }
      ],
      "name": "upgrade",
      "outputs": [],
      "stateMutability": "nonpayable",
      "type": "function"
    },
    {
      "inputs": [
        {
          "internalType": "address",
          "name": "newImplementation",
          "type": "address"
        },
        {
          "internalType": "bytes",
          "name": "data",
          "type": "bytes"
        }
      ],
      "name": "upgrade",
      "outputs": [],
      "stateMutability": "nonpayable",
      "type": "function"
    },
    {
      "inputs": [
        {
          "internalType": "address",
          "name": "validator",
          "type": "address"
        },
        {
          "internalType": "address",
          "name": "nft",
          "type": "address"
        },
        {
          "internalType": "uint256",
          "name": "tokenId",
          "type": "uint256"
        },
        {
          "internalType": "uint256",
          "name": "amount",
          "type": "uint256"
        }
      ],
      "name": "withdrawERC1155",
      "outputs": [],
      "stateMutability": "nonpayable",
      "type": "function"
    },
    {
      "inputs": [
        {
          "internalType": "address",
          "name": "validator",
          "type": "address"
        },
        {
          "internalType": "address",
          "name": "nft",
          "type": "address"
        },
        {
          "internalType": "uint256",
          "name": "tokenId",
          "type": "uint256"
        }
      ],
      "name": "withdrawERC721",
      "outputs": [],
      "stateMutability": "nonpayable",
      "type": "function"
    },
    {
      "stateMutability": "payable",
      "type": "receive"
    }
  ],
  "bytecode": "0x608060405234801561001057600080fd5b50613bcb806100206000396000f3fe6080604052600436106101dc5760003560e01c8063715018a611610102578063ba778bce11610095578063d4a0aa4e11610064578063d4a0aa4e146105cc578063da1e41b2146105ec578063f23a6e611461060c578063f2fde38b1461063857600080fd5b8063ba778bce1461054b578063bc197c8114610560578063c987336c1461058c578063d441f9e0146105ac57600080fd5b80638ea9c3f4116100d15780638ea9c3f4146104d4578063a0edb48b146104f4578063a16993a014610514578063b53b3c661461053657600080fd5b8063715018a6146104205780637ac6deb91461043557806387fe0784146104635780638da5cb5b1461048357600080fd5b806320af2fe51161017a5780634025feb2116101495780634025feb2146103a0578063444d7d77146103c057806345a9198e146103e05780635fb599d41461040057600080fd5b806320af2fe5146103135780632e5d7bb714610333578063347406a214610353578063365788051461038057600080fd5b80630ef69085116101b65780630ef690851461026d57806310ed5fd91461029a578063150b7a02146102af57806315a32172146102f357600080fd5b806301ffc9a7146101e85780630900f0101461021d5780630e08def31461023f57600080fd5b366101e357005b600080fd5b3480156101f457600080fd5b5061020861020336600461309b565b610658565b60405190151581526020015b60405180910390f35b34801561022957600080fd5b5061023d6102383660046130da565b61068f565b005b34801561024b57600080fd5b5061025f61025a3660046130f7565b6106b3565b604051908152602001610214565b34801561027957600080fd5b5061028d6102883660046130da565b6106fb565b60405161021491906131e4565b3480156102a657600080fd5b5061023d610774565b3480156102bb57600080fd5b506102da6102ca3660046132ae565b630a85bd0160e11b949350505050565b6040516001600160e01b03199091168152602001610214565b3480156102ff57600080fd5b5061023d61030e366004613330565b6107e9565b34801561031f57600080fd5b5061025f61032e3660046133a8565b61087c565b34801561033f57600080fd5b5061023d61034e3660046133e9565b61089b565b34801561035f57600080fd5b5061037361036e36600461342f565b6108ad565b6040516102149190613480565b34801561038c57600080fd5b5061023d61039b3660046133a8565b6108ca565b3480156103ac57600080fd5b5061023d6103bb3660046133a8565b6108f7565b3480156103cc57600080fd5b5061025f6103db3660046133a8565b610a3c565b3480156103ec57600080fd5b5061023d6103fb3660046133a8565b610a86565b34801561040c57600080fd5b5061023d61041b3660046130da565b610a96565b34801561042c57600080fd5b5061023d610ac8565b34801561044157600080fd5b5061045561045036600461348e565b610adc565b6040516102149291906134c3565b34801561046f57600080fd5b5061023d61047e3660046134e5565b610b66565b34801561048f57600080fd5b507f9016d09d72d40fdae2fd8ceac6b6234c7706214fd39c1cd1e609a0528c199300546001600160a01b03165b6040516001600160a01b039091168152602001610214565b3480156104e057600080fd5b5061023d6104ef3660046134fe565b610bfd565b34801561050057600080fd5b5061023d61050f3660046133e9565b610d51565b34801561052057600080fd5b50610529610e97565b6040516102149190613587565b34801561054257600080fd5b50610208610fbb565b34801561055757600080fd5b506104bc61115c565b34801561056c57600080fd5b506102da61057b366004613665565b63bc197c8160e01b95945050505050565b34801561059857600080fd5b5061023d6105a7366004613713565b611175565b3480156105b857600080fd5b5061023d6105c7366004613763565b6111d8565b3480156105d857600080fd5b5061023d6105e73660046130da565b6112e9565b3480156105f857600080fd5b5061023d6106073660046137b6565b61147c565b34801561061857600080fd5b506102da610627366004613824565b63f23a6e6160e01b95945050505050565b34801561064457600080fd5b5061023d6106533660046130da565b61150e565b60006001600160e01b03198216630271189760e51b148061068957506301ffc9a760e01b6001600160e01b03198316145b92915050565b61069761154e565b6106b08160405180602001604052806000815250611175565b50565b60006106bd6115a9565b60060160008360038111156106d4576106d4613118565b60038111156106e5576106e5613118565b8152602001908152602001600020549050919050565b60606106896107086115a9565b6001600160a01b038416600090815260049190910160209081526040918290208054835181840281018401909452808452909183018282801561076a57602002820191906000526020600020905b815481526020019060010190808311610756575b50505050506115cd565b600061077e611722565b905060028160200151600381111561079857610798613118565b036107a85780516106b090611984565b6001816020015160038111156107c0576107c0613118565b036107d05780516106b0906119c7565b60405163c47913bb60e01b815260040160405180910390fd5b60405163090c278560e31b81523360048201523060248201526044810185905260ff841660648201526084810183905260a481018290526001600160a01b038816906348613c289060c401600060405180830381600087803b15801561084e57600080fd5b505af1158015610862573d6000803e3d6000fd5b5050505061087288888888611aef565b5050505050505050565b60006108918461088c8585611c49565b611c90565b90505b9392505050565b6108a784848484611aef565b50505050565b6108b5613041565b6108c185858585611cca565b95945050505050565b60006108d7848484611d87565b9050806108a757604051634c3215c360e11b815260040160405180910390fd5b6000610907848484600180611fd9565b905060006109136115a9565b60020180546040519192507f5270432af753e1fad4ee5b57adab1346943d92819db1f011e836717cded43e5f9161094b91859161388d565b60405180910390a1805460018082018355600083815260209081902085518051600890950290910180546001600160a01b03199081166001600160a01b039687161782559282015181850180548516918716919091179055604082015160028201805490941695169490941790915560608101516003808501919091556080820151600485015560a0820151600585018054889695869460ff199092169184908111156109fa576109fa613118565b02179055505050602082015160068201805460ff19166001836003811115610a2457610a24613118565b02179055506040820151816007015550505050505050565b6000610a466115a9565b6001600160a01b03851660009081526007919091016020526040812090610a6d8585611c49565b8152602081019190915260400160002054949350505050565b610a9183838361223d565b505050565b610a9e61154e565b80610aa76115a9565b80546001600160a01b0319166001600160a01b039290921691909117905550565b610ad061154e565b610ada600061239a565b565b60606000610b59610aeb6115a9565b6001600160a01b0387166000908152600491909101602090815260409182902080548351818402810184019094528084529091830182828015610b4d57602002820191906000526020600020905b815481526020019060010190808311610b39575b5050505050858561240b565b915091505b935093915050565b6000610b71826125a9565b9050600281602001516003811115610b8b57610b8b613118565b03610b9f578051610b9b90611984565b5050565b600181602001516003811115610bb757610bb7613118565b03610bc7578051610b9b906119c7565b600381602001516003811115610bdf57610bdf613118565b036107d057604051633fe4f64f60e01b815260040160405180910390fd5b6000610c0d868686866002611fd9565b90506000610c196115a9565b60020180546040519192507f71c08af8a16d12009234d409e83acfb9777a45c0e230179ec6d8203622049b8f91610c5391859187906138aa565b60405180910390a181516001600160a01b03808516909152815460018181018455600084815260209081902086518051600890950290910180549486166001600160a01b031995861617815591810151828401805491871691861691909117905560408101516002830180549190961694169390931790935560608201516003808501919091556080830151600485015560a083015160058501805488969594869460ff19909216918490811115610d0d57610d0d613118565b02179055505050602082015160068201805460ff19166001836003811115610d3757610d37613118565b021790555060408201518160070155505050505050505050565b6000610d61858585856001611fd9565b90506000610d6d6115a9565b60020180546040519192507f5270432af753e1fad4ee5b57adab1346943d92819db1f011e836717cded43e5f91610da591859161388d565b60405180910390a1805460018082018355600083815260209081902085518051600890950290910180546001600160a01b03199081166001600160a01b039687161782559282015181850180548516918716919091179055604082015160028201805490941695169490941790915560608101516003808501919091556080820151600485015560a0820151600585018054889695869460ff19909216918490811115610e5457610e54613118565b02179055505050602082015160068201805460ff19166001836003811115610e7e57610e7e613118565b0217905550604082015181600701555050505050505050565b6060610ea16115a9565b600201805480602002602001604051908101604052809291908181526020016000905b82821015610fb2576000848152602090206040805161012081019091526008840290910180546001600160a01b0390811660608401908152600183015482166080850152600283015490911660a084015260038083015460c0850152600483015460e08501526005830154849291849161010085019160ff90911690811115610f4f57610f4f613118565b6003811115610f6057610f60613118565b9052508152600682015460209091019060ff166003811115610f8457610f84613118565b6003811115610f9557610f95613118565b815260200160078201548152505081526020019060010190610ec4565b50505050905090565b600080610fc66115a9565b9050600081600201805480602002602001604051908101604052809291908181526020016000905b828210156110dc576000848152602090206040805161012081019091526008840290910180546001600160a01b0390811660608401908152600183015482166080850152600283015490911660a084015260038083015460c0850152600483015460e08501526005830154849291849161010085019160ff9091169081111561107957611079613118565b600381111561108a5761108a613118565b9052508152600682015460209091019060ff1660038111156110ae576110ae613118565b60038111156110bf576110bf613118565b815260200160078201548152505081526020019060010190610fee565b50505050905081600501548151036110f75760009250505090565b60008183600501548151811061110f5761110f6138da565b60200260200101519050600081604001514210159050600082604001516000141590506000856005015485511190508280156111485750815b80156111515750805b965050505050505090565b60006111666115a9565b546001600160a01b0316919050565b61117d61154e565b60006111876127a1565b905061119383836127c9565b826001600160a01b0316816001600160a01b03167f2e4cc16c100f0b55e2df82ab0b1a7e294aa9cbd01b48fbaf622683fbc0507a4960405160405180910390a3505050565b60006111e985858560016002611fd9565b905060006111f56115a9565b60020180546040519192507f71c08af8a16d12009234d409e83acfb9777a45c0e230179ec6d8203622049b8f9161122f91859187906138aa565b60405180910390a181516001600160a01b03808516909152815460018181018455600084815260209081902086518051600890950290910180549486166001600160a01b031995861617815591810151828401805491871691861691909117905560408101516002830180549190961694169390931790935560608201516003808501919091556080830151600485015560a083015160058501805488969594869460ff19909216918490811115610e5457610e54613118565b60006112f36115a9565b6001600160a01b038316600090815260048201602090815260408083208054825181850281018501909352808352949550929390929183018282801561135857602002820191906000526020600020905b815481526020019060010190808311611344575b505050505090506000805b825181101561145d576000846001016000858481518110611386576113866138da565b6020908102919091018101518252818101929092526040908101600020815160c08101835281546001600160a01b0390811682526001830154811694820194909452600282015490931691830191909152600380820154606084015260048201546080840152600582015460a084019160ff9091169081111561140b5761140b613118565b600381111561141c5761141c613118565b815250509050600061143b826000015183604001518460800151611d87565b9050801561144857600193505b506114569050600182613906565b9050611363565b50806108a757604051634c3215c360e11b815260040160405180910390fd5b604051637ac2ff7b60e01b8152306004820152602481018690526044810185905260ff841660648201526084810183905260a481018290526001600160a01b03871690637ac2ff7b9060c401600060405180830381600087803b1580156114e257600080fd5b505af11580156114f6573d6000803e3d6000fd5b5050505061150587878761223d565b50505050505050565b61151661154e565b6001600160a01b03811661154557604051631e4fbdf760e01b8152600060048201526024015b60405180910390fd5b6106b08161239a565b336115807f9016d09d72d40fdae2fd8ceac6b6234c7706214fd39c1cd1e609a0528c199300546001600160a01b031690565b6001600160a01b031614610ada5760405163118cdaa760e01b815233600482015260240161153c565b7f243df89714896ed004edb3fe856e04c442b8ae95695caca0a7be343fa852840090565b6060815167ffffffffffffffff8111156115e9576115e96131f7565b60405190808252806020026020018201604052801561162257816020015b61160f613041565b8152602001906001900390816116075790505b50905060005b825181101561171c576000838281518110611645576116456138da565b602002602001015190506116576115a9565b600082815260019182016020908152604091829020825160c08101845281546001600160a01b03908116825294820154851692810192909252600281015490931691810191909152600380830154606083015260048301546080830152600583015491929160a084019160ff909116908111156116d6576116d6613118565b60038111156116e7576116e7613118565b815250508383815181106116fd576116fd6138da565b602002602001018190525050808061171490613919565b915050611628565b50919050565b61172a613074565b60006117346115a9565b60058101546002820154919250908181101561176357604051639f45bf2d60e01b815260040160405180910390fd5b61176b613074565b611776600183613932565b83116118e857836002018381548110611791576117916138da565b6000918252602090912060408051610120810190915260089092020180546001600160a01b0390811660608401908152600183015482166080850152600283015490911660a084015260038083015460c0850152600483015460e08501526005830154849291849161010085019160ff9091169081111561181457611814613118565b600381111561182557611825613118565b9052508152600682015460209091019060ff16600381111561184957611849613118565b600381111561185a5761185a613118565b815260079190910154602090910152905060038160200151600381111561188357611883613118565b146118d657600384600201848154811061189f5761189f6138da565b60009182526020909120600660089092020101805460ff191660018360038111156118cc576118cc613118565b02179055506118e8565b6118e1600184613906565b925061176b565b600060038260200151600381111561190257611902613118565b14158015611926575060008260200151600381111561192357611923613118565b14155b90508061194657604051639f45bf2d60e01b815260040160405180910390fd5b611953826040015161281f565b60058501546119629085613932565b8560050160008282546119759190613906565b90915550919695505050505050565b61198d81612849565b7f72dd96b2d4a3fbcb74b7c23021334cc0972733a1319897f15060bc75140cf917816040516119bc9190613480565b60405180910390a150565b60028160a0015160038111156119df576119df613118565b03611a6157604080820151602083015160808401519251632142170760e11b81523060048201526001600160a01b039182166024820152604481019390935216906342842e0e906064015b600060405180830381600087803b158015611a4457600080fd5b505af1158015611a58573d6000803e3d6000fd5b50505050611ac0565b60038160a001516003811115611a7957611a79613118565b036101e35780604001516001600160a01b031663f242432a308360200151846080015185606001516040518563ffffffff1660e01b8152600401611a2a9493929190613945565b7f28dafdf5b503ceabf61aabf35f4a86330c6882dee105d4e073a300fdff8a8991816040516119bc9190613480565b611af88461286a565b611b1557604051631a0a9b9f60e21b815260040160405180910390fd5b6000611b20846128e0565b8051909150611b425760405163517172a160e11b815260040160405180910390fd5b600181602001516001811115611b5a57611b5a613118565b14611b7857604051631a69408960e11b815260040160405180910390fd5b604051637921219560e11b81526001600160a01b0385169063f242432a90611baa903390309088908890600401613945565b600060405180830381600087803b158015611bc457600080fd5b505af1158015611bd8573d6000803e3d6000fd5b5050505060006040518060c00160405280876001600160a01b03168152602001336001600160a01b03168152602001866001600160a01b03168152602001848152602001858152602001600380811115611c3457611c34613118565b90529050611c4181612849565b505050505050565b6040516bffffffffffffffffffffffff19606084901b1660208201526034810182905260009060540160405160208183030381529060405280519060200120905092915050565b6000611c9a6115a9565b6001600160a01b039390931660009081526007909301602090815260408085209385529290525090206001015490565b611cd2613041565b6000611ce086868686612967565b9050611cea6115a9565b600082815260019182016020908152604091829020825160c08101845281546001600160a01b03908116825294820154851692810192909252600281015490931691810191909152600380830154606083015260048301546080830152600583015491929160a084019160ff90911690811115611d6957611d69613118565b6003811115611d7a57611d7a613118565b9052509695505050505050565b600080611d926115a9565b90506000611da08585611c49565b6001600160a01b038716600090815260078401602090815260408083208484529091528120919250611dd1886129c4565b825460018401548251929350909182148015611df7576000975050505050505050610894565b6000611e028b6128e0565b602001519050600080826001811115611e1d57611e1d613118565b14611e29576003611e2c565b60025b90505b8551851015611fc3578315611fb1576000868681518110611e5257611e526138da565b602002602001015161ffff16905060026003811115611e7357611e73613118565b826003811115611e8557611e85613118565b03611eec576040516351cdb77b60e01b8152600481018d9052602481018290526001600160a01b038e16906351cdb77b90604401600060405180830381600087803b158015611ed357600080fd5b505af1158015611ee7573d6000803e3d6000fd5b505050505b6003826003811115611f0057611f00613118565b03611f6e576040516306bf0d2160e11b8152600481018d905260248101869052604481018290526001600160a01b038e1690630d7e1a4290606401600060405180830381600087803b158015611f5557600080fd5b505af1158015611f69573d6000803e3d6000fd5b505050505b7fe36cfa2553894acb94ae0b3452ca38513eedcb2a435bc6fff8f39d8ed42c705e8e8e848f8a86604051611fa79695949392919061397d565b60405180910390a1505b611fbc600186613906565b9450611e2f565b5050925190935550600198975050505050505050565b611fe1613074565b611fec868686611d87565b506000611ff76115a9565b9050600061200788338989612967565b600081815260038085016020908152604080842060018089018452828620835160c08101855281546001600160a01b03908116825292820154831695810195909552600281015490911692840192909252818401546060840152600482015460808401526005820154959650949192909160a084019160ff9091169081111561209257612092613118565b60038111156120a3576120a3613118565b905250905060006120b48a8a611c49565b6001600160a01b038c16600090815260078701602090815260408083208484529091529020600101546060840151919250891115908911801590806120f7575081155b156121155760405163162908e360e11b815260040160405180910390fd5b6000868152600188016020526040812060030180548c9290612138908490613932565b90915550506001600160a01b038d1660009081526007880160209081526040808320868452909152812060010180548c9290612175908490613932565b909155505060008681526001880160205260409020600301541580156121de57855460ff19168655600160008181526002880160205260409020546121bb913390612a3e565b6121de6002878101906000908152602001908152602001600020548f6002612a3e565b60006121e98b6106b3565b6121f39042613906565b90508b86606001818152505060405180606001604052808781526020018c600381111561222257612222613118565b8152602001919091529e9d5050505050505050505050505050565b6122468361286a565b61226357604051631a0a9b9f60e21b815260040160405180910390fd5b600061226e836128e0565b80519091506122905760405163517172a160e11b815260040160405180910390fd5b6000816020015160018111156122a8576122a8613118565b146122c657604051635444e56f60e01b815260040160405180910390fd5b604051632142170760e11b8152336004820152306024820152604481018390526001600160a01b038416906342842e0e90606401600060405180830381600087803b15801561231457600080fd5b505af1158015612328573d6000803e3d6000fd5b5050505060006040518060c00160405280866001600160a01b03168152602001336001600160a01b03168152602001856001600160a01b03168152602001600181526020018481526020016002600381111561238657612386613118565b9052905061239381612849565b5050505050565b7f9016d09d72d40fdae2fd8ceac6b6234c7706214fd39c1cd1e609a0528c19930080546001600160a01b031981166001600160a01b03848116918217845560405192169182907f8be0079c531659141344cd1fd0a4f28419497f9722a3daafe3b4186f6b6457e090600090a3505050565b606060008451831061241f57508351610b5e565b600083865161242e9190613932565b90508085111561243c578094505b8467ffffffffffffffff811115612455576124556131f7565b60405190808252806020026020018201604052801561248e57816020015b61247b613041565b8152602001906001900390816124735790505b50925060005b85811015612590576000876124a98784613906565b815181106124b9576124b96138da565b602002602001015190506124cb6115a9565b600082815260019182016020908152604091829020825160c08101845281546001600160a01b03908116825294820154851692810192909252600281015490931691810191909152600380830154606083015260048301546080830152600583015491929160a084019160ff9091169081111561254a5761254a613118565b600381111561255b5761255b613118565b81525050858381518110612571576125716138da565b602002602001018190525050808061258890613919565b915050612494565b508261259c8686613906565b9250925050935093915050565b6125b1613074565b60006125bb6115a9565b600581015490915083118015906125e557604051633fe4f64f60e01b815260040160405180910390fd5b60028201546000906125f990600190613932565b85119050801561261c5760405163c47913bb60e01b815260040160405180910390fd5b6000836002018681548110612633576126336138da565b6000918252602090912060408051610120810190915260089092020180546001600160a01b0390811660608401908152600183015482166080850152600283015490911660a084015260038083015460c0850152600483015460e08501526005830154849291849161010085019160ff909116908111156126b6576126b6613118565b60038111156126c7576126c7613118565b9052508152600682015460209091019060ff1660038111156126eb576126eb613118565b60038111156126fc576126fc613118565b81526020016007820154815250509050612719816040015161281f565b60038160200151600381111561273157612731613118565b0361274f57604051633fe4f64f60e01b815260040160405180910390fd5b6003846002018781548110612766576127666138da565b60009182526020909120600660089092020101805460ff1916600183600381111561279357612793613118565b021790555095945050505050565b60007f360894a13ba1a3210667c828492db98dca3e2076cc3735a920a3ca505d382bbc611166565b6127d282612b67565b6040516001600160a01b038316907fbc7cd75a20ee27fd9adebab32041f755214dbc6bffa90cc0225b39da2e5c2d3b90600090a280511561281757610a918282612bc4565b610b9b612c31565b4281118061282b575080155b156106b057604051632d50c33b60e01b815260040160405180910390fd5b612860816000015182604001518360800151611d87565b506106b081612c50565b6000612874612ec0565b604051639f8a13d760e01b81526001600160a01b0384811660048301529190911690639f8a13d790602401602060405180830381865afa1580156128bc573d6000803e3d6000fd5b505050506040513d601f19601f8201168201806040525081019061068991906139d1565b60408051808201909152600080825260208201526128fc612ef8565b604051631ba075b560e31b81526001600160a01b038481166004830152919091169063dd03ada8906024016040805180830381865afa158015612943573d6000803e3d6000fd5b505050506040513d601f19601f8201168201806040525081019061068991906139ec565b6040516bffffffffffffffffffffffff19606086811b8216602084015285811b8216603484015284901b166048820152605c8101829052600090607c01604051602081830303815290604052805190602001209050949350505050565b60606129ce612ec0565b604051636dd6f5d160e01b81526001600160a01b0384811660048301529190911690636dd6f5d190602401600060405180830381865afa158015612a16573d6000803e3d6000fd5b505050506040513d6000823e601f3d908101601f191682016040526106899190810190613a4d565b6000612a486115a9565b6001600160a01b03841660009081526004820160205260408120805492935091612a7490600190613932565b825490871491506001808214916000918591612a909190613932565b81548110612aa057612aa06138da565b9060005260206000200154905060008280612ab85750835b905084805480612aca57612aca613aef565b600190038181906000526020600020016000905590558015612af157505050505050505050565b600082815260038701602052604081208a916002918201918a90811115612b1a57612b1a613118565b6002811115612b2b57612b2b613118565b81526020019081526020016000208190555081858a81548110612b5057612b506138da565b600091825260209091200155505050505050505050565b806001600160a01b03163b600003612b9d57604051634c9c8ce360e01b81526001600160a01b038216600482015260240161153c565b807f360894a13ba1a3210667c828492db98dca3e2076cc3735a920a3ca505d382bbc610aa7565b6060600080846001600160a01b031684604051612be19190613b29565b600060405180830381855af49150503d8060008114612c1c576040519150601f19603f3d011682016040523d82523d6000602084013e612c21565b606091505b50915091506108c1858383612f25565b3415610ada5760405163b398979f60e01b815260040160405180910390fd5b6000612c5a6115a9565b90506000612c6783612f81565b90506001600082815260038401602052604090205460ff166001811115612c9057612c90613118565b14612dfb576000612ca484600001516129c4565b51600083815260018581016020908152604092839020885181546001600160a01b03199081166001600160a01b03928316178355928a01518285018054851691831691909117905593890151600282018054909316941693909317905560608701516003808401919091556080880151600484015560a088015160058401805495965089959193909260ff19909216918490811115612d4557612d45613118565b0217905550505060008281526003840160208181526040808420805460ff19166001908117825589840180516001600160a01b03908116885260048b0180875285892054848a526002808701808a52888c20929092558e5184168b52828952878b2054908b52908852868a20558a89529686529282019790975589518216865293835281852080548086018255908652838620018790559451909416835292822080549182018155825291902001819055612e29565b6060830151600082815260018401602052604081206003018054909190612e23908490613906565b90915550505b6000612e3d84604001518560800151611c49565b606085015185516001600160a01b031660009081526007860160209081526040808320858452909152812060010180549394509192612e7d908490613906565b90915550506040517fd0af0406ed6d6057879d2fa05f418b086578b5469a6582563eaec850460e9b0390612eb2908690613480565b60405180910390a150505050565b6000612ef36040518060400160405280601081526020016f36b0b9ba32b916bb30b634b230ba37b960811b815250612f9f565b905090565b6000612ef36040518060400160405280600a81526020016937333a16b1b2b73a32b960b11b815250612f9f565b606082612f3a57612f3582613018565b610894565b8151158015612f5157506001600160a01b0384163b155b15612f7a57604051639996b31560e01b81526001600160a01b038516600482015260240161153c565b5080610894565b60006106898260000151836020015184604001518560800151612967565b6000612fa96115a9565b5460405163bf40fac160e01b81526001600160a01b039091169063bf40fac190612fd7908590600401613b45565b602060405180830381865afa158015612ff4573d6000803e3d6000fd5b505050506040513d601f19601f820116820180604052508101906106899190613b78565b8051156130285780518082602001fd5b604051630a12f52160e11b815260040160405180910390fd5b6040805160c08101825260008082526020820181905291810182905260608101829052608081018290529060a082015290565b6040518060600160405280613087613041565b815260200160008152602001600081525090565b6000602082840312156130ad57600080fd5b81356001600160e01b03198116811461089457600080fd5b6001600160a01b03811681146106b057600080fd5b6000602082840312156130ec57600080fd5b8135610894816130c5565b60006020828403121561310957600080fd5b81356004811061089457600080fd5b634e487b7160e01b600052602160045260246000fd5b600481106106b057634e487b7160e01b600052602160045260246000fd5b60018060a01b0380825116835280602083015116602084015280604083015116604084015250606081015160608301526080810151608083015260a08101516131948161312e565b8060a0840152505050565b600081518084526020808501945080840160005b838110156131d9576131c687835161314c565b60c09690960195908201906001016131b3565b509495945050505050565b602081526000610894602083018461319f565b634e487b7160e01b600052604160045260246000fd5b604051601f8201601f1916810167ffffffffffffffff81118282101715613236576132366131f7565b604052919050565b600082601f83011261324f57600080fd5b813567ffffffffffffffff811115613269576132696131f7565b61327c601f8201601f191660200161320d565b81815284602083860101111561329157600080fd5b816020850160208301376000918101602001919091529392505050565b600080600080608085870312156132c457600080fd5b84356132cf816130c5565b935060208501356132df816130c5565b925060408501359150606085013567ffffffffffffffff81111561330257600080fd5b61330e8782880161323e565b91505092959194509250565b803560ff8116811461332b57600080fd5b919050565b600080600080600080600080610100898b03121561334d57600080fd5b8835613358816130c5565b97506020890135613368816130c5565b965060408901359550606089013594506080890135935061338b60a08a0161331a565b925060c0890135915060e089013590509295985092959890939650565b6000806000606084860312156133bd57600080fd5b83356133c8816130c5565b925060208401356133d8816130c5565b929592945050506040919091013590565b600080600080608085870312156133ff57600080fd5b843561340a816130c5565b9350602085013561341a816130c5565b93969395505050506040820135916060013590565b6000806000806080858703121561344557600080fd5b8435613450816130c5565b93506020850135613460816130c5565b92506040850135613470816130c5565b9396929550929360600135925050565b60c08101610689828461314c565b6000806000606084860312156134a357600080fd5b83356134ae816130c5565b95602085013595506040909401359392505050565b6040815260006134d6604083018561319f565b90508260208301529392505050565b6000602082840312156134f757600080fd5b5035919050565b600080600080600060a0868803121561351657600080fd5b8535613521816130c5565b94506020860135613531816130c5565b93506040860135925060608601359150608086013561354f816130c5565b809150509295509295909350565b61356882825161314c565b60208101516135768161312e565b60c08301526040015160e090910152565b6020808252825182820181905260009190848201906040850190845b818110156135ca576135b683855161355d565b9284019261010092909201916001016135a3565b50909695505050505050565b600067ffffffffffffffff8211156135f0576135f06131f7565b5060051b60200190565b600082601f83011261360b57600080fd5b8135602061362061361b836135d6565b61320d565b82815260059290921b8401810191818101908684111561363f57600080fd5b8286015b8481101561365a5780358352918301918301613643565b509695505050505050565b600080600080600060a0868803121561367d57600080fd5b8535613688816130c5565b94506020860135613698816130c5565b9350604086013567ffffffffffffffff808211156136b557600080fd5b6136c189838a016135fa565b945060608801359150808211156136d757600080fd5b6136e389838a016135fa565b935060808801359150808211156136f957600080fd5b506137068882890161323e565b9150509295509295909350565b6000806040838503121561372657600080fd5b8235613731816130c5565b9150602083013567ffffffffffffffff81111561374d57600080fd5b6137598582860161323e565b9150509250929050565b6000806000806080858703121561377957600080fd5b8435613784816130c5565b93506020850135613794816130c5565b92506040850135915060608501356137ab816130c5565b939692955090935050565b600080600080600080600060e0888a0312156137d157600080fd5b87356137dc816130c5565b965060208801356137ec816130c5565b955060408801359450606088013593506138086080890161331a565b925060a0880135915060c0880135905092959891949750929550565b600080600080600060a0868803121561383c57600080fd5b8535613847816130c5565b94506020860135613857816130c5565b93506040860135925060608601359150608086013567ffffffffffffffff81111561388157600080fd5b6137068882890161323e565b610120810161389c828561355d565b826101008301529392505050565b61014081016138b9828661355d565b6101008201939093526001600160a01b039190911661012090910152919050565b634e487b7160e01b600052603260045260246000fd5b634e487b7160e01b600052601160045260246000fd5b80820180821115610689576106896138f0565b60006001820161392b5761392b6138f0565b5060010190565b81810381811115610689576106896138f0565b6001600160a01b0394851681529290931660208301526040820152606081019190915260a06080820181905260009082015260c00190565b6001600160a01b0387811682528616602082015260c0810161399e8661312e565b8560408301528460608301528360808301528260a0830152979650505050505050565b8051801515811461332b57600080fd5b6000602082840312156139e357600080fd5b610894826139c1565b6000604082840312156139fe57600080fd5b6040516040810181811067ffffffffffffffff82111715613a2157613a216131f7565b604052613a2d836139c1565b8152602083015160028110613a4157600080fd5b60208201529392505050565b60006020808385031215613a6057600080fd5b825167ffffffffffffffff811115613a7757600080fd5b8301601f81018513613a8857600080fd5b8051613a9661361b826135d6565b81815260059190911b82018301908381019087831115613ab557600080fd5b928401925b82841015613ae457835161ffff81168114613ad55760008081fd5b82529284019290840190613aba565b979650505050505050565b634e487b7160e01b600052603160045260246000fd5b60005b83811015613b20578181015183820152602001613b08565b50506000910152565b60008251613b3b818460208701613b05565b9190910192915050565b6020815260008251806020840152613b64816040850160208701613b05565b601f01601f19169190910160400192915050565b600060208284031215613b8a57600080fd5b8151610894816130c556fea264697066735822122011f992724a703867d758ad19ebc232de7b994a004b94f990217781ff5891c1d864736f6c63430008140033",
  "linkReferences": {},
  "deployedLinkReferences": {}
}