{
  "_format": "hh-sol-artifact-1",
  "contractName": "DecimalTokenCenter",
  "sourceName": "contracts/DecimalTokenCenter.sol",
  "abi": [
    {
      "inputs": [
        {
          "internalType": "address",
          "name": "target",
          "type": "address"
        }
      ],
      "name": "AddressEmptyCode",
      "type": "error"
    },
    {
      "inputs": [
        {
          "internalType": "address",
          "name": "implementation",
          "type": "address"
        }
      ],
      "name": "ERC1967InvalidImplementation",
      "type": "error"
    },
    {
      "inputs": [],
      "name": "ERC1967NonPayable",
      "type": "error"
    },
    {
      "inputs": [],
      "name": "FailedInnerCall",
      "type": "error"
    },
    {
      "inputs": [],
      "name": "InvalidAddress",
      "type": "error"
    },
    {
      "inputs": [
        {
          "internalType": "uint256",
          "name": "expectedCommission",
          "type": "uint256"
        }
      ],
      "name": "InvalidComission",
      "type": "error"
    },
    {
      "inputs": [],
      "name": "InvalidInitialMint",
      "type": "error"
    },
    {
      "inputs": [],
      "name": "InvalidInitialization",
      "type": "error"
    },
    {
      "inputs": [],
      "name": "InvalidMinReserve",
      "type": "error"
    },
    {
      "inputs": [],
      "name": "NotInitializing",
      "type": "error"
    },
    {
      "inputs": [
        {
          "internalType": "address",
          "name": "owner",
          "type": "address"
        }
      ],
      "name": "OwnableInvalidOwner",
      "type": "error"
    },
    {
      "inputs": [
        {
          "internalType": "address",
          "name": "account",
          "type": "address"
        }
      ],
      "name": "OwnableUnauthorizedAccount",
      "type": "error"
    },
    {
      "inputs": [
        {
          "internalType": "uint256",
          "name": "x",
          "type": "uint256"
        },
        {
          "internalType": "uint256",
          "name": "y",
          "type": "uint256"
        }
      ],
      "name": "PRBMath_MulDiv18_Overflow",
      "type": "error"
    },
    {
      "inputs": [
        {
          "internalType": "uint256",
          "name": "x",
          "type": "uint256"
        },
        {
          "internalType": "uint256",
          "name": "y",
          "type": "uint256"
        },
        {
          "internalType": "uint256",
          "name": "denominator",
          "type": "uint256"
        }
      ],
      "name": "PRBMath_MulDiv_Overflow",
      "type": "error"
    },
    {
      "inputs": [
        {
          "internalType": "UD60x18",
          "name": "x",
          "type": "uint256"
        }
      ],
      "name": "PRBMath_UD60x18_Exp2_InputTooBig",
      "type": "error"
    },
    {
      "inputs": [
        {
          "internalType": "UD60x18",
          "name": "x",
          "type": "uint256"
        }
      ],
      "name": "PRBMath_UD60x18_Log_InputTooSmall",
      "type": "error"
    },
    {
      "inputs": [],
      "name": "TokenSymbolExist",
      "type": "error"
    },
    {
      "anonymous": false,
      "inputs": [
        {
          "indexed": true,
          "internalType": "address",
          "name": "oldContract",
          "type": "address"
        },
        {
          "indexed": true,
          "internalType": "address",
          "name": "newContract",
          "type": "address"
        }
      ],
      "name": "ContractUpgraded",
      "type": "event"
    },
    {
      "anonymous": false,
      "inputs": [
        {
          "indexed": false,
          "internalType": "uint64",
          "name": "version",
          "type": "uint64"
        }
      ],
      "name": "Initialized",
      "type": "event"
    },
    {
      "anonymous": false,
      "inputs": [
        {
          "indexed": true,
          "internalType": "address",
          "name": "previousOwner",
          "type": "address"
        },
        {
          "indexed": true,
          "internalType": "address",
          "name": "newOwner",
          "type": "address"
        }
      ],
      "name": "OwnershipTransferred",
      "type": "event"
    },
    {
      "anonymous": false,
      "inputs": [
        {
          "indexed": true,
          "internalType": "address",
          "name": "oldContract",
          "type": "address"
        },
        {
          "indexed": true,
          "internalType": "address",
          "name": "newContract",
          "type": "address"
        }
      ],
      "name": "TokenContractUpgraded",
      "type": "event"
    },
    {
      "anonymous": false,
      "inputs": [
        {
          "indexed": false,
          "internalType": "address",
          "name": "tokenAddress",
          "type": "address"
        }
      ],
      "name": "TokenDeployed",
      "type": "event"
    },
    {
      "anonymous": false,
      "inputs": [
        {
          "indexed": true,
          "internalType": "address",
          "name": "implementation",
          "type": "address"
        }
      ],
      "name": "Upgraded",
      "type": "event"
    },
    {
      "inputs": [],
      "name": "MAX_CRR",
      "outputs": [
        {
          "internalType": "uint256",
          "name": "",
          "type": "uint256"
        }
      ],
      "stateMutability": "view",
      "type": "function"
    },
    {
      "inputs": [],
      "name": "MAX_TOTAL_SUPPLY",
      "outputs": [
        {
          "internalType": "uint256",
          "name": "",
          "type": "uint256"
        }
      ],
      "stateMutability": "view",
      "type": "function"
    },
    {
      "inputs": [],
      "name": "MIN_CRR",
      "outputs": [
        {
          "internalType": "uint256",
          "name": "",
          "type": "uint256"
        }
      ],
      "stateMutability": "view",
      "type": "function"
    },
    {
      "inputs": [],
      "name": "MIN_INITIAL_MINT",
      "outputs": [
        {
          "internalType": "uint256",
          "name": "",
          "type": "uint256"
        }
      ],
      "stateMutability": "view",
      "type": "function"
    },
    {
      "inputs": [],
      "name": "MIN_RESERVE",
      "outputs": [
        {
          "internalType": "uint256",
          "name": "",
          "type": "uint256"
        }
      ],
      "stateMutability": "view",
      "type": "function"
    },
    {
      "inputs": [],
      "name": "MIN_TOTAL_SUPPLY",
      "outputs": [
        {
          "internalType": "uint256",
          "name": "",
          "type": "uint256"
        }
      ],
      "stateMutability": "view",
      "type": "function"
    },
    {
      "inputs": [
        {
          "internalType": "uint256",
          "name": "supply",
          "type": "uint256"
        },
        {
          "internalType": "uint256",
          "name": "customReserve",
          "type": "uint256"
        },
        {
          "internalType": "uint256",
          "name": "customCrr",
          "type": "uint256"
        },
        {
          "internalType": "uint256",
          "name": "amountOut",
          "type": "uint256"
        }
      ],
      "name": "calculateBuyInput",
      "outputs": [
        {
          "internalType": "uint256",
          "name": "",
          "type": "uint256"
        }
      ],
      "stateMutability": "pure",
      "type": "function"
    },
    {
      "inputs": [
        {
          "internalType": "uint256",
          "name": "supply",
          "type": "uint256"
        },
        {
          "internalType": "uint256",
          "name": "customReserve",
          "type": "uint256"
        },
        {
          "internalType": "uint256",
          "name": "customCrr",
          "type": "uint256"
        },
        {
          "internalType": "uint256",
          "name": "amountIn",
          "type": "uint256"
        }
      ],
      "name": "calculateBuyOutput",
      "outputs": [
        {
          "internalType": "uint256",
          "name": "",
          "type": "uint256"
        }
      ],
      "stateMutability": "pure",
      "type": "function"
    },
    {
      "inputs": [
        {
          "internalType": "uint256",
          "name": "supply",
          "type": "uint256"
        },
        {
          "internalType": "uint256",
          "name": "customReserve",
          "type": "uint256"
        },
        {
          "internalType": "uint256",
          "name": "customCrr",
          "type": "uint256"
        },
        {
          "internalType": "uint256",
          "name": "amountOut",
          "type": "uint256"
        }
      ],
      "name": "calculateSellInput",
      "outputs": [
        {
          "internalType": "uint256",
          "name": "",
          "type": "uint256"
        }
      ],
      "stateMutability": "pure",
      "type": "function"
    },
    {
      "inputs": [
        {
          "internalType": "uint256",
          "name": "supply",
          "type": "uint256"
        },
        {
          "internalType": "uint256",
          "name": "customReserve",
          "type": "uint256"
        },
        {
          "internalType": "uint256",
          "name": "customCrr",
          "type": "uint256"
        },
        {
          "internalType": "uint256",
          "name": "amountIn",
          "type": "uint256"
        }
      ],
      "name": "calculateSellOutput",
      "outputs": [
        {
          "internalType": "uint256",
          "name": "",
          "type": "uint256"
        }
      ],
      "stateMutability": "pure",
      "type": "function"
    },
    {
      "inputs": [
        {
          "internalType": "address payable",
          "name": "tokenIn",
          "type": "address"
        },
        {
          "internalType": "address payable",
          "name": "tokenOut",
          "type": "address"
        },
        {
          "internalType": "uint256",
          "name": "amountIn",
          "type": "uint256"
        },
        {
          "internalType": "uint256",
          "name": "amountOutMin",
          "type": "uint256"
        },
        {
          "internalType": "address",
          "name": "recipient",
          "type": "address"
        }
      ],
      "name": "convert",
      "outputs": [],
      "stateMutability": "nonpayable",
      "type": "function"
    },
    {
      "inputs": [
        {
          "internalType": "address payable",
          "name": "tokenIn",
          "type": "address"
        },
        {
          "internalType": "address payable",
          "name": "tokenOut",
          "type": "address"
        },
        {
          "internalType": "uint256",
          "name": "amountIn",
          "type": "uint256"
        },
        {
          "internalType": "uint256",
          "name": "amountOutMin",
          "type": "uint256"
        },
        {
          "internalType": "address",
          "name": "recipient",
          "type": "address"
        },
        {
          "internalType": "uint256",
          "name": "deadline",
          "type": "uint256"
        },
        {
          "internalType": "uint8",
          "name": "v",
          "type": "uint8"
        },
        {
          "internalType": "bytes32",
          "name": "r",
          "type": "bytes32"
        },
        {
          "internalType": "bytes32",
          "name": "s",
          "type": "bytes32"
        }
      ],
      "name": "convert",
      "outputs": [],
      "stateMutability": "nonpayable",
      "type": "function"
    },
    {
      "inputs": [
        {
          "components": [
            {
              "internalType": "uint256",
              "name": "initialMint",
              "type": "uint256"
            },
            {
              "internalType": "uint256",
              "name": "minTotalSupply",
              "type": "uint256"
            },
            {
              "internalType": "uint256",
              "name": "maxTotalSupply",
              "type": "uint256"
            },
            {
              "internalType": "address",
              "name": "tokenOwner",
              "type": "address"
            },
            {
              "internalType": "uint8",
              "name": "crr",
              "type": "uint8"
            },
            {
              "internalType": "string",
              "name": "identity",
              "type": "string"
            },
            {
              "internalType": "string",
              "name": "symbol",
              "type": "string"
            },
            {
              "internalType": "string",
              "name": "name",
              "type": "string"
            }
          ],
          "internalType": "struct DecimalTokenCenter.Token",
          "name": "meta",
          "type": "tuple"
        }
      ],
      "name": "createToken",
      "outputs": [],
      "stateMutability": "payable",
      "type": "function"
    },
    {
      "inputs": [
        {
          "internalType": "string",
          "name": "symbol",
          "type": "string"
        }
      ],
      "name": "getCommissionSymbol",
      "outputs": [
        {
          "internalType": "uint256",
          "name": "",
          "type": "uint256"
        }
      ],
      "stateMutability": "pure",
      "type": "function"
    },
    {
      "inputs": [],
      "name": "getContractCenter",
      "outputs": [
        {
          "internalType": "address",
          "name": "",
          "type": "address"
        }
      ],
      "stateMutability": "view",
      "type": "function"
    },
    {
      "inputs": [],
      "name": "getImplementation",
      "outputs": [
        {
          "internalType": "address",
          "name": "",
          "type": "address"
        }
      ],
      "stateMutability": "view",
      "type": "function"
    },
    {
      "inputs": [],
      "name": "implementation",
      "outputs": [
        {
          "internalType": "address",
          "name": "",
          "type": "address"
        }
      ],
      "stateMutability": "view",
      "type": "function"
    },
    {
      "inputs": [],
      "name": "initialize",
      "outputs": [],
      "stateMutability": "nonpayable",
      "type": "function"
    },
    {
      "inputs": [
        {
          "internalType": "address",
          "name": "token",
          "type": "address"
        }
      ],
      "name": "isTokenExists",
      "outputs": [
        {
          "internalType": "bool",
          "name": "",
          "type": "bool"
        }
      ],
      "stateMutability": "view",
      "type": "function"
    },
    {
      "inputs": [],
      "name": "owner",
      "outputs": [
        {
          "internalType": "address",
          "name": "",
          "type": "address"
        }
      ],
      "stateMutability": "view",
      "type": "function"
    },
    {
      "inputs": [],
      "name": "renounceOwnership",
      "outputs": [],
      "stateMutability": "nonpayable",
      "type": "function"
    },
    {
      "inputs": [
        {
          "internalType": "address",
          "name": "addressContractCenter",
          "type": "address"
        }
      ],
      "name": "setContractCenter",
      "outputs": [],
      "stateMutability": "nonpayable",
      "type": "function"
    },
    {
      "inputs": [
        {
          "internalType": "string",
          "name": "symbol",
          "type": "string"
        }
      ],
      "name": "tokens",
      "outputs": [
        {
          "internalType": "address",
          "name": "",
          "type": "address"
        }
      ],
      "stateMutability": "view",
      "type": "function"
    },
    {
      "inputs": [
        {
          "internalType": "address",
          "name": "newOwner",
          "type": "address"
        }
      ],
      "name": "transferOwnership",
      "outputs": [],
      "stateMutability": "nonpayable",
      "type": "function"
    },
    {
      "inputs": [
        {
          "internalType": "address",
          "name": "newImplementation",
          "type": "address"
        }
      ],
      "name": "upgrade",
      "outputs": [],
      "stateMutability": "nonpayable",
      "type": "function"
    },
    {
      "inputs": [
        {
          "internalType": "address",
          "name": "newTokenImplementation",
          "type": "address"
        }
      ],
      "name": "upgradeToken",
      "outputs": [],
      "stateMutability": "nonpayable",
      "type": "function"
    },
    {
      "stateMutability": "payable",
      "type": "receive"
    }
  ],
  "bytecode": "0x608060405234801561001057600080fd5b506133c4806100206000396000f3fe608060405260043610620001c75760003560e01c80635fb599d411620000f3578063aaf10f421162000095578063ba778bce116200006c578063ba778bce14620004ef578063c265bbd11462000368578063c73636c1146200052e578063f2fde38b146200055357600080fd5b8063aaf10f42146200048d578063b7a7a04814620004a5578063b8d23ea014620004ca57600080fd5b80638129fc1c11620000ca5780638129fc1c14620004005780638da5cb5b14620004185780639ed4fa5a146200045757600080fd5b80635fb599d4146200039e5780636ee31a1814620003c3578063715018a614620003e857600080fd5b8063200ff9f411620001695780634dfb514211620001405780634dfb5142146200033a5780634fdcc43c14620003515780635122c40914620003685780635c60da1b146200038657600080fd5b8063200ff9f414620002cc5780632e391d0214620002f157806333039d3d146200031657600080fd5b8063090fab49116200019e578063090fab49146200026257806309dfd0e614620002885780631538018214620002a757600080fd5b806304c2320b14620001d4578063069ffbe514620002165780630900f010146200023d57600080fd5b36620001cf57005b600080fd5b348015620001e157600080fd5b50620001f9620001f336600462002859565b62000578565b6040516001600160a01b0390911681526020015b60405180910390f35b3480156200022357600080fd5b506200023b62000235366004620028ba565b620005cd565b005b3480156200024a57600080fd5b506200023b6200025c36600462002920565b620007f5565b3480156200026f57600080fd5b5062000279606481565b6040519081526020016200020d565b3480156200029557600080fd5b5062000279683635c9adc5dea0000081565b348015620002b457600080fd5b5062000279620002c636600462002940565b620008cc565b348015620002d957600080fd5b5062000279620002eb36600462002940565b620008e7565b348015620002fe57600080fd5b50620002796200031036600462002940565b620008f7565b3480156200032357600080fd5b50620002796d314dc6448d9338c15b0a0000000081565b6200023b6200034b36600462002985565b62000907565b3480156200035e57600080fd5b5062000279600a81565b3480156200037557600080fd5b5062000279670de0b6b3a764000081565b3480156200039357600080fd5b50620001f962000a46565b348015620003ab57600080fd5b506200023b620003bd36600462002920565b62000a79565b348015620003d057600080fd5b506200023b620003e236600462002920565b62000ad1565b348015620003f557600080fd5b506200023b62000ba7565b3480156200040d57600080fd5b506200023b62000bbf565b3480156200042557600080fd5b507f9016d09d72d40fdae2fd8ceac6b6234c7706214fd39c1cd1e609a0528c199300546001600160a01b0316620001f9565b3480156200046457600080fd5b506200047c6200047636600462002920565b62000d0f565b60405190151581526020016200020d565b3480156200049a57600080fd5b50620001f962000e24565b348015620004b257600080fd5b506200023b620004c436600462002a8d565b62000e35565b348015620004d757600080fd5b5062000279620004e936600462002940565b62000eee565b348015620004fc57600080fd5b507fd15eb84d74a9f1cebc337a90cd76676c23019d42ee043ed87cd137d1c2ee3602546001600160a01b0316620001f9565b3480156200053b57600080fd5b50620002796200054d36600462002859565b62000efe565b3480156200056057600080fd5b506200023b6200057236600462002920565b62000fa7565b60007fd15eb84d74a9f1cebc337a90cd76676c23019d42ee043ed87cd137d1c2ee360060010182604051620005ae919062002b47565b908152604051908190036020019020546001600160a01b031692915050565b6040517f23b872dd000000000000000000000000000000000000000000000000000000008152336004820152306024820152604481018490526001600160a01b038616906323b872dd906064016020604051808303816000875af11580156200063a573d6000803e3d6000fd5b505050506040513d601f19601f8201168201806040525081019062000660919062002b65565b506040517fc193d62e000000000000000000000000000000000000000000000000000000008152600481018490526000906001600160a01b0387169063c193d62e90602401602060405180830381865afa158015620006c3573d6000803e3d6000fd5b505050506040513d601f19601f82011682018060405250810190620006e9919062002b89565b6040517fd04c698300000000000000000000000000000000000000000000000000000000815260048101869052600060248201523060448201529091506001600160a01b0387169063d04c698390606401600060405180830381600087803b1580156200075557600080fd5b505af11580156200076a573d6000803e3d6000fd5b50506040517f7deb6025000000000000000000000000000000000000000000000000000000008152600481018690526001600160a01b03858116602483015288169250637deb6025915083906044016000604051808303818588803b158015620007d357600080fd5b505af1158015620007e8573d6000803e3d6000fd5b5050505050505050505050565b620007ff62001004565b60006200080b6200107b565b90506001600160a01b0382161580620008355750806001600160a01b0316826001600160a01b0316145b156200086d576040517fe6c4247b00000000000000000000000000000000000000000000000000000000815260040160405180910390fd5b620008888260405180602001604052806000815250620010a4565b816001600160a01b0316816001600160a01b03167f2e4cc16c100f0b55e2df82ab0b1a7e294aa9cbd01b48fbaf622683fbc0507a4960405160405180910390a35050565b6000620008dc858585856200110a565b90505b949350505050565b6000620008dc85858585620011c4565b6000620008dc8585858562001276565b8051670de0b6b3a7640000118062000923575060408101518151115b156200095b576040517fa0d932f100000000000000000000000000000000000000000000000000000000815260040160405180910390fd5b60006200096c8260c0015162000efe565b905080341015620009b1576040517f4ec0739e000000000000000000000000000000000000000000000000000000008152600481018290526024015b60405180910390fd5b6000620009bf823462002bb9565b9050683635c9adc5dea0000081101562000a05576040517f631ec0d400000000000000000000000000000000000000000000000000000000815260040160405180910390fd5b60405160009083156108fc0290849083818181858288f1935050505015801562000a33573d6000803e3d6000fd5b5062000a408382620012f0565b50505050565b60007fd15eb84d74a9f1cebc337a90cd76676c23019d42ee043ed87cd137d1c2ee36005b546001600160a01b0316919050565b62000a8362001004565b7fd15eb84d74a9f1cebc337a90cd76676c23019d42ee043ed87cd137d1c2ee3602805473ffffffffffffffffffffffffffffffffffffffff19166001600160a01b0392909216919091179055565b62000adb62001004565b600062000ae762000a46565b90506001600160a01b03821662000b2a576040517fe6c4247b00000000000000000000000000000000000000000000000000000000815260040160405180910390fd5b817fd15eb84d74a9f1cebc337a90cd76676c23019d42ee043ed87cd137d1c2ee3600805473ffffffffffffffffffffffffffffffffffffffff19166001600160a01b03928316179055604051838216918316907f27bf8a17dff3ae6812ef6a2059d654c298fd3a87c570f2bab5c34b166dd868aa90600090a35050565b62000bb162001004565b62000bbd600062001514565b565b7ff0c57e16840df040f15088dc2f81fe391c3923bec73e23a9662efc9c229c6a00805468010000000000000000810460ff16159067ffffffffffffffff1660008115801562000c0b5750825b905060008267ffffffffffffffff16600114801562000c295750303b155b90508115801562000c38575080155b1562000c70576040517ff92ee8a900000000000000000000000000000000000000000000000000000000815260040160405180910390fd5b84547fffffffffffffffffffffffffffffffffffffffffffffffff0000000000000000166001178555831562000cbc57845468ff00000000000000001916680100000000000000001785555b831562000d0857845468ff000000000000000019168555604051600181527fc7f505b2f371ae2175ee4913f4499e1f2633a7b5936321eed1cdaeb6115181d29060200160405180910390a15b5050505050565b60408051600481526024810182526020810180517bffffffffffffffffffffffffffffffffffffffffffffffffffffffff167f95d89b41000000000000000000000000000000000000000000000000000000001790529051600091829182916001600160a01b0386169162000d85919062002b47565b600060405180830381855afa9150503d806000811462000dc2576040519150601f19603f3d011682016040523d82523d6000602084013e62000dc7565b606091505b509150915081158062000dd957508051155b1562000de9575060009392505050565b60008180602001905181019062000e01919062002bcf565b9050600062000e108262000578565b6001600160a01b0316141595945050505050565b600062000e306200107b565b905090565b6040517fd505accf000000000000000000000000000000000000000000000000000000008152336004820152306024820152604481018890526064810185905260ff8416608482015260a4810183905260c481018290526001600160a01b038a169063d505accf9060e401600060405180830381600087803b15801562000ebb57600080fd5b505af115801562000ed0573d6000803e3d6000fd5b5050505062000ee38989898989620005cd565b505050505050505050565b6000620008dc8585858562001592565b60008062000f0c8362001614565b90506007811062000f285750680d8d726b7177a8000092915050565b6006811062000f42575068878678326eac90000092915050565b6005811062000f5d575069054b40b1f852bda0000092915050565b6004811062000f7857506934f086f3b33b6840000092915050565b6003811062000f9457506a021165458500521280000092915050565b506a021165458500521280000092915050565b62000fb162001004565b6001600160a01b03811662000ff6576040517f1e4fbdf700000000000000000000000000000000000000000000000000000000815260006004820152602401620009a8565b620010018162001514565b50565b33620010377f9016d09d72d40fdae2fd8ceac6b6234c7706214fd39c1cd1e609a0528c199300546001600160a01b031690565b6001600160a01b03161462000bbd576040517f118cdaa7000000000000000000000000000000000000000000000000000000008152336004820152602401620009a8565b60007f360894a13ba1a3210667c828492db98dca3e2076cc3735a920a3ca505d382bbc62000a6a565b620010af8262001834565b6040516001600160a01b038316907fbc7cd75a20ee27fd9adebab32041f755214dbc6bffa90cc0225b39da2e5c2d3b90600090a2805115620010fc57620010f78282620018d3565b505050565b6200110662001951565b5050565b6000826064036200113d57620011358462001126848862002c4f565b62001132919062002c7f565b90565b9050620008df565b84846000620011586200113287662386f26fc1000062002c4f565b90508460006200116982856200198a565b90506200117f81670de0b6b3a7640000620019ac565b90506200118d8184620019be565b90506000620011a7670de0b6b3a76400005b839062001aed565b9050620011b5868262001aff565b9b9a5050505050505050505050565b6000848203620011d6575082620008df565b82606403620011f057620011358562001126848762002c4f565b848460006200120d620011328768056bc75e2d6310000062002c7f565b90508460006200121e82866200198a565b90506200123681670de0b6b3a76400005b9062001aed565b9050620012448184620019be565b90506200125a81670de0b6b3a76400006200122f565b905062001268848262001aff565b9a9950505050505050505050565b6000826064036200129257620011358462001126878562002c4f565b84846000620012ad6200113287662386f26fc1000062002c4f565b9050846000620012be848362001aed565b9050620012d883620012d183876200198a565b90620019be565b90506000620011a782670de0b6b3a76400006200122f565b6000806001600160a01b03166200130b8460c0015162000578565b6001600160a01b0316146200134c576040517f9df30d2f00000000000000000000000000000000000000000000000000000000815260040160405180910390fd5b6000639e4c800c60e01b8460e001518560c0015186606001518760800151886000015189602001518a604001518b60a001516040516024016200139798979695949392919062002cd0565b60408051601f19818403018152918152602080830180517bffffffffffffffffffffffffffffffffffffffffffffffffffffffff167fffffffff000000000000000000000000000000000000000000000000000000009095169490941790935260c0870151905191935060009262001410920162002b47565b60405160208183030381529060405280519060200120905083819030846040516200143b906200274d565b6200144892919062002d3c565b82906040518091039083f59150508015801562001469573d6000803e3d6000fd5b509250827fd15eb84d74a9f1cebc337a90cd76676c23019d42ee043ed87cd137d1c2ee36006001018660c00151604051620014a5919062002b47565b90815260405160209181900382018120805473ffffffffffffffffffffffffffffffffffffffff19166001600160a01b0394851617905591851682527f91d24864a084ab70b268a1f865e757ca12006cf298d763b6be697302ef86498c910160405180910390a1505092915050565b7f9016d09d72d40fdae2fd8ceac6b6234c7706214fd39c1cd1e609a0528c199300805473ffffffffffffffffffffffffffffffffffffffff1981166001600160a01b03848116918217845560405192169182907f8be0079c531659141344cd1fd0a4f28419497f9722a3daafe3b4186f6b6457e090600090a3505050565b600082606403620015ae57620011358562001126868562002c4f565b84846000620015cb620011328768056bc75e2d6310000062002c7f565b9050846000620015dc8286620019ac565b9050620015ef83620012d183886200198a565b9050600062001606670de0b6b3a76400006200119f565b9050620011b5858262001aff565b8051600090819081905b808210156200182b5760008583815181106200163e576200163e62002d60565b01602001517fff000000000000000000000000000000000000000000000000000000000000001690507f8000000000000000000000000000000000000000000000000000000000000000811015620016a5576200169d60018462002d76565b925062001815565b7fe0000000000000000000000000000000000000000000000000000000000000007fff0000000000000000000000000000000000000000000000000000000000000082161015620016fd576200169d60028462002d76565b7ff0000000000000000000000000000000000000000000000000000000000000007fff000000000000000000000000000000000000000000000000000000000000008216101562001755576200169d60038462002d76565b7ff8000000000000000000000000000000000000000000000000000000000000007fff0000000000000000000000000000000000000000000000000000000000000082161015620017ad576200169d60048462002d76565b7ffc000000000000000000000000000000000000000000000000000000000000007fff000000000000000000000000000000000000000000000000000000000000008216101562001805576200169d60058462002d76565b6200181260068462002d76565b92505b5082620018228162002d8c565b9350506200161e565b50909392505050565b806001600160a01b03163b60000362001885576040517f4c9c8ce30000000000000000000000000000000000000000000000000000000081526001600160a01b0382166004820152602401620009a8565b7f360894a13ba1a3210667c828492db98dca3e2076cc3735a920a3ca505d382bbc805473ffffffffffffffffffffffffffffffffffffffff19166001600160a01b0392909216919091179055565b6060600080846001600160a01b031684604051620018f2919062002b47565b600060405180830381855af49150503d80600081146200192f576040519150601f19603f3d011682016040523d82523d6000602084013e62001934565b606091505b50915091506200194685838362001b11565b925050505b92915050565b341562000bbd576040517fb398979f00000000000000000000000000000000000000000000000000000000815260040160405180910390fd5b6000620019a56200113284670de0b6b3a76400008562001b8d565b9392505050565b6000620019a562001132838562002d76565b60008282818303620019ed578015620019d9576000620019e3565b670de0b6b3a76400005b925050506200194b565b670de0b6b3a7640000820362001a1057670de0b6b3a7640000925050506200194b565b8060000362001a2c57670de0b6b3a7640000925050506200194b565b670de0b6b3a7640000810362001a475784925050506200194b565b670de0b6b3a764000082111562001a805762001a7862001a7262001a6b8762001c81565b8662001aff565b62001deb565b925062001ae5565b600062001aa162001132846ec097ce7bc90715b34b9f100000000062002c7f565b9050600062001abf62001a7262001ab88462001c81565b8862001aff565b905062001ae062001132826ec097ce7bc90715b34b9f100000000062002c7f565b945050505b505092915050565b6000620019a562001132838562002bb9565b6000620019a562001132848462001e61565b60608262001b2a5762001b248262001f4e565b620019a5565b815115801562001b4257506001600160a01b0384163b155b1562001b86576040517f9996b3150000000000000000000000000000000000000000000000000000000081526001600160a01b0385166004820152602401620009a8565b5092915050565b600080806000198587098587029250828110838203039150508060000362001bcc5783828162001bc15762001bc162002c69565b0492505050620019a5565b83811062001c18576040517f63a05778000000000000000000000000000000000000000000000000000000008152600481018790526024810186905260448101859052606401620009a8565b60008486880960026001871981018816978890046003810283188082028403028082028403028082028403028082028403028082028403029081029092039091026000889003889004909101858311909403939093029303949094049190911702949350505050565b600081670de0b6b3a764000081101562001ccb576040517f36d32ef000000000000000000000000000000000000000000000000000000000815260048101849052602401620009a8565b600062001d58670de0b6b3a7640000830460016fffffffffffffffffffffffffffffffff821160071b91821c67ffffffffffffffff811160061b90811c63ffffffff811160051b90811c61ffff811160041b90811c60ff8111600390811b91821c600f811160021b90811c918211871b91821c969096119490961792909217171791909117919091171790565b9050670de0b6b3a7640000810282821c7ffffffffffffffffffffffffffffffffffffffffffffffffff21f494c589c0000810162001d995750949350505050565b671bc16d674ec800006706f05b59d3b200005b801562001ddf57670de0b6b3a764000083800204925081831062001dd6579283019260019290921c915b60011c62001dac565b50919695505050505050565b600081680a688906bd8affffff81111562001e36576040517fb3b6ba1f00000000000000000000000000000000000000000000000000000000815260048101849052602401620009a8565b600062001e50670de0b6b3a7640000604084901b62002c7f565b9050620008df620011328262001f91565b600080806000198486098486029250828110838203039150508060000362001e975750670de0b6b3a7640000900490506200194b565b670de0b6b3a7640000811062001ee4576040517f5173648d0000000000000000000000000000000000000000000000000000000081526004810186905260248101859052604401620009a8565b6000670de0b6b3a7640000858709620400008185030493109091037d40000000000000000000000000000000000000000000000000000000000002919091177faccb18165bd6fe31ae1cf318dc5b51eee0e1ba569b88cd74c1773b91fac106690291505092915050565b80511562001f5f5780518082602001fd5b6040517f1425ea4200000000000000000000000000000000000000000000000000000000815260040160405180910390fd5b7780000000000000000000000000000000000000000000000067ff00000000000000821615620020bb5767800000000000000082161562001fdb5768016a09e667f3bcc9090260401c5b67400000000000000082161562001ffb576801306fe0a31b7152df0260401c5b6720000000000000008216156200201b576801172b83c7d517adce0260401c5b6710000000000000008216156200203b5768010b5586cf9890f62a0260401c5b6708000000000000008216156200205b576801059b0d31585743ae0260401c5b6704000000000000008216156200207b57680102c9a3e778060ee70260401c5b6702000000000000008216156200209b5768010163da9fb33356d80260401c5b670100000000000000821615620020bb57680100b1afa5abcbed610260401c5b66ff000000000000821615620021c3576680000000000000821615620020ea5768010058c86da1c09ea20260401c5b664000000000000082161562002109576801002c605e2e8cec500260401c5b66200000000000008216156200212857680100162f3904051fa10260401c5b661000000000000082161562002147576801000b175effdc76ba0260401c5b66080000000000008216156200216657680100058ba01fb9f96d0260401c5b6604000000000000821615620021855768010002c5cc37da94920260401c5b6602000000000000821615620021a4576801000162e525ee05470260401c5b6601000000000000821615620021c35768010000b17255775c040260401c5b65ff0000000000821615620022c25765800000000000821615620021f0576801000058b91b5bc9ae0260401c5b654000000000008216156200220e57680100002c5c89d5ec6d0260401c5b652000000000008216156200222c5768010000162e43f4f8310260401c5b651000000000008216156200224a57680100000b1721bcfc9a0260401c5b65080000000000821615620022685768010000058b90cf1e6e0260401c5b6504000000000082161562002286576801000002c5c863b73f0260401c5b65020000000000821615620022a457680100000162e430e5a20260401c5b65010000000000821615620022c2576801000000b1721835510260401c5b64ff00000000821615620023b857648000000000821615620022ed57680100000058b90c0b490260401c5b6440000000008216156200230a5768010000002c5c8601cc0260401c5b64200000000082161562002327576801000000162e42fff00260401c5b641000000000821615620023445768010000000b17217fbb0260401c5b64080000000082161562002361576801000000058b90bfce0260401c5b6404000000008216156200237e57680100000002c5c85fe30260401c5b6402000000008216156200239b5768010000000162e42ff10260401c5b640100000000821615620023b857680100000000b17217f80260401c5b63ff000000821615620024a5576380000000821615620023e15768010000000058b90bfc0260401c5b6340000000821615620023fd576801000000002c5c85fe0260401c5b63200000008216156200241957680100000000162e42ff0260401c5b631000000082161562002435576801000000000b17217f0260401c5b63080000008216156200245157680100000000058b90c00260401c5b63040000008216156200246d5768010000000002c5c8600260401c5b630200000082161562002489576801000000000162e4300260401c5b6301000000821615620024a55768010000000000b172180260401c5b62ff0000821615620025895762800000821615620024cc576801000000000058b90c0260401c5b62400000821615620024e757680100000000002c5c860260401c5b62200000821615620025025768010000000000162e430260401c5b621000008216156200251d57680100000000000b17210260401c5b62080000821615620025385768010000000000058b910260401c5b6204000082161562002553576801000000000002c5c80260401c5b620200008216156200256e57680100000000000162e40260401c5b6201000082161562002589576801000000000000b1720260401c5b61ff008216156200266457618000821615620025ae57680100000000000058b90260401c5b614000821615620025c85768010000000000002c5d0260401c5b612000821615620025e2576801000000000000162e0260401c5b611000821615620025fc5768010000000000000b170260401c5b61080082161562002616576801000000000000058c0260401c5b6104008216156200263057680100000000000002c60260401c5b6102008216156200264a57680100000000000001630260401c5b6101008216156200266457680100000000000000b10260401c5b60ff821615620027365760808216156200268757680100000000000000590260401c5b6040821615620026a0576801000000000000002c0260401c5b6020821615620026b957680100000000000000160260401c5b6010821615620026d2576801000000000000000b0260401c5b6008821615620026eb57680100000000000000060260401c5b60048216156200270457680100000000000000030260401c5b60028216156200271d57680100000000000000010260401c5b60018216156200273657680100000000000000010260401c5b670de0b6b3a76400000260409190911c60bf031c90565b6105e58062002daa83390190565b634e487b7160e01b600052604160045260246000fd5b604051610100810167ffffffffffffffff811182821017156200279857620027986200275b565b60405290565b604051601f8201601f1916810167ffffffffffffffff81118282101715620027ca57620027ca6200275b565b604052919050565b600067ffffffffffffffff821115620027ef57620027ef6200275b565b50601f01601f191660200190565b600082601f8301126200280f57600080fd5b8135620028266200282082620027d2565b6200279e565b8181528460208386010111156200283c57600080fd5b816020850160208301376000918101602001919091529392505050565b6000602082840312156200286c57600080fd5b813567ffffffffffffffff8111156200288457600080fd5b620008df84828501620027fd565b6001600160a01b03811681146200100157600080fd5b8035620028b58162002892565b919050565b600080600080600060a08688031215620028d357600080fd5b8535620028e08162002892565b94506020860135620028f28162002892565b935060408601359250606086013591506080860135620029128162002892565b809150509295509295909350565b6000602082840312156200293357600080fd5b8135620019a58162002892565b600080600080608085870312156200295757600080fd5b5050823594602084013594506040840135936060013592509050565b803560ff81168114620028b557600080fd5b6000602082840312156200299857600080fd5b813567ffffffffffffffff80821115620029b157600080fd5b908301906101008286031215620029c757600080fd5b620029d162002771565b823581526020830135602082015260408301356040820152620029f760608401620028a8565b606082015262002a0a6080840162002973565b608082015260a08301358281111562002a2257600080fd5b62002a3087828601620027fd565b60a08301525060c08301358281111562002a4957600080fd5b62002a5787828601620027fd565b60c08301525060e08301358281111562002a7057600080fd5b62002a7e87828601620027fd565b60e08301525095945050505050565b60008060008060008060008060006101208a8c03121562002aad57600080fd5b893562002aba8162002892565b985060208a013562002acc8162002892565b975060408a0135965060608a0135955060808a013562002aec8162002892565b945060a08a0135935062002b0360c08b0162002973565b925060e08a013591506101008a013590509295985092959850929598565b60005b8381101562002b3e57818101518382015260200162002b24565b50506000910152565b6000825162002b5b81846020870162002b21565b9190910192915050565b60006020828403121562002b7857600080fd5b81518015158114620019a557600080fd5b60006020828403121562002b9c57600080fd5b5051919050565b634e487b7160e01b600052601160045260246000fd5b818103818111156200194b576200194b62002ba3565b60006020828403121562002be257600080fd5b815167ffffffffffffffff81111562002bfa57600080fd5b8201601f8101841362002c0c57600080fd5b805162002c1d6200282082620027d2565b81815285602083850101111562002c3357600080fd5b62002c4682602083016020860162002b21565b95945050505050565b80820281158282048414176200194b576200194b62002ba3565b634e487b7160e01b600052601260045260246000fd5b60008262002c9d57634e487b7160e01b600052601260045260246000fd5b500490565b6000815180845262002cbc81602086016020860162002b21565b601f01601f19169290920160200192915050565b600061010080835262002ce68184018c62002ca2565b9050828103602084015262002cfc818b62002ca2565b90506001600160a01b038916604084015260ff881660608401528660808401528560a08401528460c084015282810360e0840152620011b5818562002ca2565b6001600160a01b0383168152604060208201526000620008df604083018462002ca2565b634e487b7160e01b600052603260045260246000fd5b808201808211156200194b576200194b62002ba3565b6000600019820362002da25762002da262002ba3565b506001019056fe60a06040526040516105e53803806105e583398101604081905261002291610387565b61002c828261003e565b506001600160a01b031660805261047e565b610047826100fe565b6040516001600160a01b038316907f1cf3b03a6cf19fa2baba4df148e9dcabedea7f8a5c07840e207e5c089be95d3e90600090a28051156100f2576100ed826001600160a01b0316635c60da1b6040518163ffffffff1660e01b8152600401602060405180830381865afa1580156100c3573d6000803e3d6000fd5b505050506040513d601f19601f820116820180604052508101906100e79190610447565b82610211565b505050565b6100fa610288565b5050565b806001600160a01b03163b60000361013957604051631933b43b60e21b81526001600160a01b03821660048201526024015b60405180910390fd5b807fa3f0ad74e5423aebfd80d3ef4346578335a9a72aeaee59ff6cb3582b35133d5080546001600160a01b0319166001600160a01b0392831617905560408051635c60da1b60e01b81529051600092841691635c60da1b9160048083019260209291908290030181865afa1580156101b5573d6000803e3d6000fd5b505050506040513d601f19601f820116820180604052508101906101d99190610447565b9050806001600160a01b03163b6000036100fa57604051634c9c8ce360e01b81526001600160a01b0382166004820152602401610130565b6060600080846001600160a01b03168460405161022e9190610462565b600060405180830381855af49150503d8060008114610269576040519150601f19603f3d011682016040523d82523d6000602084013e61026e565b606091505b50909250905061027f8583836102a9565b95945050505050565b34156102a75760405163b398979f60e01b815260040160405180910390fd5b565b6060826102be576102b982610308565b610301565b81511580156102d557506001600160a01b0384163b155b156102fe57604051639996b31560e01b81526001600160a01b0385166004820152602401610130565b50805b9392505050565b8051156103185780518082602001fd5b604051630a12f52160e11b815260040160405180910390fd5b80516001600160a01b038116811461034857600080fd5b919050565b634e487b7160e01b600052604160045260246000fd5b60005b8381101561037e578181015183820152602001610366565b50506000910152565b6000806040838503121561039a57600080fd5b6103a383610331565b60208401519092506001600160401b03808211156103c057600080fd5b818501915085601f8301126103d457600080fd5b8151818111156103e6576103e661034d565b604051601f8201601f19908116603f0116810190838211818310171561040e5761040e61034d565b8160405282815288602084870101111561042757600080fd5b610438836020830160208801610363565b80955050505050509250929050565b60006020828403121561045957600080fd5b61030182610331565b60008251610474818460208701610363565b9190910192915050565b60805161014d61049860003960006024015261014d6000f3fe608060405261000c61000e565b005b61001e610019610020565b6100b6565b565b60007f000000000000000000000000000000000000000000000000000000000000000073ffffffffffffffffffffffffffffffffffffffff16635c60da1b6040518163ffffffff1660e01b8152600401602060405180830381865afa15801561008d573d6000803e3d6000fd5b505050506040513d601f19601f820116820180604052508101906100b191906100da565b905090565b3660008037600080366000845af43d6000803e8080156100d5573d6000f35b3d6000fd5b6000602082840312156100ec57600080fd5b815173ffffffffffffffffffffffffffffffffffffffff8116811461011057600080fd5b939250505056fea2646970667358221220d475ccdcab8f42bd867688c7fa02ea27105861805ce597e4f351c8600bca34af64736f6c63430008140033a26469706673582212203fcfb98d8fd57f953b50f6ff285e15c9f36c37caebc9144a8ce286847cc08b0d64736f6c63430008140033",
  "linkReferences": {},
  "deployedLinkReferences": {}
}