{
  "_format": "hh-sol-artifact-1",
  "contractName": "DecimalMasterValidator",
  "sourceName": "contracts/DecimalMasterValidator.sol",
  "abi": [
    {
      "inputs": [
        {
          "internalType": "address",
          "name": "target",
          "type": "address"
        }
      ],
      "name": "AddressEmptyCode",
      "type": "error"
    },
    {
      "inputs": [],
      "name": "AlreadyMember",
      "type": "error"
    },
    {
      "inputs": [
        {
          "internalType": "address",
          "name": "implementation",
          "type": "address"
        }
      ],
      "name": "ERC1967InvalidImplementation",
      "type": "error"
    },
    {
      "inputs": [],
      "name": "ERC1967NonPayable",
      "type": "error"
    },
    {
      "inputs": [],
      "name": "FailedInnerCall",
      "type": "error"
    },
    {
      "inputs": [],
      "name": "InvalidInitialization",
      "type": "error"
    },
    {
      "inputs": [],
      "name": "InvalidPenalty",
      "type": "error"
    },
    {
      "inputs": [],
      "name": "InvalidStatus",
      "type": "error"
    },
    {
      "inputs": [],
      "name": "NotInitializing",
      "type": "error"
    },
    {
      "inputs": [],
      "name": "NotMember",
      "type": "error"
    },
    {
      "inputs": [
        {
          "internalType": "address",
          "name": "owner",
          "type": "address"
        }
      ],
      "name": "OwnableInvalidOwner",
      "type": "error"
    },
    {
      "inputs": [
        {
          "internalType": "address",
          "name": "account",
          "type": "address"
        }
      ],
      "name": "OwnableUnauthorizedAccount",
      "type": "error"
    },
    {
      "inputs": [],
      "name": "ZeroAddress",
      "type": "error"
    },
    {
      "anonymous": false,
      "inputs": [
        {
          "indexed": true,
          "internalType": "address",
          "name": "oldContract",
          "type": "address"
        },
        {
          "indexed": true,
          "internalType": "address",
          "name": "newContract",
          "type": "address"
        }
      ],
      "name": "ContractUpgraded",
      "type": "event"
    },
    {
      "anonymous": false,
      "inputs": [
        {
          "indexed": false,
          "internalType": "uint64",
          "name": "version",
          "type": "uint64"
        }
      ],
      "name": "Initialized",
      "type": "event"
    },
    {
      "anonymous": false,
      "inputs": [
        {
          "indexed": true,
          "internalType": "address",
          "name": "previousOwner",
          "type": "address"
        },
        {
          "indexed": true,
          "internalType": "address",
          "name": "newOwner",
          "type": "address"
        }
      ],
      "name": "OwnershipTransferred",
      "type": "event"
    },
    {
      "anonymous": false,
      "inputs": [
        {
          "indexed": true,
          "internalType": "address",
          "name": "implementation",
          "type": "address"
        }
      ],
      "name": "Upgraded",
      "type": "event"
    },
    {
      "anonymous": false,
      "inputs": [
        {
          "indexed": true,
          "internalType": "address",
          "name": "validator",
          "type": "address"
        },
        {
          "indexed": false,
          "internalType": "string",
          "name": "meta",
          "type": "string"
        }
      ],
      "name": "ValidatorAdded",
      "type": "event"
    },
    {
      "anonymous": false,
      "inputs": [
        {
          "indexed": true,
          "internalType": "address",
          "name": "validator",
          "type": "address"
        },
        {
          "indexed": false,
          "internalType": "uint256",
          "name": "percentage",
          "type": "uint256"
        }
      ],
      "name": "ValidatorPenalty",
      "type": "event"
    },
    {
      "anonymous": false,
      "inputs": [
        {
          "indexed": true,
          "internalType": "address",
          "name": "validator",
          "type": "address"
        },
        {
          "indexed": false,
          "internalType": "enum IDecimalMasterValidator.ValidatorStatus",
          "name": "status",
          "type": "uint8"
        }
      ],
      "name": "ValidatorUpdated",
      "type": "event"
    },
    {
      "inputs": [
        {
          "internalType": "address",
          "name": "validator",
          "type": "address"
        },
        {
          "internalType": "uint16",
          "name": "penaltyPercentage",
          "type": "uint16"
        }
      ],
      "name": "addPenalty",
      "outputs": [],
      "stateMutability": "nonpayable",
      "type": "function"
    },
    {
      "inputs": [
        {
          "internalType": "address",
          "name": "validator",
          "type": "address"
        },
        {
          "internalType": "string",
          "name": "meta",
          "type": "string"
        }
      ],
      "name": "addValidator",
      "outputs": [],
      "stateMutability": "nonpayable",
      "type": "function"
    },
    {
      "inputs": [
        {
          "internalType": "address[]",
          "name": "validatorsToAdd",
          "type": "address[]"
        },
        {
          "internalType": "string[]",
          "name": "metas",
          "type": "string[]"
        }
      ],
      "name": "addValidators",
      "outputs": [],
      "stateMutability": "nonpayable",
      "type": "function"
    },
    {
      "inputs": [
        {
          "internalType": "address",
          "name": "validator",
          "type": "address"
        }
      ],
      "name": "getValidatorPenalties",
      "outputs": [
        {
          "internalType": "uint16[]",
          "name": "",
          "type": "uint16[]"
        }
      ],
      "stateMutability": "view",
      "type": "function"
    },
    {
      "inputs": [
        {
          "internalType": "address",
          "name": "validator",
          "type": "address"
        }
      ],
      "name": "getValidatorStatus",
      "outputs": [
        {
          "internalType": "enum IDecimalMasterValidator.ValidatorStatus",
          "name": "",
          "type": "uint8"
        }
      ],
      "stateMutability": "view",
      "type": "function"
    },
    {
      "inputs": [
        {
          "internalType": "address",
          "name": "validator",
          "type": "address"
        }
      ],
      "name": "isActive",
      "outputs": [
        {
          "internalType": "bool",
          "name": "",
          "type": "bool"
        }
      ],
      "stateMutability": "view",
      "type": "function"
    },
    {
      "inputs": [
        {
          "internalType": "address",
          "name": "validator",
          "type": "address"
        }
      ],
      "name": "isMember",
      "outputs": [
        {
          "internalType": "bool",
          "name": "",
          "type": "bool"
        }
      ],
      "stateMutability": "view",
      "type": "function"
    },
    {
      "inputs": [],
      "name": "owner",
      "outputs": [
        {
          "internalType": "address",
          "name": "",
          "type": "address"
        }
      ],
      "stateMutability": "view",
      "type": "function"
    },
    {
      "inputs": [
        {
          "internalType": "address",
          "name": "validator",
          "type": "address"
        }
      ],
      "name": "pauseValidator",
      "outputs": [],
      "stateMutability": "nonpayable",
      "type": "function"
    },
    {
      "inputs": [
        {
          "internalType": "address",
          "name": "validator",
          "type": "address"
        }
      ],
      "name": "removeValidator",
      "outputs": [],
      "stateMutability": "nonpayable",
      "type": "function"
    },
    {
      "inputs": [],
      "name": "renounceOwnership",
      "outputs": [],
      "stateMutability": "nonpayable",
      "type": "function"
    },
    {
      "inputs": [
        {
          "internalType": "address",
          "name": "newOwner",
          "type": "address"
        }
      ],
      "name": "transferOwnership",
      "outputs": [],
      "stateMutability": "nonpayable",
      "type": "function"
    },
    {
      "inputs": [
        {
          "internalType": "address",
          "name": "validator",
          "type": "address"
        }
      ],
      "name": "unpauseValidator",
      "outputs": [],
      "stateMutability": "nonpayable",
      "type": "function"
    },
    {
      "inputs": [
        {
          "internalType": "address",
          "name": "newImplementation",
          "type": "address"
        }
      ],
      "name": "upgrade",
      "outputs": [],
      "stateMutability": "nonpayable",
      "type": "function"
    },
    {
      "inputs": [
        {
          "internalType": "address",
          "name": "newImplementation",
          "type": "address"
        },
        {
          "internalType": "bytes",
          "name": "data",
          "type": "bytes"
        }
      ],
      "name": "upgrade",
      "outputs": [],
      "stateMutability": "nonpayable",
      "type": "function"
    }
  ],
  "bytecode": "0x608060405234801561001057600080fd5b50611403806100206000396000f3fe608060405234801561001057600080fd5b50600436106100f55760003560e01c8063715018a611610097578063a310624f11610066578063a310624f1461020f578063c987336c14610267578063f2fde38b1461027a578063f890dcf71461028d57600080fd5b8063715018a6146101975780638da5cb5b1461019f5780639f8a13d7146101d9578063a230c524146101fc57600080fd5b80630af66c5a116100d35780630af66c5a1461013557806340a141ff1461014857806363e2a2321461015b5780636dd6f5d11461016e57600080fd5b80630437e4fd146100fa5780630900f0101461010f5780630ae65e7a14610122575b600080fd5b61010d610108366004610fbc565b6102a0565b005b61010d61011d366004610fbc565b610341565b61010d610130366004610fbc565b610362565b61010d610143366004610fd9565b61061c565b61010d610156366004610fbc565b610721565b61010d610169366004611019565b6107b3565b61018161017c366004610fbc565b61088e565b60405161018e919061109e565b60405180910390f35b61010d610944565b7f9016d09d72d40fdae2fd8ceac6b6234c7706214fd39c1cd1e609a0528c199300546040516001600160a01b03909116815260200161018e565b6101ec6101e7366004610fbc565b610958565b604051901515815260200161018e565b6101ec61020a366004610fbc565b6109ae565b61025a61021d366004610fbc565b6001600160a01b031660009081527fbbafc1595defec425b729ff3a253f5448e963df207711015f7de6249ff643f01602052604090205460ff1690565b60405161018e91906110fc565b61010d61027536600461113a565b610a04565b61010d610288366004610fbc565b610a61565b61010d61029b36600461124a565b610ab5565b6102a8610b3b565b60016102eb826001600160a01b031660009081527fbbafc1595defec425b729ff3a253f5448e963df207711015f7de6249ff643f01602052604090205460ff1690565b60028111156102fc576102fc6110e6565b14610333576040517ff525e32000000000000000000000000000000000000000000000000000000000815260040160405180910390fd5b61033e816002610b81565b50565b610349610b3b565b61033e8160405180602001604052806000815250610a04565b7f9016d09d72d40fdae2fd8ceac6b6234c7706214fd39c1cd1e609a0528c199300546001600160a01b03163314801590610466575061039f610c52565b6040517fbf40fac100000000000000000000000000000000000000000000000000000000815260206004820152600a60248201527f64656c65676174696f6e0000000000000000000000000000000000000000000060448201526001600160a01b03919091169063bf40fac190606401602060405180830381865afa15801561042c573d6000803e3d6000fd5b505050506040513d601f19601f8201168201806040525081019061045091906112b6565b6001600160a01b0316336001600160a01b031614155b801561053c5750610475610c52565b6040517fbf40fac100000000000000000000000000000000000000000000000000000000815260206004820152600e60248201527f64656c65676174696f6e2d6e667400000000000000000000000000000000000060448201526001600160a01b03919091169063bf40fac190606401602060405180830381865afa158015610502573d6000803e3d6000fd5b505050506040513d601f19601f8201168201806040525081019061052691906112b6565b6001600160a01b0316336001600160a01b031614155b1561058657335b6040517f118cdaa70000000000000000000000000000000000000000000000000000000081526001600160a01b0390911660048201526024015b60405180910390fd5b60026105c9826001600160a01b031660009081527fbbafc1595defec425b729ff3a253f5448e963df207711015f7de6249ff643f01602052604090205460ff1690565b60028111156105da576105da6110e6565b14610611576040517ff525e32000000000000000000000000000000000000000000000000000000000815260040160405180910390fd5b61033e816001610b81565b610624610b3b565b61062d82610362565b61ffff81161580610642575060648161ffff16115b15610679576040517f458eae5b00000000000000000000000000000000000000000000000000000000815260040160405180910390fd5b6001600160a01b03821660008181527fbbafc1595defec425b729ff3a253f5448e963df207711015f7de6249ff643f01602090815260408083206001908101805491820181558452928290206010840401805461ffff8781166002600f909716969096026101000a8681029102199091161790558051928352517f19ff0fc7a4a07f7c07236f0b2fe800e25ec7beae3194fe7a2bcb823057b2b1459281900390910190a25050565b610729610b3b565b6001600160a01b038116610769576040517fd92e233d00000000000000000000000000000000000000000000000000000000815260040160405180910390fd5b610772816109ae565b6107a8576040517f291fc44200000000000000000000000000000000000000000000000000000000815260040160405180910390fd5b61033e816000610b81565b6107bb610b3b565b6001600160a01b0383166107fb576040517fd92e233d00000000000000000000000000000000000000000000000000000000815260040160405180910390fd5b610804836109ae565b1561083b576040517f810074be00000000000000000000000000000000000000000000000000000000815260040160405180910390fd5b610846836002610b81565b826001600160a01b03167f1b7d03cceb084ba7be615fd8e4ed4d42b157b5accf0863d634316e93b2207b4483836040516108819291906112d3565b60405180910390a2505050565b6001600160a01b03811660009081527fbbafc1595defec425b729ff3a253f5448e963df207711015f7de6249ff643f01602090815260409182902060010180548351818402810184019094528084526060939283018282801561093857602002820191906000526020600020906000905b82829054906101000a900461ffff1661ffff16815260200190600201906020826001010492830192600103820291508084116108ff5790505b50505050509050919050565b61094c610b3b565b6109566000610c85565b565b6001600160a01b03811660009081527fbbafc1595defec425b729ff3a253f5448e963df207711015f7de6249ff643f01602052604081205460029060ff1660028111156109a7576109a76110e6565b1492915050565b6001600160a01b03811660009081527fbbafc1595defec425b729ff3a253f5448e963df207711015f7de6249ff643f016020526040812054819060ff1660028111156109fc576109fc6110e6565b141592915050565b610a0c610b3b565b610a168282610d0e565b816001600160a01b0316610a28610d6d565b6001600160a01b03167f2e4cc16c100f0b55e2df82ab0b1a7e294aa9cbd01b48fbaf622683fbc0507a4960405160405180910390a35050565b610a69610b3b565b6001600160a01b038116610aac576040517f1e4fbdf70000000000000000000000000000000000000000000000000000000081526000600482015260240161057d565b61033e81610c85565b610abd610b3b565b828114610ac957600080fd5b60005b83811015610b3457610b22858583818110610ae957610ae9611302565b9050602002016020810190610afe9190610fbc565b848484818110610b1057610b10611302565b90506020028101906101699190611318565b610b2d60018261137d565b9050610acc565b5050505050565b33610b6d7f9016d09d72d40fdae2fd8ceac6b6234c7706214fd39c1cd1e609a0528c199300546001600160a01b031690565b6001600160a01b0316146109565733610543565b6001600160a01b03821660009081527fbbafc1595defec425b729ff3a253f5448e963df207711015f7de6249ff643f016020526040902080547fbbafc1595defec425b729ff3a253f5448e963df207711015f7de6249ff643f009183917fffffffffffffffffffffffffffffffffffffffffffffffffffffffffffffff00166001836002811115610c1457610c146110e6565b0217905550826001600160a01b03167f6d3d826c6a80121b921ceba45a27a2e2a6b90afbe1898042edb3b84a9d0abe0b8360405161088191906110fc565b60007fbbafc1595defec425b729ff3a253f5448e963df207711015f7de6249ff643f005b546001600160a01b0316919050565b7f9016d09d72d40fdae2fd8ceac6b6234c7706214fd39c1cd1e609a0528c19930080547fffffffffffffffffffffffff000000000000000000000000000000000000000081166001600160a01b03848116918217845560405192169182907f8be0079c531659141344cd1fd0a4f28419497f9722a3daafe3b4186f6b6457e090600090a3505050565b610d1782610d95565b6040516001600160a01b038316907fbc7cd75a20ee27fd9adebab32041f755214dbc6bffa90cc0225b39da2e5c2d3b90600090a2805115610d6157610d5c8282610e3d565b505050565b610d69610eb5565b5050565b60007f360894a13ba1a3210667c828492db98dca3e2076cc3735a920a3ca505d382bbc610c76565b806001600160a01b03163b600003610de4576040517f4c9c8ce30000000000000000000000000000000000000000000000000000000081526001600160a01b038216600482015260240161057d565b7f360894a13ba1a3210667c828492db98dca3e2076cc3735a920a3ca505d382bbc80547fffffffffffffffffffffffff0000000000000000000000000000000000000000166001600160a01b0392909216919091179055565b6060600080846001600160a01b031684604051610e5a919061139e565b600060405180830381855af49150503d8060008114610e95576040519150601f19603f3d011682016040523d82523d6000602084013e610e9a565b606091505b5091509150610eaa858383610eed565b925050505b92915050565b3415610956576040517fb398979f00000000000000000000000000000000000000000000000000000000815260040160405180910390fd5b606082610f0257610efd82610f65565b610f5e565b8151158015610f1957506001600160a01b0384163b155b15610f5b576040517f9996b3150000000000000000000000000000000000000000000000000000000081526001600160a01b038516600482015260240161057d565b50805b9392505050565b805115610f755780518082602001fd5b6040517f1425ea4200000000000000000000000000000000000000000000000000000000815260040160405180910390fd5b6001600160a01b038116811461033e57600080fd5b600060208284031215610fce57600080fd5b8135610f5e81610fa7565b60008060408385031215610fec57600080fd5b8235610ff781610fa7565b9150602083013561ffff8116811461100e57600080fd5b809150509250929050565b60008060006040848603121561102e57600080fd5b833561103981610fa7565b9250602084013567ffffffffffffffff8082111561105657600080fd5b818601915086601f83011261106a57600080fd5b81358181111561107957600080fd5b87602082850101111561108b57600080fd5b6020830194508093505050509250925092565b6020808252825182820181905260009190848201906040850190845b818110156110da57835161ffff16835292840192918401916001016110ba565b50909695505050505050565b634e487b7160e01b600052602160045260246000fd5b602081016003831061111e57634e487b7160e01b600052602160045260246000fd5b91905290565b634e487b7160e01b600052604160045260246000fd5b6000806040838503121561114d57600080fd5b823561115881610fa7565b9150602083013567ffffffffffffffff8082111561117557600080fd5b818501915085601f83011261118957600080fd5b81358181111561119b5761119b611124565b604051601f8201601f19908116603f011681019083821181831017156111c3576111c3611124565b816040528281528860208487010111156111dc57600080fd5b8260208601602083013760006020848301015280955050505050509250929050565b60008083601f84011261121057600080fd5b50813567ffffffffffffffff81111561122857600080fd5b6020830191508360208260051b850101111561124357600080fd5b9250929050565b6000806000806040858703121561126057600080fd5b843567ffffffffffffffff8082111561127857600080fd5b611284888389016111fe565b9096509450602087013591508082111561129d57600080fd5b506112aa878288016111fe565b95989497509550505050565b6000602082840312156112c857600080fd5b8151610f5e81610fa7565b60208152816020820152818360408301376000818301604090810191909152601f909201601f19160101919050565b634e487b7160e01b600052603260045260246000fd5b60008083357fffffffffffffffffffffffffffffffffffffffffffffffffffffffffffffffe184360301811261134d57600080fd5b83018035915067ffffffffffffffff82111561136857600080fd5b60200191503681900382131561124357600080fd5b80820180821115610eaf57634e487b7160e01b600052601160045260246000fd5b6000825160005b818110156113bf57602081860181015185830152016113a5565b50600092019182525091905056fea2646970667358221220ffb12e04d012cbe244448df8328dce9d2dc6da009936066b735fe2e8a9a5582564736f6c63430008140033",
  "linkReferences": {},
  "deployedLinkReferences": {}
}