{
  "_format": "hh-sol-artifact-1",
  "contractName": "DecimalDelegation",
  "sourceName": "contracts/DecimalDelegation.sol",
  "abi": [
    {
      "inputs": [
        {
          "internalType": "address",
          "name": "target",
          "type": "address"
        }
      ],
      "name": "AddressEmptyCode",
      "type": "error"
    },
    {
      "inputs": [
        {
          "internalType": "address",
          "name": "account",
          "type": "address"
        }
      ],
      "name": "AddressInsufficientBalance",
      "type": "error"
    },
    {
      "inputs": [
        {
          "internalType": "address",
          "name": "implementation",
          "type": "address"
        }
      ],
      "name": "ERC1967InvalidImplementation",
      "type": "error"
    },
    {
      "inputs": [],
      "name": "ERC1967NonPayable",
      "type": "error"
    },
    {
      "inputs": [],
      "name": "FailedInnerCall",
      "type": "error"
    },
    {
      "inputs": [],
      "name": "FrozenStakesQueueIsEmpty",
      "type": "error"
    },
    {
      "inputs": [],
      "name": "InvalidAmount",
      "type": "error"
    },
    {
      "inputs": [],
      "name": "InvalidCollection",
      "type": "error"
    },
    {
      "inputs": [],
      "name": "InvalidFrozenStakeIndex",
      "type": "error"
    },
    {
      "inputs": [],
      "name": "InvalidInitialization",
      "type": "error"
    },
    {
      "inputs": [],
      "name": "InvalidToken",
      "type": "error"
    },
    {
      "inputs": [],
      "name": "InvalidValidator",
      "type": "error"
    },
    {
      "inputs": [],
      "name": "NoPenaltyToApply",
      "type": "error"
    },
    {
      "inputs": [],
      "name": "NotERC1155",
      "type": "error"
    },
    {
      "inputs": [],
      "name": "NotERC721",
      "type": "error"
    },
    {
      "inputs": [],
      "name": "NotInitializing",
      "type": "error"
    },
    {
      "inputs": [],
      "name": "NothingToBurn",
      "type": "error"
    },
    {
      "inputs": [],
      "name": "OnlyNftWithReserveAllowed",
      "type": "error"
    },
    {
      "inputs": [
        {
          "internalType": "address",
          "name": "owner",
          "type": "address"
        }
      ],
      "name": "OwnableInvalidOwner",
      "type": "error"
    },
    {
      "inputs": [
        {
          "internalType": "address",
          "name": "account",
          "type": "address"
        }
      ],
      "name": "OwnableUnauthorizedAccount",
      "type": "error"
    },
    {
      "inputs": [],
      "name": "PenaltyNotCompleted",
      "type": "error"
    },
    {
      "inputs": [],
      "name": "ReentrancyGuardReentrantCall",
      "type": "error"
    },
    {
      "inputs": [
        {
          "internalType": "address",
          "name": "token",
          "type": "address"
        }
      ],
      "name": "SafeERC20FailedOperation",
      "type": "error"
    },
    {
      "inputs": [],
      "name": "StakeAlreadyUnfrozen",
      "type": "error"
    },
    {
      "inputs": [],
      "name": "TimestampError",
      "type": "error"
    },
    {
      "anonymous": false,
      "inputs": [
        {
          "indexed": false,
          "internalType": "address",
          "name": "validator",
          "type": "address"
        },
        {
          "indexed": false,
          "internalType": "address",
          "name": "token",
          "type": "address"
        },
        {
          "indexed": false,
          "internalType": "enum DecimalDelegationCore.TokenType",
          "name": "tokenType",
          "type": "uint8"
        },
        {
          "indexed": false,
          "internalType": "uint256",
          "name": "tokenId",
          "type": "uint256"
        },
        {
          "indexed": false,
          "internalType": "uint256",
          "name": "penaltyIndex",
          "type": "uint256"
        },
        {
          "indexed": false,
          "internalType": "uint256",
          "name": "penaltyPercentage",
          "type": "uint256"
        }
      ],
      "name": "BurnedPenaltyTokens",
      "type": "event"
    },
    {
      "anonymous": false,
      "inputs": [
        {
          "components": [
            {
              "internalType": "address",
              "name": "validator",
              "type": "address"
            },
            {
              "internalType": "address",
              "name": "delegator",
              "type": "address"
            },
            {
              "internalType": "address",
              "name": "token",
              "type": "address"
            },
            {
              "internalType": "uint256",
              "name": "amount",
              "type": "uint256"
            },
            {
              "internalType": "uint256",
              "name": "tokenId",
              "type": "uint256"
            },
            {
              "internalType": "enum DecimalDelegationCore.TokenType",
              "name": "tokenType",
              "type": "uint8"
            }
          ],
          "indexed": false,
          "internalType": "struct DecimalDelegationCore.Stake",
          "name": "stake",
          "type": "tuple"
        }
      ],
      "name": "CompletedTransfer",
      "type": "event"
    },
    {
      "anonymous": false,
      "inputs": [
        {
          "components": [
            {
              "internalType": "address",
              "name": "validator",
              "type": "address"
            },
            {
              "internalType": "address",
              "name": "delegator",
              "type": "address"
            },
            {
              "internalType": "address",
              "name": "token",
              "type": "address"
            },
            {
              "internalType": "uint256",
              "name": "amount",
              "type": "uint256"
            },
            {
              "internalType": "uint256",
              "name": "tokenId",
              "type": "uint256"
            },
            {
              "internalType": "enum DecimalDelegationCore.TokenType",
              "name": "tokenType",
              "type": "uint8"
            }
          ],
          "indexed": false,
          "internalType": "struct DecimalDelegationCore.Stake",
          "name": "stake",
          "type": "tuple"
        }
      ],
      "name": "CompletedWithdraw",
      "type": "event"
    },
    {
      "anonymous": false,
      "inputs": [
        {
          "indexed": true,
          "internalType": "address",
          "name": "oldContract",
          "type": "address"
        },
        {
          "indexed": true,
          "internalType": "address",
          "name": "newContract",
          "type": "address"
        }
      ],
      "name": "ContractUpgraded",
      "type": "event"
    },
    {
      "anonymous": false,
      "inputs": [
        {
          "indexed": false,
          "internalType": "uint64",
          "name": "version",
          "type": "uint64"
        }
      ],
      "name": "Initialized",
      "type": "event"
    },
    {
      "anonymous": false,
      "inputs": [
        {
          "indexed": true,
          "internalType": "address",
          "name": "previousOwner",
          "type": "address"
        },
        {
          "indexed": true,
          "internalType": "address",
          "name": "newOwner",
          "type": "address"
        }
      ],
      "name": "OwnershipTransferred",
      "type": "event"
    },
    {
      "anonymous": false,
      "inputs": [
        {
          "components": [
            {
              "components": [
                {
                  "internalType": "address",
                  "name": "validator",
                  "type": "address"
                },
                {
                  "internalType": "address",
                  "name": "delegator",
                  "type": "address"
                },
                {
                  "internalType": "address",
                  "name": "token",
                  "type": "address"
                },
                {
                  "internalType": "uint256",
                  "name": "amount",
                  "type": "uint256"
                },
                {
                  "internalType": "uint256",
                  "name": "tokenId",
                  "type": "uint256"
                },
                {
                  "internalType": "enum DecimalDelegationCore.TokenType",
                  "name": "tokenType",
                  "type": "uint8"
                }
              ],
              "internalType": "struct DecimalDelegationCore.Stake",
              "name": "stake",
              "type": "tuple"
            },
            {
              "internalType": "enum DecimalDelegationCore.FreezeType",
              "name": "freezeType",
              "type": "uint8"
            },
            {
              "internalType": "uint256",
              "name": "unfreezeTimestamp",
              "type": "uint256"
            }
          ],
          "indexed": false,
          "internalType": "struct DecimalDelegationCore.FrozenStake",
          "name": "frozenStake",
          "type": "tuple"
        },
        {
          "indexed": false,
          "internalType": "uint256",
          "name": "queueIndex",
          "type": "uint256"
        },
        {
          "indexed": false,
          "internalType": "address",
          "name": "newValidator",
          "type": "address"
        }
      ],
      "name": "RequestTransfer",
      "type": "event"
    },
    {
      "anonymous": false,
      "inputs": [
        {
          "components": [
            {
              "components": [
                {
                  "internalType": "address",
                  "name": "validator",
                  "type": "address"
                },
                {
                  "internalType": "address",
                  "name": "delegator",
                  "type": "address"
                },
                {
                  "internalType": "address",
                  "name": "token",
                  "type": "address"
                },
                {
                  "internalType": "uint256",
                  "name": "amount",
                  "type": "uint256"
                },
                {
                  "internalType": "uint256",
                  "name": "tokenId",
                  "type": "uint256"
                },
                {
                  "internalType": "enum DecimalDelegationCore.TokenType",
                  "name": "tokenType",
                  "type": "uint8"
                }
              ],
              "internalType": "struct DecimalDelegationCore.Stake",
              "name": "stake",
              "type": "tuple"
            },
            {
              "internalType": "enum DecimalDelegationCore.FreezeType",
              "name": "freezeType",
              "type": "uint8"
            },
            {
              "internalType": "uint256",
              "name": "unfreezeTimestamp",
              "type": "uint256"
            }
          ],
          "indexed": false,
          "internalType": "struct DecimalDelegationCore.FrozenStake",
          "name": "frozenStake",
          "type": "tuple"
        },
        {
          "indexed": false,
          "internalType": "uint256",
          "name": "queueIndex",
          "type": "uint256"
        }
      ],
      "name": "RequestWithdraw",
      "type": "event"
    },
    {
      "anonymous": false,
      "inputs": [
        {
          "components": [
            {
              "internalType": "address",
              "name": "validator",
              "type": "address"
            },
            {
              "internalType": "address",
              "name": "delegator",
              "type": "address"
            },
            {
              "internalType": "address",
              "name": "token",
              "type": "address"
            },
            {
              "internalType": "uint256",
              "name": "amount",
              "type": "uint256"
            },
            {
              "internalType": "uint256",
              "name": "tokenId",
              "type": "uint256"
            },
            {
              "internalType": "enum DecimalDelegationCore.TokenType",
              "name": "tokenType",
              "type": "uint8"
            }
          ],
          "indexed": false,
          "internalType": "struct DecimalDelegationCore.Stake",
          "name": "stake",
          "type": "tuple"
        }
      ],
      "name": "Staked",
      "type": "event"
    },
    {
      "anonymous": false,
      "inputs": [
        {
          "indexed": true,
          "internalType": "address",
          "name": "implementation",
          "type": "address"
        }
      ],
      "name": "Upgraded",
      "type": "event"
    },
    {
      "inputs": [],
      "name": "WETH",
      "outputs": [
        {
          "internalType": "contract IWETH",
          "name": "",
          "type": "address"
        }
      ],
      "stateMutability": "view",
      "type": "function"
    },
    {
      "inputs": [
        {
          "internalType": "address",
          "name": "validator",
          "type": "address"
        },
        {
          "internalType": "address",
          "name": "delegator",
          "type": "address"
        },
        {
          "internalType": "address",
          "name": "token",
          "type": "address"
        }
      ],
      "name": "applyPenaltiesToStake",
      "outputs": [],
      "stateMutability": "nonpayable",
      "type": "function"
    },
    {
      "inputs": [
        {
          "internalType": "address",
          "name": "validator",
          "type": "address"
        },
        {
          "internalType": "address",
          "name": "delegator",
          "type": "address"
        },
        {
          "internalType": "address",
          "name": "token",
          "type": "address"
        }
      ],
      "name": "applyPenaltyToStake",
      "outputs": [],
      "stateMutability": "nonpayable",
      "type": "function"
    },
    {
      "inputs": [
        {
          "internalType": "address",
          "name": "validator",
          "type": "address"
        },
        {
          "internalType": "address",
          "name": "token",
          "type": "address"
        }
      ],
      "name": "burnPenaltyTokens",
      "outputs": [],
      "stateMutability": "nonpayable",
      "type": "function"
    },
    {
      "inputs": [
        {
          "internalType": "address",
          "name": "validator",
          "type": "address"
        }
      ],
      "name": "burnPenaltyTokensValidator",
      "outputs": [],
      "stateMutability": "nonpayable",
      "type": "function"
    },
    {
      "inputs": [],
      "name": "completeQueuedStake",
      "outputs": [],
      "stateMutability": "nonpayable",
      "type": "function"
    },
    {
      "inputs": [
        {
          "internalType": "uint256",
          "name": "index",
          "type": "uint256"
        }
      ],
      "name": "completeStake",
      "outputs": [],
      "stateMutability": "nonpayable",
      "type": "function"
    },
    {
      "inputs": [
        {
          "internalType": "address",
          "name": "validator",
          "type": "address"
        },
        {
          "internalType": "address",
          "name": "token",
          "type": "address"
        },
        {
          "internalType": "uint256",
          "name": "amount",
          "type": "uint256"
        }
      ],
      "name": "delegate",
      "outputs": [],
      "stateMutability": "nonpayable",
      "type": "function"
    },
    {
      "inputs": [
        {
          "internalType": "address",
          "name": "validator",
          "type": "address"
        },
        {
          "internalType": "address",
          "name": "token",
          "type": "address"
        },
        {
          "internalType": "uint256",
          "name": "amount",
          "type": "uint256"
        },
        {
          "internalType": "uint256",
          "name": "deadline",
          "type": "uint256"
        },
        {
          "internalType": "uint8",
          "name": "v",
          "type": "uint8"
        },
        {
          "internalType": "bytes32",
          "name": "r",
          "type": "bytes32"
        },
        {
          "internalType": "bytes32",
          "name": "s",
          "type": "bytes32"
        }
      ],
      "name": "delegateByPermit",
      "outputs": [],
      "stateMutability": "nonpayable",
      "type": "function"
    },
    {
      "inputs": [
        {
          "internalType": "address",
          "name": "validator",
          "type": "address"
        }
      ],
      "name": "delegateETH",
      "outputs": [],
      "stateMutability": "payable",
      "type": "function"
    },
    {
      "inputs": [],
      "name": "getContractCenter",
      "outputs": [
        {
          "internalType": "address",
          "name": "",
          "type": "address"
        }
      ],
      "stateMutability": "view",
      "type": "function"
    },
    {
      "inputs": [
        {
          "internalType": "enum DecimalDelegationCore.FreezeType",
          "name": "freezeType",
          "type": "uint8"
        }
      ],
      "name": "getFreezeTime",
      "outputs": [
        {
          "internalType": "uint256",
          "name": "",
          "type": "uint256"
        }
      ],
      "stateMutability": "view",
      "type": "function"
    },
    {
      "inputs": [],
      "name": "getFrozenStakesQueue",
      "outputs": [
        {
          "components": [
            {
              "components": [
                {
                  "internalType": "address",
                  "name": "validator",
                  "type": "address"
                },
                {
                  "internalType": "address",
                  "name": "delegator",
                  "type": "address"
                },
                {
                  "internalType": "address",
                  "name": "token",
                  "type": "address"
                },
                {
                  "internalType": "uint256",
                  "name": "amount",
                  "type": "uint256"
                },
                {
                  "internalType": "uint256",
                  "name": "tokenId",
                  "type": "uint256"
                },
                {
                  "internalType": "enum DecimalDelegationCore.TokenType",
                  "name": "tokenType",
                  "type": "uint8"
                }
              ],
              "internalType": "struct DecimalDelegationCore.Stake",
              "name": "stake",
              "type": "tuple"
            },
            {
              "internalType": "enum DecimalDelegationCore.FreezeType",
              "name": "freezeType",
              "type": "uint8"
            },
            {
              "internalType": "uint256",
              "name": "unfreezeTimestamp",
              "type": "uint256"
            }
          ],
          "internalType": "struct DecimalDelegationCore.FrozenStake[]",
          "name": "",
          "type": "tuple[]"
        }
      ],
      "stateMutability": "view",
      "type": "function"
    },
    {
      "inputs": [
        {
          "internalType": "address",
          "name": "validator",
          "type": "address"
        },
        {
          "internalType": "address",
          "name": "delegator",
          "type": "address"
        },
        {
          "internalType": "address",
          "name": "token",
          "type": "address"
        }
      ],
      "name": "getStake",
      "outputs": [
        {
          "components": [
            {
              "internalType": "address",
              "name": "validator",
              "type": "address"
            },
            {
              "internalType": "address",
              "name": "delegator",
              "type": "address"
            },
            {
              "internalType": "address",
              "name": "token",
              "type": "address"
            },
            {
              "internalType": "uint256",
              "name": "amount",
              "type": "uint256"
            },
            {
              "internalType": "uint256",
              "name": "tokenId",
              "type": "uint256"
            },
            {
              "internalType": "enum DecimalDelegationCore.TokenType",
              "name": "tokenType",
              "type": "uint8"
            }
          ],
          "internalType": "struct DecimalDelegationCore.Stake",
          "name": "",
          "type": "tuple"
        }
      ],
      "stateMutability": "view",
      "type": "function"
    },
    {
      "inputs": [
        {
          "internalType": "address",
          "name": "validator",
          "type": "address"
        },
        {
          "internalType": "address",
          "name": "delegator",
          "type": "address"
        },
        {
          "internalType": "address",
          "name": "token",
          "type": "address"
        }
      ],
      "name": "getStakeId",
      "outputs": [
        {
          "internalType": "bytes32",
          "name": "",
          "type": "bytes32"
        }
      ],
      "stateMutability": "pure",
      "type": "function"
    },
    {
      "inputs": [
        {
          "internalType": "address",
          "name": "member",
          "type": "address"
        }
      ],
      "name": "getStakesByMember",
      "outputs": [
        {
          "components": [
            {
              "internalType": "address",
              "name": "validator",
              "type": "address"
            },
            {
              "internalType": "address",
              "name": "delegator",
              "type": "address"
            },
            {
              "internalType": "address",
              "name": "token",
              "type": "address"
            },
            {
              "internalType": "uint256",
              "name": "amount",
              "type": "uint256"
            },
            {
              "internalType": "uint256",
              "name": "tokenId",
              "type": "uint256"
            },
            {
              "internalType": "enum DecimalDelegationCore.TokenType",
              "name": "tokenType",
              "type": "uint8"
            }
          ],
          "internalType": "struct DecimalDelegationCore.Stake[]",
          "name": "stakes",
          "type": "tuple[]"
        }
      ],
      "stateMutability": "view",
      "type": "function"
    },
    {
      "inputs": [
        {
          "internalType": "address",
          "name": "member",
          "type": "address"
        },
        {
          "internalType": "uint256",
          "name": "size",
          "type": "uint256"
        },
        {
          "internalType": "uint256",
          "name": "offset",
          "type": "uint256"
        }
      ],
      "name": "getStakesPageByMember",
      "outputs": [
        {
          "components": [
            {
              "internalType": "address",
              "name": "validator",
              "type": "address"
            },
            {
              "internalType": "address",
              "name": "delegator",
              "type": "address"
            },
            {
              "internalType": "address",
              "name": "token",
              "type": "address"
            },
            {
              "internalType": "uint256",
              "name": "amount",
              "type": "uint256"
            },
            {
              "internalType": "uint256",
              "name": "tokenId",
              "type": "uint256"
            },
            {
              "internalType": "enum DecimalDelegationCore.TokenType",
              "name": "tokenType",
              "type": "uint8"
            }
          ],
          "internalType": "struct DecimalDelegationCore.Stake[]",
          "name": "stakes",
          "type": "tuple[]"
        },
        {
          "internalType": "uint256",
          "name": "newOffset",
          "type": "uint256"
        }
      ],
      "stateMutability": "view",
      "type": "function"
    },
    {
      "inputs": [
        {
          "internalType": "address",
          "name": "validator",
          "type": "address"
        },
        {
          "internalType": "address",
          "name": "token",
          "type": "address"
        }
      ],
      "name": "getValidatorReserve",
      "outputs": [
        {
          "internalType": "uint256",
          "name": "",
          "type": "uint256"
        }
      ],
      "stateMutability": "view",
      "type": "function"
    },
    {
      "inputs": [],
      "name": "isFrozenStakesQueueReady",
      "outputs": [
        {
          "internalType": "bool",
          "name": "",
          "type": "bool"
        }
      ],
      "stateMutability": "view",
      "type": "function"
    },
    {
      "inputs": [],
      "name": "owner",
      "outputs": [
        {
          "internalType": "address",
          "name": "",
          "type": "address"
        }
      ],
      "stateMutability": "view",
      "type": "function"
    },
    {
      "inputs": [],
      "name": "renounceOwnership",
      "outputs": [],
      "stateMutability": "nonpayable",
      "type": "function"
    },
    {
      "inputs": [
        {
          "internalType": "address",
          "name": "contractCenter",
          "type": "address"
        }
      ],
      "name": "setContractCenter",
      "outputs": [],
      "stateMutability": "nonpayable",
      "type": "function"
    },
    {
      "inputs": [
        {
          "internalType": "address",
          "name": "validator",
          "type": "address"
        },
        {
          "internalType": "address",
          "name": "token",
          "type": "address"
        },
        {
          "internalType": "uint256",
          "name": "amount",
          "type": "uint256"
        },
        {
          "internalType": "address",
          "name": "newValidator",
          "type": "address"
        }
      ],
      "name": "transfer",
      "outputs": [],
      "stateMutability": "nonpayable",
      "type": "function"
    },
    {
      "inputs": [
        {
          "internalType": "address",
          "name": "newOwner",
          "type": "address"
        }
      ],
      "name": "transferOwnership",
      "outputs": [],
      "stateMutability": "nonpayable",
      "type": "function"
    },
    {
      "inputs": [
        {
          "internalType": "address",
          "name": "newImplementation",
          "type": "address"
        }
      ],
      "name": "upgrade",
      "outputs": [],
      "stateMutability": "nonpayable",
      "type": "function"
    },
    {
      "inputs": [
        {
          "internalType": "address",
          "name": "newImplementation",
          "type": "address"
        },
        {
          "internalType": "bytes",
          "name": "data",
          "type": "bytes"
        }
      ],
      "name": "upgrade",
      "outputs": [],
      "stateMutability": "nonpayable",
      "type": "function"
    },
    {
      "inputs": [
        {
          "internalType": "address",
          "name": "validator",
          "type": "address"
        },
        {
          "internalType": "address",
          "name": "token",
          "type": "address"
        },
        {
          "internalType": "uint256",
          "name": "amount",
          "type": "uint256"
        }
      ],
      "name": "withdraw",
      "outputs": [],
      "stateMutability": "nonpayable",
      "type": "function"
    },
    {
      "stateMutability": "payable",
      "type": "receive"
    }
  ],
  "bytecode": "0x608060405234801561001057600080fd5b506001600055614178806100256000396000f3fe6080604052600436106101b05760003560e01c8063836f8963116100ec578063ba778bce1161008a578063d4a0aa4e11610064578063d4a0aa4e146104d8578063d9caed12146104f8578063f2fde38b14610518578063f9ce78131461053857600080fd5b8063ba778bce14610483578063c26f3acf14610498578063c987336c146104b857600080fd5b8063a16993a0116100c6578063a16993a014610414578063ad5c464814610436578063b53b3c661461044b578063b77d4f761461047057600080fd5b8063836f89631461038357806387fe0784146103a35780638da5cb5b146103c357600080fd5b80631418cb93116101595780635d518866116101335780635d518866146102f35780635fb599d414610320578063715018a6146103405780637ac6deb91461035557600080fd5b80631418cb931461029357806329e2c53c146102b3578063330b5c45146102d357600080fd5b806310823c981161018a57806310823c981461023e57806310ed5fd91461025e5780631103c5dc1461027357600080fd5b80630900f010146101bc5780630e08def3146101de5780630ef690851461021157600080fd5b366101b757005b600080fd5b3480156101c857600080fd5b506101dc6101d73660046139db565b610558565b005b3480156101ea57600080fd5b506101fe6101f93660046139f8565b61057c565b6040519081526020015b60405180910390f35b34801561021d57600080fd5b5061023161022c3660046139db565b6105d9565b6040516102089190613ae6565b34801561024a57600080fd5b506101dc610259366004613af9565b61066f565b34801561026a57600080fd5b506101dc610791565b34801561027f57600080fd5b506101fe61028e366004613af9565b61081f565b34801561029f57600080fd5b506101dc6102ae366004613b44565b610882565b3480156102bf57600080fd5b506101dc6102ce366004613bbb565b610a8e565b3480156102df57600080fd5b506101fe6102ee366004613bbb565b610abf565b3480156102ff57600080fd5b5061031361030e366004613af9565b610b18565b6040516102089190613bf4565b34801561032c57600080fd5b506101dc61033b3660046139db565b610b5b565b34801561034c57600080fd5b506101dc610bb4565b34801561036157600080fd5b50610375610370366004613c02565b610bc8565b604051610208929190613c37565b34801561038f57600080fd5b506101dc61039e366004613af9565b610c66565b3480156103af57600080fd5b506101dc6103be366004613c59565b610cb2565b3480156103cf57600080fd5b507f9016d09d72d40fdae2fd8ceac6b6234c7706214fd39c1cd1e609a0528c199300546001600160a01b03165b6040516001600160a01b039091168152602001610208565b34801561042057600080fd5b50610429610d49565b6040516102089190613c9c565b34801561044257600080fd5b506103fc610e86565b34801561045757600080fd5b50610460610ecb565b6040519015158152602001610208565b6101dc61047e3660046139db565b61109b565b34801561048f57600080fd5b506103fc611190565b3480156104a457600080fd5b506101dc6104b3366004613ceb565b6111c3565b3480156104c457600080fd5b506101dc6104d3366004613d73565b61131b565b3480156104e457600080fd5b506101dc6104f33660046139db565b61137e565b34801561050457600080fd5b506101dc610513366004613ceb565b61153a565b34801561052457600080fd5b506101dc6105333660046139db565b6116a0565b34801561054457600080fd5b506101dc610553366004613e1b565b6116f9565b610560611893565b610579816040518060200160405280600081525061131b565b50565b60007f243df89714896ed004edb3fe856e04c442b8ae95695caca0a7be343fa8528406818360038111156105b2576105b2613a19565b60038111156105c3576105c3613a19565b8152602001908152602001600020549050919050565b6001600160a01b03811660009081527f243df89714896ed004edb3fe856e04c442b8ae95695caca0a7be343fa852840460209081526040918290208054835181840281018401909452808452606093610669939092919083018282801561065f57602002820191906000526020600020905b81548152602001906001019080831161064b575b5050505050611907565b92915050565b7f243df89714896ed004edb3fe856e04c442b8ae95695caca0a7be343fa8528400600061069d85858561081f565b60008181526003840160205260408120600181015492935091906106c088611aa9565b518214905080156106e457604051634c3215c360e11b815260040160405180910390fd5b60006106ef89611aa9565b838151811061070057610700613e6e565b6020026020010151905060006127108261ffff16886001016000898152602001908152602001600020600301546107379190613e9a565b6107419190613eb1565b905060018560010160008282546107589190613ed3565b9091555050600086815260018801602052604081206003018054839290610780908490613ee6565b909155505050505050505050505050565b600061079b611b3c565b90506002816020015160038111156107b5576107b5613a19565b036107c557805161057990611ea0565b6001816020015160038111156107dd576107dd613a19565b036107ed57805161057990611ee3565b6040517fc47913bb00000000000000000000000000000000000000000000000000000000815260040160405180910390fd5b60408051606085811b6bffffffffffffffffffffffff1990811660208085019190915286831b821660348501529185901b1660488301526000605c80840182905284518085039091018152607c90930190935281519101205b90505b9392505050565b61088b8761202a565b6108a857604051631a0a9b9f60e21b815260040160405180910390fd5b6040517fd505accf000000000000000000000000000000000000000000000000000000008152336004820152306024820152604481018690526064810185905260ff8416608482015260a4810183905260c481018290526001600160a01b0387169063d505accf9060e401600060405180830381600087803b15801561092d57600080fd5b505af1158015610941573d6000803e3d6000fd5b5050505061094d6120b9565b6040517f9ed4fa5a0000000000000000000000000000000000000000000000000000000081526001600160a01b0388811660048301529190911690639ed4fa5a90602401602060405180830381865afa1580156109ae573d6000803e3d6000fd5b505050506040513d601f19601f820116820180604052508101906109d29190613ef9565b610a08576040517fc1ab6dc100000000000000000000000000000000000000000000000000000000815260040160405180910390fd5b610a1d6001600160a01b0387163330886120f9565b60006040518060c00160405280896001600160a01b03168152602001336001600160a01b03168152602001886001600160a01b031681526020018781526020016000815260200160016003811115610a7757610a77613a19565b90529050610a8481612175565b5050505050505050565b6000610a9a83836121a5565b905080610aba57604051634c3215c360e11b815260040160405180910390fd5b505050565b600061087b83610ace846121b3565b6001600160a01b039190911660009081527f243df89714896ed004edb3fe856e04c442b8ae95695caca0a7be343fa852840760209081526040808320938352929052206001015490565b610b4e6040805160c08101825260008082526020820181905291810182905260608101829052608081018290529060a082015290565b61087884848460006121fa565b610b63611893565b807f243df89714896ed004edb3fe856e04c442b8ae95695caca0a7be343fa85284005b805473ffffffffffffffffffffffffffffffffffffffff19166001600160a01b039290921691909117905550565b610bbc611893565b610bc6600061233c565b565b6001600160a01b03831660009081527f243df89714896ed004edb3fe856e04c442b8ae95695caca0a7be343fa852840460209081526040808320805482518185028101850190935280835260609493610c5993929190830182828015610c4d57602002820191906000526020600020905b815481526020019060010190808311610c39575b505050505085856123ba565b915091505b935093915050565b6000610c738484846125a5565b905080610cac576040517f26f4f9d900000000000000000000000000000000000000000000000000000000815260040160405180910390fd5b50505050565b6000610cbd826126b7565b9050600281602001516003811115610cd757610cd7613a19565b03610ceb578051610ce790611ea0565b5050565b600181602001516003811115610d0357610d03613a19565b03610d13578051610ce790611ee3565b600381602001516003811115610d2b57610d2b613a19565b036107ed57604051633fe4f64f60e01b815260040160405180910390fd5b60607f243df89714896ed004edb3fe856e04c442b8ae95695caca0a7be343fa8528400600201805480602002602001604051908101604052809291908181526020016000905b82821015610e7d576000848152602090206040805161012081019091526008840290910180546001600160a01b0390811660608401908152600183015482166080850152600283015490911660a084015260038083015460c0850152600483015460e08501526005830154849291849161010085019160ff90911690811115610e1a57610e1a613a19565b6003811115610e2b57610e2b613a19565b9052508152600682015460209091019060ff166003811115610e4f57610e4f613a19565b6003811115610e6057610e60613a19565b815260200160078201548152505081526020019060010190610d8f565b50505050905090565b6000610ec66040518060400160405280600481526020017f7764656c0000000000000000000000000000000000000000000000000000000081525061293a565b905090565b7f243df89714896ed004edb3fe856e04c442b8ae95695caca0a7be343fa85284028054604080516020808402820181019092528281526000937f243df89714896ed004edb3fe856e04c442b8ae95695caca0a7be343fa8528400938593849084015b8282101561101b576000848152602090206040805161012081019091526008840290910180546001600160a01b0390811660608401908152600183015482166080850152600283015490911660a084015260038083015460c0850152600483015460e08501526005830154849291849161010085019160ff90911690811115610fb857610fb8613a19565b6003811115610fc957610fc9613a19565b9052508152600682015460209091019060ff166003811115610fed57610fed613a19565b6003811115610ffe57610ffe613a19565b815260200160078201548152505081526020019060010190610f2d565b50505050905081600501548151036110365760009250505090565b60008183600501548151811061104e5761104e613e6e565b60200260200101519050600081604001514210159050600082604001516000141590506000856005015485511190508280156110875750815b80156110905750805b965050505050505090565b6110a48161202a565b6110c157604051631a0a9b9f60e21b815260040160405180910390fd5b3460006110cc610e86565b90506110d6610e86565b6001600160a01b031663d0e30db0836040518263ffffffff1660e01b81526004016000604051808303818588803b15801561111057600080fd5b505af1158015611124573d6000803e3d6000fd5b505050505060006040518060c00160405280856001600160a01b03168152602001336001600160a01b03168152602001836001600160a01b03168152602001848152602001600081526020016001600381111561118357611183613a19565b90529050610cac81612175565b60007f243df89714896ed004edb3fe856e04c442b8ae95695caca0a7be343fa85284005b546001600160a01b0316919050565b6111cc8361202a565b6111e957604051631a0a9b9f60e21b815260040160405180910390fd5b6111f16120b9565b6040517f9ed4fa5a0000000000000000000000000000000000000000000000000000000081526001600160a01b0384811660048301529190911690639ed4fa5a90602401602060405180830381865afa158015611252573d6000803e3d6000fd5b505050506040513d601f19601f820116820180604052508101906112769190613ef9565b6112ac576040517fc1ab6dc100000000000000000000000000000000000000000000000000000000815260040160405180910390fd5b6112c16001600160a01b0383163330846120f9565b60006040518060c00160405280856001600160a01b03168152602001336001600160a01b03168152602001846001600160a01b03168152602001838152602001600081526020016001600381111561118357611183613a19565b611323611893565b600061132d6129e4565b90506113398383612a0c565b826001600160a01b0316816001600160a01b03167f2e4cc16c100f0b55e2df82ab0b1a7e294aa9cbd01b48fbaf622683fbc0507a4960405160405180910390a3505050565b6001600160a01b03811660009081527f243df89714896ed004edb3fe856e04c442b8ae95695caca0a7be343fa85284046020908152604080832080548251818502810185019093528083527f243df89714896ed004edb3fe856e04c442b8ae95695caca0a7be343fa8528400949383018282801561141b57602002820191906000526020600020905b815481526020019060010190808311611407575b505050505090506000805b825181101561151b57600084600101600085848151811061144957611449613e6e565b6020908102919091018101518252818101929092526040908101600020815160c08101835281546001600160a01b0390811682526001830154811694820194909452600282015490931691830191909152600380820154606084015260048201546080840152600582015460a084019160ff909116908111156114ce576114ce613a19565b60038111156114df576114df613a19565b81525050905060006114f9826000015183604001516121a5565b9050801561150657600193505b506115149050600182613ed3565b9050611426565b5080610cac57604051634c3215c360e11b815260040160405180910390fd5b60006115498484846001612a62565b7f243df89714896ed004edb3fe856e04c442b8ae95695caca0a7be343fa8528402805460405192935090917f5270432af753e1fad4ee5b57adab1346943d92819db1f011e836717cded43e5f916115a291859190613f1b565b60405180910390a18054600180820183556000838152602090819020855180516008909502909101805473ffffffffffffffffffffffffffffffffffffffff199081166001600160a01b039687161782559282015181850180548516918716919091179055604082015160028201805490941695169490941790915560608101516003808501919091556080820151600485015560a0820151600585018054889695869460ff1990921691849081111561165e5761165e613a19565b02179055505050602082015160068201805460ff1916600183600381111561168857611688613a19565b02179055506040820151816007015550505050505050565b6116a8611893565b6001600160a01b0381166116f0576040517f1e4fbdf7000000000000000000000000000000000000000000000000000000008152600060048201526024015b60405180910390fd5b6105798161233c565b6117028161202a565b61171f57604051631a0a9b9f60e21b815260040160405180910390fd5b600061172e8585856002612a62565b7f243df89714896ed004edb3fe856e04c442b8ae95695caca0a7be343fa8528402805460405192935090917f71c08af8a16d12009234d409e83acfb9777a45c0e230179ec6d8203622049b8f91611789918591908790613f38565b60405180910390a181516001600160a01b038085169091528154600181810184556000848152602090819020865180516008909502909101805494861673ffffffffffffffffffffffffffffffffffffffff1995861617815591810151828401805491871691861691909117905560408101516002830180549190961694169390931790935560608201516003808501919091556080830151600485015560a083015160058501805488969594869460ff1990921691849081111561185057611850613a19565b02179055505050602082015160068201805460ff1916600183600381111561187a5761187a613a19565b0217905550604082015181600701555050505050505050565b336118c57f9016d09d72d40fdae2fd8ceac6b6234c7706214fd39c1cd1e609a0528c199300546001600160a01b031690565b6001600160a01b031614610bc6576040517f118cdaa70000000000000000000000000000000000000000000000000000000081523360048201526024016116e7565b6060815167ffffffffffffffff81111561192357611923613d2c565b60405190808252806020026020018201604052801561198a57816020015b6119776040805160c08101825260008082526020820181905291810182905260608101829052608081018290529060a082015290565b8152602001906001900390816119415790505b50905060005b8251811015611aa35760008382815181106119ad576119ad613e6e565b602002602001015190506119de7f243df89714896ed004edb3fe856e04c442b8ae95695caca0a7be343fa852840090565b600082815260019182016020908152604091829020825160c08101845281546001600160a01b03908116825294820154851692810192909252600281015490931691810191909152600380830154606083015260048301546080830152600583015491929160a084019160ff90911690811115611a5d57611a5d613a19565b6003811115611a6e57611a6e613a19565b81525050838381518110611a8457611a84613e6e565b6020026020010181905250508080611a9b90613f66565b915050611990565b50919050565b6060611ab3612acd565b6040517f6dd6f5d10000000000000000000000000000000000000000000000000000000081526001600160a01b0384811660048301529190911690636dd6f5d190602401600060405180830381865afa158015611b14573d6000803e3d6000fd5b505050506040513d6000823e601f3d908101601f191682016040526106699190810190613f9e565b60408051610120810182526000606082018181526080830182905260a0830182905260c0830182905260e083018290526101008301829052825260208201819052918101919091527f243df89714896ed004edb3fe856e04c442b8ae95695caca0a7be343fa8528405547f243df89714896ed004edb3fe856e04c442b8ae95695caca0a7be343fa8528402547f243df89714896ed004edb3fe856e04c442b8ae95695caca0a7be343fa8528400919081811015611c25576040517f9f45bf2d00000000000000000000000000000000000000000000000000000000815260040160405180910390fd5b60408051610120810182526000606082018181526080830182905260a0830182905260c0830182905260e083018290526101008301829052825260208201819052918101919091525b611c79600183613ee6565b8311611deb57836002018381548110611c9457611c94613e6e565b6000918252602090912060408051610120810190915260089092020180546001600160a01b0390811660608401908152600183015482166080850152600283015490911660a084015260038083015460c0850152600483015460e08501526005830154849291849161010085019160ff90911690811115611d1757611d17613a19565b6003811115611d2857611d28613a19565b9052508152600682015460209091019060ff166003811115611d4c57611d4c613a19565b6003811115611d5d57611d5d613a19565b8152600791909101546020909101529050600381602001516003811115611d8657611d86613a19565b14611dd9576003846002018481548110611da257611da2613e6e565b60009182526020909120600660089092020101805460ff19166001836003811115611dcf57611dcf613a19565b0217905550611deb565b611de4600184613ed3565b9250611c6e565b6000600382602001516003811115611e0557611e05613a19565b14158015611e295750600082602001516003811115611e2657611e26613a19565b14155b905080611e62576040517f9f45bf2d00000000000000000000000000000000000000000000000000000000815260040160405180910390fd5b611e6f8260400151612b0d565b6005850154611e7e9085613ee6565b856005016000828254611e919190613ed3565b90915550919695505050505050565b611ea981612175565b7f72dd96b2d4a3fbcb74b7c23021334cc0972733a1319897f15060bc75140cf91781604051611ed89190613bf4565b60405180910390a150565b611eeb612b50565b611ef3610e86565b6001600160a01b031681604001516001600160a01b031603611fbf57611f17610e86565b6001600160a01b0316632e1a7d4d82606001516040518263ffffffff1660e01b8152600401611f4891815260200190565b600060405180830381600087803b158015611f6257600080fd5b505af1158015611f76573d6000803e3d6000fd5b505050602082015160608301516040516001600160a01b03909216925080156108fc02916000818181858888f19350505050158015611fb9573d6000803e3d6000fd5b50611fe9565b611fe98160200151826060015183604001516001600160a01b0316612b939092919063ffffffff16565b7f28dafdf5b503ceabf61aabf35f4a86330c6882dee105d4e073a300fdff8a8991816040516120189190613bf4565b60405180910390a16105796001600055565b6000612034612acd565b6040517f9f8a13d70000000000000000000000000000000000000000000000000000000081526001600160a01b0384811660048301529190911690639f8a13d790602401602060405180830381865afa158015612095573d6000803e3d6000fd5b505050506040513d601f19601f820116820180604052508101906106699190613ef9565b6000610ec66040518060400160405280600c81526020017f746f6b656e2d63656e746572000000000000000000000000000000000000000081525061293a565b6040516001600160a01b038481166024830152838116604483015260648201839052610cac9186918216906323b872dd906084015b604051602081830303815290604052915060e01b6020820180517bffffffffffffffffffffffffffffffffffffffffffffffffffffffff8381831617835250505050612bc4565b612187816000015182604001516121a5565b5061219b81600001513383604001516125a5565b5061057981612c40565b600061087b83836000612f14565b60408051606083901b6bffffffffffffffffffffffff1916602080830191909152600060348084018290528451808503909101815260549093019093528151910120610669565b6122306040805160c08101825260008082526020820181905291810182905260608101829052608081018290529060a082015290565b60408051606087811b6bffffffffffffffffffffffff1990811660208085019190915288831b821660348501529187901b166048830152605c80830186905283518084039091018152607c830180855281519183019190912060008181527f243df89714896ed004edb3fe856e04c442b8ae95695caca0a7be343fa85284019093529184902061013c840190945283546001600160a01b03908116825260018501548116609c85015260028501541660bc84015260038085015460dc850152600485015460fc850152600585015492949193919261011c9092019160ff169081111561231e5761231e613a19565b600381111561232f5761232f613a19565b9052509695505050505050565b7f9016d09d72d40fdae2fd8ceac6b6234c7706214fd39c1cd1e609a0528c199300805473ffffffffffffffffffffffffffffffffffffffff1981166001600160a01b03848116918217845560405192169182907f8be0079c531659141344cd1fd0a4f28419497f9722a3daafe3b4186f6b6457e090600090a3505050565b60606000845183106123ce57508351610c5e565b60008386516123dd9190613ee6565b9050808511156123eb578094505b8467ffffffffffffffff81111561240457612404613d2c565b60405190808252806020026020018201604052801561246b57816020015b6124586040805160c08101825260008082526020820181905291810182905260608101829052608081018290529060a082015290565b8152602001906001900390816124225790505b50925060005b8581101561258c576000876124868784613ed3565b8151811061249657612496613e6e565b602002602001015190506124c77f243df89714896ed004edb3fe856e04c442b8ae95695caca0a7be343fa852840090565b600082815260019182016020908152604091829020825160c08101845281546001600160a01b03908116825294820154851692810192909252600281015490931691810191909152600380830154606083015260048301546080830152600583015491929160a084019160ff9091169081111561254657612546613a19565b600381111561255757612557613a19565b8152505085838151811061256d5761256d613e6e565b602002602001018190525050808061258490613f66565b915050612471565b50826125988686613ed3565b9250925050935093915050565b6000806125b385858561081f565b905060006125c086611aa9565b5160008381527f243df89714896ed004edb3fe856e04c442b8ae95695caca0a7be343fa852840360205260408120600101549192507f243df89714896ed004edb3fe856e04c442b8ae95695caca0a7be343fa8528400916126219084613ee6565b90508015806126525750600084815260038301602052604081205460ff16600181111561265057612650613a19565b145b8061266e57506000848152600183016020526040902060030154155b1561268057600094505050505061087b565b60005b818110156126a85761269689898961066f565b6126a1600182613ed3565b9050612683565b50600198975050505050505050565b60408051610120810182526000606082018181526080830182905260a0830182905260c0830182905260e083018290526101008301829052825260208201819052918101919091527f243df89714896ed004edb3fe856e04c442b8ae95695caca0a7be343fa8528405547f243df89714896ed004edb3fe856e04c442b8ae95695caca0a7be343fa852840090831180159061276557604051633fe4f64f60e01b815260040160405180910390fd5b600282015460009061277990600190613ee6565b8511905080156127b5576040517fc47913bb00000000000000000000000000000000000000000000000000000000815260040160405180910390fd5b60008360020186815481106127cc576127cc613e6e565b6000918252602090912060408051610120810190915260089092020180546001600160a01b0390811660608401908152600183015482166080850152600283015490911660a084015260038083015460c0850152600483015460e08501526005830154849291849161010085019160ff9091169081111561284f5761284f613a19565b600381111561286057612860613a19565b9052508152600682015460209091019060ff16600381111561288457612884613a19565b600381111561289557612895613a19565b815260200160078201548152505090506128b28160400151612b0d565b6003816020015160038111156128ca576128ca613a19565b036128e857604051633fe4f64f60e01b815260040160405180910390fd5b60038460020187815481106128ff576128ff613e6e565b60009182526020909120600660089092020101805460ff1916600183600381111561292c5761292c613a19565b021790555095945050505050565b7f243df89714896ed004edb3fe856e04c442b8ae95695caca0a7be343fa8528400546040517fbf40fac10000000000000000000000000000000000000000000000000000000081526000916001600160a01b03169063bf40fac1906129a390859060040161407c565b602060405180830381865afa1580156129c0573d6000803e3d6000fd5b505050506040513d601f19601f8201168201806040525081019061066991906140af565b60007f360894a13ba1a3210667c828492db98dca3e2076cc3735a920a3ca505d382bbc6111b4565b612a15826131db565b6040516001600160a01b038316907fbc7cd75a20ee27fd9adebab32041f755214dbc6bffa90cc0225b39da2e5c2d3b90600090a2805115612a5a57610aba8282613251565b610ce76132be565b60408051610120810182526000606082018181526080830182905260a0830182905260c0830182905260e08301829052610100830182905282526020820181905291810191909152612ab58533866125a5565b50612ac48585600086866132f6565b95945050505050565b6000610ec66040518060400160405280601081526020017f6d61737465722d76616c696461746f720000000000000000000000000000000081525061293a565b42811180612b19575080155b15610579576040517f2d50c33b00000000000000000000000000000000000000000000000000000000815260040160405180910390fd5b600260005403612b8c576040517f3ee5aeb500000000000000000000000000000000000000000000000000000000815260040160405180910390fd5b6002600055565b6040516001600160a01b03838116602483015260448201839052610aba91859182169063a9059cbb9060640161212e565b6000612bd96001600160a01b03841683613685565b90508051600014158015612bfe575080806020019051810190612bfc9190613ef9565b155b15610aba576040517f5274afe70000000000000000000000000000000000000000000000000000000081526001600160a01b03841660048201526024016116e7565b7f243df89714896ed004edb3fe856e04c442b8ae95695caca0a7be343fa85284006000612c6c83613693565b90506001600082815260038401602052604090205460ff166001811115612c9557612c95613a19565b14612e0d576000612ca98460000151611aa9565b516000838152600185810160209081526040928390208851815473ffffffffffffffffffffffffffffffffffffffff199081166001600160a01b03928316178355928a01518285018054851691831691909117905593890151600282018054909316941693909317905560608701516003808401919091556080880151600484015560a088015160058401805495965089959193909260ff19909216918490811115612d5757612d57613a19565b0217905550505060008281526003840160208181526040808420805460ff19166001908117825589840180516001600160a01b03908116885260048b0180875285892054848a526002808701808a52888c20929092558e5184168b52828952878b2054908b52908852868a20558a89529686529282019790975589518216865293835281852080548086018255908652838620018790559451909416835292822080549182018155825291902001819055612e3b565b6060830151600082815260018401602052604081206003018054909190612e35908490613ed3565b90915550505b6000612e91846040015185608001516040516bffffffffffffffffffffffff19606084901b1660208201526034810182905260009060540160405160208183030381529060405280519060200120905092915050565b606085015185516001600160a01b031660009081526007860160209081526040808320858452909152812060010180549394509192612ed1908490613ed3565b90915550506040517fd0af0406ed6d6057879d2fa05f418b086578b5469a6582563eaec850460e9b0390612f06908690613bf4565b60405180910390a150505050565b60007f243df89714896ed004edb3fe856e04c442b8ae95695caca0a7be343fa852840081612f4186611aa9565b90506000612f4e866121b3565b6001600160a01b0388166000908152600785016020908152604080832084845290915290205483519192509081148015612f905760009550505050505061087b565b6001600160a01b038916600090815260078601602090815260408083208684529091529020600101545b845183101561319a578015613188576000858481518110612fdd57612fdd613e6e565b602002602001015161ffff169050600060648284612ffb9190613e9a565b6130059190613eb1565b905061300f610e86565b6001600160a01b03168b6001600160a01b0316036130c25761302f610e86565b6040517fa9059cbb00000000000000000000000000000000000000000000000000000000815260006004820152602481018390526001600160a01b03919091169063a9059cbb906044016020604051808303816000875af1158015613098573d6000803e3d6000fd5b505050506040513d601f19601f820116820180604052508101906130bc9190613ef9565b50613136565b6040517f42966c68000000000000000000000000000000000000000000000000000000008152600481018290526001600160a01b038c16906342966c6890602401600060405180830381600087803b15801561311d57600080fd5b505af1158015613131573d6000803e3d6000fd5b505050505b6131408184613ee6565b92507fe36cfa2553894acb94ae0b3452ca38513eedcb2a435bc6fff8f39d8ed42c705e8c8c60016000898760405161317d969594939291906140cc565b60405180910390a150505b613193600184613ed3565b9250612fba565b6001600160a01b038a166000908152600790960160209081526040808820958852949052929094206001808201939093559251909255925050509392505050565b806001600160a01b03163b60000361322a576040517f4c9c8ce30000000000000000000000000000000000000000000000000000000081526001600160a01b03821660048201526024016116e7565b807f360894a13ba1a3210667c828492db98dca3e2076cc3735a920a3ca505d382bbc610b86565b6060600080846001600160a01b03168460405161326e9190614110565b600060405180830381855af49150503d80600081146132a9576040519150601f19603f3d011682016040523d82523d6000602084013e6132ae565b606091505b5091509150612ac48583836136fe565b3415610bc6576040517fb398979f00000000000000000000000000000000000000000000000000000000815260040160405180910390fd5b60408051610120810182526000606082018181526080830182905260a0830182905260c0830182905260e08301829052610100830182905282526020820181905291810191909152613349868686612f14565b5060408051606088811b6bffffffffffffffffffffffff1990811660208085019190915233831b821660348501529189901b166048830152605c80830188905283518084039091018152607c830180855281519183019190912060008181527f243df89714896ed004edb3fe856e04c442b8ae95695caca0a7be343fa852840384528581207f243df89714896ed004edb3fe856e04c442b8ae95695caca0a7be343fa852840190945285812061013c860190965285546001600160a01b03908116845260018701548116609c87015260028701541660bc86015260038087015460dc870152600487015460fc87015260058701547f243df89714896ed004edb3fe856e04c442b8ae95695caca0a7be343fa85284009793969294939261011c019160ff9091169081111561347f5761347f613a19565b600381111561349057613490613a19565b905250905060006134e38a8a6040516bffffffffffffffffffffffff19606084901b1660208201526034810182905260009060540160405160208183030381529060405280519060200120905092915050565b6001600160a01b038c1660009081526007870160209081526040808320848452909152902060010154606084015191925089111590891180159080613526575081155b1561355d576040517f2c5211c600000000000000000000000000000000000000000000000000000000815260040160405180910390fd5b6000868152600188016020526040812060030180548c9290613580908490613ee6565b90915550506001600160a01b038d1660009081526007880160209081526040808320868452909152812060010180548c92906135bd908490613ee6565b9091555050600086815260018801602052604090206003015415801561362657855460ff1916865560016000818152600288016020526040902054613603913390613773565b6136266002878101906000908152602001908152602001600020548f6002613773565b60006136318b61057c565b61363b9042613ed3565b90508b86606001818152505060405180606001604052808781526020018c600381111561366a5761366a613a19565b8152602001919091529e9d5050505050505050505050505050565b606061087b838360006138ce565b8051602080830151604080850151608086015182516bffffffffffffffffffffffff19606097881b81168288015294871b851660348201529190951b9092166048830152605c8083019490945280518083039094018452607c90910190528151910120600090610669565b6060826137135761370e82613984565b61087b565b815115801561372a57506001600160a01b0384163b155b1561376c576040517f9996b3150000000000000000000000000000000000000000000000000000000081526001600160a01b03851660048201526024016116e7565b508061087b565b6001600160a01b03821660009081527f243df89714896ed004edb3fe856e04c442b8ae95695caca0a7be343fa85284046020526040812080547f243df89714896ed004edb3fe856e04c442b8ae95695caca0a7be343fa852840092906137db90600190613ee6565b8254908714915060018082149160009185916137f79190613ee6565b8154811061380757613807613e6e565b906000526020600020015490506000828061381f5750835b9050848054806138315761383161412c565b60019003818190600052602060002001600090559055801561385857505050505050505050565b600082815260038701602052604081208a916002918201918a9081111561388157613881613a19565b600281111561389257613892613a19565b81526020019081526020016000208190555081858a815481106138b7576138b7613e6e565b600091825260209091200155505050505050505050565b60608147101561390c576040517fcd7860590000000000000000000000000000000000000000000000000000000081523060048201526024016116e7565b600080856001600160a01b031684866040516139289190614110565b60006040518083038185875af1925050503d8060008114613965576040519150601f19603f3d011682016040523d82523d6000602084013e61396a565b606091505b509150915061397a8683836136fe565b9695505050505050565b8051156139945780518082602001fd5b6040517f1425ea4200000000000000000000000000000000000000000000000000000000815260040160405180910390fd5b6001600160a01b038116811461057957600080fd5b6000602082840312156139ed57600080fd5b813561087b816139c6565b600060208284031215613a0a57600080fd5b81356004811061087b57600080fd5b634e487b7160e01b600052602160045260246000fd5b6004811061057957634e487b7160e01b600052602160045260246000fd5b6001600160a01b0380825116835280602083015116602084015280604083015116604084015250606081015160608301526080810151608083015260a0810151613a9681613a2f565b8060a0840152505050565b600081518084526020808501945080840160005b83811015613adb57613ac8878351613a4d565b60c0969096019590820190600101613ab5565b509495945050505050565b60208152600061087b6020830184613aa1565b600080600060608486031215613b0e57600080fd5b8335613b19816139c6565b92506020840135613b29816139c6565b91506040840135613b39816139c6565b809150509250925092565b600080600080600080600060e0888a031215613b5f57600080fd5b8735613b6a816139c6565b96506020880135613b7a816139c6565b95506040880135945060608801359350608088013560ff81168114613b9e57600080fd5b9699959850939692959460a0840135945060c09093013592915050565b60008060408385031215613bce57600080fd5b8235613bd9816139c6565b91506020830135613be9816139c6565b809150509250929050565b60c081016106698284613a4d565b600080600060608486031215613c1757600080fd5b8335613c22816139c6565b95602085013595506040909401359392505050565b604081526000613c4a6040830185613aa1565b90508260208301529392505050565b600060208284031215613c6b57600080fd5b5035919050565b613c7d828251613a4d565b6020810151613c8b81613a2f565b60c08301526040015160e090910152565b6020808252825182820181905260009190848201906040850190845b81811015613cdf57613ccb838551613c72565b928401926101009290920191600101613cb8565b50909695505050505050565b600080600060608486031215613d0057600080fd5b8335613d0b816139c6565b92506020840135613d1b816139c6565b929592945050506040919091013590565b634e487b7160e01b600052604160045260246000fd5b604051601f8201601f1916810167ffffffffffffffff81118282101715613d6b57613d6b613d2c565b604052919050565b60008060408385031215613d8657600080fd5b8235613d91816139c6565b915060208381013567ffffffffffffffff80821115613daf57600080fd5b818601915086601f830112613dc357600080fd5b813581811115613dd557613dd5613d2c565b613de784601f19601f84011601613d42565b91508082528784828501011115613dfd57600080fd5b80848401858401376000848284010152508093505050509250929050565b60008060008060808587031215613e3157600080fd5b8435613e3c816139c6565b93506020850135613e4c816139c6565b9250604085013591506060850135613e63816139c6565b939692955090935050565b634e487b7160e01b600052603260045260246000fd5b634e487b7160e01b600052601160045260246000fd5b808202811582820484141761066957610669613e84565b600082613ece57634e487b7160e01b600052601260045260246000fd5b500490565b8082018082111561066957610669613e84565b8181038181111561066957610669613e84565b600060208284031215613f0b57600080fd5b8151801515811461087b57600080fd5b6101208101613f2a8285613c72565b826101008301529392505050565b6101408101613f478286613c72565b836101008301526001600160a01b038316610120830152949350505050565b60007fffffffffffffffffffffffffffffffffffffffffffffffffffffffffffffffff8203613f9757613f97613e84565b5060010190565b60006020808385031215613fb157600080fd5b825167ffffffffffffffff80821115613fc957600080fd5b818501915085601f830112613fdd57600080fd5b815181811115613fef57613fef613d2c565b8060051b9150614000848301613d42565b818152918301840191848101908884111561401a57600080fd5b938501935b8385101561404c578451925061ffff8316831461403c5760008081fd5b828252938501939085019061401f565b98975050505050505050565b60005b8381101561407357818101518382015260200161405b565b50506000910152565b602081526000825180602084015261409b816040850160208701614058565b601f01601f19169190910160400192915050565b6000602082840312156140c157600080fd5b815161087b816139c6565b6001600160a01b0387811682528616602082015260c081016140ed86613a2f565b8560408301528460608301528360808301528260a0830152979650505050505050565b60008251614122818460208701614058565b9190910192915050565b634e487b7160e01b600052603160045260246000fdfea2646970667358221220a79208c613f37c1b81f76fff67926e88765160be6b09b0ba6b87c82efdfc6f3d64736f6c63430008140033",
  "linkReferences": {},
  "deployedLinkReferences": {}
}